:100000000C948F170C94B4170C94B4170C94B41769
:100010000C94B4170C94B4170C94B4170C94B41734
:100020000C94B4170C94B4170C945C190C94B4177A
:100030000C94B4170C94B4170C94B4170C94B41714
:100040000C94B4170C94B4170C94B4170C94B41704
:100050000C94B4170C94B4170C94B4170C94B417F4
:100060000C94B4170C94B4170C94B4170C94B417E4
:100070000C94B4170C94B4170C94B4170C94B417D4
:100080000C94B4170C94B4170C94BC300C9408392D
:100090000C94B4170C94B4170C94B4170C94B417B4
:1000A0000C94B4170C94B4170C94B4170C94B417A4
:1000B0000C94B4170C94B4170C94B4170C948A31A4
:1000C0000C94B4170C9405350C94733A0C94B41733
:1000D0000C94B4170C94B4170C94B4170C94B41774
:1000E0000C94B4170C94B4170C94B4170C94B41764
:1000F0000C94B4170C94B4170C94B4170C94B41754
:100100000C94B4170C94B4170C94B4170C94B41743
:100110000C944E3A0C94E2340C94B4170C94B4172B
:100120000C94B4170C94B4170C94B4170C94B41723
:100130000C94B4170C94B4170C94B4170C94F230BC
:100140000C94B5170C9401340C9432390C94B417F8
:100150000C94B4170C945B340C94403B0C94B4177F
:100160000C94B4170C94B4170C94B4170C94B417E3
:100170000C94B4170C94B4170C94B4170C94B417D3
:100180000C94B4170C94B4170C94B4170C94B417C3
:100190000C94B4170C94B4170C94B4170C94B417B3
:1001A0000C94B4170C94B4170C94B4170C94B417A3
:1001B0000C94B4170C94B4170C94B4170C94B41793
:1001C0000C94B4170C94B4170C94B4170C94B41783
:1001D0000C94B4170C94B4170C94B4170C94B41773
:1001E0000C94B4170C94B4170C94B4170C94B41763
:1001F0000C94B4170C94ABA20C94B4176364696E9E
:100200006F70737578585B003403430068006100B9
:100210006D0065006C0065006F006E002D004D00E4
:1002200069006E0069002D0044004500530046003F
:100230006900720065004D006F0064000000380323
:100240004B00610073007000650072002000260002
:1002500020004F007300770061006C0064002000F4
:1002600047006D0062004800200028005200650031
:1002700076004700290000000403090409023E003B
:10028000020100C03209040000010202010005243D
:10029000001001042402060524060001070582035C
:1002A0000800FF09040100020A000000070504021B
:1002B000100005070583021000051201100102005D
:1002C0000008D016B20401000102DC01041A0F1A62
:1002D0000E1A0D1A0C1A0B1A0A1A051A081A091AFC
:1002E000000000014832BC32DB32EA3D063E0A3EE5
:1002F0000A1A0B3E59416C41400007004832BC329B
:10030000DB32FE3D063E0A3E0A1A0B3E59416C4165
:10031000500007004832BC32DB32023E063E0A3E45
:100320000A1A0B3E59416C41A40007004832BC3206
:10033000DB32AC41E841EC410A1AED41F648144980
:10034000000404004832BC32DB32BB41E841EC41DE
:100350000A1AED41F6481449000407004832BC323D
:10036000DB32CA41E841EC410A1AED41F648144932
:10037000001004004832BC32DB32D941E841EC4184
:100380000A1AED41F6481449001007004832BC3201
:10039000DB32646BFB69076AFF69EF6A916B936BF1
:1003A000001007004832BC32DB32796BFB69076A08
:1003B000FF69EF6A916B936B000807004832BC320B
:1003C000DB32816BFB69076AFF69EF6A916B936BA4
:1003D000001007004832BC32DB32896BFB69076AC8
:1003E000FF69EF6A916B936B00200700F83BB13C0B
:1003F000D23C7D608B60906091609360081A091A0E
:10040000000000016D33EF33A035C758CA58D758E4
:10041000D858995B081A091A00000000004E4F4E88
:100420004500000000000000000000000000000087
:1004300000000000000000000000000000014D4628
:100440005F554C5452414C4947485400000000004D
:100450000000000000000000000000000000024D4D
:10046000465F554C5452414C494748545F455631BC
:100470005F38304200000000000000000000000370
:100480004D465F554C5452414C494748545F455680
:10049000315F3136344200000000000000000000EF
:1004A000044D465F434C41535349435F314B000079
:1004B000000000000000000000000000000000003C
:1004C00000054D465F434C41535349435F314B5FF9
:1004D00037420000000000000000000000000000A3
:1004E0000000064D465F434C41535349435F344B34
:1004F00000000000000000000000000000000000FC
:10050000000000074D465F434C41535349435F345D
:100510004B5F3742000000000000000000000000B8
:1005200000000000084D465F4445534649524500CF
:1005300000000000000000000000000000000000BB
:100540000000000000094D465F44455346495245AE
:100550005F4556315F324B00000000000000000094
:100560000000000000000A4D465F444553464952D2
:10057000455F4556315F344B00000000000000002D
:10058000000000000000000B4D465F444553464903
:1005900052455F4556315F384B00000000000000B7
:1005A00000000000000000000C49534F3134343487
:1005B00033415F534E4946460000000000000000F2
:1005C0000000000000000000000D49534F3134349A
:1005D0003433415F52454144455200000000000061
:1005E0000000000000000000000001000001000108
:1005F00001000001010001000001000101000100F3
:1006000000010100000100010100000101000100E2
:1006100000010100000100010100010000010001D2
:1006200001000001010001000001000101000100C2
:1006300000010100000100010100010000010001B2
:1006400001000001010001000001010000010001A2
:100650000100000101000100000100010100010092
:100660000001010000010001010000010100010082
:100670000001010000010001010001000001000172
:100680000100000101000100000101000001000162
:100690000100000101000100000100010100010052
:1006A0000001010000010001010001000001000142
:1006B0000100000101000100000100010100010032
:1006C0000001010000010001010000010100010022
:1006D0000001010000010001010001000001000112
:1006E00001000001010001000001008040C020A0C5
:1006F00060E0109050D030B070F0088848C828A84A
:1007000068E8189858D838B878F8048444C424A401
:1007100064E4149454D434B474F40C8C4CCC2CACE9
:100720006CEC1C9C5CDC3CBC7CFC028242C222A2C5
:1007300062E2129252D232B272F20A8A4ACA2AAAE9
:100740006AEA1A9A5ADA3ABA7AFA068646C626A6A1
:1007500066E6169656D636B676F60E8E4ECE2EAE89
:100760006EEE1E9E5EDE3EBE7EFE018141C121A177
:1007700061E1119151D131B171F1098949C929A9B9
:1007800069E9199959D939B979F9058545C525A571
:1007900065E5159555D535B575F50D8D4DCD2DAD59
:1007A0006DED1D9D5DDD3DBD7DFD038343C323A335
:1007B00063E3139353D333B373F30B8B4BCB2BAB59
:1007C0006BEB1B9B5BDB3BBB7BFB078747C727A711
:1007D00067E7179757D737B777F70F8F4FCF2FAFF9
:1007E0006FEF1F9F5FDF3FBF7FFF44465F50505258
:1007F000494E545F504943432046756C6C496D61C6
:10080000676500434C4F4E4500004E4F4E4500007B
:1008100000000000000000000000000000000000D8
:1008200000000000000000000000015549445F5234
:10083000414E444F4D000000000000000000000049
:100840000000000000000000000000025549445F65
:100850004C4546545F494E4352454D454E54000069
:1008600000000000000000000000000003554944A3
:100870005F52494748545F494E4352454D454E5497
:1008800000000000000000000000000000045549C6
:10089000445F4C4546545F44454352454D454E5494
:1008A00000000000000000000000000000000555EE
:1008B00049445F52494748545F44454352454D457A
:1008C0004E54000000000000000000000000000680
:1008D0004359434C455F53455454494E47530000D8
:1008E0000000000000000000000000000000000008
:1008F0000753544F52455F4D454D00000000000026
:1009000000000000000000000000000000000000E7
:100910000008524543414C4C5F4D454D00000000DE
:1009200000000000000000000000000000000000C7
:10093000000009544F47474C455F4649454C440029
:1009400000000000000000000000000000000000A7
:100950000000000A53544F52455F4C4F47000000BF
:100960000000000000000000000000000000000087
:10097000000000000B434C4F4E45000000000000FB
:100980000000000000000000000000000000000067
:1009900000000000000C5052494E545F5354415423
:1009A0004500000000000000000000000000000002
:1009B000000000000000004F46460000000000005C
:1009C0000000000000000000000000000000000027
:1009D00000000000000000014D454D4F525900003D
:1009E0000000000000000000000000000000000007
:1009F0000000000000000000024C495645000000C5
:100A000000000000000000000000000000000000E6
:100A1000000000000000000000004E4F4E450000A6
:100A200000000000000000000000000000000000C6
:100A30000000000000000000000001504F57455228
:100A4000454400000000000000000000000000001D
:100A50000000000000000000000000025445524D5C
:100A6000494E414C5F434F4E4E00000000000000D5
:100A70000000000000000000000000000354455288
:100A80004D494E414C5F5258545800000000000040
:100A900000000000000000000000000000045345BA
:100AA0005454494E475F4348414E474500000000BB
:100AB0000000000000000000000000000000054DE4
:100AC000454D4F52595F53544F524544000000006A
:100AD0000000000000000000000000000000000610
:100AE0004D454D4F52595F4348414E4745440000E4
:100AF00000000000000000000000000000000000F6
:100B000008434F4445435F52580000000000000076
:100B100000000000000000000000000000000000D5
:100B20000009434F4445435F545800000000000053
:100B300000000000000000000000000000000000B5
:100B40000000074649454C445F44455445435445DD
:100B50004400000000000000000000000000000051
:100B60000000000A4C4F474D454D5F46554C4C0028
:100B70000000000000000000000000000000000075
:100B80000000000025632C25630025356400416EBC
:100B90007920696E74656765722066726F6D2030AA
:100BA00020746F2025752E205265666572656E6310
:100BB0006520766F6C746167652077696C6C206264
:100BC000652028564343202A205448524553484F15
:100BD0004C44202F203430393529206D562E0025E5
:100BE00075002535640030203D206E6F2074696DDE
:100BF000656F75740D0A312D363030203D2031304F
:100C000030206D73202D203630303030206D732031
:100C100074696D656F7574002575206D73002534DA
:100C20002E345800253575206D5600257520286610
:100C3000726F6D207768696368202575206E6F6E0E
:100C40002D766F6C6174696C6529002575002575BA
:100C50000025632C2563004E4F205549442E004348
:100C600068616D656C656F6E4D696E692052657661
:100C7000472077697468204445534669726520733C
:100C80007461636B20737570706F727420255320CC
:100C90007573696E67204C55464120255320636F5C
:100CA0006D70696C65642077697468204156522DB7
:100CB0004743432025532E20536F75726365733A63
:100CC0002068747470733A2F2F6769746875622E88
:100CD000636F6D2F6D6178696564732F4368616D13
:100CE000656C656F6E4D696E694669726D7761728C
:100CF0006544455346697265537461636B0A4C6F72
:100D0000676765723A202068747470733A2F2F6792
:100D100069746875622E636F6D2F6D6178696564A3
:100D2000732F4368616D656C656F6E4D696E694CBC
:100D300069766544656275676765722E003230308A
:100D40003932320031353131313500392E332E30E0
:100D50000032666534333534000D0A000D0A000D8B
:100D60000A000D0A000D0A000D0A00643130303A05
:100D70004F4B0000000000000000000000000000D9
:100D8000000000000000000000000000653130316C
:100D90003A4F4B20574954482054455854000000BE
:100DA000000000000000000000000000006E313173
:100DB000303A57414954494E4720464F5220584DEA
:100DC0004F44454D00000000000000000000C83204
:100DD00030303A554E4B4E4F574E20434F4D4D41BC
:100DE0004E4400000000000000000000000000C9A8
:100DF0003230313A494E56414C494420434F4D4DD3
:100E0000414E44205553414745000000000000007A
:100E1000CA3230323A494E56414C49442050415230
:100E2000414D455445520000000000000000000004
:100E300000783132303A46414C5345000000000002
:100E400000000000000000000000000000000000A2
:100E50000000793132313A5452554500000000000B
:100E60000000000000000000000000000000000082
:100E7000000000CB3230333A54494D454F555400B1
:100E80000000000000000000000000000000000062
:100E90000000000056455253494F4E00000000002C
:100EA000000000000000000000005E26434F4E4698
:100EB00049470000000000000000000000000000A2
:100EC00086268026554944000000000000000000EE
:100ED0000000000000000000F026B1265245414409
:100EE0004F4E4C59000000000000000000000000C0
:100EF00046273A2755504C4F41440000000000005F
:100F0000000000007327000000000000444F574E0F
:100F10004C4F414400000000000000007827000012
:100F2000000000005245534554000000000000003E
:100F3000000000007D2700000000000055504752CF
:100F40004144450000000000000000008827000028
:100F5000000000004D454D53495A45000000000077
:100F60000000000000000000000093275549445392
:100F7000495A450000000000000000000000000089
:100F80000000AB2752425554544F4E000000000061
:100F90000000000000000000C927C127524255543C
:100FA000544F4E5F4C4F4E470000000000000000C1
:100FB000E927E1274C425554544F4E0000000000F1
:100FC0000000000000000000092801284C42555490
:100FD000544F4E5F4C4F4E47000000000000000091
:100FE000292821284C4544475245454E0000000021
:100FF0000000000000000000482841284C454452F1
:101000004544000000000000000000000000000057
:1010100065285E284C4F474D4F44450000000000B6
:10102000000000000000000080287B284C4F474D46
:10103000454D00000000000000000000000000001E
:10104000000095284C4F47444F574E4C4F414400A9
:1010500000000000B9280000000000004C4F47537A
:10106000544F52450000000000000000BE28000060
:10107000000000004C4F47434C4541520000000027
:1010800000000000C1280000000000005345545437
:10109000494E470000000000000000000000000072
:1010A000C928C428434C45415200000000000000FC
:1010B00000000000D12800000000000053544F52EF
:1010C000450000000000000000000000D5280000DE
:1010D00000000000524543414C4C0000000000005D
:1010E00000000000D92800000000000043484152E1
:1010F00047494E47000000000000000000000000CB
:101100000000DD2848454C500000000000000000B1
:1011100000000000E3280000000000005253534983
:1011200000000000000000000000000000000000BF
:10113000000020295359535449434B00000000003C
:1011400000000000000000000000602953454E44EC
:101150005F52415700000000000000000000062A16
:101160000000000053454E44000000000000000055
:101170000000000000007C29000000004745545595
:10118000494400000000000000000000C42A0000E4
:101190000000000044554D505F4D465500000000D2
:1011A00000000000A72A0000000000004944454E4E
:1011B000544946590000000000000000E12A0000E8
:1011C0000000000054494D454F55540000000000F8
:1011D00000000000000000001E2BFE2A544852456B
:1011E00053484F4C44000000000000000000000085
:1011F0008B2B712B4155544F43414C494252415422
:10120000450000001A2C0000000000004649454C33
:10121000440000000000000000000000000000008A
:10122000E02B0A2C434C4F4E45000000000000000C
:1012300000000000462C00000000000044465F5300
:101240004554484452000000000000000000000027
:101250000273EC7244465F505052494E545F5049FD
:101260004343000000008C730000000044465F46CA
:1012700057494E464F00000000000000F97300007F
:101280000000000044465F4C4F474D4F444500006E
:1012900000000000000000007674177444465F549C
:1012A0004553544D4F44450000000000000000002D
:1012B0000475FC7400000000000000000000000045
:1012C000000000000000000000000000000800080E
:1012D00000000000000000080008080808080800D6
:1012E00008000800000008080008080800800080C6
:1012F000000000000000008000808080808080006E
:10130000800080000000808000808080000100015B
:1013100000000000000000010001010101010100C6
:1013200001000100000001010001010100000000B6
:1013300000000000000000000000000001010101A9
:10134000010101010101010101010101010101018D
:10135000010101010101010101010101010101017D
:101360000101010101010101010101010000000071
:10137000000000000000000000000000000000006D
:10138000000000000000000000000000000000005D
:101390000000000000000000000000000101010149
:1013A0000101010101010101010101010000000031
:1013B000000000000000000000000000000000002D
:1013C0000000000000000000000000000101010119
:1013D0000101010101010101010101010000000001
:1013E00000000000000000000000000001010101F9
:1013F00001010101010101010101010101010101DD
:1014000001010101010101010101010100000000D0
:1014100000000000000000000000000001010101C8
:1014200001010101010101010101010100000002AE
:10143000020000020002020202000002000000029C
:10144000020000020002020202000002000000028C
:10145000020000020002020202000002040404066C
:10146000060404060406060606040406040404062C
:10147000060404060406060606040406000000022C
:10148000020000020002020202000002000000024C
:10149000020000020002020202000002040404062C
:1014A00006040406040606060604040600000002FC
:1014B000020000020002020202000002040404060C
:1014C00006040406040606060604040604040406CC
:1014D00006040406040606060604040604040406BC
:1014E00006040406040606060604040604040406AC
:1014F00006040406040606060604040600000002AC
:1015000002000002000202020200000200000002CB
:1015100002000002000202020200000204040406AB
:101520000604040604060606060404060008080865
:10153000000000080000080008080008000808086B
:10154000000000080000080008080008000808085B
:10155000000000080000080008080008101818180B
:10156000101010181010181018181018101818183B
:10157000101010181010181018181018000808086B
:10158000000000080000080008080008000808081B
:1015900000000008000008000808000810181818CB
:1015A000101010181010181018181018000808083B
:1015B00000000008000008000808000810181818AB
:1015C00010101018101018101818101810181818DB
:1015D00010101018101018101818101810181818CB
:1015E00010101018101018101818101810181818BB
:1015F00010101018101018101818101800080808EB
:10160000000000080000080008080008000808089A
:10161000000000080000080008080008101818184A
:1016200010101018101018101818101853414B3AB9
:1016300009005549443A0900415451413A090054BE
:1016400068657265206973206174206C65617374CC
:10165000206F6E65206D6F72652063617264207407
:101660007970652063616E6469646174652C2062C1
:10167000757420746865726520776173206E6F746D
:1016800020656E6F756768207465726D696E616C38
:10169000206275666665722073706163652E0D0A3F
:1016A000000D0A0004000109010000000000000014
:1016B00000000000000000000000004E5850000034
:1016C00000000000000000000000004D49464152AB
:1016D00045204D696E690000000000000000000018
:1016E00000000000000000000000000000000000FA
:1016F00000000000000000000000000000000000EA
:1017000000000000000000000000000400010801CB
:1017100000000000000000000000000000000000C9
:1017200000004E58500000000000000000000000C3
:1017300000004D494641524520436C617373696313
:1017400020316B00000000000000000000000000DD
:101750000000000000000000000000000000000089
:101760000000000000000000000000000000000079
:10177000000002000118010000000000000000004D
:101780000000000000000000004E58500000000063
:101790000000000000000000004D49464152452075
:1017A000436C617373696320346B000000000000B8
:1017B0000000000000000000000000000000000029
:1017C0000000000000000000000000000000000019
:1017D00000000000000000000044000100010000C3
:1017E00000000000000000000000000000000000F9
:1017F0004E585000000000000000000000000000F3
:101800004D494641524520556C7472616C69676858
:101810007400000000000000000000000000000054
:1018200000000000000000000000000000000000B8
:1018300000000000000000000000000000000000A8
:101840004400010001000000000000000000000052
:10185000000000000000004E585000000000000092
:10186000000000000000004D494641524520556CE3
:101870007472616C696768742043000000000000A6
:101880000000000000000000000000000000000058
:101890000000000000000000000000000000000048
:1018A00000000000000000440001000000000000F3
:1018B00000000000000000000000000000004E5882
:1018C00050000000000000000000000000004D4932
:1018D0004641524520556C7472616C69676874208A
:1018E000455631000000000000000000000000002C
:1018F00000000000000000000000000000000000E8
:101900000000000000000000000000000000440390
:1019100001200175778102800000000000000000B6
:1019200000000005004E58500000000000000000BC
:1019300000000000004D49464152452044455346B1
:101940006972650000000000000000000000000057
:101950000000000000000000000000000000000087
:101960000000000000000000000000000000000077
:10197000000000000044030120017577810280000F
:101980000000000000000000000005004E5850005C
:101990000000000000000000000000004D4946412A
:1019A0005245204445534669726520455631000032
:1019B0000000000000000000000000000000000027
:1019C0000000000000000000000000000000000017
:1019D00000000000000000000000000004030128D7
:1019E000013877B14A434F50333100000000000006
:1019F00000090149424D0000000000000000000005
:101A00000000004A434F5033310000000000000046
:101A100000000000000000000000000000000000C6
:101A200000000000000000000000000000000000B6
:101A300000000000000000000000000000000000A6
:101A400000000048000120017877B1024A434F505E
:101A500076323431000000000C0149424D00000094
:101A6000000000000000000000004A434F503331E6
:101A70002076322E342E31000000000000000000DD
:101A80000000000000000000000000000000000056
:101A90000000000000000000000000000000000046
:101AA0000000000000000000000048000120013894
:101AB00033B14A434F503431563232000000000CEB
:101AC0000149424D0000000000000000000000003D
:101AD000004A434F5034312076322E32000000004D
:101AE00000000000000000000000000000000000F6
:101AF00000000000000000000000000000000000E6
:101B000000000000000000000000000000000000D5
:101B10000004000128013833B14A434F5034315694
:101B20003233310000000D0149424D000000000039
:101B300000000000000000004A434F50343120767E
:101B4000322E332E310000000000000000000000A3
:101B50000000000000000000000000000000000085
:101B60000000000000000000000000000000000075
:101B700000000000000000000400018801000000D7
:101B8000000000000000000000000000000000490C
:101B90006E66696E656F6E00000000000000004D0B
:101BA000494641524520436C617373696320316B30
:101BB0000000000000000000000000000000000025
:101BC0000000000000000000000000000000000015
:101BD0000000000000000000000000000000000203
:101BE000000198010000000000000000000000005B
:101BF00000000000000047656D706C757300000008
:101C00000000000000004D50434F53000000000052
:101C100000000000000000000000000000000000C4
:101C200000000000000000000000000000000000B4
:101C300000000000000000000000000000000000A4
:101C4000000000000000000C010000000000000087
:101C500000000000000000000000000000496E6E5F
:101C60006F766973696F6E2052265400004A65775B
:101C7000656C000000000000000000000000000093
:101C80000000000000000000000000000000000054
:101C90000000000000000000000000000000000044
:101CA0000000000000000000000000000002000131
:101CB00038010000000000000000000000000000EB
:101CC000000000004E6F6B69610000000000000022
:101CD000000000004D494641524520436C6173733A
:101CE000696320346B202D20656D756C61746564AB
:101CF00020283632313220436C61737369632900C6
:101D000000000000000000000000000000000000D3
:101D10000000000008000138010000000000000081
:101D200000000000000000000000004E6F6B6961C1
:101D300000000000000000000000004D4946415234
:101D40004520436C617373696320346B202D2065DB
:101D50006D756C61746564202836313331204E46D0
:101D60004329000000000000000000000000000007
:101D70000000000000000000000000E4D12FB83A8D
:101D80006C59070F74E2D1A6CB953841E8D62BFCED
:101D9000973A50FC8249175B3EA06DF18E6B3497E9
:101DA0002DC05A3D47F28EC01A69B50E7BA4D1589A
:101DB000C6932FD8A13F42B67C05E9A09E63F51DCE
:101DC000C7B428D709346A285ECBF1D6498F30B121
:101DD0002C5AE71AD069874FE3B52C7DE3069A1297
:101DE00085BC4FD8B56F03472C1AE9A690CB7DF17F
:101DF0003E52843F06A1D8945BC72E2C417AB6850B
:101E00003FD0E9EB2C47D150FA3986421BAD78F927
:101E1000C5630EB8C71E2D6F09A453C1AF92680DDC
:101E200034E75BAF427C9561DE0B389EF528C370CA
:101E30004A1DB6432C95FABE17608D4B2EF08D3C93
:101E4000975A61D0B7491AE35C2F8614BDC37EAFA1
:101E50006805926BD814A7950FE23CD2846FB1A9A4
:101E60003E50C71FD8A374C56B0E927B419CE206FF
:101E7000ADF35821E74A8DFC90356B000102040850
:101E8000102040801B3652096AD53036A538BF4035
:101E9000A39E81F3D7FB7CE339829B2FFF87348E8F
:101EA0004344C4DEE9CB547B9432A6C2233DEE4CBE
:101EB000950B42FAC34E082EA16628D924B2765B50
:101EC000A2496D8BD12572F8F66486689816D4A461
:101ED0005CCC5D65B6926C704850FDEDB9DA5E156C
:101EE0004657A78D9D8490D8AB008CBCD30AF7E4ED
:101EF0005805B8B34506D02C1E8FCA3F0F02C1AF9C
:101F0000BD0301138A6B3A9111414F67DCEA97F2E6
:101F1000CFCEF0B4E67396AC7422E7AD3585E2F926
:101F200037E81C75DF6E47F11A711D29C5896FB737
:101F3000620EAA18BE1BFC563E4BC6D279209ADB15
:101F4000C0FE78CD5AF41FDDA8338807C731B1121F
:101F500010592780EC5F60517FA919B54A0D2DE516
:101F60007A9F93C99CEFA0E03B4DAE2AF5B0C8EB39
:101F7000BB3C83539961172B047EBA77D626E1695F
:101F8000146355210C7D637C777BF26B6FC5300148
:101F9000672BFED7AB76CA82C97DFA5947F0ADD41C
:101FA000A2AF9CA472C0B7FD9326363FF7CC34A5F0
:101FB000E5F171D8311504C723C31896059A0712A5
:101FC00080E2EB27B27509832C1A1B6E5AA0523B94
:101FD000D6B329E32F8453D100ED20FCB15B6ACB4B
:101FE000BE394A4C58CFD0EFAAFB434D338545F953
:101FF000027F503C9FA851A3408F929D38F5BCB6FC
:10200000DA2110FFF3D2CD0C13EC5F974417C4A76D
:102010007E3D645D197360814FDC222A908846EE14
:10202000B814DE5E0BDBE0323A0A4906245CC2D308
:10203000AC629195E479E7C8376D8DD54EA96C56A1
:10204000F4EA657AAE08BA78252E1CA6B4C6E8DD97
:10205000741F4BBD8B8A703EB5664803F60E613522
:1020600057B986C11D9EE1F8981169D98E949B1EBF
:1020700087E9CE5528DF8CA1890DBFE642684199DA
:102080002D0FB054BB164F46460046414C534500F9
:1020900030004F4E00545255450031002531357304
:1020A000002573203C4F4E7C4F46467C564552429D
:1020B0004F53457C444542554747494E473E0044AF
:1020C0004542554747494E4700564552424F5345B2
:1020D000004F46460046414C53450030004F4E00ED
:1020E00054525545003100253135730025730025C4
:1020F00073002573002573004368616D656C656F1F
:102100006E2D4D696E6920444553466972652065A0
:102110006E61626C6564206669726D7761726520BC
:102120006275696C74206F6E20257320626173651F
:1021300064206F6E2025732066726F6D200D0A6813
:10214000747470733A2F2F6769746875622E636FA9
:102150006D2F6D6178696564732F4368616D656C7F
:10216000656F6E4D696E694669726D77617265441F
:10217000455346697265537461636B2E6769742EAB
:102180000D0A5265766973696F6E3A2025730D0AE0
:10219000002573203C46756C6C496D6167657C4811
:1021A0006561646572446174617C4C6973744469EF
:1021B00072733E004C6973744469727300486561C0
:1021C000646572446174610046756C6C496D616749
:1021D0006500253331730050726F64756374696FE5
:1021E0006E446174650042617463684E756D62652A
:1021F0007200536F66747761726556657273696FAA
:102200006E00486172647761726556657273696FBA
:102210006E00253234732025313273002573203C43
:10222000486172647761726556657273696F6E2D6D
:10223000327C536F66747761726556657273696F2D
:102240006E2D327C42617463684E756D6265722DCD
:10225000357C50726F64756374696F6E4461746528
:102260002D323E203C48657842797465732D4E3E90
:102270000050544558542D44454641554C54004354
:10228000544558542D4145533132382D434D414327
:102290000043544558542D44455300505445585418
:1022A0002D4D4143004445530041455331323800E0
:1022B000334B3344455300324B544445410043486B
:1022C000470052572F00572F00522F0049534F31CC
:1022D000343434332D343A20554E4B2D434D442065
:1022E0004E4F5F524553500049534F3134343433CD
:1022F0002D333A20524553455420544F2049444CE5
:10230000450049534F31343434332D343A2041435E
:1023100054495645205245540049534F31343434C2
:10232000332D333A20476F742048414C54005244B7
:1023300059322C204E4F5420534C435420434D448B
:1023400000496E636F72726563742053656C6563D8
:10235000742076616C7565202852322900494E54EC
:102360004F20414354495645210049534F3134349D
:1023700034332D343A20524459312C204E4F5420BE
:10238000534C435420434D440049534F313434346B
:10239000332D343A2053656C656374204E414B00F5
:1023A00049534F31343434332D343A2053656C65FE
:1023B0006374204F4B0049534F31343434332D3440
:1023C000202849444C45293A204154514100495361
:1023D0004F31343434332D343A2049444C45202F86
:1023E000204E4F5420575550410049534F313434FB
:1023F00034332D343A2048414C54202F204E4F5432
:1024000020575550410049534F31343434332D3324
:102410003A2048414C54494E4700203D3E2000554B
:102420004E4B4E4F574E5F53544154450049534F06
:1024300031343434335F345F53544154455F414346
:10244000544956450049534F31343434335F345F77
:1024500053544154455F4558504543545F5241548D
:10246000530049534F31343434335F33415F535455
:102470004154455F48414C540049534F3134343442
:10248000335F33415F53544154455F414354495690
:10249000450049534F31343434335F33415F535433
:1024A0004154455F5245414459320049534F3134FC
:1024B0003434335F33415F53544154455F52454197
:1024C0004459310049534F31343434335F33415F21
:1024D00053544154455F49444C450049534F3134AE
:1024E0003434332D343A205354415348494E472015
:1024F000464F522052452D5452414E530049534F9E
:1025000031343434332D343A205043425F535F42E8
:102510004C4B204E4F5F524553500049534F31347E
:102520003434332D343A20532D424C4B00203D3E61
:102530002000554E4B4E4F574E5F5354415445006B
:1025400049534F31343434335F345F53544154452D
:102550005F4143544956450049534F313434343375
:102560005F345F53544154455F4558504543545F71
:10257000524154530049534F31343434335F334163
:102580005F53544154455F48414C540049534F31C7
:10259000343434335F33415F53544154455F4143D6
:1025A000544956450049534F31343434335F334135
:1025B0005F53544154455F52454144593200495399
:1025C0004F31343434335F33415F53544154455FAA
:1025D0005245414459310049534F31343434335F0B
:1025E00033415F53544154455F49444C450049537E
:1025F0004F31343434333450726F63657373426CCB
:102600006F636B3A2049534F31343434335F504356
:10261000425F525F424C4F434B202D2D20256400DA
:1026200049534F31343434332D343A20522D424CF7
:102630004B0049534F31343434333450726F636537
:102640007373426C6F636B3A2049534F31343434A7
:10265000335F5043425F525F424C4F434B202D2D1E
:102660002025640049534F31343434332D343A201B
:10267000492D424C4B0049534F31343434332D34BF
:102680003A204150505F4E4F5F52455350004953DE
:102690004F31343434333450726F63657373426C2A
:1026A0006F636B3A2049534F31343434335F5043B6
:1026B000425F495F424C4F434B202D2D2025640043
:1026C00049534F31343434333450726F636573730C
:1026D000426C6F636B3A2049534F31343434335F6B
:1026E0005043425F495F424C4F434B202D2D2025E4
:1026F000640049534F31343434332D343A204E453D
:102700005720434152442049440049534F31343407
:1027100034332D343A2053454E4420524154530013
:1027200049534F31343434332D343A204E4F5420F2
:10273000524154530049534F31343434332D343AD9
:1027400020435243206661696C3B20253034582079
:10275000767320253034580049534F3134343433A4
:102760002D343A206C656E677468206661696C0070
:10277000203D3E2000554E4B4E4F574E5F53544127
:1027800054450049534F31343434335F345F53542C
:102790004154455F4143544956450049534F3134F4
:1027A0003434335F345F53544154455F455850458A
:1027B00043545F524154530049534F3134343433FE
:1027C0005F33415F53544154455F48414C54004985
:1027D000534F31343434335F33415F5354415445A4
:1027E0005F4143544956450049534F3134343433E3
:1027F0005F33415F53544154455F52454144593220
:102800000049534F31343434335F33415F535441C3
:1028100054455F5245414459310049534F31343496
:1028200034335F33415F53544154455F49444C4511
:10283000004040204C494E452023256420696E20ED
:102840002A257320404000526561644461746146EA
:10285000696C655365747570202D2D204552524F5B
:10286000522100496E76616C69642066696C65204E
:1028700074797065203D20256440256400496E769A
:10288000616C69642066696C6520696E6465782096
:102890003D202564202F202564203B20666F722078
:1028A00046696C654E756D203D20256400404020D2
:1028B0004C494E452023256420696E202A2573202B
:1028C00040400050494343206B6579207365747420
:1028D000696E6773202D2D2025303278004E4F54BD
:1028E00020494D504C454D454E5445443A202573A2
:1028F00021000ABE85172D1ABD88062DAA7D89F5EF
:102900002C710000DA2C770000BC2C549F87A82C77
:102910005C0000962CC4F0868B2C64AC867B2CCAA1
:102920005C93682CDAD492552C6AD187412C6EA521
:1029300085352C6D548A282C457186172C5AFA87B8
:10294000042CFC5285F82B603A85EC2B512E85DF48
:102950002B6F4888D22BF5D190C02B5F9188AB2B81
:10296000CDAE929A2BCB8892872BCC4492752BC1FB
:102970000D925B2BC0D291412BDF9791352B614893
:1029800088242BBD5A901A2B3D7A8F0F2B6C1D8FEC
:10299000052B0C958EFE2ADC018EF82A1C828DE90F
:1029A0002A3B988BDC2ABB7F8CCF2AEB668BBD2A17
:1029B000C7F88AAA2AA78A8A982AA45A8A892A84BE
:1029C000608A732A82668A552A886C8A372AB0728E
:1029D0008A232AD6788A0D2AB27E8AF829E2848A46
:1029E000E22949534F373831365F417070656E6464
:1029F0005F5265636F72640049534F373831365FF9
:102A0000526561645F5265636F7264730049534F2E
:102A1000373831365F5570646174655F42696E6145
:102A200072790049534F373831365F526561645FC0
:102A300042696E6172790049534F373831365F49C8
:102A40006E7465726E616C5F41757468656E7469F1
:102A5000636174650049534F373831365F45787488
:102A600065726E616C5F41757468656E74696361EF
:102A700074650049534F373831365F4765745F439B
:102A800068616C6C656E67650049534F3738313645
:102A90005F53656C6563740041626F72745F54725A
:102AA000616E73616374696F6E00436F6D6D6974FD
:102AB0005F5472616E73616374696F6E00436C651D
:102AC00061725F5265636F72645F46696C65005244
:102AD0006561645F5265636F7264730057726974F5
:102AE000655F5265636F7264004C696D69746564FB
:102AF0005F4372656469740044656269740043727F
:102B000065646974004765745F56616C756500574C
:102B1000726974655F4461746100526561645F4409
:102B2000617461004765745F49534F5F46696C6526
:102B30005F4944730044656C6574655F46696C6504
:102B4000004372656174655F4379636C69635F52CA
:102B500065636F72645F46696C650043726561749A
:102B6000655F4C696E6561725F5265636F72645F29
:102B700046696C65004372656174655F56616C758A
:102B8000655F46696C65004372656174655F4261AB
:102B9000636B75705F46696C65004372656174654F
:102BA0005F446174615F46696C65004368616E678C
:102BB000655F46696C655F53657474696E67730021
:102BC0004765745F46696C655F53657474696E67C9
:102BD00073004765745F46696C655F4944730047DD
:102BE00065745F436172645F554944004765745F73
:102BF00056657273696F6E00466F726D61745F50D7
:102C00004943430053656C6563745F4170706C6940
:102C1000636174696F6E004765745F4B65795F53DC
:102C2000657474696E6773004765745F44465F4EF0
:102C3000616D657300467265655F4D656D6F727994
:102C4000004765745F4170706C69636174696F6E91
:102C50005F4944730044656C6574655F4170706CD6
:102C600069636174696F6E004372656174655F4189
:102C700070706C69636174696F6E004765745F4B57
:102C800065795F56657273696F6E004368616E6740
:102C9000655F4B6579005365745F436F6E66696766
:102CA00075726174696F6E004368616E67655F4B32
:102CB00065795F53657474696E67730041757468F4
:102CC000656E7469636174655F4145535F45563253
:102CD0005F4E6F6E46697273740041757468656EFD
:102CE0007469636174655F4145535F4556325F4661
:102CF000697273740041757468656E746963617498
:102D0000655F4145530041757468656E7469636120
:102D100074655F49534F0041757468656E696361FE
:102D200074655F4C65676163790025733A2025738C
:102D30000057424220537461727420426C6F636B7F
:102D400020546F6F204C61726765202D2D20256403
:102D5000202D2D202564005242422053746172744C
:102D600020426C6F636B20546F6F204C61726765FB
:102D7000202D2D202564202D2D20256400437265F3
:102D80006174654170702072657475726E6564203F
:102D90002D2D2025640A00466163746F72792072BC
:102DA0006573657474696E67207468652064657600
:102DB00069636500466163746F727920726573653B
:102DC0007474696E672074686520646576696365EC
:102DD000002A2A2A2A204445534649524520494E72
:102DE0005445524E414C2053544F52414745202A9E
:102DF0002A2A2A0D0A002A2A2A2A2044455346490B
:102E00005245204845414445522044415441202ADE
:102E10002A2A2A0D0A0025733D3D204149442030CD
:102E2000782530327825303278253032780D0A0016
:102E300025735B4B657973202D2D20256420746FDD
:102E400074616C5D0D0A005D0D0A00202D2D20259A
:102E500030326400203A202530327800202D2D2099
:102E6000414D4B00203A202530327800202D2D2076
:102E7000504D4B0025732D3E202573205B76253069
:102E800032640025735B46696C6573202D2D202507
:102E90006420746F74616C5D0D0A0025732D3E20F3
:102EA000253032780D0A0025732D3E2025303278EA
:102EB000205B436F6D6D3D2573202D2D2025735DA7
:102EC0000D0A0025732844415445292025303278C5
:102ED0002F253032780D0A0025732842415443488B
:102EE000292025730D0A0025732856455253494F52
:102EF0004E292048573D253032782E253032782C07
:102F00002053573D253032782E253032780D0A0077
:102F1000257328554944292025730D0A00001124E2
:102F20001FBECFEFCDBFDFE3DEBF00E00CBF18BE9A
:102F300019BE1ABE1BBE13E2A0E0B0E2EAE4FCE553
:102F400001E00BBF02C007900D92A23EB107D9F776
:102F50001BBE2FE2A2EEB3E201C01D92A331B20765
:102F6000E1F746D00C9494A69EC10F9200240F93D3
:102F70002F933F934F935F930FB70F93EF93FF936D
:102F8000EAB1FBB15191442735B124B1569578F49B
:102F900000928C080092000806E10A95F1F700C043
:102FA00001E00093000803E000938C0804C00AE1EC
:102FB0000A95F1F700002150304019F40E9449347D
:102FC0000CC04F5F477011F4519102C000C000C0A7
:102FD0000AE00A95F1F700C0D9CFFF91EF910F9168
:102FE0000FBF5F914F913F912F910F910F901895C7
:102FF0007AD10E9474230E94132458D3109252064F
:1030000084E08093420682E680938601C1E0C0930B
:103010002606C093210686E080932206C0933106DF
:1030200012E01093320610922A0610922B068FE0BF
:103030008093290689E5809380019AE59093810128
:103040008093820180E480934106809346069091AC
:10305000B200907F9093B2009091B20092609093F2
:10306000B20090E3909341069093460680935006F9
:10307000C09346061093450603E00093410683E1A2
:103080008093010821E030E0209326083093270840
:10309000209328083093290810928C088093800888
:1030A0001092230310922103D8E0D093220381E1F0
:1030B00080932003E091ED23F091EE2382859385A8
:1030C00080933803909339038CE380938203D093E9
:1030D000800380938303D0938103D7D10E94C125BD
:1030E00042D2CFD6C0930002109201021093020286
:1030F00000930402C0932002D09321020E94EB218E
:103100007ED182E0E82E91E1F92E04E919E2809166
:10311000030481FF3AC08091010480FDFCCFE0925E
:1031200003040E94172452D20E94F425B2D6E091E3
:103130008429F091852919950E946F23E091ED2350
:10314000F091EE238481823071F48091E5238F5FCA
:103150008093E52363E00E945FADC091E923D091A5
:10316000EA239923F1F10E94322F0E944D25E0912C
:10317000ED23F091EE238781813011F4F092442405
:103180008681813011F4F0924324E0918229F091FC
:1031900083291995E0917C29F0917D2919950E9448
:1031A000E5200E94C525B3CF83E090E20E94BDA335
:1031B0001092582510925925109248246A8170E087
:1031C000888199810E94BB2583E090E20E94BDA383
:1031D0001092582510925925109248240B80DC81BA
:1031E000C02D209721F08091E6238111DDCF00933F
:1031F000922910939329E091E923F091EA233097E3
:1032000069F41092E7231092E8231092E9231092B8
:10321000EA231092E6231092E523A5CFD381C4813F
:1032200082812091902930919129820F932F911DB5
:103230008093902990939129CF010E9497A5ED2F1B
:10324000FC2FDDCF9C01DA01832F99278230910575
:1032500029F18330910549F0019791F482E190E0E2
:103260002AEB32E02D933C930895C9019927213030
:1032700061F08230910579F0E8E7F2E0892B39F0CE
:1032800090E080E030E020E0EDCFEEE3F2E08491EA
:1032900090E09F01E7CFE8E0F2E0F9CF8EE390E025
:1032A0002CE732E0DFCF0F920FB60F921F9211245E
:1032B00008B60F9218BEFFCF1F921FB61F9211249F
:1032C0008F9388B78F9318BE9F938EB19FB1805C08
:1032D0009F4F8EB99FB99F918F9188BF8F911F90FB
:1032E0001FBE1F9018958091780083FF0AC088E068
:1032F0008093780088ED84BF81E0809380000D94F6
:10330000FE008BEC80935200809150008860809387
:1033100050008091510083FFFCCF82EC80935500D8
:10332000809150008061809350008091510084FF13
:10333000FCCF88ED84BF84E0809340001EB81FB8A6
:1033400081E0809343002FE330E020930A04309320
:103350000B0420930C0430930D048093000480939D
:10336000020480E880930001089588ED84BF81E025
:1033700080937900089588ED84BF8BE1809380006D
:103380000895809150008260809350008091510098
:1033900081FFFCCF82E08093CA01EDE1F0E0E4918F
:1033A000E0936200ECE1F0E0E491E09363001092BE
:1033B000CA0180E8809365008BEB80936600809162
:1033C0005600897F809356008091560084608093D8
:1033D0005600809160008160809360000895E0E471
:1033E000F0E084818E7F8483E0E6F0E080818E7F50
:1033F0008083E0E5F0E080818D7F8083089587E021
:103400008093A20078940895089590E080E0089554
:1034100008950895089508950895089508950895C4
:10342000CF93C82FE0917A29F0917B2919950E94BA
:103430006A2FE091ED23F091EE23C58388E1C89FC8
:10344000B001112464537D4F48E150E088E799E2D0
:103450000E9496A6E0917829F09179291995E0913A
:103460007E29F0917F291995C05EE091ED23F091BE
:10347000EE238781843011F4C09344248681843004
:1034800011F4C0934324CF91089548E150E06CECCF
:1034900072E088E799E20E9496A6E091ED23F09110
:1034A000EE238581BDCF0F931F939C018B01E0918B
:1034B000ED23F091EE2345816EE08CE194E00E94D3
:1034C000EC241F910F910895CF93DF930F92CDB706
:1034D000DEB7AC019E012F5F3F4F6EE08CE194E0C0
:1034E0000E940525882329F089810F90DF91CF91D3
:1034F00008958FEFFACFFF920F931F93CF93DF932F
:103500000F92CDB7DEB78C019E012F5F3F4FAC010C
:103510006EE08CE194E00E940525F82E8823A1F04E
:1035200089817EDF980140E0F90180812F5F3F4F64
:10353000882319F04F5F4F31B9F7E091142AF091C9
:10354000152AB80181E119958F2D0F90DF91CF9148
:103550001F910F91FF900895AC019B016EE08CE1EB
:1035600094E00C942E252EB13FB1E0E0F4E04085CC
:1035700051858EB19FB160857185862B972BB0E008
:10358000A0E064E1880F991FAA1FBB1F6A95D1F7BD
:1035900088279927A07FBF71422B532B5D5F842B17
:1035A000952B0C9489A60C9486A608951F93CF930F
:1035B000DF93162F115020F4DF91CF911F910895C2
:1035C000EC010E9486A68993CE01F4CF0E9486A6C4
:1035D0000E9486A60E9486A60C9486A6CF93DF93AF
:1035E000FC0161507109DA01EA01C20FD31F50E0FA
:1035F00040E0AC17BD0729F0CB01841B950B029767
:1036000028F41082CA01DF91CF9108959D91392F3E
:1036100032953F70903A58F4305D30839F709A3005
:1036200040F4905D918332964E5F5F4FE2CF395CFC
:10363000F4CF995CF7CFCF93DF93DC01EB01FA0174
:1036400050E040E08081882331F09181992359F145
:103650004C175D0721F4CA01DF91CF91089520ED49
:10366000280F2A3020F02FEB280F2630E0F460EDF1
:10367000690F6A3020F02FEB290F2630A0F4282F95
:1036800030E0813458F42295207F913450F4962F05
:10369000292B2D934F5F5F4F3296D4CF275331099B
:1036A000F2CF9753F5CF50E040E0D5CFE0E6F6E01B
:1036B00080E1858382E0868388E085838AE1818357
:1036C000E0EAF9E01682178280EC858388E1848342
:1036D000E0E0F1E0128A8BE6838B148A158A20EAF7
:1036E000208F99E0918F128E148E158E168E84E0A5
:1036F000808B12A23CE633A314A215A210A611A639
:1037000012A624A795A716A680A308959A01452B73
:1037100009F449C040E14093660643E04093A009A4
:103720004091A10947FFFCCF4091A0097093A009E7
:103730004091A10947FFFCCF4091A0096093A009E7
:103740004091A10947FFFCCF4091A00941E040937F
:10375000120180931C0190931D012093140130935A
:1037600015011092220182EE93E28093280190933A
:103770002901209324013093250180911001806854
:1037800080931001809120018068809320018091B6
:10379000100187FDFCCF80E380931101809321010C
:1037A00080E18093650608959A01452B09F469C06C
:1037B00040E14093660646E04093A0094091A1098C
:1037C00047FFFCCF4091A00940E14093650600000F
:1037D00000004093660642E04093A0094091A10991
:1037E00047FFFCCF4091A0097093A0094091A10927
:1037F00047FFFCCF4091A0096093A0094091A10927
:1038000047FFFCCF4091A0091092120142EE53E213
:1038100040931C0150931D01209314013093150116
:1038200040E1409322018093280190932901209345
:10383000240130932501809110018068809310014C
:10384000809120018068809320018091100187FD84
:10385000FCCF80E3809311018093210180E180936C
:103860006506E091ED23F091EE238781863019F40F
:1038700081E1809344248681863019F481E180932C
:10388000432408958091010480FDFCCF82E0809361
:1038900003040895CF93DF93CDB7DEB76097CDBF14
:1038A000DEBFF0DF40E150E06FEF70E0CE01019647
:1038B0000E94FCA640E150E070E060E0CE0101967D
:1038C00073DF6096CDBFDEBFDF91CF910895E091A9
:1038D000ED23F091EE238781863019F490E19093E7
:1038E000442496819630A9F420E120934324853026
:1038F00041F483E180934424953019F483E180936B
:1039000043248091010480FDFCCF82E08093030476
:103910000895853089F7EDCFCF92DF92EF92FF9235
:103920000F931F936A017B01A901C11420E2D20603
:10393000E104F10408F069C070E060E000E010E22A
:1039400020E030E00C191D092E093F0940175107EE
:103950006207730708F48A0120E12093660626E0D7
:103960002093A0092091A10927FFFCCF2091A00955
:1039700020E120936506000000002093660622E007
:103980002093A0092091A10927FFFCCF2091A00935
:10399000D092A0092091A10927FFFCCF2091A00976
:1039A000C092A0092091A10927FFFCCF2091A00976
:1039B0001092120122EE33E220931C0130931D017C
:1039C000009314011093150120E1209322018093AC
:1039D00028019093290100932401109325018091DF
:1039E000100180688093100180912001806880938D
:1039F00020018091100187FDFCCF80E380931101AD
:103A00008093210180E18093650681E01F910F91F1
:103A1000FF90EF90DF90CF900895CF92DF92EF92DA
:103A2000FF920F931F936A017B01A901C11420E249
:103A3000D206E104F10408F061C070E060E000E04B
:103A400010E220E030E00C191D092E093F09401753
:103A500051076207730708F48A0120E12093660684
:103A600023E02093A0092091A10927FFFCCF2091FA
:103A7000A009D092A0092091A10927FFFCCF209195
:103A8000A009C092A0092091A10927FFFCCF209195
:103A9000A00921E02093120180931C0190931D0145
:103AA00000931401109315011092220182EE93E20B
:103AB00080932801909329010093240110932501FC
:103AC00080911001806880931001809120018068AE
:103AD000809320018091100187FDFCCF80E38093CB
:103AE00011018093210180E18093650681E01F919F
:103AF0000F91FF90EF90DF90CF90089580E0F7CF87
:103B00008091CF0187FDFCCF0895FADF8091CF012E
:103B100081FF0BC086E38093CA0188ED90E021E02D
:103B200030E0EBECF1E084BF20830895EF92FF9248
:103B30000F931F93CF93DF93EC01F62EE72E8A01AC
:103B40001092C201DDDFCE01800F911F26E048ED0B
:103B500050E061E070E0EBECF1E0C817D90741F408
:103B6000C801DF91CF911F910F91FF90EF900895C1
:103B7000C093C0013D2F3F713093C1012093CA0112
:103B800044BF6083AF2DBE2D3091C4013D9321967B
:103B9000FA2EEB2EE2CF2F923F924F925F926F92CE
:103BA0007F928F929F92AF92BF92CF92DF92EF92CD
:103BB000FF920F931F93CF93DF93EC01462E372E86
:103BC000542E652E8F71782EC81BD1099EDF98DF89
:103BD00083E38093CA011092C1011092C201052DA6
:103BE000162D88EDC82ED12C88248394912C2BEC93
:103BF000A22EBB24B39433E3232E01151105A9F49F
:103C0000852D962DDF91CF911F910F91FF90EF9011
:103C1000DF90CF90BF90AF909F908F907F906F90EC
:103C20005F904F903F902F9008957092C001E42CC8
:103C3000F32CF70181917F018093C4010150110998
:103C400021F07394F0E27F1212C0C093C0018D2F57
:103C50008F718093C10195E39093CA01C601F5016C
:103C600084BF8082A0964CDF2092CA01712C4E2C1A
:103C70003F2CC3CF1F93CF93DF93CDB7DEB7A09771
:103C8000CDBFDEBF873009F4EEC008F03DC0843000
:103C900009F4C3C088F4823009F475C0833009F494
:103CA00096C010E0813009F457C0A096CDBFDEBFAA
:103CB000DF91CF911F910895853009F0D2C0E09136
:103CC0008829F0918929CE010196199580918E2934
:103CD00041E0815008F444C04423D9F3282F30E058
:103CE000E1E0F0E0EC0FFD1FE20FF31F908141E0F7
:103CF000911140E061E070E06C0F7D1F260F371FCF
:103D00009150F9019083E5CF8A3009F4B0C090F466
:103D1000883009F4AAC0893041F6809100088130CA
:103D200009F0ACC080918C08833009F0A7C00E94D4
:103D30001730BBCF8B3009F49CC08C3009F0B5CF65
:103D40008AEE97E098C02FDCE1E0F0E0EC0FFD1F79
:103D5000E10FF11D80831F5F80918E29181798F362
:103D6000E0918A29F0918B29CE0101961995E09175
:103D7000142AF091152A40918E29BE016F5F7F4F62
:103D800083E1199592CF11E080918E29873009F057
:103D900010E0E0918829F0918929CE0101961995CA
:103DA00020918E29E1E0F0E0EC0FFD1FE10FF11D05
:103DB00091E01217A8F6992339F0808191E08F3FA6
:103DC00009F090E08F5F80831F5F3196F2CFE09122
:103DD0008829F0918929CE010196199580918E2923
:103DE00041E0815008F4BCCF4423D9F3282F30E0C0
:103DF000E1E0F0E0EC0FFD1FE20FF31F908141E0E6
:103E00009F3F09F040E061E070E06C0F7D1F260FDE
:103E1000371F9F5FF9019083E4CF11E080918E29D5
:103E2000873009F010E0E0918829F0918929CE01CE
:103E30000196199520918E29E1E0F0E0EC0FFD1F2D
:103E4000E10FF11D91E0121708F08ACF992331F0AC
:103E5000808191E0811190E0815080831F5F3196D5
:103E6000F2CFA3D422CF33DD20CF0CDD1ECFB0D3D1
:103E70001CCF83E098E00E94672E17CF0E94F22F9C
:103E800014CFE0E0F6E080E6828388E1868B858BC4
:103E90000895CF9380910806C82FC09586FD1DC058
:103EA0008091E4238A3070F48F5F8093E423C5FF10
:103EB00030C08091E3238A3008F58F5F8093E3233D
:103EC000CF9108958A3099F7E091ED23F091EE2398
:103ED0008181D0DE8091E423E7CF8C2F807639F783
:103EE0008091E42381508A3030F4E091ED23F09109
:103EF000EE238081BFDE1092E423D9CF8A3001F710
:103F0000E091ED23F091EE238381B4DE8091E323F1
:103F1000D4CFC076A9F68091E32381508A3030F463
:103F2000E091ED23F091EE238281A4DE1092E32351
:103F3000C7CFAC019B016DE089E098E08FC5E82F09
:103F4000F0E0E451FC4D63836787638F67A363AB45
:103F500067AFE55BFF4F608308950F931F939B014D
:103F60008A01E091ED23F091EE23E80FF11D4081ED
:103F70006DE089E098E030D51F910F9108950F937F
:103F80001F93CF93DF930F92CDB7DEB7082FAB010E
:103F90009E012F5F3F4F6DE089E098E036D5182FE6
:103FA000882319F06981802FCADF812F0F90DF915C
:103FB000CF911F910F91089508958F929F92AF9284
:103FC000BF92CF92DF92EF92FF920F931F93CF9306
:103FD000DF93882E962E072F142FCEB0DFB080915E
:103FE000080490910904A0909229B0909329E42E9E
:103FF000F12CA7014C5F5F4F2091902930919129BE
:104000002417350708F06BC0C091E923D091EA234B
:1040100084E9A81689E2B80649F5DF91CF911F918E
:104020000F91FF90EF90DF90CF90BF90AF909F9057
:104030008F90089583E090E20E94BDA310925825CE
:1040400010925925109248246A8170E088819981E4
:1040500092D583E090E20E94BDA310925825109261
:104060005925109248240B80DC81C02D209721F027
:104070008091E6238111DECF84E999E28093922931
:1040800090939329E091E923F091EA23309799F4F2
:104090001092E7231092E8231092E9231092EA236A
:1040A0001092E6231092E52384E999E28093922905
:1040B00090939329B2CFD381C4818281209190299A
:1040C00030919129820F932F911D80939029909385
:1040D0009129CF010E9497A5ED2FFC2FD7CFC82A99
:1040E000D92A85E090E00E9401A5EC01A882B9825E
:1040F00084E0810F8A831B821C82C5010196809314
:10410000922990939329F5018082E0919229F09170
:104110009329CF010196809392299093932910833C
:10412000E0919229F0919329CF01019680939229F1
:1041300090939329D082E0919229F0919329CF0115
:1041400001968093922990939329C082A701692DAB
:10415000702F80919229909193290E94E2A68091DC
:104160009229909193298E0D9F1D8093922990936F
:104170009329809190299091912904978E199F09F4
:1041800080939029909391298091E9239091EA233B
:10419000892B91F0E091E723F091E823309761F0CB
:1041A000C383D483C093E723D093E8238091E6238D
:1041B0008F5F8093E62331CFC093E723D093E8232A
:1041C000C093E923D093EA23F1CF08954F925F92F1
:1041D0006F927F928F929F92AF92BF92CF92DF9217
:1041E000EF92FF920F931F93CF93DF938C012A01DD
:1041F0003B01E901C0900020D0900120C601825807
:104200009F43AC0170E060E04416550666067706F1
:1042100008F073C022E0C21A20E4D20A530142011E
:104220008C0E9D1EA11CB11C84169506A606B70611
:1042300008F443C09C0124193509C81BD90B7E0121
:10424000E40CF51CE90199249394C601B0E0A0E0C8
:10425000B201481659066A067B0608F045C06E5F33
:104260007F4BA30192012C0F3D1F411D511D2817AB
:1042700039074A075B0728F5AE01C80147DA9920DC
:1042800051F0EC0EFD1EF801EE0DFF1DC00FD11F09
:10429000EC17FD0781F581E0DF91CF911F910F9120
:1042A000FF90EF90DF90CF90BF90AF909F908F9056
:1042B0007F906F905F904F900895F12CE12C912C9E
:1042C000C4CF5601A418B508A501C8011FDAA20180
:1042D0004C195D094C0F5D1F64E979E2C8018A0D34
:1042E0009B1D0E94E2A6CBCF6C197D096C56764DC2
:1042F000AE01C801F6CF1292CBCF80E0CDCFE4E97A
:10430000F9E2209190293091912984E19AE2821B6F
:10431000930BE817F90751F584E999E28093922904
:104320009093932980E890E080939029909391292D
:1043300082E090E4809300209093012042E050E0DE
:1043400060E070E480E090E22FDAE091ED23F091FC
:10435000EE2387818A3019F480E18093442486819A
:104360008A3019F480E18093432408951192D1CFCB
:10437000809190299091912990582091002030911E
:104380000120821B930B08958093F3238093FF23D6
:1043900080930B24809317248093232480932F24CD
:1043A00080933B24813069F0823081F0811108C014
:1043B0001092EB238CED9FE18093142A9093152AA1
:1043C00008958093EB2382E492E2F6CF1092EB23E0
:1043D0008DED9FE1F1CFCF93DF930F92CDB7DEB795
:1043E000E091ED23F091EE238481CEDF84E999E220
:1043F000809392299093932980E890E0809390296C
:104400009093912941E050E0BE016F5F7F4F80E0C3
:1044100090E08CDBE0919229F091932980E8DF0114
:104420001D928A95E9F789818823A1F042E050E046
:1044300060E070E480E090E269D9E091142AF091A4
:10444000152A40E070E060E08FEF19950F90DF9142
:10445000CF91089582E090E4809300209093012012
:1044600042E050E060E070E480E090E29DD981E0BD
:10447000898341E050E0BE016F5F7F4F80E090E0B4
:104480008ADBDBCF0F931F93CF93DF93CEB1DFB1E6
:10449000E0910804F091090420919029309191292C
:1044A000A42FB0E08D010C5F1F4F2017310708F4D7
:1044B0004DC0EC2BFD2B245031092A1B3B0B2093C4
:1044C000902930939129A0919229B09193299D012F
:1044D0002F5F3F4F20939229309393298C93A09183
:1044E0009229B0919329CD010196809392299093BE
:1044F00093294C93A0919229B0919329CD010196D3
:104500008093922990939329FC93A0919229B09142
:104510009329CD0101968093922990939329EC934E
:10452000415028F4DF91CF911F910F910895FB0125
:10453000A0919229B0919329CD010196809392295F
:104540009093932981918C93BF01EACF80E01CDF87
:10455000E091ED23F091EE2387818A3019F481E117
:104560008093442486818A30E9F681E18093432454
:10457000D9CF1F93CF93DF930F92CDB7DEB7AC01A6
:104580009E012F5F3F4F63E086EB99E03ED2182FEC
:10459000882311F08981F8DE812F0F90DF91CF9170
:1045A0001F9108950F931F939C018B01E091ED23C0
:1045B000F091EE23448163E086EB99E00DD21F91E8
:1045C0000F910895AC019B0163E086EB99E046C230
:1045D0000F931F93CF93DF9380919029909191290E
:1045E0008038910508F076C00091002010910120DC
:1045F000C0E0D0E8C01BD10B40E850E0481B590B8D
:10460000C417D507B0F1B80184E999E2CDD820915B
:10461000902930919129809100209091012080581B
:104620009F4F821B930B8093002090930120E4E91D
:10463000F9E284E19AE2821B930B8E179F07B9F48B
:1046400084E999E2809392299093932980E890E0FD
:10465000809390299093912942E050E060E070E4CB
:1046600080E090E2DF91CF911F910F919DC8119250
:10467000E4CF209779F1AE01B80184E999E294D8AA
:10468000A80140585F47BE016C56764D84E999E217
:104690000E94EBA610588091922990919329080FBF
:1046A000191F00939229109393298091902990913A
:1046B00091298C0F9D1F809390299093912980912F
:1046C000002090910120C80FD91FC0930020D093E3
:1046D0000120C2CFDF91CF911F910F91089580915A
:1046E000EB23811175CF089547E550E06CEE73E23E
:1046F00081E090E01BCA47E550E06CEE73E281E098
:1047000090E049CA0F931F93CF93DF93D82FCFEF39
:10471000C80F80E0C73008F043C00E946A2F809124
:10472000EC23C81769F1D3D8C093EC238CE0C89F61
:104730009001112421513C4D2093ED233093EE2321
:10474000A1D8E091ED23F091EE2385810E94101A0B
:10475000E091ED23F091EE23848116DE81E090E07C
:104760008C010C5E13426091EC230E94F3AD6091CA
:10477000ED237091EE23C80183519C4D0E94FCAD46
:10478000D15EE091ED23F091EE238781843011F426
:10479000D09344248681843011F4D093432481E063
:1047A000DF91CF911F910F9108959091EC2328E014
:1047B000E7E0F0E03CE0215009F40895892F90E013
:1047C0000196BF010E946BADBC01982F369FA001DE
:1047D000379F500D112444515C4DDA0118968C918D
:1047E000882349F381E0890F8DCFFC018091EC2370
:1047F0008F5C808311820895CF93DC0111968C9198
:10480000119781110DC0CC91E091142AF091152AD5
:1048100041E0BD0182E1199580ED8C0FCF9172CFFF
:1048200080E0CF91089588E18093010608958091FA
:104830004324823139F148F4803181F18131F1F042
:10484000882391F1109243242FC08331F9F090EE28
:10485000980F9830B8F79091452421E0290F9111D5
:1048600021C09091040693FF15C098E0909306062E
:10487000803241F381508093432416C088E08093B6
:104880000506E0CF88E080930706DCCF8091040620
:1048900083FD04C088E08093050606C088E080930D
:1048A0000606D0CF2093452480914424823131F1F3
:1048B00040F4803181F18131E9F08111109244247A
:1048C00008958331F9F090EE980F9830B8F79091F1
:1048D000462421E0290F911121C09091040694FFF4
:1048E00015C090E190930606803241F38150809389
:1048F0004424089580E180930506E0CF80E1809311
:104900000706DCCF8091040684FD04C080E180931B
:104910000506089580E180930606D0CF20934624B3
:104920000895AC019B016BE089E19AE097C0ECEE41
:10493000F3E220E434E2982F90718870911162873D
:10494000811161873C962E173F07C1F7992329F003
:1049500090E19093060610924424882329F088E081
:10496000809306061092432408950F931F939B0192
:104970008A01803161F4E091ED23F091EE234781CB
:104980006BE089E19AE028D01F910F91089588305B
:10499000D9F7E091ED23F091EE234681F1CF0F930B
:1049A0001F93CF93DF930F92CDB7DEB7082FAB01E4
:1049B0009E012F5F3F4F6BE089E19AE026D0182FD0
:1049C000882319F06981802FB2DF812F0F90DF914A
:1049D000CF911F910F9108950F931F93FC01742F96
:1049E000C901A801611102C080E00AC02491615090
:1049F000271309C0BF016F5F7F4F0E94C6A681E0E9
:104A00001F910F910895B196EDCFDF92EF92FF9233
:104A10000F931F93CF93DF93EC01162F042FD52E06
:104A20007901111102C080E00FC0BE016F5F7F4F9E
:104A3000802F9D2D0E94BDA61150892B69F4FE0187
:104A4000C491F701C08381E0DF91CF911F910F9155
:104A5000FF90EF90DF900895A196E3CFDA01A901CE
:104A600001963CE2611104C0452B09F01C920895A7
:104A7000FC012491211109C0623020F0411551053B
:104A8000B1F33D9361508196EDCF4115510579F316
:104A90002D93319641505109ECCFCF93DF9300D045
:104AA0000F92CDB7DEB780912002806880932002FC
:104AB0008091230280FFFCCF81E080932302A091AC
:104AC0001002B0911102E091ED23F091EE23AE5B64
:104AD000B109B7FF02C0B0E0A0E020E038EB4BE046
:104AE00050E00E94ACAD69837A838B839C8397816D
:104AF00086812B813C81243F3140C0F4973019F4EA
:104B000090E190934424873019F480E1809343240A
:104B100080918E298823A1F0E0918029F09181294C
:104B20002496CDBFDEBFDF91CF911994973019F451
:104B300091E190934424873019F481E180934324D8
:104B40002496CDBFDEBFDF91CF910895BC0183E0F5
:104B500090E20C9448A3CF93DF93EC01FE016491A3
:104B60002196611103C0DF91CF91089583E090E217
:104B70000E9492A3F3CFAB01BC0183E090E20C94BE
:104B80006CA380E2809362060895CF93DF938091B7
:104B90004724823031F583E090E20E94FDA30E9419
:104BA000F79E83E090E20E9418A4EC0197FD19C0E3
:104BB000E091ED23F091EE238781833019F483E1B6
:104BC000809344248681833019F483E180934324C5
:104BD0008C2FA5D6811105C08C2FDF91CF910C941D
:104BE000892EDF91CF91089580914724823021F161
:104BF00068F4811114C08091680685FF09C08FE1B7
:104C00008093022081E08093472402C08330E9F042
:104C100080914724823039F5D3D70C94322F80917C
:104C200002208150809302208111F2CF0E94C1198D
:104C30000E9475A282E0E7CF8091680685FDE8CFEB
:104C40008FE18093022083E0DECF809102208150AB
:104C5000809302208111DCCF0E943AA20E94EF19BA
:104C600010924724D5CF0895E091ED23F091EE23E3
:104C70008781823019F481E18093442486818230D7
:104C800019F481E1809343240895E091ED23F0919C
:104C9000EE238781823019F480E180934424868159
:104CA000823019F480E180934324089583E090E2F8
:104CB0000C9423A383E090E20C9468A421E53DE0EA
:104CC0003F932F932BE43DE03F932F9324E43DE06B
:104CD0003F932F932DE33DE03F932F932FE53CE04F
:104CE0003F932F9321E02F931F929F938F930E94C6
:104CF0004BA78DB79EB70E968DBF9EBF85E60895D4
:104D000060E071E00E94531A85E60895CF93DF9327
:104D1000EB0128812F3359F42981211108C060E06B
:104D200071E00E94AC1A85E6DF91CF910895CE0123
:104D30000E94641A882399F00E944A1CCE010E94A6
:104D40007B1AE091ED23F091EE23CF018F5F9F4F0F
:104D50006581875E93420E94F3AD84E6E5CF8AECDD
:104D6000E3CFEF92FF920F931F93CF93DF93CDB7D3
:104D7000DEB7A097CDBFDEBF8C0180918E29E82ED3
:104D8000F12C81111CC087E59CE09F938F9381E0FB
:104D90008F931F921F930F930E944BA70F900F901A
:104DA0000F900F900F900F9085E6A096CDBFDEBFBD
:104DB000DF91CF911F910F91FF90EF900895E091B7
:104DC0008829F0918929CE01019619959701AE01A4
:104DD0004F5F5F4F60E071E0C8010E94EE1AE4CFC0
:104DE000DF92EF92FF920F931F93CF93DF93CDB794
:104DF000DEB7A097CDBFDEBF7B01D0908E296EEBD2
:104E000072E2C7010E94BDA68E010F5F1F4F892B62
:104E100031F578018E2D801B8D15D8F0E0918A290F
:104E2000F0918B29C8011995E091142AF091152A67
:104E300040918E29B80183E1199584E6A096CDBFF3
:104E4000DEBFDF91CF911F910F91FF90EF90DF9028
:104E500008950E94D31AF70181937F01DBCFA70148
:104E600060E270E0C8010E941B1BD8161906B1F25F
:104E70008AECE4CFFC0180918F29882329F081E31B
:104E80008083118285E6089580E3FACFFB012181BA
:104E9000211127C02081213329F481E080938F29BB
:104EA00084E60895203319F410928F29F9CF2F3317
:104EB000C1F41F9220E32F931F9221E32F9321E54A
:104EC0003CE03F932F9321E02F931F929F938F936A
:104ED0000E944BA78DB79EB70A968DBF9EBF85E6F1
:104EE00008958AEC08958CE89CE1E7D48EE6089555
:104EF0008DE09DE1FED48EE60895E0ECF4E0818142
:104F00008E7F81830E943AA20E94B51984E608959B
:104F1000E0ECF4E081818E7F81830E943AA20E94BE
:104F2000BB1984E60895E8E7F9E225892F932489DF
:104F30002F932EE43CE03F932F9321E02F931F9279
:104F40009F938F930E944BA78DB79EB708968DBFF6
:104F50009EBF85E6089520918E291F922F932BE402
:104F60003CE03F932F9321E02F931F929F938F93C9
:104F70000E944BA78DB79EB708968DBF9EBF85E652
:104F80000895BC0140E051E080E00E94AD1F85E63D
:104F90000895FB0120812F3349F42181211106C09E
:104FA00060E071E00E94991F85E60895BF0180E0EE
:104FB0000E94BF1F882319F09EDB84E608958AECC7
:104FC0000895BC0140E051E081E00E94AD1F85E6FC
:104FD0000895FB0120812F3349F42181211106C05E
:104FE00060E071E00E94991F85E60895BF0181E0AD
:104FF0000E94BF1F882319F07EDB84E608958AECA7
:105000000895BC0140E051E082E00E94AD1F85E6BA
:105010000895FB0120812F3349F42181211106C01D
:1050200060E071E00E94991F85E60895BF0182E06B
:105030000E94BF1F882319F05EDB84E608958AEC86
:105040000895BC0140E051E083E00E94AD1F85E679
:105050000895FB0120812F3349F42181211106C0DD
:1050600060E071E00E94991F85E60895BF0183E02A
:105070000E94BF1F882319F03EDB84E608958AEC66
:105080000895BC0140E051E080E16FDC85E60895C1
:10509000FB0120812F3341F42181211105C060E003
:1050A00071E03FDC85E60895BF0180E178DC88236C
:1050B00019F021DB84E608958AEC0895BC0140E0F4
:1050C00051E088E052DC85E60895FB0120812F3312
:1050D00041F42181211105C060E071E022DC85E608
:1050E0000895BF0188E05BDC882319F004DB84E6C7
:1050F00008958AEC089560E071E054DA85E6089539
:10510000FB0120812F3341F42181211105C060E092
:1051100071E058DA85E60895CF012BDA882319F07B
:10512000EADA84E608958AEC0895CF93DF93EC01E0
:105130001FD99C018038910510F420E830E02058F8
:1051400031093F932F939F938F938BE29CE09F9322
:105150008F9381E08F931F92DF93CF930E944BA791
:105160008DB79EB70A968DBF9EBF85E6DF91CF9122
:10517000089586EE90E2BDD38EE6089529DA84E69E
:105180000895BDD884E6089560E071E02EDB85E6E1
:105190000895CB0131DB811102C08AEC089584E6C9
:1051A00008950E944A1C84E608950E94671C84E6C4
:1051B00008950E94421C84E60895909168069170BB
:1051C00089E7891B0895DF92EF92FF920F931F9357
:1051D000CF93DF93EC010FEF10E084E9E82E8EE02F
:1051E000F82E9CE2D92EB70186ED92E20E94BDA670
:1051F000892B19F00115110509F52197188285E60B
:10520000DF91CF911F910F91FF90EF90DF90089564
:10521000488331968901EC014491CE0101969801B1
:1052200021503109442319F00130110589F7D88242
:10523000890128E1E20EF11CEC01D5CFF701ECCF9A
:10524000CF93DF9300D00F92CDB7DEB7FC018091F2
:1052500020028068809320028091230280FFFCCF8F
:1052600081E080932302A0911002B0911102AE5B05
:10527000B109B7FF02C0B0E0A0E020E038EB4BE09E
:1052800050E00E94ACAD69837A838B839C83AC0130
:10529000662777275F934F9384E29CE09F938F93D9
:1052A00081E08F931F92FF93EF930E944BA7CDBF96
:1052B000DEBF85E62496CDBFDEBFDF91CF91089596
:1052C0002EB13FB14091080450910904242B352B95
:1052D0003F932F932EE13CE03F932F9321E02F93B8
:1052E0001F929F938F930E944BA78DB79EB70896EE
:1052F0008DBF9EBF85E608950F931F93CF93DF93D5
:105300000F920F92CDB7DEB78B01E091ED23F091B4
:10531000EE2385818D3009F077C0E0918029F091EE
:105320008129199581E08093AF2560E270E0C80182
:105330000E9403A79C01892BC1F5F8010190002070
:10534000E9F73197E01BF10BE0FD5CC0F695E795BE
:10535000E130F10501F587E090E0809376299093A4
:1053600077296091762970917729695F7F4F83E073
:10537000769567958A95E1F7A80186E798E20E94FD
:105380001B1B0E9494388FEF0F900F90DF91CF91ED
:105390001F910F91089553E0EE0FFF1F5A95E1F70B
:1053A000E0937629F0937729DCCFC801049628177B
:1053B000390741F5A80162E070E0CE0101960E9434
:1053C0001B1B898190E0982F88272A81820F911DCD
:1053D00080937629909377290B5F1F4FF8010190F6
:1053E0000020E9F73197E01BF10BE0FD0BC0F695CB
:1053F000E79533E0EE0FFF1F3A95E1F7E817F9075D
:1054000008F0AFCF8AECC0CF89ECBECFEF92FF920D
:105410000F931F93CF93DF930F920F92CDB7DEB709
:105420008B01E091ED23F091EE2385818D3009F021
:105430008CC0E0918029F0918129199582E08093B8
:10544000AF2560E270E0C8010E9403A77C01892BB0
:1054500009F041C0F80101900020E9F73197E01B05
:10546000F10BE0FD70C0F695E795E130F10511F51F
:1054700087E090E080937629909377296091762950
:1054800070917729695F7F4F83E0769567958A955C
:10549000E1F7A80186E798E20E941B1B0E9494385E
:1054A0008FEF0F900F90DF91CF911F910F91FF9091
:1054B000EF90089553E0EE0FFF1F5A95E1F7CF01EB
:1054C00069E070E00E946BADE81BF90BE093762970
:1054D000F0937729D3CFC8010496E816F90699F519
:1054E000A80162E070E0CE0101960E941B1B898139
:1054F000282F30E0322F22278A81820F932F911D8F
:1055000080937629909377298730910529F09C0123
:1055100027703327232BB9F487010F5F1F4FF80142
:1055200001900020E9F73197E01BF10BE0FD0BC083
:10553000F695E79533E0EE0FFF1F3A95E1F7E81790
:10554000F90708F09BCF8AECACCF89ECAACFE091A9
:10555000ED23F091EE2385818D30A1F4E091802937
:10556000F0918129199585E08093AF250E94C75855
:105570000E94943881ED98E58093562590935725A5
:105580008FEF089589EC0895E091ED23F091EE23DB
:1055900085818D30A1F4E0918029F09181291995C0
:1055A00083E08093AF250E94C7580E94943881ED14
:1055B00098E580935625909357258FEF089589ECB1
:1055C0000895E091ED23F091EE2385818D30A1F4D3
:1055D000E0918029F0918129199586E08093AF258B
:1055E0000E94C7580E94943881ED98E58093562513
:1055F000909357258FEF089589EC0895E091ED235E
:10560000F091EE234085518564E6649F9001659F8B
:10561000300D11243F932F9328E13CE03F932F93CB
:1056200021E02F931F929F938F930E944BA78DB7DA
:105630009EB708968DBF9EBF85E60895CF93DF93F2
:105640000F920F92CDB7DEB7FB0120812F33D1F43B
:105650002181211117C026EE3BE03F932F9321E0DB
:105660002F931F929F938F930E944BA70F900F90A1
:105670000F900F900F900F9085E60F900F90DF9195
:10568000CF91089589E592E089839A83CE010196AE
:105690009F938F9382EE9BE09F938F93FF93EF9363
:1056A0000E9481A70F900F900F900F900F900F9076
:1056B000892BA9F069817A81693582E0780778F4CD
:1056C000E091ED23F091EE2360877187CF018F5F2A
:1056D0009F4F845E93420E94FCAD84E6CECF8AEC5D
:1056E000CCCFE091ED23F091EE2323852F932285FB
:1056F0002F932FED3BE03F932F9321E02F931F92A9
:105700009F938F930E944BA78DB79EB708968DBF2E
:105710009EBF85E60895CF93DF930F920F92CDB78A
:10572000DEB7FB0120812F33D1F42181211117C075
:105730002FE02F932FEF2F932EE83BE03F932F93F3
:1057400021E02F931F929F938F930E944BA7CDBF71
:10575000DEBF85E60F900F90DF91CF9108951982FB
:105760001A82CE0101969F938F938AE89BE09F93C4
:105770008F93FF93EF930E9481A70F900F900F904C
:105780000F900F900F90892BC9F069817A81611574
:1057900090E1790798F46093380370933903E091AE
:1057A000ED23F091EE2362877387CF018F5F9F4FC8
:1057B000825E93420E94FCAD84E6CCCF8AECCACFD5
:1057C000FB0120812F33D9F42181211121C01F92A7
:1057D00020E32F931F9221E32F9324E83BE03F9394
:1057E0002F9321E02F931F929F938F930E944BA79B
:1057F0008DB79EB70A968DBF9EBF85E6089521336B
:1058000019F4F0D384E60895203311F410D4FACFBC
:105810008AEC0895FC0180910008813021F4809188
:105820008C08833029F080E38083118285E6089517
:1058300081E3FACFE091ED23F091EE2385818D3065
:10584000A1F4E0918029F0918129199584E0809359
:10585000AF250E94C7580E94943881ED98E5809347
:105860005625909357258FEF08958C3069F4E09179
:105870008029F0918129199581E080938D260E94DD
:105880007D6082E990E6EBCF89EC08958DE00E947F
:10589000101AE0918029F0918129199587E0809371
:1058A000AF250E94C7580E94943881ED98E58093F7
:1058B0005625909357258FEF08959C0191E0909382
:1058C0005525909354258CE38093522585E090E0F4
:1058D000809350259093512510924A2510924B2584
:1058E00010924C2510924D25209348253093492540
:1058F000089527E0209355252CE231E02093502590
:105900003093512510924A2510924B2510924C2528
:1059100010924D2580934825909349250895CF9363
:1059200090915525963009F4B7C0A0F4943009F44D
:105930008DC0953009F49CC0933030F491116CC047
:10594000C0E08C2FCF9108959330D1F780935325E9
:1059500084E069C0983009F4FBC0993009F46DC047
:10596000973071F7853109F0F0C01092542580917D
:1059700054258F5F8093542540914A2550914B25A3
:1059800060914C2570914D25E0914825F091492575
:1059900020E830E088E494E21995C82F882309F4C0
:1059A00008C161E083E090E20E9492A360915425D7
:1059B00083E090E20E9492A360915425609583E079
:1059C00090E20E9492A360E870E088E494E2D3D869
:1059D00060E088E494E2FC0101962081620F54E2C9
:1059E000883C9507C1F783E090E20E9492A38091E2
:1059F0004A2590914B25A0914C25B0914D2580587A
:105A00009F4FAF4FBF4F80934A2590934B25A09354
:105A10004C25B0934D2595CF813041F410924E2501
:105A200010924F2583E0809355250EC0843041F4B9
:105A300066E083E090E20E9492A31092552504C094
:105A40008831D9F38B31C9F3C1E07BCF90915325D5
:105A50002FEF30E0291B31098217130611F485E07E
:105A6000E2CF65E183E090E20E9492A382E0DBCF87
:105A700020914E2530914F25A9014F5F5F4F4093F4
:105A80004E2550934F25285B3B4DF901808386E0DE
:105A900040385105C9F6C7CF209153259091542520
:105AA00029134BC090E028E434E2F9012F5F3F4F07
:105AB0004081940FF4E2283C3F07B9F78913D1CF16
:105AC00040914A2550914B2560914C2570914D2570
:105AD000E0914825F091492520E830E088E494E2FF
