:100000000C9449170C946E170C946E170C946E1781
:100010000C946E170C946E170C946E170C946E174C
:100020000C946E170C946E170C9416190C946E1792
:100030000C946E170C946E170C946E170C946E172C
:100040000C946E170C946E170C946E170C946E171C
:100050000C946E170C946E170C946E170C946E170C
:100060000C946E170C946E170C946E170C946E17FC
:100070000C946E170C946E170C946E170C946E17EC
:100080000C946E170C946E170C9488300C94D43822
:100090000C946E170C946E170C946E170C946E17CC
:1000A0000C946E170C946E170C946E170C946E17BC
:1000B0000C946E170C946E170C946E170C945631AA
:1000C0000C946E170C94D1340C943F3A0C946E1728
:1000D0000C946E170C946E170C946E170C946E178C
:1000E0000C946E170C946E170C946E170C946E177C
:1000F0000C946E170C946E170C946E170C946E176C
:100100000C946E170C946E170C946E170C946E175B
:100110000C941A3A0C94AE340C946E170C946E171F
:100120000C946E170C946E170C946E170C946E173B
:100130000C946E170C946E170C946E170C94BE30C2
:100140000C946F170C94CD330C94FE380C946E17EE
:100150000C946E170C9427340C940C3B0C946E1773
:100160000C946E170C946E170C946E170C946E17FB
:100170000C946E170C946E170C946E170C946E17EB
:100180000C946E170C946E170C946E170C946E17DB
:100190000C946E170C946E170C946E170C946E17CB
:1001A0000C946E170C946E170C946E170C946E17BB
:1001B0000C946E170C946E170C946E170C946E17AB
:1001C0000C946E170C946E170C946E170C946E179B
:1001D0000C946E170C946E170C946E170C946E178B
:1001E0000C946E170C946E170C946E170C946E177B
:1001F0000C946E170C94FAA00C946E176364696EDD
:100200006F70737578585B003403430068006100B9
:100210006D0065006C0065006F006E002D004D00E4
:1002200069006E0069002D0044004500530046003F
:100230006900720065004D006F0064000000380323
:100240004B00610073007000650072002000260002
:1002500020004F007300770061006C0064002000F4
:1002600047006D0062004800200028005200650031
:1002700076004700290000000403090409023E003B
:10028000020100C03209040000010202010005243D
:10029000001001042402060524060001070582035C
:1002A0000800FF09040100020A000000070504021B
:1002B000100005070583021000051201100102005D
:1002C0000008D016B204010001020001BE19C919CC
:1002D000C819C719C619C519C419BF19C219C31934
:1002E0000000000114328832A732B63DD23DD63D1F
:1002F000C419D73D254138414000070014328832E7
:10030000A732CA3DD23DD63DC419D73D254138411B
:100310005000070014328832A732CE3DD23DD63D80
:10032000C419D73D25413841A40007001432883252
:10033000A7327841B441B841C419B941C248E04834
:100340000004040014328832A7328741B441B84116
:10035000C419B941C248E048000407001432883289
:10036000A7329641B441B841C419B941C248E048E6
:100370000010040014328832A732A541B441B841BC
:10038000C419B941C248E04800100700143288324D
:10039000A732326BC969D569CD69BD6A3B6B3D6BCC
:1003A0000010070000000000000000000000000036
:1003B000000000000000000000000000000000003D
:1003C000000000000000000000000000000000002D
:1003D000000000000000000000000000000000001D
:1003E000000000000000000000000000C43B7D3C55
:1003F0009E3C4B6059605E605F606160C219C319CA
:10040000000000013933BB336C3593589658A3581C
:10041000A458655BC219C31900000000004E4F4E7E
:100420004500000000000000000000000000000087
:1004300000000000000000000000000000014D4628
:100440005F554C5452414C4947485400000000004D
:100450000000000000000000000000000000024D4D
:10046000465F554C5452414C494748545F455631BC
:100470005F38304200000000000000000000000370
:100480004D465F554C5452414C494748545F455680
:10049000315F3136344200000000000000000000EF
:1004A000044D465F434C41535349435F314B000079
:1004B000000000000000000000000000000000003C
:1004C00000054D465F434C41535349435F314B5FF9
:1004D00037420000000000000000000000000000A3
:1004E0000000064D465F434C41535349435F344B34
:1004F00000000000000000000000000000000000FC
:10050000000000074D465F434C41535349435F345D
:100510004B5F3742000000000000000000000000B8
:1005200000000000084D465F4445534649524500CF
:1005300000000000000000000000000000000000BB
:1005400000000000000C49534F3134343433415F14
:10055000534E494646000000000000000000000025
:100560000000000000000D49534F31343434334152
:100570005F52454144455200000000000000000069
:100580000000000000000001000001000101000067
:100590000101000100000100010100010000010152
:1005A0000000010001010000010100010000010143
:1005B0000000010001010001000001000101000034
:1005C0000101000100000100010100010000010122
:1005D0000000010001010001000001000101000014
:1005E0000101000100000101000001000101000003
:1005F00001010001000001000101000100000101F2
:1006000000000100010100000101000100000101E2
:1006100000000100010100010000010001010000D3
:1006200001010001000001010000010001010000C2
:1006300001010001000001000101000100000101B1
:1006400000000100010100010000010001010000A3
:100650000101000100000100010100010000010191
:100660000000010001010000010100010000010182
:100670000000010001010001000001000101000073
:1006800001010001000001008040C020A060E010D6
:100690009050D030B070F0088848C828A868E81892
:1006A0009858D838B878F8048444C424A464E4146E
:1006B0009454D434B474F40C8C4CCC2CAC6CEC1C32
:1006C0009C5CDC3CBC7CFC028242C222A262E21244
:1006D0009252D232B272F20A8A4ACA2AAA6AEA1A32
:1006E0009A5ADA3ABA7AFA068646C626A666E6160E
:1006F0009656D636B676F60E8E4ECE2EAE6EEE1ED2
:100700009E5EDE3EBE7EFE018141C121A161E111FE
:100710009151D131B171F1098949C929A969E91901
:100720009959D939B979F9058545C525A565E515DD
:100730009555D535B575F50D8D4DCD2DAD6DED1DA1
:100740009D5DDD3DBD7DFD038343C323A363E313B3
:100750009353D333B373F30B8B4BCB2BAB6BEB1BA1
:100760009B5BDB3BBB7BFB078747C727A767E7177D
:100770009757D737B777F70F8F4FCF2FAF6FEF1F41
:100780009F5FDF3FBF7FFF44465F505052494E544A
:100790005F504943432046756C6C496D6167650045
:1007A000434C4F4E4500004E4F4E450000000000A8
:1007B0000000000000000000000000000000000039
:1007C00000000000000000015549445F52414E44C2
:1007D0004F4D00000000000000000000000000007D
:1007E0000000000000000000025549445F4C4546EF
:1007F000545F494E4352454D454E540000000000A1
:10080000000000000000000000035549445F524909
:100810004748545F494E4352454D454E54000000F1
:1008200000000000000000000000045549445F4C37
:100830004546545F44454352454D454E54000000E3
:100840000000000000000000000000055549445F62
:1008500052494748545F44454352454D454E540024
:1008600000000000000000000000000006435943A3
:100870004C455F53455454494E4753000000000017
:1008800000000000000000000000000000075354BA
:100890004F52455F4D454D00000000000000000034
:1008A00000000000000000000000000000000852EE
:1008B0004543414C4C5F4D454D0000000000000099
:1008C000000000000000000000000000000000091F
:1008D000544F47474C455F4649454C440000000093
:1008E0000000000000000000000000000000000008
:1008F0000A53544F52455F4C4F4700000000000020
:1009000000000000000000000000000000000000E7
:10091000000B434C4F4E450000000000000000005B
:1009200000000000000000000000000000000000C7
:1009300000000C5052494E545F535441544500003E
:1009400000000000000000000000000000000000A7
:10095000000000004F4646000000000000000000BC
:100960000000000000000000000000000000000087
:1009700000000000014D454D4F525900000000009D
:100980000000000000000000000000000000000067
:100990000000000000024C49564500000000000025
:1009A0000000000000000000000000000000000047
:1009B000000000000000004E4F4E45000000000007
:1009C0000000000000000000000000000000000027
:1009D0000000000000000001504F57455245440000
:1009E0000000000000000000000000000000000007
:1009F0000000000000000000025445524D494E41E5
:100A00004C5F434F4E4E000000000000000000000D
:100A1000000000000000000000035445524D494E04
:100A2000414C5F5258545800000000000000000084
:100A30000000000000000000000004534554544929
:100A40004E475F4348414E4745000000000000000C
:100A50000000000000000000000000054D454D4F63
:100A600052595F53544F52454400000000000000AB
:100A7000000000000000000000000000064D454D91
:100A80004F52595F4348414E474544000000000023
:100A90000000000000000000000000000008434FBC
:100AA0004445435F52580000000000000000000071
:100AB00000000000000000000000000000000943EA
:100AC0004F4445435F545800000000000000000000
:100AD000000000000000000000000000000000070F
:100AE0004649454C445F4445544543544544000001
:100AF00000000000000000000000000000000000F6
:100B00000A4C4F474D454D5F46554C4C0000000088
:100B100000000000000000000000000000000000D5
:100B20000025632C25630025356400416E7920691A
:100B30006E74656765722066726F6D203020746F09
:100B40002025752E205265666572656E6365207678
:100B50006F6C746167652077696C6C206265202812
:100B6000564343202A205448524553484F4C442072
:100B70002F203430393529206D562E00257500255B
:100B800035640030203D206E6F2074696D656F758F
:100B9000740D0A312D363030203D20313030206D3B
:100BA00073202D203630303030206D732074696D05
:100BB000656F7574002575206D730025342E3458CB
:100BC00000253575206D56002575202866726F6DDD
:100BD000207768696368202575206E6F6E2D766FAB
:100BE0006C6174696C6529002575002575002563A5
:100BF0002C2563004E4F205549442E004368616DFB
:100C0000656C656F6E4D696E692052657647207719
:100C10006974682044455346697265207374616342
:100C20006B20737570706F72742025532075736913
:100C30006E67204C55464120255320636F6D7069C7
:100C40006C65642077697468204156522D47434390
:100C50002025532E20536F75726365733A20687494
:100C60007470733A2F2F6769746875622E636F6DA5
:100C70002F6D6178696564732F4368616D656C657C
:100C80006F6E4D696E694669726D77617265444534
:100C90005346697265537461636B0A4C6F6767658D
:100CA000723A202068747470733A2F2F67697468E1
:100CB00075622E636F6D2F6D6178696564732F4364
:100CC00068616D656C656F6E4D696E694C697665BE
:100CD00044656275676765722E0032303039323490
:100CE0000031353131313500392E332E3000313875
:100CF0003638633630000D0A000D0A000D0A000D6B
:100D00000A000D0A000D0A00643130303A4F4B00E2
:100D100000000000000000000000000000000000D3
:100D2000000000000000000000653130313A4F4BF8
:100D300020574954482054455854000000000000F2
:100D4000000000000000000000006E3131303A5712
:100D5000414954494E4720464F5220584D4F444533
:100D60004D00000000000000000000C83230303AA2
:100D7000554E4B4E4F574E20434F4D4D414E440024
:100D8000000000000000000000000000C932303107
:100D90003A494E56414C494420434F4D4D414E44F3
:100DA00020555341474500000000000000CA323082
:100DB000323A494E56414C494420504152414D45EA
:100DC000544552000000000000000000000078318F
:100DD00032303A46414C534500000000000000000C
:100DE000000000000000000000000000000000798A
:100DF0003132313A545255450000000000000000E5
:100E000000000000000000000000000000000000E2
:100E1000CB3230333A54494D454F55540000000011
:100E200000000000000000000000000000000000C2
:100E30000056455253494F4E00000000000000008C
:100E4000000000000000001826434F4E46494700AE
:100E50000000000000000000000000000041263BF0
:100E6000265549440000000000000000000000007A
:100E70000000000000AC266C26524541444F4E4C09
:100E8000590000000000000000000000000227F6EA
:100E90002655504C4F414400000000000000000067
:100EA000003027000000000000444F574E4C4F41D7
:100EB0004400000000000000003527000000000092
:100EC000005245534554000000000000000000009F
:100ED000003A2700000000000055504752414445A9
:100EE0000000000000000000004527000000000096
:100EF000004D454D53495A450000000000000000D8
:100F000000000000000000502755494453495A454D
:100F10000000000000000000000000000000006968
:100F20002752425554544F4E00000000000000006C
:100F300000000000008827802752425554544F4E2D
:100F40005F4C4F4E470000000000000000A827A0A3
:100F5000274C425554544F4E000000000000000042
:100F60000000000000C827C0274C425554544F4E83
:100F70005F4C4F4E470000000000000000E827E0F3
:100F8000274C4544475245454E00000000000000F4
:100F90000000000000072800284C4544524544004A
:100FA0000000000000000000000000000024281DD8
:100FB000284C4F474D4F4445000000000000000002
:100FC00000000000003F283A284C4F474D454D0097
:100FD00000000000000000000000000000000054BD
:100FE000284C4F47444F574E4C4F4144000000009F
:100FF0000079280000000000004C4F4753544F5226
:101000004500000000000000007E280000000000F5
:10101000004C4F47434C4541520000000000000087
:1010200000812800000000000053455454494E47F9
:10103000000000000000000000000000008928847B
:1010400028434C4541520000000000000000000011
:1010500000912800000000000053544F524500004A
:1010600000000000000000000095280000000000C3
:1010700000524543414C4C000000000000000000BD
:101080000099280000000000004348415247494EA3
:101090004700000000000000000000000000009D6C
:1010A0002848454C500000000000000000000000EF
:1010B00000A3280000000000005253534900000024
:1010C000000000000000000000000000000000E040
:1010D000285359535449434B0000000000000000BE
:1010E00000000000000000212953454E445F52419A
:1010F0005700000000000000000000C829000000A8
:101100000053454E440000000000000000000000B5
:101110000000003E290000000047455455494400A6
:10112000000000000000000000862A00000000000F
:101130000044554D505F4D46550000000000000032
:1011400000692A0000000000004944454E54494609
:10115000590000000000000000A32A000000000069
:101160000054494D454F5554000000000000000058
:101170000000000000E12AC02A5448524553484F5D
:101180004C440000000000000000000000502B351F
:101190002B4155544F43414C494252415445000064
:1011A00000E12B0000000000004649454C440000CF
:1011B00000000000000000000000000000A62BD18D
:1011C0002B434C4F4E450000000000000000000083
:1011D000000D2C00000000000044465F53455448B9
:1011E00044520000000000000000000000A97292BC
:1011F0007244465F505052494E545F504943430039
:1012000000000033730000000044465F4657494E1B
:10121000464F00000000000000A173000000000025
:101220000044465F4C4F474D4F44450000000000CE
:101230000000000000E773C07344465F54455354F8
:101240004D4F444500000000000000000076746E21
:10125000740000000000000000000000000000001A
:10126000000000000000000000000800080000006E
:101270000000000008000808080808080008000826
:101280000000000808000808080080008000000036
:1012900000000000800080808080808000800080CE
:1012A00000000080800080808000010001000000BC
:1012B0000000000001000101010101010001000125
:1012C0000000000101000101010000000000000019
:1012D0000000000000000000000101010101010107
:1012E00001010101010101010101010101010101EE
:1012F00001010101010101010101010101010101DE
:1013000001010101010101010100000000000000D4
:1013100000000000000000000000000000000000CD
:1013200000000000000000000000000000000000BD
:1013300000000000000000000001010101010101A6
:101340000101010101010101010000000000000094
:10135000000000000000000000000000000000008D
:101360000000000000000000000101010101010176
:101370000101010101010101010000000000000064
:101380000000000000000000000101010101010156
:10139000010101010101010101010101010101013D
:1013A0000101010101010101010000000000000034
:1013B0000000000000000000000101010101010126
:1013C0000101010101010101010000000202000010
:1013D00002000202020200000200000002020000FD
:1013E00002000202020200000200000002020000ED
:1013F00002000202020200000204040406060404C1
:10140000060406060606040406040404060604048C
:101410000604060606060404060000000202000098
:1014200002000202020200000200000002020000AC
:101430000200020202020000020404040606040480
:101440000604060606060404060000000202000068
:101450000200020202020000020404040606040460
:10146000060406060606040406040404060604042C
:10147000060406060606040406040404060604041C
:10148000060406060606040406040404060604040C
:101490000604060606060404060000000202000018
:1014A000020002020202000002000000020200002C
:1014B0000200020202020000020404040606040400
:1014C00006040606060604040600080808000000D4
:1014D00008000008000808000800080808000000CC
:1014E00008000008000808000800080808000000BC
:1014F000080000080008080008101818181010103C
:10150000181010181018181018101818181010109B
:1015100018101018101818101800080808000000FB
:10152000080000080008080008000808080000007B
:1015300008000008000808000810181818101010FB
:1015400018101018101818101800080808000000CB
:1015500008000008000808000810181818101010DB
:10156000181010181018181018101818181010103B
:10157000181010181018181018101818181010102B
:10158000181010181018181018101818181010101B
:10159000181010181018181018000808080000007B
:1015A00008000008000808000800080808000000FB
:1015B000080000080008080008101818181010107B
:1015C00018101018101818101853414B3A090055EC
:1015D00049443A0900415451413A0900546865723E
:1015E00065206973206174206C65617374206F6E6F
:1015F00065206D6F72652063617264207479706517
:101600002063616E6469646174652C206275742066
:10161000746865726520776173206E6F7420656EE3
:101620006F756768207465726D696E616C20627594
:10163000666665722073706163652E0D0A000D0A7F
:10164000000400010901000000000000000000008B
:1016500000000000000000004E5850000000000094
:1016600000000000000000004D4946415245204D59
:10167000696E69000000000000000000000000002A
:10168000000000000000000000000000000000005A
:10169000000000000000000000000000000000004A
:1016A000000000000000000004000108010000002C
:1016B0000000000000000000000000000000004EDC
:1016C0005850000000000000000000000000004D25
:1016D000494641524520436C617373696320316B05
:1016E00000000000000000000000000000000000FA
:1016F00000000000000000000000000000000000EA
:1017000000000000000000000000000000000002D7
:1017100000011801000000000000000000000000AF
:101720000000000000004E585000000000000000C3
:101730000000000000004D494641524520436C61C5
:101740007373696320346B00000000000000000028
:101750000000000000000000000000000000000089
:101760000000000000000000000000000000000079
:101770000000000000004400010001000000000023
:10178000000000000000000000000000004E585063
:10179000000000000000000000000000004D49466D
:1017A00041524520556C7472616C69676874000021
:1017B0000000000000000000000000000000000029
:1017C0000000000000000000000000000000000019
:1017D00000000000000000000000000000440001C4
:1017E00000010000000000000000000000000000F8
:1017F000000000004E5850000000000000000000F3
:10180000000000004D494641524520556C747261FC
:101810006C6967687420430000000000000000004D
:1018200000000000000000000000000000000000B8
:1018300000000000000000000000000000000000A8
:101840000000000044000100000000000000000053
:1018500000000000000000000000004E5850000092
:1018600000000000000000000000004D4946415209
:101870004520556C7472616C6967687420455631F7
:101880000000000000000000000000000000000058
:101890000000000000000000000000000000000048
:1018A00000000000000000000000004403012001CF
:1018B0007577810280000000000000000000000039
:1018C00005004E585000000000000000000000001D
:1018D00000004D49464152452044455346697265D2
:1018E00000000000000000000000000000000000F8
:1018F00000000000000000000000000000000000E8
:1019000000000000000000000000000000000000D7
:10191000000044030120017577810280000000006F
:101920000000000000000005004E585000000000BC
:101930000000000000000000004D494641524520D3
:101940004445534669726520455631000000000049
:101950000000000000000000000000000000000087
:101960000000000000000000000000000000000077
:101970000000000000000000000403012801387787
:10198000B14A434F5033310000000000000009010C
:1019900049424D000000000000000000000000006F
:1019A0004A434F50333100000000000000000000A7
:1019B0000000000000000000000000000000000027
:1019C0000000000000000000000000000000000017
:1019D0000000000000000000000000000000000007
:1019E00048000120017877B1024A434F50763234E3
:1019F00031000000000C0149424D000000000000D1
:101A0000000000000000004A434F5033312076327E
:101A10002E342E3100000000000000000000000005
:101A200000000000000000000000000000000000B6
:101A300000000000000000000000000000000000A6
:101A40000000000000000048000120013833B14AC6
:101A5000434F503431563232000000000C014942ED
:101A60004D000000000000000000000000004A439C
:101A70004F5034312076322E32000000000000003A
:101A80000000000000000000000000000000000056
:101A90000000000000000000000000000000000046
:101AA0000000000000000000000000000000040032
:101AB0000128013833B14A434F5034315632333163
:101AC0000000000D0149424D000000000000000030
:101AD00000000000004A434F5034312076322E334C
:101AE0002E31000000000000000000000000000097
:101AF00000000000000000000000000000000000E6
:101B000000000000000000000000000000000000D5
:101B10000000000000040001880100000000000037
:101B2000000000000000000000000000496E66692F
:101B30006E656F6E00000000000000004D494641D8
:101B4000524520436C617373696320316B00000060
:101B50000000000000000000000000000000000085
:101B60000000000000000000000000000000000075
:101B700000000000000000000000000002000198CA
:101B80000100000000000000000000000000000054
:101B900000000047656D706C757300000000000068
:101BA0000000004D50434F530000000000000000B3
:101BB0000000000000000000000000000000000025
:101BC0000000000000000000000000000000000015
:101BD0000000000000000000000000000000000005
:101BE000000000000C0100000000000000000000E8
:101BF00000000000000000000000496E6E6F766972
:101C000073696F6E2052265400004A6577656C0038
:101C100000000000000000000000000000000000C4
:101C200000000000000000000000000000000000B4
:101C300000000000000000000000000000000000A4
:101C40000000000000000000000002000138010058
:101C50000000000000000000000000000000000084
:101C6000004E6F6B69610000000000000000000082
:101C7000004D494641524520436C617373696320AE
:101C8000346B202D20656D756C6174656420283679
:101C900032313220436C61737369632900000000A4
:101CA0000000000000000000000000000000000034
:101CB00000080001380100000000000000000000E2
:101CC00000000000000000004E6F6B696100000022
:101CD00000000000000000004D49464152452043ED
:101CE0006C617373696320346B202D20656D756C96
:101CF00061746564202836313331204E4643290013
:101D000000000000000000000000000000000000D3
:101D10000000000000000000E4D12FB83A6C590721
:101D20000F74E2D1A6CB953841E8D62BFC973A50F8
:101D3000FC8249175B3EA06DF18E6B34972DC05A23
:101D40003D47F28EC01A69B50E7BA4D158C6932FB9
:101D5000D8A13F42B67C05E9A09E63F51DC7B42813
:101D6000D709346A285ECBF1D6498F30B12C5AE7B7
:101D70001AD069874FE3B52C7DE3069A1285BC4FD4
:101D8000D8B56F03472C1AE9A690CB7DF13E52845B
:101D90003F06A1D8945BC72E2C417AB6853FD0E987
:101DA000EB2C47D150FA3986421BAD78F9C5630E4A
:101DB000B8C71E2D6F09A453C1AF92680D34E75BFD
:101DC000AF427C9561DE0B389EF528C3704A1DB684
:101DD000432C95FABE17608D4B2EF08D3C975A61BF
:101DE000D0B7491AE35C2F8614BDC37EAF68059255
:101DF0006BD814A7950FE23CD2846FB1A93E50C7AF
:101E00001FD8A374C56B0E927B419CE206ADF358BC
:101E100021E74A8DFC90356B000102040810204038
:101E2000801B3652096AD53036A538BF40A39E8143
:101E3000F3D7FB7CE339829B2FFF87348E4344C466
:101E4000DEE9CB547B9432A6C2233DEE4C950B4287
:101E5000FAC34E082EA16628D924B2765BA2496D3A
:101E60008BD12572F8F66486689816D4A45CCC5D94
:101E700065B6926C704850FDEDB9DA5E154657A70D
:101E80008D9D8490D8AB008CBCD30AF7E45805B87C
:101E9000B34506D02C1E8FCA3F0F02C1AFBD030150
:101EA000138A6B3A9111414F67DCEA97F2CFCEF07B
:101EB000B4E67396AC7422E7AD3585E2F937E81CD9
:101EC00075DF6E47F11A711D29C5896FB7620EAAB9
:101ED00018BE1BFC563E4BC6D279209ADBC0FE785A
:101EE000CD5AF41FDDA8338807C731B11210592726
:101EF00080EC5F60517FA919B54A0D2DE57A9F935B
:101F0000C99CEFA0E03B4DAE2AF5B0C8EBBB3C83CB
:101F1000539961172B047EBA77D626E1691463556D
:101F2000210C7D637C777BF26B6FC53001672BFEE4
:101F3000D7AB76CA82C97DFA5947F0ADD4A2AF9C1F
:101F4000A472C0B7FD9326363FF7CC34A5E5F171F6
:101F5000D8311504C723C31896059A071280E2EBFF
:101F600027B27509832C1A1B6E5AA0523BD6B3298F
:101F7000E32F8453D100ED20FCB15B6ACBBE394A1C
:101F80004C58CFD0EFAAFB434D338545F9027F5023
:101F90003C9FA851A3408F929D38F5BCB6DA211022
:101FA000FFF3D2CD0C13EC5F974417C4A77E3D64BA
:101FB0005D197360814FDC222A908846EEB814DEEA
:101FC0005E0BDBE0323A0A4906245CC2D3AC629174
:101FD00095E479E7C8376D8DD54EA96C56F4EA655E
:101FE0007AAE08BA78252E1CA6B4C6E8DD741F4B5D
:101FF000BD8B8A703EB5664803F60E613557B986CB
:10200000C11D9EE1F8981169D98E949B1E87E9CE77
:102010005528DF8CA1890DBFE6426841992D0FB08C
:1020200054BB164F46460046414C53450030004FC6
:102030004E0054525545003100253135730025734B
:10204000203C4F4E7C4F46467C564552424F5345AE
:102050007C444542554747494E473E00444542551A
:102060004747494E4700564552424F5345004F4659
:10207000460046414C53450030004F4E00545255E7
:1020800045003100253135730044454255474749E5
:102090004E4700564552424F5345004E4F524D4118
:1020A0004C004F4646004368616D656C656F6E2D50
:1020B0004D696E69204445534669726520656E61BD
:1020C000626C6564206669726D7761726520627505
:1020D000696C74206F6E20257320626173656420C3
:1020E0006F6E2025732066726F6D200D0A68747400
:1020F00070733A2F2F6769746875622E636F6D2F46
:102100006D6178696564732F4368616D656C656F97
:102110006E4D696E694669726D77617265444553AB
:1021200046697265537461636B2E6769742E0D0A7C
:102130005265766973696F6E3A2025730D0A002522
:1021400073203C46756C6C496D6167657C486561C0
:10215000646572446174617C4C6973744469727320
:102160003E004C697374446972730048656164652C
:1021700072446174610046756C6C496D61676500FD
:10218000253331730050726F64756374696F6E44E8
:102190006174650042617463684E756D62657200BA
:1021A000536F66747761726556657273696F6E00FE
:1021B000486172647761726556657273696F6E000B
:1021C000253234732025313273002573203C486159
:1021D00072647761726556657273696F6E2D327CB9
:1021E000536F66747761726556657273696F6E2D91
:1021F000327C42617463684E756D6265722D357C08
:1022000050726F64756374696F6E446174652D32CA
:102210003E203C48657842797465732D4E3E0050EF
:10222000544558542D44454641554C54004354455B
:1022300058542D4145533132382D434D41430043CD
:10224000544558542D4445530050544558542D4D31
:102250004143004445530041455331323800334B2C
:102260003344455300324B544445410043484700F2
:1022700052572F00572F00522F0049534F313434FB
:1022800034332D343A20554E4B2D434D44204E4F80
:102290005F524553500049534F31343434332D335A
:1022A0003A20524553455420544F2049444C450050
:1022B00049534F31343434332D343A204143544957
:1022C0005645205245540049534F31343434332D50
:1022D000333A20476F742048414C540052445932DD
:1022E0002C204E4F5420534C435420434D4400491E
:1022F0006E636F72726563742053656C65637420DE
:1023000076616C7565202852322900494E544F2061
:10231000414354495645210049534F3134343433F5
:102320002D343A20524459312C204E4F5420534CD6
:10233000435420434D440049534F31343434332DFA
:10234000343A2053656C656374204E414B00495309
:102350004F31343434332D343A2053656C65637413
:10236000204F4B0049534F31343434332D3420281F
:1023700049444C45293A20415451410049534F3179
:10238000343434332D343A2049444C45202F204EE8
:102390004F5420575550410049534F313434343352
:1023A0002D343A2048414C54202F204E4F54205772
:1023B0005550410049534F31343434332D333A2092
:1023C00048414C54494E4700203D3E2000554E4B5D
:1023D0004E4F574E5F53544154450049534F31348B
:1023E0003434335F345F53544154455F414354495F
:1023F00056450049534F31343434335F345F5354BE
:102400004154455F4558504543545F524154530031
:1024100049534F31343434335F33415F5354415463
:10242000455F48414C540049534F31343434335F95
:1024300033415F53544154455F414354495645002D
:1024400049534F31343434335F33415F5354415433
:10245000455F5245414459320049534F3134343479
:10246000335F33415F53544154455F5245414459B2
:10247000310049534F31343434335F33415F535467
:102480004154455F49444C450049534F313434343D
:10249000332D343A205354415348494E4720464F38
:1024A000522052452D5452414E530049534F31341E
:1024B0003434332D343A205043425F535F424C4B07
:1024C000204E4F5F524553500049534F31343434FE
:1024D000332D343A20532D424C4B00203D3E2000FA
:1024E000554E4B4E4F574E5F535441544500495340
:1024F0004F31343434335F345F53544154455F417A
:1025000043544956450049534F31343434335F34D2
:102510005F53544154455F4558504543545F5241C1
:1025200054530049534F31343434335F33415F5394
:10253000544154455F48414C540049534F31343461
:1025400034335F33415F53544154455F41435449F1
:1025500056450049534F31343434335F33415F5370
:10256000544154455F5245414459320049534F311B
:10257000343434335F33415F53544154455F5245E3
:10258000414459310049534F31343434335F33417E
:102590005F53544154455F49444C450049534F31C2
:1025A000343434333450726F63657373426C6F63C9
:1025B0006B3A2049534F31343434335F5043425FD8
:1025C000525F424C4F434B202D2D20256400495330
:1025D0004F31343434332D343A20522D424C4B0099
:1025E00049534F31343434333450726F63657373ED
:1025F000426C6F636B3A2049534F31343434335F4C
:102600005043425F525F424C4F434B202D2D2025BB
:10261000640049534F31343434332D343A20492D3A
:10262000424C4B0049534F31343434332D343A202B
:102630004150505F4E4F5F524553500049534F3108
:10264000343434333450726F63657373426C6F6328
:102650006B3A2049534F31343434335F5043425F37
:10266000495F424C4F434B202D2D20256400495398
:102670004F31343434333450726F63657373426C4A
:102680006F636B3A2049534F31343434335F5043D6
:10269000425F495F424C4F434B202D2D2025640063
:1026A00049534F31343434332D343A204E4557207A
:1026B000434152442049440049534F313434343368
:1026C0002D343A2053454E4420524154530049532F
:1026D0004F31343434332D343A204E4F542052414C
:1026E00054530049534F31343434332D343A20435A
:1026F0005243206661696C3B202530345820767344
:1027000020253034580049534F31343434332D347C
:102710003A206C656E677468206661696C00203DC4
:102720003E2000554E4B4E4F574E5F53544154453B
:102730000049534F31343434335F345F5354415480
:10274000455F4143544956450049534F3134343471
:10275000335F345F53544154455F455850454354AB
:102760005F524154530049534F31343434335F3353
:10277000415F53544154455F48414C540049534FC5
:1027800031343434335F33415F53544154455F41F6
:1027900043544956450049534F31343434335F3341
:1027A000415F53544154455F5245414459320049B9
:1027B000534F31343434335F33415F5354415445C4
:1027C0005F5245414459310049534F313434343319
:1027D0005F33415F53544154455F49444C45004089
:1027E00040204C494E452023256420696E202A252F
:1027F0007320404000526561644461746146696CB5
:10280000655365747570202D2D204552524F52210D
:1028100000496E76616C69642066696C6520747924
:102820007065203D20256440256400496E76616C0A
:1028300069642066696C6520696E646578203D2056
:102840002564202F202564203B20666F7220466976
:102850006C654E756D203D202564004040204C493C
:102860004E452023256420696E202A257320404090
:102870000050494343206B65792073657474696E19
:102880006773202D2D2025303278004E4F5420497B
:102890004D504C454D454E5445443A20257321003A
:1028A0000A3885C52C1A3788B42CAAF788A32C714E
:1028B0000000882C7700006A2C541987562C5C0085
:1028C00000442CC46A86392C642686292CCAD092EE
:1028D000162CDA4892032C6A4B87EF2B6E1C85E38B
:1028E0002B6DCE89D62B45EB85C52B5A7487B22B21
:1028F000FCC984A62B60B1849A2B51A5848D2B6FC3
:10290000C287802BF54A906E2B5F0B88592BCD2206
:1029100092482BCBFC91352BCCB891232BC18191C4
:10292000092BC04691EF2ADF0B91E32A61C287D2BF
:102930002ABDD38FC82A3DF48EBD2A6C978EB32A48
:102940000C0F8EAC2ADC7B8DA62A1CFC8C972A3BB4
:10295000128B8A2ABBF98B7D2AEBE08A6B2AC7721D
:102960008A582AA7048A462AA4D489372A84DA896D
:10297000212A82E089032A88E689E529B0EC89D1F9
:1029800029D6F289BB29B2F889A629E2FE899029C5
:1029900049534F373831365F417070656E645F520E
:1029A00065636F72640049534F373831365F526543
:1029B00061645F5265636F7264730049534F3738C7
:1029C00031365F5570646174655F42696E6172791A
:1029D0000049534F373831365F526561645F426951
:1029E0006E6172790049534F373831365F496E74E2
:1029F00065726E616C5F41757468656E7469636160
:102A000074650049534F373831365F4578746572C5
:102A10006E616C5F41757468656E7469636174653D
:102A20000049534F373831365F4765745F436861FB
:102A30006C6C656E67650049534F373831365F53AC
:102A4000656C6563740041626F72745F5472616E8D
:102A500073616374696F6E00436F6D6D69745F5469
:102A600072616E73616374696F6E00436C6561724D
:102A70005F5265636F72645F46696C6500526561A1
:102A8000645F5265636F7264730057726974655F47
:102A90005265636F7264004C696D697465645F436D
:102AA00072656469740044656269740043726564A8
:102AB0006974004765745F56616C7565005772698B
:102AC00074655F4461746100526561645F44617460
:102AD00061004765745F49534F5F46696C655F49A4
:102AE00044730044656C6574655F46696C650043BA
:102AF00072656174655F4379636C69635F52656396
:102B00006F72645F46696C65004372656174655FEE
:102B10004C696E6561725F5265636F72645F46698E
:102B20006C65004372656174655F56616C75655FC5
:102B300046696C65004372656174655F4261636BF1
:102B400075705F46696C65004372656174655F44CA
:102B50006174615F46696C65004368616E67655FBB
:102B600046696C655F53657474696E677300476589
:102B7000745F46696C655F53657474696E67730052
:102B80004765745F46696C655F49447300476574C7
:102B90005F436172645F554944004765745F5665E1
:102BA0007273696F6E00466F726D61745F50494356
:102BB000430053656C6563745F4170706C69636159
:102BC00074696F6E004765745F4B65795F53657418
:102BD00074696E6773004765745F44465F4E616D4C
:102BE000657300467265655F4D656D6F727900476C
:102BF00065745F4170706C69636174696F6E5F4981
:102C000044730044656C6574655F4170706C696302
:102C10006174696F6E004372656174655F417070C5
:102C20006C69636174696F6E004765745F4B6579A9
:102C30005F56657273696F6E004368616E67655FAA
:102C40004B6579005365745F436F6E666967757293
:102C50006174696F6E004368616E67655F4B65798B
:102C60005F53657474696E67730041757468656E4F
:102C70007469636174655F4145535F4556325F4EC9
:102C80006F6E46697273740041757468656E74691D
:102C9000636174655F4145535F4556325F466972B3
:102CA00073740041757468656E7469636174655FFF
:102CB0004145530041757468656E7469636174655C
:102CC0005F49534F0041757468656E69636174654F
:102CD0005F4C65676163790025733A20257300575F
:102CE000424220537461727420426C6F636B2054B3
:102CF0006F6F204C61726765202D2D202564202D7B
:102D00002D20257300524242205374617274204278
:102D10006C6F636B20546F6F204C61726765202D60
:102D20002D202564202D2D202564004372656174BB
:102D3000654170702072657475726E6564202D2D0A
:102D40002025640A00466163746F7279207265738E
:102D5000657474696E67207468652064657669635C
:102D60006500466163746F7279207265736574746F
:102D7000696E6720746865206465766963650025FF
:102D8000733D3D204149442030782530327825304C
:102D90003278253032780D0A00205B4B657973203C
:102DA0002D2D202564206F6620256420746F7461AA
:102DB0006C5D0D0A005D0D0A00202D2D202530329E
:102DC0006400203A202530327800202D2D20414DFE
:102DD0004B00203A202530327800202D2D20504DF8
:102DE0004B0020202D3E202573205B762530326459
:102DF00000205B46696C6573202D2D2025642074AE
:102E00006F74616C206F6620256420706F73736926
:102E1000626C655D0D0A0020202D3E202530327841
:102E20000D0A0020202D3E2025303278205B436F94
:102E30006D6D3D2573202D2D2025735D0D0A002815
:102E4000444154452920253032782F253032780DE1
:102E50000A00284241544348292025730D0A0028BE
:102E600056455253494F4E292048573D2530327818
:102E70002E253032782C2053573D253032782E25A0
:102E80003032780D0A0028554944292025730D0A4F
:102E9000000011241FBECFEFCDBFDFE3DEBF00E097
:102EA0000CBF18BE19BE1ABE1BBE13E2A0E0B0E2F2
:102EB000E8EEF8E501E00BBF02C007900D92AC3BD5
:102EC000B107D9F71BBE2FE2ACEBB3E201C01D92F4
:102ED000AD36B207E1F746D00C94E3A49EC10F9241
:102EE00000240F932F933F934F935F930FB70F934C
:102EF000EF93FF93EAB1FBB15191442735B124B16F
:102F0000569578F400928C080092000806E10A9524
:102F1000F1F700C001E00093000803E000938C0883
:102F200004C00AE10A95F1F700002150304019F47D
:102F30000E9415340CC04F5F477011F4519102C0CC
:102F400000C000C00AE00A95F1F700C0D9CFFF9198
:102F5000EF910F910FBF5F914F913F912F910F9183
:102F60000F9018957AD10E942E230E94CD2358D31A
:102F70001092520684E08093420682E68093860196
:102F8000C1E0C0932606C093210686E08093220606
:102F9000C093310612E01093320610922A06109266
:102FA0002B068FE08093290689E5809380019AE5BE
:102FB000909381018093820180E480934106809305
:102FC00046069091B200907F9093B2009091B2002B
:102FD00092609093B20090E39093410690934606DE
:102FE00080935006C09346061093450603E0009375
:102FF000410683E18093010821E030E02093260818
:1030000030932708209328083093290810928C08C1
:10301000809380081092230310922103D8E0D0936C
:10302000220381E180932003E091C723F091C8231C
:103030008285938580933803909339038CE3809342
:103040008203D093800380938303D0938103D7D1ED
:103050000E947B2542D2CFD6C0930002109201027B
:103060001093020200930402C0932002D093210225
:103070000E94A5217ED182E0E82E91E1F92E0EEE8C
:1030800019E28091030481FF3AC08091010480FD20
:10309000FCCFE09203040E94D12352D20E94AE25BD
:1030A000B2D6E091DE29F091DF2919950E942923FB
:1030B000E091C723F091C8238481823071F480911C
:1030C000BF238F5F8093BF2363E00E94AEABC091AC
:1030D000C323D091C4239923F1F10E94FA2E0E94B8
:1030E0000725E091C723F091C8238781813011F42F
:1030F000F0921E248681813011F4F0921D24E0911B
:10310000DC29F091DD291995E091D629F091D72994
:1031100019950E949F200E947F25B3CF83E090E203
:103120000E940CA21092B2251092B3251092222474
:103130006A8170E0888199810E94752583E090E220
:103140000E940CA21092B2251092B3251092222454
:103150000B80DC81C02D209721F08091C02381114C
:10316000DDCF0093EC291093ED29E091C323F0917A
:10317000C423309769F41092C1231092C223109295
:10318000C3231092C4231092C0231092BF23A5CF53
:10319000D381C48182812091EA293091EB29820F69
:1031A000932F911D8093EA299093EB29CF010E94E0
:1031B000E6A3ED2FFC2FDDCF9C01DA01832F9927A9
:1031C0008230910529F18330910549F0019791F4FE
:1031D00082E190E02AEB32E02D933C930895C901FF
:1031E0009927213061F08230910579F0E8E7F2E02B
:1031F000892B39F090E080E030E020E0EDCFEEE385
:10320000F2E0849190E09F01E7CFE8E0F2E0F9CFAF
:103210008EE390E02CE732E0DFCF0F920FB60F92F3
:103220001F92112408B60F9218BEFFCF1F921FB62F
:103230001F9211248F9388B78F9318BE9F938EB1DE
:103240009FB180589F4F8EB99FB99F918F9188BF32
:103250008F911F901FBE1F9018958091780083FF5B
:103260000AC088E08093780088ED84BF81E0809375
:1032700080000D94FE008BEC8093520080915000F2
:103280008860809350008091510083FFFCCF82ECD6
:103290008093550080915000806180935000809110
:1032A000510084FFFCCF88ED84BF84E08093400010
:1032B0001EB81FB881E0809343002FE730E02093D1
:1032C0000A0430930B0420930C0430930D04809374
:1032D00000048093020480E880930001089588ED43
:1032E00084BF81E080937900089588ED84BF8BE1ED
:1032F00080938000089580915000826080935000F8
:103300008091510081FFFCCF82E08093CA01EDE102
:10331000F0E0E491E0936200ECE1F0E0E491E0930E
:1033200063001092CA0180E8809365008BEB809364
:10333000660080915600897F8093560080915600E8
:10334000846080935600809160008160809360006B
:103350000895E0E4F0E084818E7F8483E0E6F0E08D
:1033600080818E7F8083E0E5F0E080818D7F8083A7
:10337000089587E08093A20078940895089590E0DE
:1033800080E0089508950895089508950895089592
:1033900008950895CF93C82FE091D429F091D529AD
:1033A00019950E94322FE091C723F091C823C5835D
:1033B00088E1C89FB001112464537D4F48E150E07B
:1033C00082ED99E20E94E5A4E091D229F091D329FF
:1033D0001995E091D829F091D9291995C05EE0910D
:1033E000C723F091C8238781843011F4C0931E2431
:1033F0008681843011F4C0931D24CF91089548E153
:1034000050E06CEC72E082ED99E20E94E5A4E0915C
:10341000C723F091C8238581BDCF0F931F939C01D3
:103420008B01E091C723F091C82345816BE08CE1CB
:1034300094E00E94A6241F910F910895CF93DF93EB
:103440000F92CDB7DEB7AC019E012F5F3F4F6BE00F
:103450008CE194E00E94BF24882329F089810F9099
:10346000DF91CF9108958FEFFACFFF920F931F93C3
:10347000CF93DF930F92CDB7DEB78C019E012F5F04
:103480003F4FAC016BE08CE194E00E94BF24F82E2A
:103490008823A1F089817EDF980140E0F9018081D5
:1034A0002F5F3F4F882319F04F5F4F31B9F7E091FD
:1034B0006E2AF0916F2AB80181E119958F2D0F9036
:1034C000DF91CF911F910F91FF900895AC019B0167
:1034D0006BE08CE194E00C94E8242EB13FB1E0E085
:1034E000F4E0408551858EB19FB160857185862B52
:1034F000972BB0E0A0E064E1880F991FAA1FBB1FC3
:103500006A95D1F788279927A07FBF71422B532B4B
:103510005D5F842B952B0C94D8A40C94D5A40895AE
:103520001F93CF93DF93162F115020F4DF91CF918B
:103530001F910895EC010E94D5A48993CE01F4CF88
:103540000E94D5A40E94D5A40E94D5A40C94D5A411
:10355000CF93DF93FC0161507109DA01EA01C20FD8
:10356000D31F50E040E0AC17BD0729F0CB01841B0E
:10357000950B029728F41082CA01DF91CF9108952C
:103580009D91392F32953F70903A58F4305D3083D9
:103590009F709A3040F4905D918332964E5F5F4FFA
:1035A000E2CF395CF4CF995CF7CFCF93DF93DC01A6
:1035B000EB01FA0150E040E08081882331F09181F5
:1035C000992359F14C175D0721F4CA01DF91CF917E
:1035D000089520ED280F2A3020F02FEB280F2630F9
:1035E000E0F460ED690F6A3020F02FEB290F2630F0
:1035F000A0F4282F30E0813458F42295207F9134B4
:1036000050F4962F292B2D934F5F5F4F3296D4CFD6
:1036100027533109F2CF9753F5CF50E040E0D5CF93
:10362000E0E6F6E080E1858382E0868388E08583BA
:103630008AE18183E0EAF9E01682178280EC8583D3
:1036400088E18483E0E0F1E0128A8BE6838B148AC0
:10365000158A20EA208F99E0918F128E148E158E94
:10366000168E84E0808B12A23CE633A314A215A22E
:1036700010A611A612A624A795A716A680A30895A2
:103680009A01452B09F449C040E14093660643E0A6
:103690004093A0094091A10947FFFCCF4091A009A8
:1036A0007093A0094091A10947FFFCCF4091A00968
:1036B0006093A0094091A10947FFFCCF4091A00968
:1036C00041E04093120180931C0190931D012093CF
:1036D000140130931501109222018CEB93E2809338
:1036E0002801909329012093240130932501809192
:1036F0001001806880931001809120018068809380
:1037000020018091100187FDFCCF80E3809311019F
:103710008093210180E18093650608959A01452BED
:1037200009F469C040E14093660646E04093A00971
:103730004091A10947FFFCCF4091A00940E140938F
:103740006506000000004093660642E04093A00931
:103750004091A10947FFFCCF4091A0097093A009B7
:103760004091A10947FFFCCF4091A0096093A009B7
:103770004091A10947FFFCCF4091A009109212018E
:103780004CEB53E240931C0150931D012093140114
:103790003093150140E140932201809328019093DA
:1037A0002901209324013093250180911001806824
:1037B0008093100180912001806880932001809186
:1037C000100187FDFCCF80E38093110180932101DC
:1037D00080E180936506E091C723F091C82387813B
:1037E000863019F481E180931E248681863019F495
:1037F00081E180931D2408958091010480FDFCCF18
:1038000082E0809303040895CF93DF93CDB7DEB7B2
:103810006097CDBFDEBFF0DF40E150E06FEF70E0BA
:10382000CE0101960E944BA540E150E070E060E0BF
:10383000CE01019673DF6096CDBFDEBFDF91CF91E1
:103840000895E091C723F091C8238781863019F449
:1038500090E190931E2496819630A9F420E1209364
:103860001D24853041F483E180931E24953019F4A2
:1038700083E180931D248091010480FDFCCF82E0D0
:10388000809303040895853089F7EDCFCF92DF92BE
:10389000EF92FF920F931F936A017B01A901C1145C
:1038A00020E2D206E104F10408F069C070E060E0B3
:1038B00000E010E220E030E00C191D092E093F095C
:1038C000401751076207730708F48A0120E120932B
:1038D000660626E02093A0092091A10927FFFCCFCE
:1038E0002091A00920E120936506000000002093AC
:1038F000660622E02093A0092091A10927FFFCCFB2
:103900002091A009D092A0092091A10927FFFCCF06
:103910002091A009C092A0092091A10927FFFCCF06
:103920002091A009109212012CEB33E220931C018C
:1039300030931D01009314011093150120E1209391
:103940002201809328019093290100932401109370
:1039500025018091100180688093100180912001E1
:103960008068809320018091100187FDFCCF80E367
:10397000809311018093210180E18093650681E0AD
:103980001F910F91FF90EF90DF90CF900895CF920D
:10399000DF92EF92FF920F931F936A017B01A901BF
:1039A000C11420E2D206E104F10408F061C070E025
:1039B00060E000E010E220E030E00C191D092E0963
:1039C0003F09401751076207730708F48A0120E195
:1039D0002093660623E02093A0092091A10927FFE8
:1039E000FCCF2091A009D092A0092091A10927FF26
:1039F000FCCF2091A009C092A0092091A10927FF26
:103A0000FCCF2091A00921E02093120180931C019A
:103A100090931D010093140110931501109222013F
:103A20008CEB93E280932801909329010093240169
:103A3000109325018091100180688093100180917E
:103A400020018068809320018091100187FDFCCFC8
:103A500080E3809311018093210180E180936506CA
:103A600081E01F910F91FF90EF90DF90CF9008952C
:103A700080E0F7CF8091CF0187FDFCCF0895FADF7A
:103A80008091CF0181FF0BC086E38093CA0188ED4E
:103A900090E021E030E0EBECF1E084BF208308957A
:103AA000EF92FF920F931F93CF93DF93EC01F62ECB
:103AB000E72E8A011092C201DDDFCE01800F911F37
:103AC00026E048ED50E061E070E0EBECF1E0C81773
:103AD000D90741F4C801DF91CF911F910F91FF9059
:103AE000EF900895C093C0013D2F3F713093C10105
:103AF0002093CA0144BF6083AF2DBE2D3091C40115
:103B00003D932196FA2EEB2EE2CF2F923F924F92C9
:103B10005F926F927F928F929F92AF92BF92CF925D
:103B2000DF92EF92FF920F931F93CF93DF93EC01FD
:103B3000462E372E542E652E8F71782EC81BD10934
:103B40009EDF98DF83E38093CA011092C101109237
:103B5000C201052D162D88EDC82ED12C8824839402
:103B6000912C2BECA22EBB24B39433E3232E01150E
:103B70001105A9F4852D962DDF91CF911F910F91FD
:103B8000FF90EF90DF90CF90BF90AF909F908F907D
:103B90007F906F905F904F903F902F90089570921C
:103BA000C001E42CF32CF70181917F018093C401C3
:103BB0000150110921F07394F0E27F1212C0C093FA
:103BC000C0018D2F8F718093C10195E39093CA013D
:103BD000C601F50184BF8082A0964CDF2092CA0105
:103BE000712C4E2C3F2CC3CF1F93CF93DF93CDB7B7
:103BF000DEB7A097CDBFDEBF873009F4EEC008F076
:103C00003DC0843009F4C3C088F4823009F475C023
:103C1000833009F496C010E0813009F457C0A096B3
:103C2000CDBFDEBFDF91CF911F910895853009F0A0
:103C3000D2C0E091E229F091E329CE0101961995D5
:103C40008091E82941E0815008F444C04423D9F32D
:103C5000282F30E0E1E0F0E0EC0FFD1FE20FF31F52
:103C6000908141E0911140E061E070E06C0F7D1FB8
:103C7000260F371F9150F9019083E5CF8A3009F460
:103C8000B0C090F4883009F4AAC0893041F6809120
:103C90000008813009F0ACC080918C08833009F0B5
:103CA000A7C00E94E32FBBCF8B3009F49CC08C309F
:103CB00009F0B5CF87E897E098C02FDCE1E0F0E0AD
:103CC000EC0FFD1FE10FF11D80831F5F8091E8293C
:103CD000181798F3E091E429F091E529CE010196B7
:103CE0001995E0916E2AF0916F2A4091E829BE0162
:103CF0006F5F7F4F83E1199592CF11E08091E829A2
:103D0000873009F010E0E091E229F091E329CE013B
:103D1000019619952091E829E1E0F0E0EC0FFD1FF4
:103D2000E10FF11D91E01217A8F6992339F0808177
:103D300091E08F3F09F090E08F5F80831F5F3196A5
:103D4000F2CFE091E229F091E329CE010196199595
:103D50008091E82941E0815008F4BCCF4423D9F395
:103D6000282F30E0E1E0F0E0EC0FFD1FE20FF31F41
:103D7000908141E09F3F09F040E061E070E06C0F0E
:103D80007D1F260F371F9F5FF9019083E4CF11E05D
:103D90008091E829873009F010E0E091E229F09164
:103DA000E329CE01019619952091E829E1E0F0E0A0
:103DB000EC0FFD1FE10FF11D91E0121708F08ACF03
:103DC000992331F0808191E0811190E081508083CE
:103DD0001F5F3196F2CFA3D422CF33DD20CF0CDD8D
:103DE0001ECFB0D31CCF80EA97E00E942E2E17CFB3
:103DF0000E94BE2F14CFE0E0F6E080E6828388E1E7
:103E0000868B858B0895CF9380910806C82FC09527
:103E100086FD1DC08091BE238A3070F48F5F809331
:103E2000BE23C5FF30C08091BD238A3008F58F5F67
:103E30008093BD23CF9108958A3099F7E091C723ED
:103E4000F091C8238181D0DE8091BE23E7CF8C2FF3
:103E5000807639F78091BE2381508A3030F4E0912A
:103E6000C723F091C8238081BFDE1092BE23D9CF33
:103E70008A3001F7E091C723F091C8238381B4DE33
:103E80008091BD23D4CFC076A9F68091BD23815007
:103E90008A3030F4E091C723F091C8238281A4DEF8
:103EA0001092BD23C7CFAC019B016DE086EA97E07D
:103EB0008FC5E82FF0E0EA53FC4D63836787638F7B
:103EC00067A363AB67AFE55BFF4F608308950F9314
:103ED0001F939B018A01E091C723F091C823E80F4B
:103EE000F11D40816DE086EA97E030D51F910F917A
:103EF00008950F931F93CF93DF930F92CDB7DEB743
:103F0000082FAB019E012F5F3F4F6DE086EA97E0DF
:103F100036D5182F882319F06981802FCADF812FA9
:103F20000F90DF91CF911F910F91089508958F9277
:103F30009F92AF92BF92CF92DF92EF92FF920F9338
:103F40001F93CF93DF93882E962E072F142FCEB07A
:103F5000DFB08091080490910904A090EC29B09002
:103F6000ED29E42EF12CA7014C5F5F4F2091EA2947
:103F70003091EB292417350708F06BC0C091C3239B
:103F8000D091C4238EEEA81689E2B80649F5DF91D8
:103F9000CF911F910F91FF90EF90DF90CF90BF9046
:103FA000AF909F908F90089583E090E20E940CA2C2
:103FB0001092B2251092B325109222246A8170E0EB
:103FC0008881998192D583E090E20E940CA21092A0
:103FD000B2251092B325109222240B80DC81C02DD3
:103FE000209721F08091C0238111DECF8EEE99E2DF
:103FF0008093EC299093ED29E091C323F091C423A1
:10400000309799F41092C1231092C2231092C323C7
:104010001092C4231092C0231092BF238EEE99E217
:104020008093EC299093ED29B2CFD381C481828112
:104030002091EA293091EB29820F932F911D8093D3
:10404000EA299093EB29CF010E94E6A3ED2FFC2FE4
:10405000D7CFC82AD92A85E090E00E9450A3EC016E
:10406000A882B98284E0810F8A831B821C82C501E9
:1040700001968093EC299093ED29F5018082E091DF
:10408000EC29F091ED29CF0101968093EC299093D2
:10409000ED291083E091EC29F091ED29CF010196F3
:1040A0008093EC299093ED29D082E091EC29F09156
:1040B000ED29CF0101968093EC299093ED29C082E0
:1040C000A701692D702F8091EC299091ED290E9414
:1040D00031A58091EC299091ED298E0D9F1D809343
:1040E000EC299093ED298091EA299091EB2904978E
:1040F0008E199F098093EA299093EB298091C3231D
:104100009091C423892B91F0E091C123F091C223B7
:10411000309761F0C383D483C093C123D093C2236B
:104120008091C0238F5F8093C02331CFC093C12380
:10413000D093C223C093C323D093C423F1CF089557
:104140004F925F926F927F928F929F92AF92BF92A7
:10415000CF92DF92EF92FF920F931F93CF93DF9353
:104160008C012A013B01E901C0900020D090012080
:10417000C60182589F43AC0170E060E044165506CA
:104180006606770608F073C022E0C21A20E4D20A5D
:10419000530142018C0E9D1EA11CB11C8416950674
:1041A000A606B70608F443C09C0124193509C81BAC
:1041B000D90B7E01E40CF51CE90199249394C60106
:1041C000B0E0A0E0B201481659066A067B0608F086
:1041D00045C06E5F7F4BA30192012C0F3D1F411D17
:1041E000511D281739074A075B0728F5AE01C8019A
:1041F00047DA992051F0EC0EFD1EF801EE0DFF1D7F
:10420000C00FD11FEC17FD0781F581E0DF91CF9141
:104210001F910F91FF90EF90DF90CF90BF90AF90E4
:104220009F908F907F906F905F904F900895F12CAA
:10423000E12C912CC4CF5601A418B508A501C801E2
:104240001FDAA2014C195D094C0F5D1F6EEE79E279
:10425000C8018A0D9B1D0E9431A5CBCF6C197D0929
:104260006251764DAE01C801F6CF1292CBCF80E0FD
:10427000CDCFEEEEF9E22091EA293091EB298EE6DE
:104280009AE2821B930BE817F90751F58EEE99E23B
:104290008093EC299093ED2980E890E08093EA29BF
:1042A0009093EB2982E090E480930020909301208A
:1042B00042E050E060E070E480E090E22FDAE091CC
:1042C000C723F091C82387818A3019F480E1809355
:1042D0001E2486818A3019F480E180931D2408957C
:1042E0001192D1CF8091EA299091EB299058209199
:1042F000002030910120821B930B08958093CD23E1
:104300008093D9238093E5238093F1238093FD2329
:104310008093092480931524813069F0823081F0E4
:10432000811108C01092C52386E99FE180936E2A0F
:1043300090936F2A08958093C5238CEF91E2F6CF76
:104340001092C52387E99FE1F1CFCF93DF930F92BE
:10435000CDB7DEB7E091C723F091C8238481CEDFCB
:104360008EEE99E28093EC299093ED2980E890E01D
:104370008093EA299093EB2941E050E0BE016F5F02
:104380007F4F80E090E08CDBE091EC29F091ED290B
:1043900080E8DF011D928A95E9F789818823A1F0E1
:1043A00042E050E060E070E480E090E269D9E091A2
:1043B0006E2AF0916F2A40E070E060E08FEF19956F
:1043C0000F90DF91CF91089582E090E480930020D8
:1043D0009093012042E050E060E070E480E090E2E1
:1043E0009DD981E0898341E050E0BE016F5F7F4F3E
:1043F00080E090E08ADBDBCF0F931F93CF93DF93B6
:10440000CEB1DFB1E0910804F09109042091EA29CE
:104410003091EB29A42FB0E08D010C5F1F4F2017C6
:10442000310708F44DC0EC2BFD2B245031092A1B19
:104430003B0B2093EA293093EB29A091EC29B09112
:10444000ED299D012F5F3F4F2093EC293093ED29FB
:104450008C93A091EC29B091ED29CD010196809328
:10446000EC299093ED294C93A091EC29B091ED2982
:10447000CD0101968093EC299093ED29FC93A091B6
:10448000EC29B091ED29CD0101968093EC29909310
:10449000ED29EC93415028F4DF91CF911F910F91BA
:1044A0000895FB01A091EC29B091ED29CD01019671
:1044B0008093EC299093ED2981918C93BF01EACFF1
:1044C00080E01CDFE091C723F091C82387818A3008
:1044D00019F481E180931E2486818A30E9F681E116
:1044E00080931D24D9CF1F93CF93DF930F92CDB725
:1044F000DEB7AC019E012F5F3F4F63E083E599E09B
:104500003ED2182F882311F08981F8DE812F0F9079
:10451000DF91CF911F9108950F931F939C018B0101
:10452000E091C723F091C823448163E083E599E0DB
:104530000DD21F910F910895AC019B0163E083E5BB
:1045400099E046C20F931F93CF93DF938091EA299E
:104550009091EB298038910508F076C000910020F9
:1045600010910120C0E0D0E8C01BD10B40E850E022
:10457000481B590BC417D507B0F1B8018EEE99E26C
:10458000CDD82091EA293091EB298091002090919B
:10459000012080589F4F821B930B809300209093A3
:1045A0000120EEEEF9E28EE69AE2821B930B8E1763
:1045B0009F07B9F48EEE99E28093EC299093ED2950
:1045C00080E890E08093EA299093EB2942E050E064
:1045D00060E070E480E090E2DF91CF911F910F9155
:1045E0009DC81192E4CF209779F1AE01B8018EEE0B
:1045F00099E294D8A80140585F47BE016251764DB8
:104600008EEE99E20E943AA510588091EC29909183
:10461000ED29080F191F0093EC291093ED298091C3
:10462000EA299091EB298C0F9D1F8093EA299093A2
:10463000EB298091002090910120C80FD91FC093D1
:104640000020D0930120C2CFDF91CF911F910F9115
:1046500008958091C523811175CF089547E550E0F5
:1046600066EC73E281E090E01BCA47E550E066EC3F
:1046700073E281E090E049CA0F931F93CF93DF93D9
:10468000D82FCFEFC80F80E0C73008F043C00E949A
:10469000322F8091C623C81769F1D3D8C093C6239F
:1046A0008CE0C89F9001112427533C4D2093C723D1
:1046B0003093C823A1D8E091C723F091C823858106
:1046C0000E94CA19E091C723F091C823848116DEA5
:1046D00081E090E08C01065C13426091C6230E9449
:1046E00042AC6091C7237091C823C80189539C4D87
:1046F0000E944BACD15EE091C723F091C823878123
:10470000843011F4D0931E248681843011F4D09328
:104710001D2481E0DF91CF911F910F910895909119
:10472000C62328E0E7E0F0E03CE0215009F40895DA
:10473000892F90E00196BF010E94BAABBC01982F6F
:10474000369FA001379F500D11244A535C4DDA016A
:1047500018968C91882349F381E0890F8DCFFC0155
:104760008091C6238F5C808311820895CF93DC01F2
:1047700011968C91119781110DC0CC91E0916E2A08
:10478000F0916F2A41E0BD0182E1199580ED8C0F17
:10479000CF9172CF80E0CF91089588E18093010698
:1047A000089580911D24823139F148F4803181F1DE
:1047B0008131F1F0882391F110921D242FC08331B3
:1047C000F9F090EE980F9830B8F790911F2421E0FF
:1047D000290F911121C09091040693FF15C098E014
:1047E00090930606803241F3815080931D2416C0B9
:1047F00088E080930506E0CF88E080930706DCCF51
:104800008091040683FD04C088E08093050606C0FD
:1048100088E080930606D0CF20931F2480911E2429
:10482000823131F140F4803181F18131E9F081113F
:1048300010921E2408958331F9F090EE980F98306D
:10484000B8F79091202421E0290F911121C0909177
:10485000040694FF15C090E190930606803241F360
:10486000815080931E24089580E180930506E0CF57
:1048700080E180930706DCCF8091040684FD04C0AC
:1048800080E180930506089580E180930606D0CFED
:10489000209320240895AC019B016BE086EB99E006
:1048A00097C0E6ECF3E22AE134E2982F9071887029
:1048B00091116287811161873C962E173F07C1F7DE
:1048C000992329F090E19093060610921E248823E4
:1048D00029F088E08093060610921D2408950F9316
:1048E0001F939B018A01803161F4E091C723F0910D
:1048F000C82347816BE086EB99E028D01F910F9188
:1049000008958830D9F7E091C723F091C8234681F4
:10491000F1CF0F931F93CF93DF930F92CDB7DEB7F5
:10492000082FAB019E012F5F3F4F6BE086EB99E0B4
:1049300026D0182F882319F06981802FB2DF812FAC
:104940000F90DF91CF911F910F9108950F931F93B7
:10495000FC01742FC901A801611102C080E00AC0E6
:1049600024916150271309C0BF016F5F7F4F0E94E0
:1049700015A581E01F910F910895B196EDCFDF92BB
:10498000EF92FF920F931F93CF93DF93EC01162FBB
:10499000042FD52E7901111102C080E00FC0BE0195
:1049A0006F5F7F4F802F9D2D0E940CA51150892B8A
:1049B00069F4FE01C491F701C08381E0DF91CF91DA
:1049C0001F910F91FF90EF90DF900895A196E3CF94
:1049D000DA01A90101963CE2611104C0452B09F0FE
:1049E0001C920895FC012491211109C0623020F02D
:1049F00041155105B1F33D9361508196EDCF4115BD
:104A0000510579F32D93319641505109ECCFCF9355
:104A1000DF9300D00F92CDB7DEB78091200280687F
:104A2000809320028091230280FFFCCF81E080935D
:104A30002302A0911002B0911102E091C723F091DE
:104A4000C823AE5BB109B7FF02C0B0E0A0E020E030
:104A500038EB4BE050E00E94FBAB69837A838B8399
:104A60009C83978186812B813C81243F3140C0F417
:104A7000973019F490E190931E24873019F480E167
:104A800080931D248091E8298823A1F0E091DA2900
:104A9000F091DB292496CDBFDEBFDF91CF91199431
:104AA000973019F491E190931E24873019F481E135
:104AB00080931D242496CDBFDEBFDF91CF91089552
:104AC000BC0183E090E20C9497A1CF93DF93EC01BB
:104AD000FE0164912196611103C0DF91CF91089589
:104AE00083E090E20E94E1A1F3CFAB01BC0183E03F
:104AF00090E20C94BBA180E2809362060895CF936C
:104B0000DF9380912124823031F583E090E20E948E
:104B10004CA20E94BD9D83E090E20E9467A2EC013E
:104B200097FD19C0E091C723F091C8238781833096
:104B300019F483E180931E248681833019F483E184
:104B400080931D248C2FB2D6811105C08C2FDF914C
:104B5000CF910C94502EDF91CF9108958091212414
:104B6000823021F168F4811114C08091680685FFBC
:104B700009C08FE08093022081E08093212402C04D
:104B80008330E9F080912124823039F5E0D70C940C
:104B9000FA2E809102208150809302208111F2CF61
:104BA0000E947B190E94C4A082E0E7CF8091680632
:104BB00085FDE8CF8FE08093022083E0DECF8091F7
:104BC00002208150809302208111DCCF0E9489A0B5
:104BD0000E94A91910922124D5CF0895E091C723EE
:104BE000F091C8238781823019F481E180931E24DB
:104BF0008681823019F481E180931D240895E0912B
:104C0000C723F091C8238781823019F480E1809313
:104C10001E248681823019F480E180931D2408953A
:104C200083E090E20C9472A183E090E20C94B7A22E
:104C30002EEE3CE03F932F9328EE3CE03F932F93E2
:104C400021EE3CE03F932F932AED3CE03F932F93DE
:104C50002CEF3BE03F932F9321E02F9320E82F93FD
:104C60009F938F930E949AA58DB79EB70E968DBF86
:104C70009EBF85E6089560E871E00E940D1A85E602
:104C80000895CF93DF93EB0128812F3359F42981C5
:104C9000211108C060E871E00E94661A85E6DF9184
:104CA000CF910895CE010E941E1A882399F00E9488
:104CB000041CCE010E94351AE091C723F091C8234D
:104CC000CF018F5F9F4F6581815C93420E9442AC10
:104CD00084E6E5CF8AECE3CFEF92FF920F931F9328
:104CE000CF93DF93CDB7DEB7A097CDBFDEBF8C01EA
:104CF0008091E829E82EF12C81111DC084EF9BE002
:104D00009F938F9381E08F9380E88F931F930F93EE
:104D10000E949AA50F900F900F900F900F900F90F8
:104D200085E6A096CDBFDEBFDF91CF911F910F9199
:104D3000FF90EF900895E091E229F091E329CE01F0
:104D4000019619959701AE014F5F5F4F60E871E0E2
:104D5000C8010E94A81AE4CFDF92EF92FF920F934E
:104D60001F93CF93DF93CDB7DEB7A097CDBFDEBF44
:104D70007B01D090E82965EB72E2C7010E940CA587
:104D80008E010F5F1F4F892B31F578018E2D801B0F
:104D90008D15D8F0E091E429F091E529C801199525
:104DA000E0916E2AF0916F2A4091E829B80183E1E1
:104DB000199584E6A096CDBFDEBFDF91CF911F91FC
:104DC0000F91FF90EF90DF9008950E948D1AF701E8
:104DD00081937F01DBCFA70160E270E0C8010E94F0
:104DE000D51AD8161906B1F28AECE4CFFC018091ED
:104DF000E929882329F081E38083118285E60895DB
:104E000080E3FACFFB012181211128C020812133C9
:104E100029F481E08093E92984E60895203319F488
:104E20001092E929F9CF2F33C9F41F9220E32F9371
:104E30001F9221E32F932EEE3BE03F932F9321E02F
:104E40002F9320E82F939F938F930E949AA58DB75D
:104E50009EB70A968DBF9EBF85E608958AEC089599
:104E600086E49CE1F1D48EE6089587EC9CE108D5B8
:104E70008EE60895E0ECF4E081818E7F81830E94CC
:104E800089A00E946F1984E60895E0ECF4E0818126
:104E90008E7F81830E9489A00E94751984E60895FF
:104EA000E2EDF9E225892F9324892F932BEE3BE045
:104EB0003F932F9321E02F9320E82F939F938F937D
:104EC0000E949AA58DB79EB708968DBF9EBF85E6B6
:104ED00008952091E8291F922F9328EE3BE03F93FD
:104EE0002F9321E02F9320E82F939F938F930E947D
:104EF0009AA58DB79EB708968DBF9EBF85E608958B
:104F0000BC0140E851E080E00E94671F85E60895FB
:104F1000FB0120812F3349F42181211106C060E873
:104F200071E00E94531F85E60895BF0180E00E9452
:104F3000791F882319F099DB84E608958AEC089597
:104F4000BC0140E851E081E00E94671F85E60895BA
:104F5000FB0120812F3349F42181211106C060E833
:104F600071E00E94531F85E60895BF0181E00E9411
:104F7000791F882319F079DB84E608958AEC089577
:104F8000BC0140E851E082E00E94671F85E6089579
:104F9000FB0120812F3349F42181211106C060E8F3
:104FA00071E00E94531F85E60895BF0182E00E94D0
:104FB000791F882319F059DB84E608958AEC089557
:104FC000BC0140E851E083E00E94671F85E6089538
:104FD000FB0120812F3349F42181211106C060E8B3
:104FE00071E00E94531F85E60895BF0183E00E948F
:104FF000791F882319F039DB84E608958AEC089537
:10500000BC0140E851E080E16ADC85E60895FB01DF
:1050100020812F3341F42181211105C060E871E026
:105020003ADC85E60895BF0180E173DC882319F03E
:105030001CDB84E608958AEC0895BC0140E851E049
:1050400088E04DDC85E60895FB0120812F3341F493
:105050002181211105C060E871E01DDC85E608951D
:10506000BF0188E056DC882319F0FFDA84E6089552
:105070008AEC089560E871E04FDA85E60895FB0157
:1050800020812F3341F42181211105C060E871E0B6
:1050900053DA85E60895CF0126DA882319F0E5DA98
:1050A00084E608958AEC0895CF93DF93EC011AD932
:1050B0009C018038910510F420E830E02058310937
:1050C0003F932F939F938F9388EC9BE09F938F93B5
:1050D00081E08F9380E88F93DF93CF930E949AA50E
:1050E0008DB79EB70A968DBF9EBF85E6DF91CF91A3
:1050F000089580EA90E2C4D38EE6089523DA84E628
:105100000895B7D884E6089560E871E028DB85E665
:105110000895CB012BDB811102C08AEC089584E64F
:1051200008950E94041C84E608950E94211C84E6D0
:1051300008950E94FC1B84E6089590916806917082
:1051400089E7891B0895DF92EF92FF920F931F93D7
:10515000CF93DF93EC010FE711E081E3E82E8EE0BF
:10516000F82E9CE2D92EB7018DEC92E20E940CA59C
:10517000892B19F00115110509F52197188285E68B
:10518000DF91CF911F910F91FF90EF90DF900895E5
:10519000488331968901EC014491CE010196980132
:1051A00021503109442319F00130110589F7D882C3
:1051B000890128E1E20EF11CEC01D5CFF701ECCF1B
:1051C000CF93DF9300D00F92CDB7DEB7FC01809173
:1051D00020028068809320028091230280FFFCCF10
:1051E00081E080932302A0911002B0911102AE5B86
:1051F000B109B7FF02C0B0E0A0E020E038EB4BE01F
:1052000050E00E94FBAB69837A838B839C83AC0163
:10521000662777275F934F9381EC9BE09F938F9353
:1052200081E08F9380E88F93FF93EF930E949AA57C
:10523000CDBFDEBF85E62496CDBFDEBFDF91CF9127
:1052400008952EB13FB14091080450910904242BD8
:10525000352B3F932F932BEB3BE03F932F9321E094
:105260002F9320E82F939F938F930E949AA58DB739
:105270009EB708968DBF9EBF85E608950F931F9336
:10528000CF93DF930F920F92CDB7DEB78B01E091F2
:10529000C723F091C82385818D3009F077C0E09154
:1052A000DA29F091DB29199581E08093092660E2E3
:1052B00070E0C8010E9452A59C01892BC1F5F8013C
:1052C00001900020E9F73197E01BF10BE0FD5CC095
:1052D000F695E795E130F10501F587E090E08093E0
:1052E000D0299093D1296091D0297091D129695FFB
:1052F0007F4F83E0769567958A95E1F7A80180ED69
:1053000098E20E94D51A0E9460388FEF0F900F909C
:10531000DF91CF911F910F91089553E0EE0FFF1F82
:105320005A95E1F7E093D029F093D129DCCFC80159
:1053300004962817390741F5A80162E070E0CE0114
:1053400001960E94D51A898190E0982F88272A819A
:10535000820F911D8093D0299093D1290B5F1F4F0D
:10536000F80101900020E9F73197E01BF10BE0FD17
:105370000BC0F695E79533E0EE0FFF1F3A95E1F786
:10538000E817F90708F0AFCF8AECC0CF89ECBECFA1
:10539000EF92FF920F931F93CF93DF930F920F9291
:1053A000CDB7DEB78B01E091C723F091C82385818B
:1053B0008D3009F08CC0E091DA29F091DB29199544
:1053C00082E08093092660E270E0C8010E9452A545
:1053D0007C01892B09F041C0F80101900020E9F718
:1053E0003197E01BF10BE0FD70C0F695E795E130D9
:1053F000F10511F587E090E08093D0299093D129B1
:105400006091D0297091D129695F7F4F83E07695B3
:1054100067958A95E1F7A80180ED98E20E94D51A78
:105420000E9460388FEF0F900F90DF91CF911F9106
:105430000F91FF90EF90089553E0EE0FFF1F5A95E4
:10544000E1F7CF0169E070E00E94BAABE81BF90B0D
:10545000E093D029F093D129D3CFC8010496E81660
:10546000F90699F5A80162E070E0CE0101960E946C
:10547000D51A8981282F30E0322F22278A81820F86
:10548000932F911D8093D0299093D1298730910536
:1054900029F09C0127703327232BB9F487010F5F74
:1054A0001F4FF80101900020E9F73197E01BF10B45
:1054B000E0FD0BC0F695E79533E0EE0FFF1F3A9540
:1054C000E1F7E817F90708F09BCF8AECACCF89EC3D
:1054D000AACFE091C723F091C82385818D30A1F434
:1054E000E091DA29F091DB29199585E0809309266E
:1054F0000E9493580E9460388DE998E58093B0250A
:105500009093B1258FEF089589EC0895E091C7231A
:10551000F091C82385818D30A1F4E091DA29F091D2
:10552000DB29199583E0809309260E9493580E94F5
:1055300060388DE998E58093B0259093B1258FEF81
:10554000089589EC0895E091C723F091C8238581DF
:105550008D30A1F4E091DA29F091DB29199586E0EC
:10556000809309260E9493580E9460388DE998E53F
:105570008093B0259093B1258FEF089589EC08951D
:10558000E091C723F091C8234085518564E6649F6C
:105590009001659F300D11243F932F9325EB3BE045
:1055A0003F932F9321E02F9320E82F939F938F9386
:1055B0000E949AA58DB79EB708968DBF9EBF85E6BF
:1055C0000895CF93DF930F920F92CDB7DEB7FB0113
:1055D00020812F33D9F42181211118C023E83BE029
:1055E0003F932F9321E02F9320E82F939F938F9346
:1055F0000E949AA50F900F900F900F900F900F9010
:1056000085E60F900F90DF91CF91089589E592E0A4
:1056100089839A83CE0101969F938F938FE79BE0B6
:105620009F938F93FF93EF930E94D0A50F900F90BD
:105630000F900F900F900F90892BA9F069817A81BC
:10564000693582E0780778F4E091C723F091C823A8
:1056500060877187CF018F5F9F4F8E5B93420E945F
:105660004BAC84E6CECF8AECCCCFE091C723F0914F
:10567000C82323852F9322852F932CE73BE03F936C
:105680002F9321E02F9320E82F939F938F930E94D5
:105690009AA58DB79EB708968DBF9EBF85E60895E3
:1056A000CF93DF930F920F92CDB7DEB7FB0120812E
:1056B0002F33D9F42181211118C02FE02F932FEF20
:1056C0002F932BE23BE03F932F9321E02F9320E891
:1056D0002F939F938F930E949AA5CDBFDEBF85E63F
:1056E0000F900F90DF91CF91089519821A82CE0109
:1056F00001969F938F9387E29BE09F938F93FF93F5
:10570000EF930E94D0A50F900F900F900F900F90E5
:105710000F90892BC9F069817A81611590E1790731
:1057200098F46093380370933903E091C723F091A4
:10573000C82362877387CF018F5F9F4F8C5B934233
:105740000E944BAC84E6CCCF8AECCACFFB0120810F
:105750002F33E1F42181211122C01F9220E32F93E6
:105760001F9221E32F9321E23BE03F932F9321E00F
:105770002F9320E82F939F938F930E949AA58DB724
:105780009EB70A968DBF9EBF85E60895213319F412
:10579000F5D384E60895203311F415D4FACF8AECBA
:1057A0000895FC0180910008813021F480918C08DB
:1057B000833029F080E38083118285E6089581E3B8
:1057C000FACFE091C723F091C82385818D30A1F4F1
:1057D000E091DA29F091DB29199584E0809309267C
:1057E0000E9493580E9460388DE998E58093B02517
:1057F0009093B1258FEF08958C3069F4E091DA2908
:10580000F091DB29199581E08093E7260E944B6097
:1058100080E690E6EBCF89EC08958DE00E94CA19EE
:10582000E091DA29F091DB29199587E08093092628
:105830000E9493580E9460388DE998E58093B025C6
:105840009093B1258FEF08959C0191E09093AF253F
:105850009093AE258CE38093AC2585E090E0809317
:10586000AA259093AB251092A4251092A5251092FD
:10587000A6251092A7252093A2253093A32508954D
:1058800027E02093AF252CE231E02093AA25309326
:10589000AB251092A4251092A5251092A625109252
:1058A000A7258093A2259093A3250895CF93909147
:1058B000AF25963009F4B7C0A0F4943009F48DC038
:1058C000953009F49CC0933030F491116CC0C0E065
:1058D0008C2FCF9108959330D1F78093AD2584E03C
:1058E00069C0983009F4FBC0993009F46DC0973055
:1058F00071F7853109F0F0C01092AE258091AE2588
:105900008F5F8093AE254091A4255091A52560918D
:10591000A6257091A725E091A225F091A32520E866
:1059200030E082E294E21995C82F882309F408C177
:1059300061E083E090E20E94E1A16091AE2583E006
:1059400090E20E94E1A16091AE25609583E090E233
:105950000E94E1A160E870E082E294E2C6D860E0D3
:1059600082E294E2FC0101962081620F54E2823AC5
:105970009507C1F783E090E20E94E1A18091A42500
:105980009091A525A091A625B091A72580589F4F5D
:10599000AF4FBF4F8093A4259093A525A093A62534
:1059A000B093A72595CF813041F41092A82510928D
:1059B000A92583E08093AF250EC0843041F466E0D2
:1059C00083E090E20E94E1A11092AF2504C08831EB
:1059D000D9F38B31C9F3C1E07BCF9091AD252FEF87
:1059E00030E0291B31098217130611F485E0E2CF5C
:1059F00065E183E090E20E94E1A182E0DBCF2091AB
:105A0000A8253091A925A9014F5F5F4F4093A82594
:105A10005093A9252E5D3B4DF901808386E04038E7
:105A20005105C9F6C7CF2091AD259091AE25291318
:105A30004BC090E022E234E2F9012F5F3F4F4081FA
:105A4000940FF4E2223A3F07B9F78913D1CF40917E
:105A5000A4255091A5256091A6257091A725E091D8
:105A6000A225F091A32520E830E082E294E2199586
:105A7000C82F882311F18091AE258F5F8093AE25CA
:105A80008091A4259091A525A091A625B091A72548
:105A900080589F4FAF4FBF4F8093A4259093A5256B
:105AA000A093A625B093A72566E083E090E20E942C
:105AB000E1A182E08093AF250BCF68E183E090E223
:105AC0000E94E1A168E17CCF492F4150550B24177A
:105AD0001506C1F766E08DCF8B3109F475CF88319B
