:100000000C94A50D0C94CA0D0C94CA0D0C94CA0D39
:100010000C94CA0D0C94CA0D0C94CA0D0C94CA0D04
:100020000C94CA0D0C94CA0D0C948C110C94CA0D2E
:100030000C94CA0D0C94CA0D0C94CA0D0C94CA0DE4
:100040000C94CA0D0C94CA0D0C94CA0D0C94CA0DD4
:100050000C94CA0D0C94CA0D0C94CA0D0C94CA0DC4
:100060000C94CA0D0C94CA0D0C94CA0D0C94CA0DB4
:100070000C94CA0D0C94CA0D0C94CA0D0C94FD304E
:100080000C94CA0D0C94CA0D0C945F280C94C22CCD
:100090000C94CA0D0C94CA0D0C94CA0D0C94CA0D84
:1000A0000C94CA0D0C94CA0D0C94CA0D0C94CA0D74
:1000B0000C94CA0D0C94CA0D0C94CA0D0C942D29E5
:1000C0000C94CA0D0C94272C0C942D2E0C94CA0D54
:1000D0000C94CA0D0C94CA0D0C94CA0D0C94CA0D44
:1000E0000C94CA0D0C94CA0D0C94CA0D0C94CA0D34
:1000F0000C94CA0D0C94CA0D0C94CA0D0C94CA0D24
:100100000C94CA0D0C94CA0D0C94CA0D0C94CA0D13
:100110000C94082E0C94042C0C94CA0D0C94CA0D4B
:100120000C94CA0D0C94CA0D0C94CA0D0C94CA0DF3
:100130000C94CA0D0C94CA0D0C94CA0D0C949528FD
:100140000C94030E0C94232B0C94EC2C0C94CA0DE1
:100150000C94CA0D0C947D2B0C94FA2E0C94CA0DA1
:100160000C94CA0D0C94CA0D0C94CA0D0C94CA0DB3
:100170000C94CA0D0C94CA0D0C94CA0D0C94CA0DA3
:100180000C94CA0D0C94CA0D0C94CA0D0C94CA0D93
:100190000C94CA0D0C94CA0D0C94CA0D0C94CA0D83
:1001A0000C94CA0D0C94CA0D0C94CA0D0C94CA0D73
:1001B0000C94CA0D0C94CA0D0C94CA0D0C94CA0D63
:1001C0000C94CA0D0C94CA0D0C94CA0D0C94CA0D53
:1001D0000C94CA0D0C94CA0D0C94CA0D0C94CA0D43
:1001E0000C94CA0D0C94CA0D0C94CA0D0C94CA0D33
:1001F0000C94CA0D0C94AE6B0C94CA0D6364696EBA
:100200006F70737578585B003403430068006100B9
:100210006D0065006C0065006F006E002D004D00E4
:1002200069006E0069002D0044004500530046003F
:100230006900720065004D006F0064000000380323
:100240004B00610073007000650072002000260002
:1002500020004F007300770061006C0064002000F4
:1002600047006D0062004800200028005200650031
:1002700076004700290000000403090409023E003B
:10028000020100C03209040000010202010005243D
:10029000001001042402060524060001070582035C
:1002A0000800FF09040100020A000000070504021B
:1002B000100005070583021000051201100102005D
:1002C0000008D016B20401000102000134123F12EE
:1002D0003E123D123C123B123A12351238123912BC
:1002E0000000000100EB295F2A7E2A1F357A338641
:1002F000337E33A43428352A350010070000004E21
:100300004F4E45000000000000000000000000000B
:1003100000000000000000000000000000000001DC
:100320004D465F44455346495245000000000000D9
:1003300000000000000000000000000000000000BD
:10034000008040C020A060E0109050D030B070F02D
:10035000088848C828A868E8189858D838B878F89D
:10036000048444C424A464E4149454D434B474F4CD
:100370000C8C4CCC2CAC6CEC1C9C5CDC3CBC7CFC3D
:10038000028242C222A262E2129252D232B272F2CD
:100390000A8A4ACA2AAA6AEA1A9A5ADA3ABA7AFA3D
:1003A000068646C626A666E6169656D636B676F66D
:1003B0000E8E4ECE2EAE6EEE1E9E5EDE3EBE7EFEDD
:1003C000018141C121A161E1119151D131B171F19D
:1003D000098949C929A969E9199959D939B979F90D
:1003E000058545C525A565E5159555D535B575F53D
:1003F0000D8D4DCD2DAD6DED1D9D5DDD3DBD7DFDAD
:10040000038343C323A363E3139353D333B373F33C
:100410000B8B4BCB2BAB6BEB1B9B5BDB3BBB7BFBAC
:10042000078747C727A767E7179757D737B777F7DC
:100430000F8F4FCF2FAF6FEF1F9F5FDF3FBF7FFF4C
:1004400044465F505052494E545F50494343204602
:10045000756C6C496D61676500434C4F4E450000FB
:100460004E4F4E450000000000000000000000005C
:10047000000000000000000000000000000000007C
:10048000015549445F52414E444F4D000000000069
:10049000000000000000000000000000000000005C
:1004A00000025549445F4C4546545F494E4352450E
:1004B0004D454E5400000000000000000000000008
:1004C0000000035549445F52494748545F494E4331
:1004D00052454D454E540000000000000000000051
:1004E000000000045549445F4C4546545F44454371
:1004F00052454D454E540000000000000000000031
:1005000000000000055549445F52494748545F4484
:10051000454352454D454E54000000000000000088
:100520000000000000064359434C455F53455454B6
:10053000494E47530000000000000000000000008A
:100540000000000000000753544F52455F4D454DD9
:10055000000000000000000000000000000000009B
:100560000000000000000008524543414C4C5F4D24
:10057000454D0000000000000000000000000000E9
:10058000000000000000000009544F47474C455F41
:100590004649454C440000000000000000000000F7
:1005A0000000000000000000000A53544F52455F55
:1005B0004C4F470000000000000000000000000059
:1005C000000000000000000000000B434C4F4E45AF
:1005D000000000000000000000000000000000001B
:1005E00000000000000000000000000C5052494EC6
:1005F000545F5354415445000000000000000000C7
:10060000000000000000000000000000004F46460F
:1006100000000000000000000000000000000000DA
:1006200000000000000000000000000000014D4537
:100630004D4F525900000000000000000000000073
:100640000000000000000000000000000000024C5C
:1006500049564500000000000000000000000000B6
:10066000000000000000000000000000000000008A
:100670004E4F4E450000000000000000000000004A
:10068000000000000000000000000000000000006A
:1006900001504F5745524544000000000000000043
:1006A000000000000000000000000000000000004A
:1006B00000025445524D494E414C5F434F4E4E004F
:1006C000000000000000000000000000000000002A
:1006D0000000035445524D494E414C5F5258545806
:1006E000000000000000000000000000000000000A
:1006F0000000000453455454494E475F4348414E5F
:10070000474500000000000000000000000000005D
:1007100000000000054D454D4F52595F53544F5254
:100720004544000000000000000000000000000040
:100730000000000000064D454D4F52595F434841AF
:100740004E4745440000000000000000000000008B
:1007500000000000000008434F4445435F5258002A
:100760000000000000000000000000000000000089
:100770000000000000000009434F4445435F545807
:100780000000000000000000000000000000000069
:100790000000000000000000074649454C445F444B
:1007A000455445435445440000000000000000004B
:1007B0000000000000000000000A4C4F474D454D6E
:1007C0005F46554C4C000000000000000000000097
:1007D0000000000000000000000025632C256300DD
:1007E00025356400416E7920696E746567657220F5
:1007F00066726F6D203020746F2025752E20526533
:10080000666572656E636520766F6C7461676520DE
:1008100077696C6C2062652028564343202A205457
:1008200048524553484F4C44202F20343039352905
:10083000206D562E002575002535640030203D20A2
:100840006E6F2074696D656F75740D0A312D3630C9
:1008500030203D20313030206D73202D2036303057
:100860003030206D732074696D656F757400257567
:10087000206D730025342E345800253575206D56B3
:10088000002575202866726F6D207768696368207F
:100890002575206E6F6E2D766F6C6174696C65299D
:1008A0000025750025750025632C2563004E4F201B
:1008B0005549442E004368616D656C656F6E4D69E6
:1008C0006E692052657647207769746820444553E5
:1008D0004669726520737461636B20737570706F05
:1008E0007274202553207573696E67204C554641FC
:1008F00020255320636F6D70696C6564207769747F
:1009000068204156522D4743432025532E20536FD4
:1009100075726365733A2068747470733A2F2F6729
:1009200069746875622E636F6D2F6D617869656497
:10093000732F4368616D656C656F6E4D696E6946B6
:1009400069726D7761726544455346697265537487
:1009500061636B0A4C6F676765723A202068747434
:1009600070733A2F2F6769746875622E636F6D2FED
:100970006D6178696564732F4368616D656C656F3F
:100980006E4D696E694C6976654465627567676529
:10099000722E00323032302E31302E31372D31323E
:1009A000333432340031353131313500392E332E84
:1009B000300061313633323835000D0A000D0A003F
:1009C0000D0A00643130303A4F4B00000000000047
:1009D0000000000000000000000000000000000017
:1009E00000000000653130313A4F4B2057495448E0
:1009F0002054455854000000000000000000000092
:100A000000000000006E3131303A57414954494EE0
:100A10004720464F5220584D4F44454D000000009E
:100A2000000000000000C83230303A554E4B4E4FA7
:100A3000574E20434F4D4D414E44000000000000F2
:100A400000000000000000C93230313A494E5641E2
:100A50004C494420434F4D4D414E4420555341474E
:100A60004500000000000000CA3230323A494E56BC
:100A7000414C494420504152414D4554455200009B
:100A8000000000000000000000783132303A46419A
:100A90004C53450000000000000000000000000072
:100AA00000000000000000000000793132313A54AB
:100AB000525545000000000000000000000000004A
:100AC0000000000000000000000000CB3230333A8C
:100AD00054494D454F5554000000000000000000EF
:100AE00000000000000000000000000056455253C6
:100AF000494F4E0000000000000000000000000010
:100B000000009D20434F4E46494700000000000072
:100B10000000000000000000C520BF20554944002F
:100B200000000000000000000000000000000000C5
:100B30002F21F020524541444F4E4C5900000000F7
:100B400000000000000000008521792155504C4F25
:100B5000414400000000000000000000B22100003D
:100B600000000000444F574E4C4F4144000000002D
:100B700000000000B721000000000000524553456E
:100B8000540000000000000000000000BC21000034
:100B9000000000005550475241444500000000004D
:100BA00000000000C7210000000000004D454D532B
:100BB000495A45000000000000000000000000004D
:100BC0000000D22155494453495A45000000000015
:100BD00000000000000000000000EA2152425554CD
:100BE000544F4E0000000000000000000000000014
:100BF0000822002252425554544F4E5F4C4F4E47EC
:100C00000000000000000000282220224C42555421
:100C1000544F4E00000000000000000000000000E3
:100C2000482240224C425554544F4E5F4C4F4E4741
:100C30000000000000000000682260224C4544478C
:100C40005245454E0000000000000000000000007A
:100C5000872280224C454452454400000000000099
:100C60000000000000000000A4229D224C4F474DD0
:100C70004F4445000000000000000000000000009C
:100C8000BF22BA224C4F474D454D000000000000E6
:100C900000000000000000000000D4224C4F474438
:100CA0004F574E4C4F41440000000000F822000016
:100CB000000000004C4F4753544F524500000000C5
:100CC00000000000FD220000000000004C4F4743E0
:100CD0004C454152000000000000000000230000CD
:100CE0000000000053455454494E470000000000E6
:100CF000000000000000000008230323434C45418E
:100D0000520000000000000000000000102300005E
:100D10000000000053544F52450000000000000046
:100D20000000000014230000000000005245434171
:100D30004C4C0000000000000000000018230000E0
:100D4000000000004348415247494E470000000060
:100D5000000000000000000000001C2348454C502B
:100D6000000000000000000000000000222300003E
:100D70000000000052535349000000000000000032
:100D8000000000000000000000005F23535953548E
:100D900049434B000000000000000000000000007C
:100DA00000009E2353454E445F524157000000000F
:100DB000000000000000BC230000000053454E442A
:100DC0000000000000000000000000000000BA2346
:100DD0000000000047455455494400000000000051
:100DE00000000000C02300000000000044554D50EA
:100DF0005F4D46550000000000000000BE230000CB
:100E0000000000004944454E544946590000000086
:100E100000000000C22300000000000054494D45BE
:100E20004F555400000000000000000000000000CA
:100E3000E423C4235448524553484F4C4400000017
:100E40000000000000000000512437244155544F99
:100E500043414C494252415445000000E024000007
:100E6000000000004649454C44000000000000001E
:100E70000000000000000000A624D024434C4F4E88
:100E8000450000000000000000000000E224000017
:100E90000000000044465F5345544844520000009F
:100EA00000000000000000009D3C873C44465F506D
:100EB0005052494E545F5049434300000000443DA6
:100EC0000000000044465F4657494E464F00000070
:100ED00000000000A93D00000000000044465F4CF7
:100EE0004F474D4F44450000000000000000000047
:100EF000033ED13D44465F544553544D4F44450055
:100F00000000000000000000A43E923E000000002F
:100F100000000000000000000000000000000000D1
:100F2000000000004F46460046414C53450030004B
:100F30004F4E005452554500310025313573002580
:100F400073203C4F4E7C4F46467C564552424F5391
:100F5000457C444542554747494E473E004445423B
:100F6000554747494E4700564552424F5345004F5B
:100F700046460046414C53450030004F4E00545207
:100F800055450031002531357300444542554747EA
:100F9000494E4700564552424F5345004E4F524D21
:100FA000414C004F4646004368616D656C656F6E4D
:100FB0002D4D696E69204445534669726520656E02
:100FC00061626C6564206669726D7761726520622A
:100FD00075696C74206F6E2025732062617365647F
:100FE000206F6E2025732066726F6D200D0A687465
:100FF0007470733A2F2F6769746875622E636F6D12
:101000002F6D6178696564732F4368616D656C65E8
:101010006F6E4D696E694669726D776172654445A0
:101020005346697265537461636B2E0D0A5265767F
:101030006973696F6E3A2025730D0A002573203C91
:1010400046756C6C496D6167657C48656164657265
:10105000446174613E004865616465724461746115
:101060000046756C6C496D6167650025333173000E
:1010700050726F64756374696F6E44617465004289
:10108000617463684E756D62657200536F66747744
:1010900061726556657273696F6E0048617264773C
:1010A00061726556657273696F6E00415453002515
:1010B0003234732025313273002573203C41545360
:1010C0002D357C486172647761726556657273690B
:1010D0006F6E2D327C536F667477617265566572E0
:1010E00073696F6E2D327C42617463684E756D62F8
:1010F00065722D357C50726F64756374696F6E44D0
:101100006174652D323E203C486578427974657380
:101110002D4E3E00496E76616C696420436F6E66A9
:10112000696775726174696F6E3A205365742060E7
:10113000434F4E4649473D4D465F4445534649520D
:1011400045602E0D0A0050544558542D44454641E3
:10115000554C540043544558542D41455331323871
:101160002D434D41430043544558542D44455300AD
:1011700050544558542D4D414300414E590041456E
:101180005331323800334B3344455300324B5444CF
:101190004541004348470052572F00572F00522F18
:1011A0000049534F31343434332D343A20554E4BAB
:1011B0002D434D44204E4F5F524553500049534FED
:1011C00031343434332D333A20524553455420546E
:1011D0004F2049444C450049534F31343434332D6A
:1011E000343A20414354495645205245540049530E
:1011F0004F31343434332D333A20476F7420484113
:101200004C5400524459322C204E4F5420534C43DE
:101210005420434D4400496E636F727265637420BD
:1012200053656C6563742076616C75652028523255
:101230002900494E544F2041435449564521004905
:10124000534F31343434332D343A20524459312CF5
:10125000204E4F5420534C435420434D4400495397
:101260004F31343434332D343A2053656C65637414
:10127000204E414B0049534F31343434332D343AEE
:101280002053656C656374204F4B0049534F3134D4
:101290003434332D34202849444C45293A204154D4
:1012A00051410049534F31343434332D343A2049BD
:1012B000444C45202F204E4F542057555041004953
:1012C000534F31343434332D343A2048414C542078
:1012D0002F204E4F5420575550410049534F313421
:1012E0003434332D333A2048414C54494E47004959
:1012F000534F31343434332D343A205043425F530A
:101300005F424C4B204E4F5F524553500049534F64
:1013100031343434332D343A20532D424C4B004970
:10132000534F31343434333450726F6365737342C6
:101330006C6F636B3A2049534F31343434335F5010
:1013400043425F525F424C4F434B202D2D2025647A
:101350000049534F31343434332D343A20522D4226
:101360004C4B0049534F31343434333450726F6333
:10137000657373426C6F636B3A2049534F31343459
:1013800034335F5043425F525F424C4F434B202DFA
:101390002D2025640049534F31343434332D343AF1
:1013A00020492D424C4B0049534F31343434332DB6
:1013B000343A204150505F4E4F5F524553500049E0
:1013C000534F31343434333450726F636573734226
:1013D0006C6F636B3A2049534F31343434335F5070
:1013E00043425F495F424C4F434B202D2D202564E3
:1013F0000049534F31343434333450726F63657362
:1014000073426C6F636B3A2049534F313434343339
:101410005F5043425F495F424C4F434B202D2D208C
:1014200025640049534F31343434332D343A204E3F
:10143000455720434152442049440049534F3134D9
:101440003434332D343A2053454E442052415453C2
:101450000049534F31343434332D343A204E4F54F5
:1014600020524154530049534F31343434332D34D6
:101470003A20435243206661696C3B202530345842
:1014800020767320253034580049534F313434349A
:10149000332D343A206C656E677468206661696C20
:1014A000004040204C494E452023256420696E2091
:1014B0002A2573204040005265616444617461468E
:1014C000696C655365747570202D2D204552524FFF
:1014D000522100496E76616C69642066696C6520F2
:1014E00074797065203D20256440256400496E763E
:1014F000616C69642066696C6520696E646578203A
:101500003D202564202F202564203B20666F72201B
:1015100046696C654E756D203D2025640040402075
:101520004C494E452023256420696E202A257320CE
:1015300040400050494343206B65792073657474C3
:10154000696E6773202D2D2025303278004E4F5460
:1015500020494D504C454D454E5445443A20257345
:1015600021000A984B87191A994F7619AA59506584
:10157000197100004A197700002C1954794D181977
:101580005C00000619C4CA4CFB1864864CEB18CAF0
:10159000BB5CD818DA335CC5186AAB4DB1186E6302
:1015A0004BA5186DE7539818454B4C87185AD44DE6
:1015B0007418FC104B681860F84A5C1851EC4A4FDC
:1015C000186F224E4218F5365A30185F6B4E1B18B2
:1015D000CD0D5C0A18CBE75BF717CCA35BE517C111
:1015E0006C5BCB17C0315BB117DFF65AA5176122D0
:1015F0004E9417BDC1598A173DE3587F176C885820
:1016000075170C00586E17DC6C5768171CED56598F
:10161000173B07554C17BBEC553F17EBD5542D170F
:10162000C767541A17A7F9530817A4CE5FF9168491
:10163000804BE31682ED53C51688F353A716B020EE
:10164000519316D6FB517D16B2EA526816E2974EB8
:10165000521649534F373831365F417070656E64AA
:101660005F5265636F72640049534F373831365F9C
:10167000526561645F5265636F7264730049534FD2
:10168000373831365F5570646174655F42696E61E9
:1016900072790049534F373831365F526561645F64
:1016A00042696E6172790049534F373831365F496C
:1016B0006E7465726E616C5F41757468656E746995
:1016C000636174650049534F373831365F4578742C
:1016D00065726E616C5F41757468656E7469636193
:1016E00074650049534F373831365F4765745F433F
:1016F00068616C6C656E67650049534F37383136E9
:101700005F53656C6563740041626F72745F5472FD
:10171000616E73616374696F6E00436F6D6D6974A0
:101720005F5472616E73616374696F6E00436C65C0
:1017300061725F5265636F72645F46696C650052E7
:101740006561645F5265636F726473005772697498
:10175000655F5265636F7264004C696D697465649E
:101760005F43726564697400446562697400437222
:1017700065646974004765745F56616C75650057F0
:10178000726974655F4461746100526561645F44AD
:10179000617461004765745F49534F5F46696C65CA
:1017A0005F4944730044656C6574655F46696C65A8
:1017B000004372656174655F4379636C69635F526E
:1017C00065636F72645F46696C650043726561743E
:1017D000655F4C696E6561725F5265636F72645FCD
:1017E00046696C65004372656174655F56616C752E
:1017F000655F46696C65004372656174655F42614F
:10180000636B75705F46696C6500437265617465F2
:101810005F446174615F46696C65004368616E672F
:10182000655F46696C655F53657474696E677300C4
:101830004765745F46696C655F53657474696E676C
:1018400073004765745F46696C655F494473004780
:1018500065745F436172645F554944004765745F16
:1018600056657273696F6E00466F726D61745F507A
:101870004943430053656C6563745F4170706C69E4
:10188000636174696F6E004765745F4B65795F5380
:10189000657474696E6773004765745F44465F4E94
:1018A000616D657300467265655F4D656D6F727938
:1018B000004765745F4170706C69636174696F6E35
:1018C0005F4944730044656C6574655F4170706C7A
:1018D00069636174696F6E004372656174655F412D
:1018E00070706C69636174696F6E004765745F4BFB
:1018F00065795F56657273696F6E004368616E67E4
:10190000655F4B6579005365745F436F6E66696709
:1019100075726174696F6E004368616E67655F4BD5
:1019200065795F53657474696E6773004175746897
:10193000656E7469636174655F4145535F455632F6
:101940005F4E6F6E46697273740041757468656EA0
:101950007469636174655F4145535F4556325F4604
:10196000697273740041757468656E74696361743B
:10197000655F4145530041757468656E74696361C4
:1019800074655F49534F0041757468656E696361A2
:1019900074655F4C65676163790025733A20257330
:1019A0000057424220537461727420426C6F636B23
:1019B00020546F6F204C61726765202D2D202564A7
:1019C000202D2D20257300524242205374617274E1
:1019D00020426C6F636B20546F6F204C617267659F
:1019E000202D2D202564202D2D2025640043726597
:1019F0006174654170702072657475726E656420E3
:101A00002D2D2025640A00466163746F727920725F
:101A10006573657474696E672074686520646576A3
:101A2000696365003D3D20414944203078253032CE
:101A30007825303278253032780D0A00205B4B450E
:101A40005953202D2D202564206F662025645D0DBF
:101A50000A005D0D0A00202D2D2025303264002063
:101A60002D2D20533D2530327800202D2D20414D45
:101A70004B00202D2D20533D2530327800202D2D78
:101A800020504D4B0020202D3E204E6F2E20253023
:101A900032782028257329205B76252032640020A7
:101AA0005B46494C4553202D2D202564206F662030
:101AB00025645D0D0A0020202D3E204E6F2E20252E
:101AC0003032780D0A0020202D3E204E6F2E20252A
:101AD000303278205B436F6D6D3D2573202D2D20B6
:101AE0005065726D733D25735D0D0A002841545396
:101AF000292025730D0A002844415445292025300A
:101B000032782F253032780D0A002842415443485C
:101B1000292025730D0A002856455253494F4E2956
:101B20002048573D253032782E253032782C2053EE
:101B3000573D253032782E253032780D0A00285551
:101B40004944292025730D0A000011241FBECFEF40
:101B5000CDBFDFE3DEBF00E00CBF18BE19BE1ABE6A
:101B60001BBE10E2A0E0B0E2E2EDFBEE00E00BBF36
:101B700002C007900D92AA3EB107D9F71BBE2BE217
:101B8000AAEEB0E201C01D92A430B207E1F75BD229
:101B90000C94E775B8C33BB78BBFFB018791969157
:101BA0003BBF08953BB78BBFCB0142E20D94F00FD2
:101BB0003BB70B0143E20D94F00F3BB78BBFCB015A
:101BC00045E20D94F00F3BB746E208C02091CF01EB
:101BD00027FDFCCF22272093CA0108954093CA0114
:101BE00028ED31E0209334003093CB016091C401A3
:101BF0007091C5018091C60199270895FC01409319
:101C0000CA01849108950F9200240F932F933F935C
:101C10004F935F930FB70F93EF93FF93EAB1FBB12D
:101C20005191442735B124B1569578F400928C082F
:101C30000092000806E10A95F1F700C001E0009368
:101C4000000803E000938C0804C00AE10A95F1F74C
:101C500000002150304019F40E946B2B0CC04F5FE4
:101C6000477011F4519102C000C000C00AE00A950B
:101C7000F1F700C0D9CFFF91EF910F910FBF5F91A6
:101C80004F913F912F910F910F901895F190E19006
:101C9000D190C190B190A190919081900B941B94A0
:101CA0002B943B944B945B946B947B948B949B947C
:101CB000AB94BB94CB94DB94EB94FB940895F80124
:101CC000D894E4DF5894E2DFD894E0CFF801D894B8
:101CD000DDDF5894DBDFF801D894D8CFF801D89431
:101CE000D5CFF8015894D2CFF80170965894CEDF32
:101CF000F8013896D894CADFF8015894C7CFF80194
:101D00005894C4DFD894C2DFF8015894BFCFFF9035
:101D1000EF90DF90CF90BF90AF909F908F907F908B
:101D20006F905F904F903F902F90112408952F92C5
:101D30003F924F925F926F927F928F929F92AF925B
:101D4000BF92CF92DF92EF92FF920F931F93FC010D
:101D5000719061905190419031902190119001903B
:101D60008A01BCDFFB0171926192519241923192E2
:101D70002192119201921F910F91C9CF2F923F9200
:101D80004F925F926F927F928F929F92AF92BF928B
:101D9000CF92DF92EF92FF920F931F93FC0171900D
:101DA00061905190419031902190119001908A0161
:101DB00098DFFB017192619251924192319221928E
:101DC000119201921F910F91A2CF2F923F924F92A9
:101DD0005F926F927F928F929F92AF92BF92CF92BB
:101DE000DF92EF92FF920F931F93FB01719061902E
:101DF0005190419031902190119001908A017FDFA4
:101E0000FC01719261925192419231922192119210
:101E100001921F910F917BCF2F923F924F925F9231
:101E20006F927F928F929F92AF92BF92CF92DF92EA
:101E3000EF92FF920F931F93FB017190619051906D
:101E4000419031902190119001908A014DDFFC0169
:101E5000719261925192419231922192119201922A
:101E60001F910F9154CF2F923F924F925F926F929A
:101E70007F928F929F92AF92BF92CF92DF92EF921A
:101E8000FF920F931F93FC017190619051904190CC
:101E900031902190119001908A0118DFFB0171921D
:101EA00061925192419231922192119201921F912D
:101EB0000F912DCF2F923F924F925F926F927F9210
:101EC0008F929F92AF92BF92CF92DF92EF92FF924A
:101ED0000F931F93FC01719061905190419031904C
:101EE0002190119001908A01EADEFB0171926192CA
:101EF0005192419231922192119201921F910F9130
:101F000006CF2F923F924F925F926F927F928F9265
:101F10009F92AF92BF92CF92DF92EF92FF92CF93B8
:101F2000DF93EB01DA01BF01F901719061905190EB
:101F300041903190219011900190F990E990D990C1
:101F4000C990B990A990999089907F246E245D24BE
:101F50004C243B242A2419240824FB0109957D9252
:101F60006D925D924D923D922D921D920D92019730
:101F700021F7D9017D926D925D924D923D922D9205
:101F80001D920D92DF91CF91C2CE2F923F924F9230
:101F90005F926F927F928F929F92AF92BF92CF92F9
:101FA000DF92EF92FF92CF93DF93EB01DA01BF0153
:101FB000788069805A804B803C802D801E800F8005
:101FC000FB010995F901F190E190D190C190B19098
:101FD000A190919081907F246E245D244C243B2419
:101FE0002A2419240824F990E990D990C990B9902D
:101FF000A99099908990F901F192E192D192C192C0
:10200000B192A192919281927D926D925D924D9248
:102010003D922D921D920D92019751F6DF91CF9135
:1020200076CEFEE0E6E66DCFFEE0E6E6AECFFEE081
:10203000EFE767CFFEE0EFE7A8CFFEE0EFE561CF87
:10204000FEE0E4E7A2CF7FD10E94A91D0E94491EB5
:102050005BD31092520684E08093420682E680931E
:102060008601C1E0C0932606C093210686E08093D6
:102070002206C093310612E01093320610922A060F
:1020800010922B068FE08093290689E580938001CA
:102090009AE5909381018093820180E480934106C8
:1020A000809346069091B200907F9093B2009091F9
:1020B000B20092609093B20090E3909341069093A7
:1020C000460680935006C09346061093450603E0EB
:1020D0000093410683E18093010821E030E02093E2
:1020E0002608309327082093280830932908109257
:1020F0008C08809380081092230310922103D8E06B
:10210000D093220381E180932003E091F520F091A8
:10211000F6208285938580933803909339038CE36E
:1021200080938203D093800380938303D0938103B1
:10213000DCD10E94022046D20E948619C093000280
:10214000109201021093020200930402C093200235
:10215000D09321020E941C1C82D182E0982E01E1C2
:1021600099E8E92E95E2F92E20E8C22ED12C809133
:10217000030481FF7CC08091010480FDFCCF90921C
:1021800003040E944D1E50D20E9434200E948E19DA
:10219000E0917C25F0917D2519950E94A41DE09188
:1021A000F520F091F6208481823009F046C08091BC
:1021B000ED208F5F8093ED2063E00E94156E9111FA
:1021C0003CC0E091F120F091F220A080B18012811A
:1021D000C381D4818091EE208823D9F08BE090E2F6
:1021E0000E94BE6C1092C4231092C5231092B1219C
:1021F000612F70E0C5010E94FC1F8BE090E20E94FD
:10220000BE6C1092C4231092C5231092B121209766
:10221000E9F5E0920820F0920920C0920620D092C1
:1022200007201092EF201092F0201092F1201092CF
:10223000F2201092EE201092ED200E94B3278091A0
:10224000AF218F5F6FE00E94156E9093AF210E94C7
:10225000801FE091F520F091F6208781813011F404
:102260000093AE218681813011F40093AD21E0917D
:102270007A25F0917B251995E0917425F0917525CB
:1022800019950E94181B0E94062071CFA880B98062
:102290001A810B80DC81C02D8091EE2081508093CB
:1022A000EE2098CFDA01292F33272230310531F182
:1022B0002330310551F02130310591F482E190E075
:1022C0002AEB32E02D933C9308959C013327813013
:1022D00061F02230310579F0E8E7F2E0232B39F0A4
:1022E00090E080E030E020E0EDCFEEE3F2E084919A
:1022F00090E09F01E7CFE8E0F2E0F9CF8EE390E0D5
:102300002CE732E0DFCF0F920FB60F921F9211240D
:1023100008B60F9218BEFFCF1F921FB61F9211244E
:102320008F9388B78F9318BE9F938EB19FB18058BB
:102330009F4F8EB99FB99F918F9188BF8F911F90AA
:102340001FBE1F9018958091780083FF0AC088E017
:102350008093780088ED84BF81E0809380000D94A5
:10236000FE008BEC80935200809150008860809337
:1023700050008091510083FFFCCF82EC8093550088
:10238000809150008061809350008091510084FFC3
:10239000FCCF88ED84BF84E0809340001EB81FB856
:1023A00081E0809343002FE730E020930A043093CC
:1023B0000B0420930C0430930D048093000480934D
:1023C000020480E880930001089588ED84BF81E0D5
:1023D00080937900089588ED84BF8BE1809380001D
:1023E0000895809150008260809350008091510048
:1023F00081FFFCCF82E08093CA01EDE1F0E0E4913F
:10240000E0936200ECE1F0E0E491E093630010926D
:10241000CA0180E8809365008BEB80936600809111
:102420005600897F80935600809156008460809387
:102430005600809160008160809360000895E0E420
:10244000F0E084818E7F8483E0E6F0E080818E7FFF
:102450008083E0E5F0E080818D7F8083089587E0D0
:102460008093A20078940895089590E080E0089504
:102470000895089508950895089508950895089574
:10248000CF93C82FE0917225F091732519950E9482
:10249000E927E091F520F091F620C58389E1C89FF6
:1024A000B001112464537D4F49E150E080E795E28B
:1024B0000E94BF6EE0917025F09171251995E09111
:1024C0007625F09177251995C05EE091F520F09181
:1024D000F6208781843011F4C093AE218681843048
:1024E00011F4C093AD21CF91089549E150E06CEC17
:1024F00072E080E795E20E94BF6EE091F520F091D6
:10250000F6208581BDCF0F931F939C018B01E09135
:10251000F520F091F620458162E08EEF92E00E9476
:10252000221F1F910F910895CF93DF930F92CDB784
:10253000DEB7AC019E012F5F3F4F62E08EEF92E06D
:102540000E943B1F882329F089810F90DF91CF9152
:1025500008958FEFFACFFF920F931F93CF93DF93DE
:102560000F92CDB7DEB78C019E012F5F3F4FAC01BC
:1025700062E08EEF92E00E943B1FF82E882399F0D4
:1025800089817EDFC80140E0FC0120810196222381
:1025900019F04F5F4F31C1F7E0910926F0910A26FB
:1025A000B80181E119958F2D0F90DF91CF911F9187
:1025B0000F91FF900895AC019B0162E08EEF92E0D5
:1025C0000C94621F2EB13FB1E0E0F4E040855185EC
:1025D0008EB19FB160857185862B972BB0E0A0E00E
:1025E00064E1880F991FAA1FBB1F6A95D1F788273E
:1025F0009927A07FBF71422B532B5D5F842B952BB6
:102600000C94B46E0C94B16E08951F93CF93DF9326
:10261000EC01162F115020F4DF91CF911F910895F6
:102620000E94B16E8993F6CF0E94B16E0E94B16E86
:102630000E94B16E0C94B16ECF93DF93FC01615098
:102640007109DA01EA01C20FD31F50E040E0AC1774
:10265000BD0729F0CB01841B950B029728F410824B
:10266000CA01DF91CF9108959D91392F32953F7026
:10267000903A58F4305D30839F709A3040F4905D0A
:10268000918332964E5F5F4FE2CF395CF4CF995C15
:10269000F7CFCF93DF93EC01DA01F0E0E0E04C916B
:1026A000442341F011969C911197992351F1E6171B
:1026B000F70721F4CF01DF91CF91089580ED840FCA
:1026C0008A3020F08FEB840F8630D8F480ED890FAC
:1026D0008A3020F02FEB290F263098F4242F30E099
:1026E000413450F42295207F913448F4982F292BBF
:1026F000299331961296D3CF27533109F3CF9753AD
:10270000F6CFF0E0E0E0D6CFE0E6F6E080E18583CA
:1027100082E0868388E085838AE18183E0EAF9E0CC
:102720001682178280EC858388E18483E0E0F1E003
:10273000128A8BE6838B148A158A20EA208F99E00F
:10274000918F128E148E158E168E84E0808B12A2BD
:102750003CE633A314A215A210A611A612A624A724
:1027600095A716A680A308954115510509F44FC0F9
:1027700020E12093660623E02093A0092091A1097F
:1027800027FFFCCF2091A009272F33272093A009F2
:102790002091A10927FFFCCF2091A0096093A009F7
:1027A0002091A10927FFFCCF2091A00921E02093CF
:1027B000120180931C01892F992780931D0140935A
:1027C000140150931501109222018AEE90E2809339
:1027D0002801892F99278093290140932401509340
:1027E0002501809110018068809310018091200163
:1027F0008068809320018091100187FDFCCF80E3E9
:10280000809311018093210180E1809365060895F2
:102810009C01FB014115510509F45DC06115704132
:1028200008F059C09091F420692F70E0762F662748
:102830007295707F6E0F7F1F80E18093660683E044
:102840008093A0098091A10987FFFCCF8091A00906
:10285000872F99278093A0098091A10987FFFCCF3A
:102860008091A0096093A0098091A10987FFFCCF06
:102870008091A00981E08093120120931C01232FF5
:10288000332720931D01409314015093150110929A
:1028900022018AEE90E280932801892F9927809364
:1028A00029014093240150932501809110018068F3
:1028B0008093100180912001806880932001809195
:1028C000100187FDFCCF80E38093110180932101EB
:1028D00080E18093650608954115510509F46FC0A4
:1028E00020E12093660626E02093A0092091A1090B
:1028F00027FFFCCF2091A00920E12093650600006E
:1029000000002093660622E02093A0092091A109EF
:1029100027FFFCCF2091A009272F33272093A00960
:102920002091A10927FFFCCF2091A0096093A00965
:102930002091A10927FFFCCF2091A009109212013C
:102940002AEE30E220931C01232F332720931D0110
:10295000409314015093150120E1209322018093AC
:102960002801892F992780932901409324015093AE
:1029700025018091100180688093100180912001D1
:102980008068809320018091100187FDFCCF80E357
:10299000809311018093210180E180936506E0918D
:1029A000F520F091F6208781863019F481E180933B
:1029B000AE218681863019F481E18093AD2108959E
:1029C0009C01FB014115510509F47DC06115704161
:1029D00008F079C09091F420692F70E0762F662777
:1029E0007295707F6E0F7F1F80E18093660686E090
:1029F0008093A0098091A10987FFFCCF8091A00955
:102A000080E180936506000000008093660682E006
:102A10008093A0098091A10987FFFCCF8091A00934
:102A2000872F99278093A0098091A10987FFFCCF68
:102A30008091A0096093A0098091A10987FFFCCF34
:102A40008091A009109212018AEE90E280931C01FD
:102A5000892F992780931D014093140150931501EC
:102A600080E18093220120932801232F3327209394
:102A70002901409324015093250180911001806821
:102A800080931001809120018068809320018091C3
:102A9000100187FDFCCF80E3809311018093210119
:102AA00080E180936506E091F520F091F620878122
:102AB000863019F481E18093AE218681863019F445
:102AC00081E18093AD210895CF92DF92EF92FF9242
:102AD000CF93DF93C090F420D12CF12CE12C3CE07B
:102AE000CC0CDD1CEE1CFF1C3A95D1F78FEFC816FD
:102AF000D806E104F10408F050C080E18093660636
:102B000086E08093A0098091A10987FFFCCF809186
:102B1000A00980E1809365060000000080936606AE
:102B200082E08093A0098091A10987FFFCCF80916A
:102B3000A0091092A0098091A10987FFFCCF809184
:102B4000A0091092A0098091A10987FFFCCF8FEF07
:102B5000E81AF80A8091A009C0E0D8E0C701B601E0
:102B60001AD88093A0092091A10927FFFCCF2091BA
:102B7000A009892F99278093A0098091A10987FF37
:102B8000FCCF8091A00982E0C80ED11CE11CF11C91
:102B9000219721F780E1809365068091010480FDF3
:102BA000FCCF82E080930304DF91CF91FF90EF9000
:102BB000DF90CF900895CF92DF92EF92FF920F9324
:102BC0001F93CF93DF93CDB7DEB76097CDBFDEBF46
:102BD000C090F420D12CF12CE12C8CE0CC0CDD1C2D
:102BE000EE1CFF1C8A95D1F78FEFC816D806E104BA
:102BF000F104E0F069DF40E150E06FEF70E0CE01FA
:102C000001960E94256F40E150E070E060E0CE0147
:102C1000019662DE6096CDBFDEBFDF91CF911F913E
:102C20000F91FF90EF90DF90CF9008958FEFE81A0B
:102C3000F80A01E110E001501109E1F20E94E60DED
:102C4000C701B6010E94D20D0E94E60D8FEFD81A7F
:102C5000E80AF80AF0CFCF92DF92EF92FF920F933B
:102C60001F93CF93DF93C090F420D12CF12CE12C53
:102C70008CE0CC0CDD1CEE1CFF1C8A95D1F78FEF8D
:102C8000C816D806E104F10438F580E180936606A1
:102C900083E08093A0098091A10987FFFCCF8091F8
:102CA000A0091092A0098091A10987FFFCCF809113
:102CB000A0091092A0098091A10987FFFCCF8FEF96
:102CC000E81AF80A8091A00901E110E00150110909
:102CD00071F580E180936506E091F520F091F62092
:102CE0008781863019F490E19093AE2196819630D9
:102CF00009F04CC020E12093AD21853041F483E1FF
:102D00008093AE21953019F483E18093AD218091B9
:102D1000010480FDFCCF82E080930304DF91CF911A
:102D20001F910F91FF90EF90DF90CF9008950E9438
:102D3000E60D0E94E30D0E94E60DD0E0C0E0109287
:102D4000A0098091A10987FFFCCF6091A00970E0E4
:102D50001092A0098091A10987FFFCCF8091A00962
:102D6000782BCE010E94D80D0E94E60D2296C11547
:102D700081E0D80721F7C701B6010E94DD0D0E944E
:102D8000E60D8FEFD81AE80AF80AA0CF853009F0CF
:102D9000B9CFB5CFCF92DF92EF92FF920F931F93EF
:102DA0004115E0E15E076105710508F071C0890118
:102DB00030E020E0C12CE0E1DE2EE12CF12CC41A41
:102DC000D50AE60AF70A0C151D052E053F0508F47D
:102DD000680120E12093660626E02093A009209157
:102DE000A10927FFFCCF2091A00920E120936506CF
:102DF000000000002093660622E02093A0092091A5
:102E0000A10927FFFCCF2091A009252F332720936C
:102E1000A0092091A10927FFFCCF2091A009409390
:102E2000A0092091A10927FFFCCF2091A0091092B1
:102E300012012AEE30E220931C01232F3327209326
:102E40001D01C0921401D092150120E120932201AE
:102E500080932801892F992780932901C09224010A
:102E6000D09225018091100180688093100180919B
:102E700020018068809320018091100187FDFCCFA4
:102E800080E3809311018093210180E180936506A6
:102E900081E01F910F91FF90EF90DF90CF90089508
:102EA000CF92DF92EF92FF920F931F934115E0E1D3
:102EB0005E076105710508F069C0890130E020E016
:102EC000C12CE0E1DE2EE12CF12CC41AD50AE60A71
:102ED000F70A0C151D052E053F0508F4680120E1D1
:102EE0002093660623E02093A0092091A10927FFE3
:102EF000FCCF2091A009252F33272093A0092091F2
:102F0000A10927FFFCCF2091A0094093A00920919F
:102F1000A10927FFFCCF2091A00921E020931201F5
:102F200080931C01892F992780931D01C092140161
:102F3000D0921501109222018AEE90E2809328012E
:102F4000892F992780932901C0922401D0922501CD
:102F50008091100180688093100180912001806829
:102F6000809320018091100187FDFCCF80E3809346
:102F700011018093210180E18093650681E01F911A
:102F80000F91FF90EF90DF90CF90089580E0F7CF02
:102F90008091CF0187FDFCCF0895FADF8091CF01AA
:102FA00081FF0BC086E38093CA0188ED90E021E0A9
:102FB00030E0EBECF1E084BF20830895CF92DF9204
:102FC000EF92FF920F931F93CF93DF938C01EB014E
:102FD0007A011092C201DCDF90E080E046E068ED0B
:102FE00070E0CC24C394D12CEBECF1E09C01200FD9
:102FF000311F8E159F0549F4DF91CF911F910F91DD
:10300000FF90EF90DF90CF900895202F280F20930E
:10301000C001232F2F712093C1014093CA0164BFC7
:10302000C0822091C40129930196E0CF3F924F9234
:103030005F926F927F928F929F92AF92BF92CF9248
:10304000DF92EF92FF920F931F93CF93DF93EC01E8
:103050008B016A018F71582EC81BD1099EDF98DF42
:1030600083E38093CA011092C1011092C2017601DC
:1030700085E3382E98EDA92EB12C88248394912CC9
:103080003BEC632E7724739443E3442EC6018E19E0
:103090009F09E114F10491F4DF91CF911F910F91F9
:1030A000FF90EF90DF90CF90BF90AF909F908F9068
:1030B0007F906F905F904F903F9008955092C00125
:1030C000F80181918F018093C401F1E0EF1AF108BA
:1030D00021F0539480E25812D9CFC093C0018D2FB4
:1030E0008F718093C1013092CA01C501F30184BF81
:1030F0008082A0964DDF4092CA01512CC7CF1F930A
:10310000CF93DF93CDB7DEB7A097CDBFDEBF8730BB
:1031100009F4EEC008F03DC0843009F4C3C088F45F
:10312000823009F475C0833009F496C010E0813014
:1031300009F457C0A096CDBFDEBFDF91CF911F919C
:103140000895853009F0D2C0E0918025F091812565
:10315000CE01019619958091862541E0815008F4B1
:1031600044C04423D9F3282F30E0E1E0F0E0EC0F35
:10317000FD1FE20FF31F908141E0911140E061E0FB
:1031800070E06C0F7D1F260F371F9150F90190835F
:10319000E5CF8A3009F4B0C090F4883009F4AAC0B1
:1031A000893041F680910008813009F0ACC08091EF
:1031B0008C08833009F0A7C00E942828BBCF8B3031
:1031C00009F49CC08C3009F0B5CF80E494E098C03D
:1031D00019DAE1E0F0E0EC0FFD1FE10FF11D808353
:1031E0001F5F80918625181798F3E0918225F09152
:1031F0008325CE0101961995E0910926F0910A26C2
:1032000040918625BE016F5F7F4F83E1199592CF74
:1032100011E080918625873009F010E0E09180254B
:10322000F0918125CE010196199520918625E1E046
:10323000F0E0EC0FFD1FE10FF11D91E01217A8F671
:10324000992339F0808191E08F3F09F090E08F5F02
:1032500080831F5F3196F2CFE0918025F091812528
:10326000CE01019619958091862541E0815008F4A0
:10327000BCCF4423D9F3282F30E0E1E0F0E0EC0F9D
:10328000FD1FE20FF31F908141E09F3F09F040E0F6
:1032900061E070E06C0F7D1F260F371F9F5FF90103
:1032A0009083E4CF11E080918625873009F010E00B
:1032B000E0918025F0918125CE010196199520910C
:1032C0008625E1E0F0E0EC0FFD1FE10FF11D91E03C
:1032D000121708F08ACF992331F0808191E0811193
:1032E00090E0815080831F5F3196F2CF94D422CF3B
:1032F000B2DC20CFE9DB1ECF9DD31CCF89E594E063
:103300000E94ED2617CF0E94032814CFE0E0F6E0DC
:1033100080E6828388E1868B858B0895CF938091A8
:103320000806C82FC09586FD1DC08091EC208A300C
:1033300070F48F5F8093EC20C5FF30C08091EB204C
:103340008A3008F58F5F8093EB20CF9108958A3003
:1033500099F7E091F520F091F6208181D0DE8091FF
:10336000EC20E7CF8C2F807639F78091EC208150CC
:103370008A3030F4E091F520F091F6208081BFDEB4
:103380001092EC20D9CF8A3001F7E091F520F0912E
:10339000F6208381B4DE8091EB20D4CFC076A9F6ED
:1033A0008091EB2081508A3030F4E091F520F0914B
:1033B000F6208281A4DE1092EB20C7CFAC019B01E6
:1033C0006DE08FE594E07EC5E82FF0E0EC50FF4D16
:1033D0008FE0638381503C968111FBCF08950F935A
:1033E0001F939B018A01E091F520F091F620E80FF0
:1033F000F11D40816DE08FE594E024D51F910F9180
:1034000008950F931F93CF93DF930F92CDB7DEB73D
:10341000082FAB019E012F5F3F4F6DE08FE594E0D9
:103420002AD5182F882319F06981802FCDDF812FAD
:103430000F90DF91CF911F910F9108950895CF9232
:10344000DF92FF920F931F93CF93DF93F42EEEB191
:10345000FFB12091080430910904C42ED12C409171
:10346000062050910720C0910820D0910920D60154
:103470001F964A175B0708F057C0C958D54209F490
:103480003FC0E091F120F091F220C080D180128104
:10349000C381D4818091EE208823D1F08BE090E22B
:1034A0000E94BE6C1092C4231092C5231092B121C9
:1034B000612F70E0C601A0D58BE090E20E94BE6C47
:1034C0001092C4231092C5231092B121209701F5C8
:1034D00089E895E2809308209093092080E890E0A5
:1034E00080930620909307201092EF201092F020F6
:1034F0001092F1201092F2201092EE201092ED2006
:10350000DF91CF911F910F91FF90DF90CF900895A1
:10351000C880D9801A810B80DC81C02D8091EE207B
:1035200081508093EE20B6CFE22BF32B9C2F93702B
:1035300024E0291B30E08E01020F131FD9011896D9
:10354000CA0FDB1F48505109421B530B4093062002
:10355000509307209E012F5F3F4F20930820309308
:1035600009208883A0910820B0910920CD010196FF
:103570008093082090930920FC92A0910820B0919C
:103580000920CD0101968093082090930920FC9397
:10359000A0910820B0910920CD01019680930820C8
:1035A00090930920EC93A601809108209091092026
:1035B0000E940B6F80910820909109208C0D9D1D19
:1035C00080930820909309208091062090910720F5
:1035D00004978C199D098093062090930720F80189
:1035E000C083D18344E04F0D4283138214828091C3
:1035F000F1209091F220892B91F0E091EF20F09151
:10360000F020309761F0038314830093EF20109330
:10361000F0208091EE208F5F8093EE2071CF009399
:10362000EF201093F0200093F1201093F220F1CFBF
:1036300008954F925F926F927F928F929F92AF9276
:10364000BF92CF92DF92EF92FF920F931F93CF938F
:10365000DF938C012A013B01E901C0900420D09046
:103660000520C60182589F43AC0170E060E044161B
:1036700055066606770608F072C022E0C21A20E4FA
:10368000D20A530142018C0E9D1EA11CB11C84164E
:103690009506A606B70608F442C044195509C81B8A
:1036A000D90B7E01E40CF51CEA0199249394C60120
:1036B000B0E0A0E0B201481659066A067B0608F0A1
:1036C00045C06E5F7F4BA30192012C0F3D1F411D32
:1036D000511D281739074A075B0728F5AE01C801B5
:1036E00043D8992051F0EC0EFD1EF801EE0DFF1DA0
:1036F000C00FD11FEC17FD0781F581E0DF91CF915D
:103700001F910F91FF90EF90DF90CF90BF90AF90FF
:103710009F908F907F906F905F904F900895F12CC5
:10372000E12C912CC4CF5601A418B508A501C801FD
:103730001BD8A2014C195D094C0F5D1F69E875E2A9
:10374000C8018A0D9B1D0E940B6FCBCF6C197D09A0
:1037500067577A4DAE01C801F6CF1292CBCF80E009
:10376000CDCFE9E8F5E2209106203091072089E0ED
:1037700096E2821B930BE817F90751F589E895E269
:10378000809308209093092080E890E080930620A1
:103790009093072082E090E480930420909305208A
:1037A00042E050E060E070E484E090E295D8E0917F
:1037B000F520F091F62087818A3019F480E180931A
:1037C000AE2186818A3019F480E18093AD2108957D
:1037D0001192D1CF8091062090910720905820918E
:1037E000042030910520821B930B0895E4EFF0E252
:1037F00087833C9691E2E83AF907D1F7E091F5200A
:10380000F091F6208483813069F0823081F081115B
:1038100008C01092F3208EE19AE1809309269093DC
:103820000A2608958093F32084E79CE1F6CF109256
:10383000F3208FE19AE1F1CFCF93DF930F92CDB7D1
:10384000DEB7E091F520F091F6208481CFDF89E8A2
:1038500095E2809308209093092080E890E080937F
:1038600006209093072041E050E0BE016F5F7F4F3C
:1038700080E090E0A3DBE0910820F091092080E84F
:10388000DF011D928A95E9F789818823A9F042E03A
:1038900050E060E070E484E090E20E94B413E091B4
:1038A0000926F0910A2640E070E060E08FEF19955C
:1038B0000F90DF91CF91089582E090E480930420EF
:1038C0009093052042E050E060E070E484E090E2F4
:1038D00003D881E0898341E050E0BE016F5F7F4FF4
:1038E00080E090E0A3DBDBCF0F931F93CF93DF93B8
:1038F000CEB1DFB1E0910804F091090420910620D7
:1039000030910720A42FB0E08D010C5F1F4F2017CE
:10391000310708F44DC0EC2BFD2B245031092A1B34
:103920003B0B2093062030930720A0910820B091F4
:1039300009209D012F5F3F4F2093082030930920DD
:103940008C93A0910820B0910920CD01019680931D
:103950000820909309204C93A0910820B091092051
:10396000CD0101968093082090930920FC93A091AB
:103970000820B0910920CD010196809308209093F2
:103980000920EC93415028F4DF91CF911F910F91C2
:103990000895FB01A0910820B0910920CD01019666
:1039A000809308209093092081918C93BF01EACFE6
:1039B00080E01CDFE091F520F091F62087818A30CD
:1039C00019F481E18093AE2186818A30E9F681E1A4
:1039D0008093AD21D9CF1F93CF93DF930F92CDB7B3
:1039E000DEB7AC019E012F5F3F4F63E08CE096E0B5
:1039F00042D2182F882311F08981F8DE812F0F9091
:103A0000DF91CF911F9108950F931F939C018B011C
:103A1000E091F520F091F620448163E08CE096E09F
:103A200011D21F910F910895AC019B0163E08CE0CE
:103A300096E048C20F931F93CF93DF9380910620A7
:103A4000909107208038910508F079C000910420FA
:103A500010910520C0E0D0E8C01BD10B40E850E039
:103A6000481B590BC417D507C0F1B80189E895E286
:103A70000E946C1420910620309107208091042030
:103A80009091052080589F4F821B930B80930420B8
:103A900090930520E9E8F5E289E096E2821B930B1A
:103AA0008E179F07C1F489E895E2809308209093D0
:103AB000092080E890E0809306209093072042E060
:103AC00050E060E070E484E090E2DF91CF911F91DC
:103AD0000F910C946C141192E3CF209781F1AE01F9
:103AE000B80189E895E20E946C14A80140585F472C
:103AF000BE0167577A4D89E895E20E94146F10580D
:103B00008091082090910920080F191F0093082028
:103B10001093092080910620909107208C0F9D1F03
:103B20008093062090930720809104209091052097
:103B3000C80FD91FC0930420D0930520C0CFDF91B8
:103B4000CF911F910F9108958091F320811172CF31
:103B5000089547EB50E064EF70E281E090E02ECAF8
:103B600047EB50E064EF70E281E090E05FCA0F93B2
:103B70001F93CF93DF93D82FCFEFC80F80E0CF30C4
:103B800008F044C00E94E9278091F420C81771F121
:103B900062D8C093F4208CE0C89F90011124295072
:103BA0003F4D2093F5203093F6200E946415E0915C
:103BB000F520F091F62085810E944012E091F520D9
:103BC000F091F620848112DE81E090E08C01045FA8
:103BD00010426091F4200E9479756091F5207091F7
:103BE000F620C8018B509F4D0E948275D15EE091F6
:103BF000F520F091F6208781843011F4D093AE2126
:103C00008681843011F4D093AD2181E0DF91CF9192
:103C10001F910F9108959091F42020E1EFE0F0E0E2
:103C20003CE0215009F40895892F90E00196BF01EE
:103C30000E94216EBC01982F369FA001379F500D26
:103C400011244C505F4DDA0118968C91882349F36A
:103C500081E0890F8CCFFC018091F4208F5C808300
:103C600011820895CF93DC0111968C9111978111E7
:103C70000DC0CC91E0910926F0910A2641E0BD01EA
:103C800082E1199580ED8C0FCF9171CF80E0CF91BB
:103C9000089588E18093010608958091AD218231D5
:103CA00039F148F4803181F18131F1F0882391F1CB
:103CB0001092AD212FC08331F9F090EE980F98301B
:103CC000B8F79091AB2121E0290F911121C090917B
:103CD000040693FF15C098E090930606803241F3E6
:103CE00081508093AD2116C088E080930506E0CF17
:103CF00088E080930706DCCF8091040683FD04C032
:103D000088E08093050606C088E080930606D0CF41
:103D10002093AB218091AE21823131F140F480318A
:103D200081F18131E9F081111092AE210895833142
:103D3000F9F090EE980F9830B8F79091AC2121E00F
:103D4000290F911121C09091040694FF15C090E1B4
:103D500090930606803241F381508093AE210895FE
:103D600080E180930506E0CF80E180930706DCCFF9
:103D70008091040684FD04C080E1809305060895C7
:103D800080E180930606D0CF2093AC210895AC014A
:103D90009B016BE08FE696E095C0E4EFF0E228EA45
:103DA00031E2982F9071887091116287811161873B
:103DB0003C962E173F07C1F7992329F090E1909385
:103DC00006061092AE21882329F088E0809306062B
:103DD0001092AD2108950F931F939B018A018031AA
:103DE00061F4E091F520F091F62047816BE08FE6D9
:103DF00096E028D01F910F9108958830D9F7E0916F
:103E0000F520F091F6204681F1CF0F931F93CF93C9
:103E1000DF930F92CDB7DEB7082FAB019E012F5F66
:103E20003F4F6BE08FE696E026D0182F882319F0DD
:103E30006981802FB2DF812F0F90DF91CF911F9189
:103E40000F9108950F931F93FC01942FA801611106
:103E500002C080E00BC08491615089130AC0BF0189
:103E60006F5F7F4FC9010E94EF6E81E01F910F913C
:103E70000895B196ECCFCF92DF92EF92FF921F930D
:103E8000CF93DF93EC01162F7A016901111102C063
:103E900080E00EC0BE016F5F7F4FC7010E94E66EDB
:103EA0001150892B69F4FE01C491F601C08381E0B1
:103EB000DF91CF911F91FF90EF90DF90CF90089509
:103EC000A196E4CFDA0101965CE2611104C0232BD4
:103ED00009F01C920895FC014491411109C062301F
:103EE00020F021153105B1F35D9361508196EDCF3E
:103EF0002115310579F34D93319621503109ECCFDD
:103F0000CF93DF9300D000D0CDB7DEB780912002F1
:103F10008068809320028091230280FFFCCF81E0A3
:103F200080932302A0911002B0911102AE5BB109FF
:103F3000B7FF02C0B0E0A0E020E038EB4BE050E07B
:103F40000E94356E6B837C838D839E83AA27BB275B
:103F5000E091F520F091F620378126814D815E8138
:103F6000443F5140C8F4373019F480E18093AE21CA
:103F7000273019F480E18093AD2180918625882334
:103F800029F0E0917825F091792519952696CDBFF5
:103F9000DEBFDF91CF910895373019F431E13093CE
:103FA000AE21273019F421E12093AD212091AF21DA
:103FB0002111ECCF99838A83E0910926F0910A269A
:103FC00042E0BE016F5F7F4F88E41995DFCFBC01EF
:103FD0008BE090E20C944B6CCF93DF93EC01FE01ED
:103FE00064912196611103C0DF91CF9108958BE018
:103FF00090E20E94936CF3CFAB01BC018BE090E2A6
:104000000C946F6C80E2809362060895CF93DF93E7
:104010008091B021823029F58BE090E20E94FE6C05
:104020000E9471688BE090E20E94196DEC0197FD8F
:1040300018C0E091F520F091F6208781833019F4C3
:1040400083E18093AE218681833019F483E18093EC
:10405000AD218C2FEBD4811104C08C2FDF91CF9137
:10406000DCC6DF91CF9108958091B021823019F1A3
:1040700068F4811113C08091680685FF09C08FE044
:1040800080930A2081E08093B02102C08330E1F068
:104090008091B021823031F519D665C780910A2010
:1040A000815080930A208111F3CF0E94F1110E9468
:1040B000786B82E0E8CF8091680685FDE9CF8FE0DC
:1040C00080930A2083E0DFCF80910A208150809383
:1040D0000A208111DDCF0E943D6B0E941F121092B9
:1040E000B021D6CF0895E091F520F091F620878198
:1040F000823019F481E18093AE218681823019F4F7
:1041000081E18093AD210895E091F520F091F620B2
:104110008781823019F480E18093AE2186818230DC
:1041200019F480E18093AD2108958BE090E20C9426
:10413000266C8BE090E20C94696D22EB39E03F93A2
:104140002F932CEA39E03F932F9325EA39E03F93F0
:104150002F9323E939E03F932F9325EB38E03F93EA
:104160002F9322E02F931F929F938F930E942C6F87
:104170008DB79EB70E968DBF9EBF85E6089560E011
:1041800072E00E94831285E60895CF93DF93EB01DE
:1041900028812F3359F42981211108C060E072E091
:1041A0000E94DB1285E6DF91CF910895CE010E9437
:1041B0009412882399F00E94DB15CE010E94AB1265
:1041C000E091F520F091F620CF018F5F9F4F658140
:1041D0008F5E90420E94797584E6E5CF8AECE3CF4A
:1041E000EF92FF920F931F93CF93DF93CDB7DEB77C
:1041F000A097CDBFDEBF8C0180918625E82EF12CE3
:1042000081111CC08DEA98E09F938F9382E08F9379
:104210001F921F930F930E942C6F0F900F900F907F
:104220000F900F900F9085E6A096CDBFDEBFDF9177
:10423000CF911F910F91FF90EF900895E09180250D
:10424000F0918125CE01019619959701AE014F5F3E
:104250005F4F60E072E0C8010E941C13E4CFDF9260
:10426000EF92FF920F931F93CF93DF93CDB7DEB7FB
:10427000A097CDBFDEBF7B01D09086256BE570E2B5
:10428000C7010E94E66E8E010F5F1F4F892B31F52B
:1042900078018E2D801B8D15D8F0E0918225F0914C
:1042A0008325C8011995E0910926F0910A264091CD
:1042B0008625B80183E1199584E6A096CDBFDEBFBF
:1042C000DF91CF911F910F91FF90EF90DF900895B4
:1042D0000E940213F70181937F01DBCFA70160E207
:1042E00070E0C8010E944913D8161906B1F28AEC91
:1042F000E4CFFC0180918725882329F081E3808326
:10430000118285E6089580E3FACFFB012181211116
:1043100027C02081213329F481E08093872584E61A
:104320000895203319F410928725F9CF2F33C1F463
:104330001F9220E32F931F9221E32F9327EA38E067
:104340003F932F9322E02F931F929F938F930E946E
:104350002C6F8DB79EB70A968DBF9EBF85E60895D8
:104360008AEC08958AEC96E12FD38EE6089580E5D5
:1043700097E146D38EE60895E0ECF4E081818E7FEC
:1043800081830E943D6B0E94E51184E60895E0EC74
:10439000F4E081818E7F81830E943D6B0E94EB114E
:1043A00084E60895E0E7F5E225892F9324892F9389
:1043B00024EA38E03F932F9322E02F931F929F939C
:1043C0008F930E942C6F8DB79EB708968DBF9EBFAE
:1043D00085E60895209186251F922F9321EA38E0E3
:1043E0003F932F9322E02F931F929F938F930E94CE
:1043F0002C6F8DB79EB708968DBF9EBF85E608953A
:10440000BC0140E052E080E00E94EF1985E608958B
:10441000FB0120812F3349F42181211106C060E086
:1044200072E00E94DE1985E60895BF0180E00E94D7
:10443000011A882319F094DB84E608958AEC089524
:10444000BC0140E052E081E00E94EF1985E608954A
:10445000FB0120812F3349F42181211106C060E046
:1044600072E00E94DE1985E60895BF0181E00E9496
:10447000011A882319F074DB84E608958AEC089504
:10448000BC0140E052E082E00E94EF1985E6089509
:10449000FB0120812F3349F42181211106C060E006
:1044A00072E00E94DE1985E60895BF0182E00E9455
:1044B000011A882319F054DB84E608958AEC0895E4
:1044C000BC0140E052E083E00E94EF1985E60895C8
:1044D000FB0120812F3349F42181211106C060E0C6
:1044E00072E00E94DE1985E60895BF0183E00E9414
:1044F000011A882319F034DB84E608958AEC0895C4
:10450000BC0140E052E080E166DC85E60895FB01F5
:1045100020812F3341F42181211105C060E072E038
:1045200036DC85E60895BF0180E16FDC882319F051
:1045300017DB84E608958AEC0895BC0140E052E060
:1045400088E049DC85E60895FB0120812F3341F4A2
:104550002181211105C060E072E019DC85E6089533
:10456000BF0188E052DC882319F0FADA84E6089566
:104570008AEC089560E072E047DA85E60895FB0171
:1045800020812F3341F42181211105C060E072E0C8
:104590004BDA85E60895CF011EDA882319F0E0DAB8
:1045A00084E608958AEC0895CF93DF93EC0112D945
:1045B0009C018038910510F420E830E02058310942
:1045C0003F932F939F938F9381E898E09F938F93CE
:1045D00082E08F931F92DF93CF930E942C6F8DB751
:1045E0009EB70A968DBF9EBF85E6DF91CF91089555
:1045F00089E19BE105D28EE608951CDA84E60895F0
:10460000B0D884E6089560E072E025DB85E6089581
:10461000CB0128DB811102C08AEC089584E608955D
:104620000E94DB1584E608950E942B1684E6089507
:104630000E94641584E6089590916806917089E758
:10464000891B0895DF92EF92FF920F931F93CF93F0
:10465000DF93EC010FEF11E08CEEE82E8AE0F82EEC
:104660009CE2D92EB7018AE990E20E94E66E892B7E
:1046700019F00115110509F52197188285E6DF91DA
:10468000CF911F910F91FF90EF90DF900895488395
:1046900031968901EC014491CE0101969801215097
:1046A0003109442319F00130110589F7D8828901B5
:1046B00028E1E20EF11CEC01D5CFF701ECCFCF934E
:1046C000DF9300D00F92CDB7DEB7FC0180912002BE
:1046D0008068809320028091230280FFFCCF81E0DC
:1046E00080932302A0911002B0911102AE5BB10938
:1046F000B7FF02C0B0E0A0E020E038EB4BE050E0B4
:104700000E94356E69837A838B839C83AA27BB279B
:104710009F938F938AE798E09F938F9382E08F9384
:104720001F92FF93EF930E942C6FCDBFDEBF85E6F3
:104730002496CDBFDEBFDF91CF9108952EB13FB15A
:104740004091080450910904242B352B3F932F935B
:1047500024E738E03F932F9322E02F931F929F93FB
:104760008F930E942C6F8DB79EB708968DBF9EBF0A
:1047700085E6089589EC089589EC089589EC0895FB
:1047800089EC089589EC0895E091F520F091F620E8
:104790004085518564E6649F9001659F300D11242A
:1047A0003F932F932EE638E03F932F9322E02F93F1
:1047B0001F929F938F930E942C6F8DB79EB7089680
:1047C0008DBF9EBF85E60895CF93DF930F920F9222
:1047D000CDB7DEB7FB0120812F33D1F42181211128
:1047E00017C02CE338E03F932F9322E02F931F92C2
:1047F0009F938F930E942C6F0F900F900F900F90AC
:104800000F900F9085E60F900F90DF91CF91089554
:1048100089E592E089839A83CE0101969F938F93D5
:1048200088E398E09F938F93FF93EF930E948B6FA1
:104830000F900F900F900F900F900F90892BA9F071
:1048400069817A81693582E0780778F4E091F52012
:10485000F091F62060877187CF018F5F9F4F8C5E4C
:1048600090420E94827584E6CECF8AECCCCFE09154
:10487000F520F091F62023852F9322852F9325E3B1
:1048800038E03F932F9322E02F931F929F938F93B3
:104890000E942C6F8DB79EB708968DBF9EBF85E690
:1048A0000895CF93DF930F920F92CDB7DEB7FB0140
:1048B00020812F33D1F42181211117C02FE02F93B4
:1048C0002FEF2F9324EE37E03F932F9322E02F9387
:1048D0001F929F938F930E942C6FCDBFDEBF85E602
:1048E0000F900F90DF91CF91089519821A82CE0117
:1048F00001969F938F9380EE97E09F938F93FF9302
:10490000EF930E948B6F0F900F900F900F900F906E
:104910000F90892BC9F069817A81611590E179073F
:1049200098F46093380370933903E091F520F09187
:10493000F62062877387CF018F5F9F4F8A5E904218
:104940000E94827584E6CCCF8AECCACFFB0120811D
:104950002F33D9F42181211121C01F9220E32F93FD
:104960001F9221E32F932AED37E03F932F9322E00C
:104970002F931F929F938F930E942C6F8DB79EB79A
:104980000A968DBF9EBF85E60895213319F43BD367
:1049900084E60895203311F45BD3FACF8AEC0895AE
:1049A000FC0180910008813021F480918C088330D3
:1049B00029F080E38083118285E6089581E3FACFB0
:1049C00089EC089589EC08959C0191E09093BE23B1
:1049D0009093BD238CE38093BB2385E090E080938C
:1049E000B9239093BA231092B3231092B423109258
:1049F000B5231092B6232093B1233093B2230895A8
:104A000027E02093BE232CE231E02093B92330939A
:104A1000BA231092B3231092B4231092B5231092AC
:104A2000B6238093B1239093B2230895CF939091AE
:104A3000BE23963009F4B7C0A0F4943009F48DC0B9
:104A4000953009F49CC0933030F491116CC0C0E0F3
:104A50008C2FCF9108959330D1F78093BC2384E0BD
:104A600069C0983009F4FBC0993009F46DC09730E3
:104A700071F7853109F0F0C01092BD238091BD23FC
:104A80008F5F8093BD234091B3235091B4236091F5
:104A9000B5237091B623E091B123F091B22320E8C1
:104AA00030E081EB91E21995C82F882309F407C102
:104AB00061E08BE090E20E94936C6091BD238BE0FB
:104AC00090E20E94936C6091BD2360958BE090E230
:104AD0000E94936C60E870E081EB91E28DDA60E017
:104AE00081EB91E2FC0101962081620F52E2813359
:104AF0009507C1F78BE090E20E94936C8091B323FD
:104B00009091B423A091B523B091B62380589F4FC4
:104B1000AF4FBF4F8093B3239093B423A093B5239B
:104B2000B093B62395CF813041F41092B723109201
:104B3000B82383E08093BE230EC0843041F466E046
:104B40008BE090E20E94936C1092BE2304C08831E7
:104B5000D9F38B31C9F3C1E07BCF9091BC232FEF08
:104B600030E0291B31098217130611F485E0E2CFEA
:104B700065E18BE090E20E94936C82E0DBCF2091B4
:104B8000B7233091B823A9014F5F5F4F4093B723FC
:104B90005093B8232F543E4DF901808386E040386E
:104BA0005105C9F6C7CF2091BC239091BD2329138D
:104BB0004BC090E021EB31E2F9012F5F3F4F408184
:104BC000940FF2E221333F07B9F78913D1CF409117
:104BD000B3235091B4236091B5237091B623E09133
:104BE000B123F091B22320E830E081EB91E21995F6
:104BF000C82F882311F18091BD238F5F8093BD233F
:104C00008091B3239091B423A091B523B091B623A2
:104C100080589F4FAF4FBF4F8093B3239093B423DF
:104C2000A093B523B093B62366E08BE090E20E9498
:104C3000936C82E08093BE230BCF68E18BE090E21F
:104C40000E94936C68E17CCF492F4150550B24178B
:104C50001506C1F766E08DCF8B3109F475CF883129
:104C600009F46DCF863009F409CF853109F073CF8F
:104C700061E08BE090E20E94936C6091BD238BE039
:104C800090E20E94936C6091BD2360958BE090E26E
:104C90000E94936C60E870E081EB91E2ADD960E036
:104CA00081EB91E2FC0101962081620FE2E2813307
:104CB0009E07C1F78BE090E20E94936C4CCF64E0BA
:104CC0008BE090E20E94936C89E034CF8091BE2308
:104CD000813019F0873029F108958091B92390919E
:104CE000BA239C01215031092093B9233093BA2370
:104CF000892B31F58091BB239FEF980F9093BB23B5
:104D0000882361F065E18BE090E20E94936C85E07E
:104D100090E08093B9239093BA2308951092BE2314
:104D2000F6CF8091B9239091BA239C01215031098B
:104D30002093B9233093BA23892B11F41092BE2308
:104D40000895282F90E080E0FC01ED53F64FE491A8
:104D5000E21303C08C53964F08958196893231E057
:104D6000930791F790E080E00895FC01862FBA0147
:104D70008F33E1F47696259134912115310559F15F
:104D800081EB91E2F90119958F3F31F591E0909314
:104D9000C1232EB13FB14091080450910904242B46
:104DA000352B2093BF233093C02308958D3359F4BE
:104DB0007496259134912115310569F081EB91E2CA
:104DC000F9011995E1CF811102C07096D4CF8032DC
:104DD00011F47296EECF89EC08950F931F93CF9341
:104DE000DF938C01CCEEDAE0BE01C8010E94E66ED2
:104DF000892B49F450E040E060E0CE01DF91CF9193
:104E00001F910F91B2CF68968FE0C432D80761F737
:104E1000DF91CF911F910F910895EF92FF920F9321
:104E20001F93CF93DF939FE9980F2FEB280F2A3121
:104E300048F19A3148F190ED980F9A3040F08F3553
:104E400031F0982F9D7F9D3311F08032F9F420913D
:104E5000C4233091C5232F3F91E0390758F4A901AD
:104E60004F5F5F4F4093C4235093C5232F543E4D53
:104E7000F901808381E0DF91CF911F910F91FF9025
:104E8000EF9008959A3118F78052E1CF8D3009F0F4
:104E900053C0E091C423F091C523EF54FE4D10821E
:104EA0001092C4231092C5230091C1230111E2CFB7
:104EB0008091B121982F9F7D99F488EC42DF8CD8A6
:104EC00080EC99E089D80023A9F28091B121882350
:104ED00089F281EB91E27BD88DEB99E07DD8CACF46
:104EE0008D7F8D3351F3E1EBF1E27F0111911123BD
:104EF00031F01F3321F01D3311F01032B1F7F701FB
:104F00001082CCEEDAE0BE0181EB91E20E94E66E07
:104F1000892B61F41092B121A7014F5F5F4F612F80
:104F2000CE0123DF01E08F3F49F6A4CF6896FFE072
:104F3000C432DF0741F7C1CF883069F48091C423C0
:104F40009091C523009709F495CF01978093C423CE
:104F50009093C5238FCF8B3109F08CCF1092C4234F
:104F60001092C52387CF8091C123882389F1E091D6
:104F7000F520F091F620208531852115310541F18C
:104F80008EB19FB14091080450910904842B952B58
:104F90004091BF235091C023841B950B64E670E0C1
:104FA0000E94216E6217730798F01092C1238BEC58
:104FB000C8DE12D88AEB99E00FD8E091C223F091B5
:104FC000C323309729F019951092C2231092C3235E
:104FD00008958091C1238823A9F01092C1238BECFE
:104FE000B0DE0E94EC1F8AEB99E00E94EC1FE0917A
:104FF000C223F091C323309729F019951092C22350
:105000001092C3230895809100088130E1F48091CB
:105010008C088330C1F4089581E08093000893E008
:1050200090938C088093C6231092C7238EB19FB1B2
:105030002091080430910904822B932B8093C9237B
:105040009093CA2308958091C823882329F3089553
:1050500010928C0810920008E6ECF3E210821182A4
:105060000895A0E2B6E081E015968C9315972BE0A9
:1050700036E228B939B92BE836E22AB93BB910B87B
:1050800013B812B816B817B811B8E0E0F9E010A2DA
:1050900011A22FEF30E026A337A32FEF3FEF20A779
:1050A00031A7808398E8938390E1948793E0978376
:1050B0001C968C931C9782E01A968C9308951F92ED
:1050C0001FB61F9211248F9388B78F9318BE8BB78A
:1050D0008F931BBE9F93EF93FF93E0E0F9E0138261
:1050E0008FE790E086AB97AB81E190E080AF91AF26
:1050F000E0E0FAE010A211A28FEF9FEF86A397A342
:1051000089E88383168281E084878EE08083109211
:105110002A06FF91EF919F918F918BBF8F9188BF4E
:105120008F911F901FBE1F9018951F921FB61F9240
:1051300011242F9328B72F9318BE2BB72F931BBE84
:105140003F938F939F93EF93FF939091280683B1A2
:10515000967021E009F020E0880F822B83B982B19C
:10516000882309F476C012B883B187708730D9F5E7
:105170001092000980E180930C091092030A1B9B96
:105180002DC08CEA94E08093260A9093270A82E04F
:1051900081B981E080930C0A83E08093060A86B18E
:1051A00097B1877039F090B18F5F8930D1F4E8B151
:1051B000F9B1908381E08093CB2388E88093030941
:1051C000FF91EF919F918F913F912F912BBF2F9145
:1051D00028BF2F911F901FBE1F9018958CE694E05A
:1051E000D2CF9695E1CF93B1892F8C7031F3947023
:1051F00081B181111EC080B186959923C1F090E0E4
:10520000892B80B926B137B12F5F3F4F26B937B907
:1052100027703327232B89F6E8B1F9B19F012F5F5F
:105220003F4F28B939B9808381E081B9C6CF90E872
:10523000E7CF81B1813009F0C0CFEAB1FBB19F0166
:105240002F5F3F4F2AB93BB9911180E0808311B89D
:10525000B4CF82B1809582B9B0CF1F920F920FB6B2
:105260000F92112408B60F9218BE0BB60F921BBEF8
:105270002F933F938F939F93EF93FF9381B182304E
:1052800098F081B18D3080F4E1B1F0E0EE0FFF1FB6
:10529000EE59FF4D0190F081E02D19948FE790E0D9
:1052A0008093260A9093270AFF91EF919F918F9107
:1052B0003F912F910F900BBE0F9008BE0F900FBE25
:1052C0000F901F9018958E9A8EE0809340088FE380
:1052D00090E08093260A9093270A85E081B9E4CF75
:1052E0008E9886E081B98FEF82B914B815B8E8B10D
:1052F000F9B1808180B9D8CF009B06C08E9A82B167
:10530000809582B987E0EACF8E98FCCF009B11C0D0
:105310008E9880B1869580B984B195B1019684B993
:1053200095B984B195B187709927892B21F488E0CC
:10533000D5CF8E9AEECF24B135B186B197B128176B
:10534000390751F58AE0CACFEAB1FBB1309731F0A5
:105350008081882329F08E9A89E0C0CF82B1F9CF6D
:105360008E98FACFEAB1FBB13097D1F080818823D3
:10537000A9F08E983196EAB9FBB924B135B186B15E
:1053800097B128173907F1F2E8B1F9B1CF010196C9
:1053900088B999B9818180B986E0A0CF8E9AEACF89
:1053A00082B1882321F08E988FEF82B9E6CF8E9A52
:1053B000FBCF8E988BE092CF8E988CE08FCF10929F
:1053C000000A1092060A109240081092410881E0EB
:1053D0008093CC2369CFCF93DF93EBECF3E2108281
:1053E0001182E0E4F6E0128A84E08283C0E8D1E032
:1053F00082E68E83A0E2B6E081E016968C93169743
:1054000011968C93119796E012969C931297519651
:105410008C93519732E052963C9352971A961C9275
:105420001A971B961C921B979FE019969C9399E5DF
:1054300098832AE529839A8390E491839683A0EB4D
:10544000B0E012962C911297207F12962C9312970F
:1054500012962C911297226012962C9320E32183AE
:105460002683908B8683358383E08183E0E0F8E0B8
:1054700083E1818321E030E026A337A320A731A771
:10548000E0E8F8E014868083E0E2F3E01382118222
:1054900088E0828391E19083A091F520B091F6207D
:1054A0001A962D913C91208F318FE0E8F3E09CE338
:1054B0009283808393838183DF91CF91D2CDA0E2C9
:1054C000B6E01A961C921A97EBECF3E21082118266
:1054D000E0E0F9E010821382178280E18487E0E047
:1054E000FAE010821382168281E08487E0E4F8E01B
:1054F0001082118216968C938E9808950F931F93A5
:10550000CF93DF938091CB23882309F483C010923B
:10551000CB23C6B1D7B1209709F48AC08E01095FA9
:105520001F4F93E0169507959A95E1F7E0910926AC
:10553000F0910A26402F6BE076E280E41995C7309F
:10554000D10508F475C0E0910926F0910A26402F94
:105550006BE076E280E41995E091F520F091F62079
:105560008781883019F483E18093AE218681883069
:1055700019F483E18093AD21E0917E25F0917F25A0
:10558000BE018BE096E21995EC0194FF4EC0DF7EE0
:105590008BE896E28AB99BB9209709F449C0AE011D
:1055A000495F5F4F83E0569547958A95E1F7E09113
:1055B0000926F0910A266BE076E281E41995E091E4
:1055C000F520F091F6208781893019F483E18093EA
:1055D000AE218681893019F483E18093AD21C6B96B
:1055E000D7B98BE096E288B999B910926008109209
:1055F00061088FE090E0809366089093670888E0E8
:1056000090E080936A0890936B0883E2809341084E
:1056100083E081B98091CC23882381F01092CC2340
:10562000DF91CF911F910F911CCD1AB81BB8B4CF49
:105630001092000A1092060A14DDECCFDF91CF9190
:105640001F910F9108951F921FB61F9211242F933F
:1056500028B72F9318BE2BB72F931BBE3F938F9362
:105660009F93EF93FF93E0E0F9E080E48487178253
:10567000E0E8F3E082E0878389EB81838BE096E2C8
:105680008AB99BB981E090E084B995B916B88EB11A
:105690009FB12091080430910904822B932B8093B1
:1056A000CE239093CF2381E08093D22318B817B8EC
:1056B0001092CD2388E080938706FF91EF919F9110
:1056C0008F913F912F912BBF2F9128BF2F911F902A
:1056D0001FBE1F901895E0E0F9E08FEF94E086A3DD
:1056E00097A380E6848780E387838FEF90E086AB83
:1056F00097AB88E08093870608951F921FB61F928C
:1057000011242F9328B72F9318BE2BB72F931BBEAE
:105710003F934F935F938F939F93EF93FF931092D9
:10572000070A1092000A10924709109240098091CE
:1057300081038E7F8093810384B195B180FF16C071
:10574000379B5EC086B1869586B984B195B10196C6
:1057500084B995B987709927892B41F4EAB1FBB1D7
:10576000CF0101968AB99BB986B1808384B195B186
:1057700087709927892BC9F086B144B155B1E4B13E
:10578000F5B193E0F695E7959A95E1F7E55FF94D68
:1057900090E04770552728E030E0241B350B02C00D
:1057A000959587952A95E2F7808381E08093D123B0
:1057B0001092D2238FEF9FEF8093260A9093270AAF
:1057C0001092200A1092210A1092060A1092070ADB
:1057D0001092030A84E08093000A83E08093CD2333
:1057E000FF91EF919F918F915F914F913F912F91F9
:1057F0002BBF2F9128BF2F911F901FBE1F90189570
:1058000086B186958068A0CF1F921FB61F92112483
:105810008F9388B78F9318BE8BB78F931BBEEF9370
:10582000FF93E0E8F3E081818F7C8183E0E0FAE0A0
:1058300088E8838381E08083FF91EF918F918BBF14
:105840008F9188BF8F911F901FBE1F9018951F9238
:105850001FB61F9211248F9388B78F9318BE8BB7F2
:105860008F931BBE9F93EF93FF93809160091092DB
:1058700060091092610993E0909340098135B8F571
:10588000813348F186B18695806886B984B195B137
:10589000019684B995B987709927892B41F4EAB1AB
:1058A000FBB1CF0101968AB99BB986B1808386B1DD
:1058B000869586B984B195B1019684B995B98770FA
:1058C0009927892B41F4EAB1FBB1CF0101968AB93E
:1058D0009BB986B18083FF91EF919F918F918BBF90
:1058E0008F9188BF8F911F901FBE1F901895815573
:1058F000803268F186B18695806886B984B195B1A9
:10590000019684B995B987709927892B41F4EAB13A
:10591000FBB1CF0101968AB99BB986B1808386B16C
:105920008695806886B984B195B1019684B995B998
:1059300087709927892B41F4EAB1FBB1CF01019619
:105940008AB99BB986B1808386B186959ECF84B192
:1059500095B180FFE4CF86B18695806886B984B121
:1059600095B1019684B995B987709927892B09F06B
:1059700089CFEAB1FBB1CF0101968AB99BB986B153
:10598000808380CF1F921FB61F9211248F9388B7F8
:105990008F9318BE8BB78F931BBE9F93EF93FF938C
:1059A00084E080938506E0E0F9E013828FE790E0E1
:1059B00086AB97AB81E190E086AF97AF10922B0654
:1059C000FF91EF919F918F918BBF8F9188BF8F91A6
:1059D0001F901FBE1F9018951F921FB61F92112473
:1059E0002F9328B72F9318BE2BB72F931BBE3F932F
:1059F0004F935F938F939F93EF93FF93909128061C
:105A000084B1967021E009F020E0880F822B84B9E0
:105A100083B1882309F4F8C013B884B18770873044
:105A200009F0C5C084E0809386061092000980E8E2
:105A300080930C09109207091092290686B197B13C
:105A4000877041F090B18F5F893009F07BC0E8B179
:105A5000F9B1908386B197B18093D7239093D823DF
:105A60008091D7239091D823079708F46DC081E0E7
:105A70008093DB232BE037E22CB93DB921E030E005
:105A80002093D3233093D42316B817B815B899E8C8
:105A9000909380031092000A1092200A1092210A1B
:105AA0004FEF5FEF4093260A5093270A2FE530E02F
:105AB00020932A0A30932B0A1092060A20E22093A0
:105AC0000C0A9CE09093070A1092600910926109F9
:105AD000409366095093670940EA50E040936A0991
