:100000000C945B170C9480170C9480170C94801739
:100010000C9480170C9480170C9480170C94801704
:100020000C9480170C9480170C94C01A0C948017B1
:100030000C9480170C9480170C9480170C948017E4
:100040000C9480170C9480170C9480170C948017D4
:100050000C9480170C9480170C9480170C948017C4
:100060000C9480170C9480170C9480170C948017B4
:100070000C9480170C9480170C9480170C948017A4
:100080000C9480170C9480170C9437320C94833A9C
:100090000C9480170C9480170C9480170C94801784
:1000A0000C9480170C9480170C9480170C94801774
:1000B0000C9480170C9480170C9480170C940533C3
:1000C0000C9480170C9480360C94EE3B0C948017A3
:1000D0000C9480170C9480170C9480170C94801744
:1000E0000C9480170C9480170C9480170C94801734
:1000F0000C9480170C9480170C9480170C94801724
:100100000C9480170C9480170C9480170C94801713
:100110000C94C93B0C945D360C9480170C9480179A
:100120000C9480170C9480170C9480170C948017F3
:100130000C9480170C9480170C9480170C946D32DB
:100140000C9481170C947C350C94AD3A0C94801768
:100150000C9480170C94D6350C94BB3C0C948017EF
:100160000C9480170C9480170C9480170C948017B3
:100170000C9480170C9480170C9480170C948017A3
:100180000C9480170C9480170C9480170C94801793
:100190000C9480170C9480170C9480170C94801783
:1001A0000C9480170C9480170C9480170C94801773
:1001B0000C9480170C9480170C9480170C94801763
:1001C0000C9480170C9480170C9480170C94801753
:1001D0000C9480170C9480170C9480170C94801743
:1001E0000C9480170C9480170C9480170C94801733
:1001F0000C9480170C9440A70C9480176364696E6C
:100200006F70737578585B003403430068006100B9
:100210006D0065006C0065006F006E002D004D00E4
:1002200069006E0069002D0044004500530046003F
:100230006900720065004D006F0064000000380323
:100240004B00610073007000650072002000260002
:1002500020004F007300770061006C0064002000F4
:1002600047006D0062004800200028005200650031
:1002700076004700290000000403090409023E003B
:10028000020100C03209040000010202010005243D
:10029000001001042402060524060001070582035C
:1002A0000800FF09040100020A000000070504021B
:1002B000100005070583021000051201100102005D
:1002C0000008D016B204010001020001681B731B74
:1002D000721B711B701B6F1B6E1B691B6C1B6D1BD4
:1002E0000000000100C333373456348F43AB43AFB3
:1002F000436E1BB043CD46E0464000070000C333C9
:1003000037345634A343AB43AF436E1BB043CD46A3
:10031000E0465000070000C33337345634A743ABE0
:1003200043AF436E1BB043CD46E046A40007000038
:10033000C3333734563420475C4760476E1B6147F0
:10034000434E614E0004040000C333373456342F4B
:10035000475C4760476E1B6147434E614E00040790
:100360000000C333373456343E475C4760476E1B4A
:100370006147434E614E0010040000C333373456CA
:10038000344D475C4760476E1B6147434E614E00EA
:1003900010070000C33337345634336E796C856CE4
:1003A0007D6C9E6D3C6E3E6E0010070000000000EC
:1003B000000000000000000000000000000000003D
:1003C000000000000000000000000000000000002D
:1003D000000000000000000000000000000000001D
:1003E000000000000000000000000000000000000D
:1003F0000000000000000000733D2C3E4D3ECB6528
:10040000D965DE65DF65E1656C1B6D1B00000001D1
:1004100000D1415C428F42711B701B6F1B6E1B69C8
:100420001B6C1B6D1B0000000100E8346A351B3794
:10043000145E175E245E255EE6606C1B6D1B00007B
:10044000000000004E4F4E4500000000000000007C
:10045000000000000000000000000000000000009C
:1004600000000000014D465F554C5452414C494735
:1004700048540000000000000000000000000000E0
:100480000000000000024D465F554C5452414C495B
:100490004748545F4556315F383042000000000045
:1004A000000000000000034D465F554C5452414C83
:1004B000494748545F4556315F31363442000000A9
:1004C00000000000000000044D465F434C415353C0
:1004D00049435F314B0000000000000000000000B5
:1004E0000000000000000000054D465F434C4153F2
:1004F0005349435F314B5F3742000000000000006A
:10050000000000000000000000064D465F434C4123
:10051000535349435F344B000000000000000000CB
:1005200000000000000000000000074D465F434C43
:1005300041535349435F344B5F3742000000000092
:100540000000000000000000000000084D465F446D
:1005500045534649524500000000000000000000DD
:100560000000000000000000000000000C49534F94
:100570003134343433415F534E4946460000000065
:10058000000000000000000000000000000D4953C2
:100590004F31353639335F534E494646000000002F
:1005A00000000000000000000000000000000E49F4
:1005B000534F3134343433415F5245414445520046
:1005C000000000000000000000000000000000012A
:1005D0000000010001010000010100010000010014
:1005E0000101000100000101000001000101000003
:1005F00001010001000001010000010001010001F2
:1006000000000100010100000101000100000100E3
:1006100001010001000001010000010001010001D1
:1006200000000100010100000101000100000101C2
:1006300000000100010100000101000100000100B3
:1006400001010001000001010000010001010000A2
:100650000101000100000101000001000101000191
:100660000000010001010000010100010000010182
:100670000000010001010000010100010000010073
:100680000101000100000101000001000101000161
:100690000000010001010000010100010000010053
:1006A0000101000100000101000001000101000042
:1006B0000101000100000101000001000101000131
:1006C0000000010001010000010100010000010023
:1006D0008040C020A060E0109050D030B070F00892
:1006E0008848C828A868E8189858D838B878F8040E
:1006F0008444C424A464E4149454D434B474F40C32
:100700008C4CCC2CAC6CEC1C9C5CDC3CBC7CFC02B3
:100710008242C222A262E2129252D232B272F20A31
:100720008A4ACA2AAA6AEA1A9A5ADA3ABA7AFA06AD
:100730008646C626A666E6169656D636B676F60ED1
:100740008E4ECE2EAE6EEE1E9E5EDE3EBE7EFE0156
:100750008141C121A161E1119151D131B171F10901
:100760008949C929A969E9199959D939B979F9057D
:100770008545C525A565E5159555D535B575F50DA1
:100780008D4DCD2DAD6DED1D9D5DDD3DBD7DFD0323
:100790008343C323A363E3139353D333B373F30BA1
:1007A0008B4BCB2BAB6BEB1B9B5BDB3BBB7BFB071D
:1007B0008747C727A767E7179757D737B777F70F41
:1007C0008F4FCF2FAF6FEF1F9F5FDF3FBF7FFF4484
:1007D000465F505052494E545F504943432046753E
:1007E0006C6C496D61676500434C4F4E4500004E8F
:1007F0004F4E450000000000000000000000000017
:1008000000000000000000000000000000000001E7
:100810005549445F52414E444F4D000000000000D6
:1008200000000000000000000000000000000000C8
:10083000025549445F4C4546545F494E4352454D2D
:10084000454E5400000000000000000000000000C1
:1008500000035549445F52494748545F494E43524B
:10086000454D454E5400000000000000000000000F
:100870000000045549445F4C4546545F444543528B
:10088000454D454E540000000000000000000000EF
:10089000000000055549445F52494748545F4445AC
:1008A0004352454D454E540000000000000000003A
:1008B00000000000064359434C455F5345545449DA
:1008C0004E47530000000000000000000000000040
:1008D00000000000000753544F52455F4D454D0046
:1008E0000000000000000000000000000000000008
:1008F00000000000000008524543414C4C5F4D454C
:100900004D0000000000000000000000000000009A
:100910000000000000000009544F47474C455F4667
:1009200049454C44000000000000000000000000A9
:1009300000000000000000000A53544F52455F4C75
:100940004F47000000000000000000000000000011
:100950000000000000000000000B434C4F4E45001B
:100960000000000000000000000000000000000087
:10097000000000000000000000000C5052494E54DE
:100980005F53544154450000000000000000000087
:100990000000000000000000000000004F4646007C
:1009A0000000000000000000000000000000000047
:1009B000000000000000000000000000014D454D57
:1009C0004F5259000000000000000000000000002D
:1009D00000000000000000000000000000024C4980
:1009E000564500000000000000000000000000006C
:1009F0000000000000000000000000000000004EA9
:100A00004F4E450000000000000000000000000004
:100A100000000000000000000000000000000001D5
:100A2000504F5745524544000000000000000000B0
:100A300000000000000000000000000000000000B6
:100A4000025445524D494E414C5F434F4E4E0000BB
:100A50000000000000000000000000000000000096
:100A600000035445524D494E414C5F525854580072
:100A70000000000000000000000000000000000076
:100A800000000453455454494E475F4348414E4784
:100A90004500000000000000000000000000000011
:100AA000000000054D454D4F52595F53544F52457C
:100AB00044000000000000000000000000000000F2
:100AC00000000000064D454D4F52595F4348414ECE
:100AD0004745440000000000000000000000000046
:100AE000000000000008434F4445435F5258000097
:100AF00000000000000000000000000000000000F6
:100B000000000000000009434F4445435F54580073
:100B100000000000000000000000000000000000D5
:100B200000000000000000074649454C445F444572
:100B300054454354454400000000000000000000FC
:100B400000000000000000000A4C4F474D454D5F7B
:100B500046554C4C00000000000000000000000062
:100B600000000000000000000025632C2563002524
:100B7000356400416E7920696E7465676572206620
:100B8000726F6D203020746F2025752E205265669F
:100B90006572656E636520766F6C7461676520773A
:100BA000696C6C2062652028564343202A205448F3
:100BB000524553484F4C44202F203430393529209A
:100BC0006D562E002575002535640030203D206EC1
:100BD0006F2074696D656F75740D0A312D36303074
:100BE000203D20313030206D73202D2036303030C4
:100BF00030206D732074696D656F757400257520E4
:100C00006D730025342E345800253575206D56003F
:100C10002575202866726F6D2077686963682025C6
:100C200075206E6F6E2D766F6C6174696C6529002E
:100C300025750025750025632C2563004E4F205532
:100C400049442E004368616D656C656F6E4D696E39
:100C50006920526576472077697468204445534679
:100C600069726520737461636B20737570706F7245
:100C700074202553207573696E67204C55464120BA
:100C8000255320636F6D70696C65642077697468A3
:100C9000204156522D4743432025532E20536F7534
:100CA000726365733A2068747470733A2F2F6769A2
:100CB000746875622E636F6D2F6D617869656473FA
:100CC0002F4368616D656C656F6E4D696E6946692D
:100CD000726D7761726544455346697265537461FC
:100CE000636B0A4C6F676765723A20206874747092
:100CF000733A2F2F6769746875622E636F6D2F6D5D
:100D00006178696564732F4368616D656C656F6EAA
:100D10004D696E694C697665446562756767657291
:100D20002E00323032302E31302E31342D303932E7
:100D30003835380031353131313500392E332E30E8
:100D40000037613539306362000D0A000D0A000D6D
:100D50000A000D0A000D0A000D0A00643130303A15
:100D60004F4B0000000000000000000000000000E9
:100D7000000000000000000000000000653130317C
:100D80003A4F4B20574954482054455854000000CE
:100D9000000000000000000000000000006E313183
:100DA000303A57414954494E4720464F5220584DFA
:100DB0004F44454D00000000000000000000C83214
:100DC00030303A554E4B4E4F574E20434F4D4D41CC
:100DD0004E4400000000000000000000000000C9B8
:100DE0003230313A494E56414C494420434F4D4DE3
:100DF000414E44205553414745000000000000008B
:100E0000CA3230323A494E56414C49442050415240
:100E1000414D455445520000000000000000000014
:100E200000783132303A46414C5345000000000012
:100E300000000000000000000000000000000000B2
:100E40000000793132313A5452554500000000001B
:100E50000000000000000000000000000000000092
:100E6000000000CB3230333A54494D454F555400C1
:100E70000000000000000000000000000000000072
:100E80000000000056455253494F4E00000000003C
:100E900000000000000000000000D827434F4E462D
:100EA00049470000000000000000000000000000B2
:100EB0000028FA2755494400000000000000000007
:100EC00000000000000000006A282B285245414421
:100ED0004F4E4C59000000000000000000000000D0
:100EE000C028B42855504C4F414400000000000079
:100EF00000000000ED28000000000000444F574EA5
:100F00004C4F41440000000000000000F2280000A7
:100F1000000000005245534554000000000000004E
:100F200000000000F7280000000000005550475264
:100F300041444500000000000000000002290000BC
:100F4000000000004D454D53495A45000000000087
:100F5000000000000000000000000D295549445326
:100F6000495A450000000000000000000000000099
:100F70000000252952425554544F4E0000000000F5
:100F8000000000000000000043293B295242555454
:100F9000544F4E5F4C4F4E470000000000000000D1
:100FA00063295B294C425554544F4E000000000009
:100FB000000000000000000083297B294C425554AA
:100FC000544F4E5F4C4F4E470000000000000000A1
:100FD000A3299B294C4544475245454E000000003B
:100FE0000000000000000000C229BB294C4544520B
:100FF0004544000000000000000000000000000068
:10100000DF29D8294C4F474D4F44450000000000D0
:101010000000000000000000FA29F5294C4F474D60
:10102000454D00000000000000000000000000002E
:1010300000000F2A4C4F47444F574E4C4F4144003D
:1010400000000000332A0000000000004C4F47530E
:10105000544F52450000000000000000382A0000F4
:10106000000000004C4F47434C4541520000000037
:10107000000000003B2A00000000000053455454CB
:10108000494E470000000000000000000000000082
:10109000432A3E2A434C4541520000000000000014
:1010A000000000004B2A00000000000053544F5283
:1010B0004500000000000000000000004F2A000072
:1010C00000000000524543414C4C0000000000006D
:1010D00000000000532A0000000000004348415275
:1010E00047494E47000000000000000000000000DB
:1010F0000000572A48454C50000000000000000046
:10110000000000005D2A0000000000005253534917
:1011100000000000000000000000000000000000CF
:1011200000009A2A5359535449434B0000000000D1
:1011300000000000000000000000DA2A53454E4481
:101140005F52415700000000000000000000802BAB
:101150000000000053454E44000000000000000065
:10116000000000000000F62A00000000474554552A
:101170004944000000000000000000003E2C000078
:101180000000000044554D505F4D465500000000E2
:1011900000000000212C0000000000004944454EE2
:1011A0005449465900000000000000005B2C00007C
:1011B0000000000054494D454F5554000000000008
:1011C0000000000000000000982C782C5448524584
:1011D00053484F4C44000000000000000000000095
:1011E000052DEB2C4155544F43414C49425241543B
:1011F00045000000942D0000000000004649454CC9
:10120000440000000000000000000000000000009A
:101210005A2D842D434C4F4E450000000000000025
:1012200000000000C02D00000000000044465F5395
:101230004554484452000000000000000000000037
:10124000A975937544465F505052494E545F5049BA
:1012500043430000000046760000000044465F461D
:1012600057494E464F00000000000000A4760000E1
:101270000000000044465F4C4F474D4F444500007E
:101280000000000000000000EA76C27644465F5489
:101290004553544D4F44450000000000000000003D
:1012A0007877707700000000000000000000000068
:1012B000000000000000000000000000000800081E
:1012C00000000000000000080008080808080800E6
:1012D00008000800000008080008080800800080D6
:1012E000000000000000008000808080808080007E
:1012F000800080000000808000808080000100016C
:1013000000000000000000010001010101010100D6
:1013100001000100000001010001010100000000C6
:1013200000000000000000000000000001010101B9
:10133000010101010101010101010101010101019D
:10134000010101010101010101010101010101018D
:101350000101010101010101010101010000000081
:10136000000000000000000000000000000000007D
:10137000000000000000000000000000000000006D
:101380000000000000000000000000000101010159
:101390000101010101010101010101010000000041
:1013A000000000000000000000000000000000003D
:1013B0000000000000000000000000000101010129
:1013C0000101010101010101010101010000000011
:1013D0000000000000000000000000000101010109
:1013E00001010101010101010101010101010101ED
:1013F00001010101010101010101010100000000E1
:1014000000000000000000000000000001010101D8
:1014100001010101010101010101010100000002BE
:1014200002000002000202020200000200000002AC
:10143000020000020002020202000002000000029C
:10144000020000020002020202000002040404067C
:10145000060404060406060606040406040404063C
:10146000060404060406060606040406000000023C
:10147000020000020002020202000002000000025C
:10148000020000020002020202000002040404063C
:10149000060404060406060606040406000000020C
:1014A000020000020002020202000002040404061C
:1014B00006040406040606060604040604040406DC
:1014C00006040406040606060604040604040406CC
:1014D00006040406040606060604040604040406BC
:1014E00006040406040606060604040600000002BC
:1014F00002000002000202020200000200000002DC
:1015000002000002000202020200000204040406BB
:101510000604040604060606060404060008080875
:10152000000000080000080008080008000808087B
:10153000000000080000080008080008000808086B
:10154000000000080000080008080008101818181B
:10155000101010181010181018181018101818184B
:10156000101010181010181018181018000808087B
:10157000000000080000080008080008000808082B
:1015800000000008000008000808000810181818DB
:10159000101010181010181018181018000808084B
:1015A00000000008000008000808000810181818BB
:1015B00010101018101018101818101810181818EB
:1015C00010101018101018101818101810181818DB
:1015D00010101018101018101818101810181818CB
:1015E00010101018101018101818101800080808FB
:1015F00000000008000008000808000800080808AB
:10160000000000080000080008080008101818185A
:1016100010101018101018101818101853414B3AC9
:1016200009005549443A0900415451413A090054CE
:1016300068657265206973206174206C65617374DC
:10164000206F6E65206D6F72652063617264207417
:101650007970652063616E6469646174652C2062D1
:10166000757420746865726520776173206E6F747D
:1016700020656E6F756768207465726D696E616C48
:10168000206275666665722073706163652E0D0A4F
:10169000000D0A0004000109010000000000000024
:1016A00000000000000000000000004E5850000044
:1016B00000000000000000000000004D49464152BB
:1016C00045204D696E690000000000000000000028
:1016D000000000000000000000000000000000000A
:1016E00000000000000000000000000000000000FA
:1016F00000000000000000000000000400010801DC
:1017000000000000000000000000000000000000D9
:1017100000004E58500000000000000000000000D3
:1017200000004D494641524520436C617373696323
:1017300020316B00000000000000000000000000ED
:101740000000000000000000000000000000000099
:101750000000000000000000000000000000000089
:10176000000002000118010000000000000000005D
:101770000000000000000000004E58500000000073
:101780000000000000000000004D49464152452085
:10179000436C617373696320346B000000000000C8
:1017A0000000000000000000000000000000000039
:1017B0000000000000000000000000000000000029
:1017C00000000000000000000044000100010000D3
:1017D0000000000000000000000000000000000009
:1017E0004E58500000000000000000000000000003
:1017F0004D494641524520556C7472616C69676869
:101800007400000000000000000000000000000064
:1018100000000000000000000000000000000000C8
:1018200000000000000000000000000000000000B8
:101830004400010001000000000000000000000062
:10184000000000000000004E5850000000000000A2
:10185000000000000000004D494641524520556CF3
:101860007472616C696768742043000000000000B6
:101870000000000000000000000000000000000068
:101880000000000000000000000000000000000058
:101890000000000000000044000100000000000003
:1018A00000000000000000000000000000004E5892
:1018B00050000000000000000000000000004D4942
:1018C0004641524520556C7472616C69676874209A
:1018D000455631000000000000000000000000003C
:1018E00000000000000000000000000000000000F8
:1018F00000000000000000000000000000004403A1
:1019000001200175778102800000000000000000C6
:1019100000000005004E58500000000000000000CC
:1019200000000000004D49464152452044455346C1
:101930006972650000000000000000000000000067
:101940000000000000000000000000000000000097
:101950000000000000000000000000000000000087
:10196000000000000044030120017577810280001F
:101970000000000000000000000005004E5850006C
:101980000000000000000000000000004D4946413A
:101990005245204445534669726520455631000042
:1019A0000000000000000000000000000000000037
:1019B0000000000000000000000000000000000027
:1019C00000000000000000000000000004030128E7
:1019D000013877B14A434F50333100000000000016
:1019E00000090149424D0000000000000000000015
:1019F0000000004A434F5033310000000000000057
:101A000000000000000000000000000000000000D6
:101A100000000000000000000000000000000000C6
:101A200000000000000000000000000000000000B6
:101A300000000048000120017877B1024A434F506E
:101A400076323431000000000C0149424D000000A4
:101A5000000000000000000000004A434F503331F6
:101A60002076322E342E31000000000000000000ED
:101A70000000000000000000000000000000000066
:101A80000000000000000000000000000000000056
:101A900000000000000000000000480001200138A4
:101AA00033B14A434F503431563232000000000CFB
:101AB0000149424D0000000000000000000000004D
:101AC000004A434F5034312076322E32000000005D
:101AD0000000000000000000000000000000000006
:101AE00000000000000000000000000000000000F6
:101AF00000000000000000000000000000000000E6
:101B00000004000128013833B14A434F50343156A4
:101B10003233310000000D0149424D000000000049
:101B200000000000000000004A434F50343120768E
:101B3000322E332E310000000000000000000000B3
:101B40000000000000000000000000000000000095
:101B50000000000000000000000000000000000085
:101B600000000000000000000400018801000000E7
:101B7000000000000000000000000000000000491C
:101B80006E66696E656F6E00000000000000004D1B
:101B9000494641524520436C617373696320316B40
:101BA0000000000000000000000000000000000035
:101BB0000000000000000000000000000000000025
:101BC0000000000000000000000000000000000213
:101BD000000198010000000000000000000000006B
:101BE00000000000000047656D706C757300000018
:101BF0000000000000004D50434F53000000000063
:101C000000000000000000000000000000000000D4
:101C100000000000000000000000000000000000C4
:101C200000000000000000000000000000000000B4
:101C3000000000000000000C010000000000000097
:101C400000000000000000000000000000496E6E6F
:101C50006F766973696F6E2052265400004A65776B
:101C6000656C0000000000000000000000000000A3
:101C70000000000000000000000000000000000064
:101C80000000000000000000000000000000000054
:101C90000000000000000000000000000002000141
:101CA00038010000000000000000000000000000FB
:101CB000000000004E6F6B69610000000000000032
:101CC000000000004D494641524520436C6173734A
:101CD000696320346B202D20656D756C61746564BB
:101CE00020283632313220436C61737369632900D6
:101CF00000000000000000000000000000000000E4
:101D00000000000008000138010000000000000091
:101D100000000000000000000000004E6F6B6961D1
:101D200000000000000000000000004D4946415244
:101D30004520436C617373696320346B202D2065EB
:101D40006D756C61746564202836313331204E46E0
:101D50004329000000000000000000000000000017
:101D60000000000000000000000000000102040864
:101D7000102040801B3652096AD53036A538BF4046
:101D8000A39E81F3D7FB7CE339829B2FFF87348EA0
:101D90004344C4DEE9CB547B9432A6C2233DEE4CCF
:101DA000950B42FAC34E082EA16628D924B2765B61
:101DB000A2496D8BD12572F8F66486689816D4A472
:101DC0005CCC5D65B6926C704850FDEDB9DA5E157D
:101DD0004657A78D9D8490D8AB008CBCD30AF7E4FE
:101DE0005805B8B34506D02C1E8FCA3F0F02C1AFAD
:101DF000BD0301138A6B3A9111414F67DCEA97F2F8
:101E0000CFCEF0B4E67396AC7422E7AD3585E2F937
:101E100037E81C75DF6E47F11A711D29C5896FB748
:101E2000620EAA18BE1BFC563E4BC6D279209ADB26
:101E3000C0FE78CD5AF41FDDA8338807C731B11230
:101E400010592780EC5F60517FA919B54A0D2DE527
:101E50007A9F93C99CEFA0E03B4DAE2AF5B0C8EB4A
:101E6000BB3C83539961172B047EBA77D626E16970
:101E7000146355210C7D637C777BF26B6FC5300159
:101E8000672BFED7AB76CA82C97DFA5947F0ADD42D
:101E9000A2AF9CA472C0B7FD9326363FF7CC34A501
:101EA000E5F171D8311504C723C31896059A0712B6
:101EB00080E2EB27B27509832C1A1B6E5AA0523BA5
:101EC000D6B329E32F8453D100ED20FCB15B6ACB5C
:101ED000BE394A4C58CFD0EFAAFB434D338545F964
:101EE000027F503C9FA851A3408F929D38F5BCB60D
:101EF000DA2110FFF3D2CD0C13EC5F974417C4A77F
:101F00007E3D645D197360814FDC222A908846EE25
:101F1000B814DE5E0BDBE0323A0A4906245CC2D319
:101F2000AC629195E479E7C8376D8DD54EA96C56B2
:101F3000F4EA657AAE08BA78252E1CA6B4C6E8DDA8
:101F4000741F4BBD8B8A703EB5664803F60E613533
:101F500057B986C11D9EE1F8981169D98E949B1ED0
:101F600087E9CE5528DF8CA1890DBFE642684199EB
:101F70002D0FB054BB164F46460046414C5345000A
:101F800030004F4E00545255450031002531357315
:101F9000002573203C4F4E7C4F46467C56455242AE
:101FA0004F53457C444542554747494E473E0044C0
:101FB0004542554747494E4700564552424F5345C3
:101FC000004F46460046414C53450030004F4E00FE
:101FD0005452554500310025313573004445425572
:101FE0004747494E4700564552424F5345004E4FD2
:101FF000524D414C004F4646004368616D656C652B
:102000006F6E2D4D696E6920444553466972652097
:10201000656E61626C6564206669726D7761726578
:10202000206275696C74206F6E2025732062617365
:102030006564206F6E2025732066726F6D200D0A17
:1020400068747470733A2F2F6769746875622E63B1
:102050006F6D2F6D6178696564732F4368616D657D
:102060006C656F6E4D696E694669726D77617265F8
:1020700044455346697265537461636B2E67697496
:102080002E0D0A5265766973696F6E3A2025730DBD
:102090000A002573203C46756C6C496D6167657C50
:1020A000486561646572446174613E0048656164BD
:1020B0006572446174610046756C6C496D61676559
:1020C00000253331730050726F64756374696F6EED
:1020D000446174650042617463684E756D62657237
:1020E00000536F66747761726556657273696F6EBF
:1020F00000486172647761726556657273696F6ECC
:1021000000415453002532347320253132730025A9
:1021100073203C4154532D357C4861726477617261
:102120006556657273696F6E2D327C536F66747776
:1021300061726556657273696F6E2D327C4261748F
:1021400063684E756D6265722D357C50726F647573
:102150006374696F6E446174652D323E203C48653E
:102160007842797465732D4E3E0050544558542D75
:1021700044454641554C540043544558542D41451F
:10218000533132382D434D41430043544558542D6B
:102190004445530050544558542D4D414300414E41
:1021A000590041455331323800334B3344455300D5
:1021B000324B54444541004348470052572F005783
:1021C0002F00522F0049534F31343434332D343AD9
:1021D00020554E4B2D434D44204E4F5F524553509A
:1021E0000049534F31343434332D333A2052455360
:1021F000455420544F2049444C450049534F3134F5
:102200003434332D343A2041435449564520524505
:10221000540049534F31343434332D333A20476F0F
:10222000742048414C5400524459322C204E4F5493
:1022300020534C435420434D4400496E636F7272E7
:102240006563742053656C6563742076616C756595
:10225000202852322900494E544F204143544956B8
:1022600045210049534F31343434332D343A205210
:102270004459312C204E4F5420534C435420434D4D
:10228000440049534F31343434332D343A205365AC
:102290006C656374204E414B0049534F31343434E4
:1022A000332D343A2053656C656374204F4B0049DD
:1022B000534F31343434332D34202849444C45298C
:1022C0003A20415451410049534F31343434332D75
:1022D000343A2049444C45202F204E4F5420575526
:1022E00050410049534F31343434332D343A20486F
:1022F000414C54202F204E4F5420575550410049F7
:10230000534F31343434332D333A2048414C5449FF
:102310004E4700203D3E2000554E4B4E4F574E5FDE
:1023200053544154450049534F31343434335F34AE
:102330005F53544154455F41435449564500495306
:102340004F31343434335F345F53544154455F4527
:1023500058504543545F524154530049534F313410
:102360003434335F33415F53544154455F48414CEB
:10237000540049534F31343434335F33415F535445
:102380004154455F4143544956450049534F313408
:102390003434335F33415F53544154455F524541B8
:1023A0004459320049534F31343434335F33415F41
:1023B00053544154455F5245414459310049534FAC
:1023C00031343434335F33415F53544154455F49B2
:1023D000444C450049534F31343434332D343A2082
:1023E0005043425F535F424C4B204E4F5F52455328
:1023F000500049534F31343434332D343A20532D67
:10240000424C4B00203D3E2000554E4B4E4F574E08
:102410005F53544154450049534F31343434335F92
:10242000345F53544154455F414354495645004934
:10243000534F31343434335F345F53544154455F28
:102440004558504543545F524154530049534F310E
:10245000343434335F33415F53544154455F484112
:102460004C540049534F31343434335F33415F535C
:10247000544154455F4143544956450049534F31F7
:10248000343434335F33415F53544154455F5245D4
:10249000414459320049534F31343434335F33416E
:1024A0005F53544154455F524541445931004953AB
:1024B0004F31343434335F33415F53544154455FBB
:1024C00049444C450049534F31343434333450720D
:1024D0006F63657373426C6F636B3A2049534F317E
:1024E000343434335F5043425F525F424C4F434B6E
:1024F000202D2D2025640049534F31343434332DA1
:10250000343A20522D424C4B0049534F313434342D
:10251000333450726F63657373426C6F636B3A2030
:1025200049534F31343434335F5043425F525F423A
:102530004C4F434B202D2D2025640049534F3134FF
:102540003434332D343A20492D424C4B0049534FFB
:1025500031343434332D343A204150505F4E4F5F84
:10256000524553500049534F313434343334507250
:102570006F63657373426C6F636B3A2049534F31DD
:10258000343434335F5043425F495F424C4F434BD6
:10259000202D2D2025640049534F313434343334F9
:1025A00050726F63657373426C6F636B3A2049536B
:1025B0004F31343434335F5043425F495F424C4FB4
:1025C000434B202D2D2025640049534F31343434A2
:1025D000332D343A204E455720434152442049443C
:1025E0000049534F31343434332D343A2053454E5F
:1025F0004420524154530049534F31343434332D25
:10260000343A204E4F5420524154530049534F31D5
:10261000343434332D343A20435243206661696C9C
:102620003B2025303458207673202530345800491B
:10263000534F31343434332D343A206C656E677423
:1026400068206661696C00203D3E2000554E4B4E6F
:102650004F574E5F53544154450049534F31343422
:1026600034335F345F53544154455F4143544956BA
:10267000450049534F31343434335F345F53544150
:1026800054455F4558504543545F524154530049A7
:10269000534F31343434335F33415F5354415445E5
:1026A0005F48414C540049534F31343434335F3325
:1026B000415F53544154455F414354495645004995
:1026C000534F31343434335F33415F5354415445B5
:1026D0005F5245414459320049534F313434343309
:1026E0005F33415F53544154455F52454144593132
:1026F0000049534F31343434335F33415F535441D5
:1027000054455F49444C45004040204C494E4520CB
:1027100023256420696E202A2573204040005265DD
:1027200061644461746146696C65536574757020B9
:102730002D2D204552524F522100496E76616C6911
:10274000642066696C652074797065203D2025647D
:1027500040256400496E76616C69642066696C6529
:1027600020696E646578203D202564202F20256433
:10277000203B20666F722046696C654E756D203D6A
:10278000202564004040204C494E452023256420EC
:10279000696E202A25732040400050494343206B36
:1027A00065792073657474696E6773202D2D2025FB
:1027B000303278004E4F5420494D504C454D454ED7
:1027C0005445443A20257321000AF886EE2B1AFB63
:1027D0008ADD2BAABB8BCC2B710000B12B770000BC
:1027E000932B54D9887F2B5C00006D2BC42A886200
:1027F0002B64E687522BCA3B983F2BDAB3972C2BDE
:102800006A0B89182B6EC4860C2B6D5D8FFF2A45D1
:10281000AB87EE2A5A3489DB2AFC7186CF2A6059AD
:1028200086C32A514D86B62A6F8289A92AF5B595A5
:10283000972A5FCB89822ACD8D97712ACB67975EC5
:102840002ACC23974C2AC1EC96322AC0B196182A7A
:10285000DF76960C2A618289FB29BD3E95F1293DE0
:102860005F94E6296C0294DC290C7A93D529DCE686
:1028700092CF291C6792C0293B7D90B329BB6491FC
:10288000A629EB4B909429C7DD8F8129A76F8F6F05
:1028900029A4229B602984E0864A2982638F2C29FF
:1028A00088698F0E29B0928CFA28D66D8DE428B2F3
:1028B0005E8ECF28E2F789B92849534F3738313631
:1028C0005F417070656E645F5265636F726400494A
:1028D000534F373831365F526561645F5265636FBD
:1028E0007264730049534F373831365F55706461F5
:1028F00074655F42696E6172790049534F373831B0
:10290000365F526561645F42696E61727900495356
:102910004F373831365F496E7465726E616C5F4156
:10292000757468656E7469636174650049534F37E7
:102930003831365F45787465726E616C5F417574CD
:1029400068656E7469636174650049534F37383147
:10295000365F4765745F4368616C6C656E676500E0
:1029600049534F373831365F53656C6563740041A6
:10297000626F72745F5472616E73616374696F6EBB
:1029800000436F6D6D69745F5472616E736163743F
:10299000696F6E00436C6561725F5265636F72644C
:1029A0005F46696C6500526561645F5265636F7272
:1029B00064730057726974655F5265636F72640077
:1029C0004C696D697465645F437265646974004441
:1029D0006562697400437265646974004765745F79
:1029E00056616C75650057726974655F4461746106
:1029F00000526561645F44617461004765745F49BA
:102A0000534F5F46696C655F4944730044656C656C
:102A100074655F46696C65004372656174655F4308
:102A200079636C69635F5265636F72645F46696C5A
:102A300065004372656174655F4C696E6561725FC4
:102A40005265636F72645F46696C650043726561CD
:102A500074655F56616C75655F46696C65004372AD
:102A6000656174655F4261636B75705F46696C6533
:102A7000004372656174655F446174615F46696CAF
:102A800065004368616E67655F46696C655F5365A5
:102A90007474696E6773004765745F46696C655F3F
:102AA00053657474696E6773004765745F46696C3B
:102AB000655F494473004765745F436172645F55A5
:102AC0004944004765745F56657273696F6E0046CE
:102AD0006F726D61745F504943430053656C656369
:102AE000745F4170706C69636174696F6E004765F3
:102AF000745F4B65795F53657474696E67730047E3
:102B000065745F44465F4E616D657300467265652E
:102B10005F4D656D6F7279004765745F4170706CD1
:102B200069636174696F6E5F4944730044656C65E5
:102B300074655F4170706C69636174696F6E0043A6
:102B400072656174655F4170706C69636174696F0F
:102B50006E004765745F4B65795F56657273696F88
:102B60006E004368616E67655F4B657900536574FD
:102B70005F436F6E66696775726174696F6E00435B
:102B800068616E67655F4B65795F53657474696EE4
:102B900067730041757468656E7469636174655F1D
:102BA0004145535F4556325F4E6F6E46697273748E
:102BB0000041757468656E7469636174655F414551
:102BC000535F4556325F466972737400417574688D
:102BD000656E7469636174655F4145530041757446
:102BE00068656E7469636174655F49534F00417530
:102BF0007468656E69636174655F4C65676163796C
:102C00000025733A202573005742422053746172A5
:102C10007420426C6F636B20546F6F204C6172673D
:102C200065202D2D202564202D2D20257300524256
:102C30004220537461727420426C6F636B20546F36
:102C40006F204C61726765202D2D202564202D2D6D
:102C5000202564004372656174654170702072655F
:102C60007475726E6564202D2D2025640A004661FE
:102C700063746F727920726573657474696E67200E
:102C80007468652064657669636500466163746F86
:102C9000727920726573657474696E6720746865F3
:102CA00020646576696365003D3D204149442030DC
:102CB000782530327825303278253032780D0A0088
:102CC000205B4B455953202D2D202564206F662015
:102CD00025645D0D0A005D0D0A00202D2D20253094
:102CE000326400202D2D20533D2530327800202DD8
:102CF0002D20414D4B00202D2D20533D2530327885
:102D000000202D2D20504D4B0020202D3E204E6FB9
:102D10002E20253032782028257329205B76252027
:102D2000326400205B46494C4553202D2D202564FC
:102D3000206F662025645D0D0A0020202D3E204E68
:102D40006F2E20253032780D0A0020202D3E204E97
:102D50006F2E2025303278205B436F6D6D3D2573DB
:102D6000202D2D205065726D733D25735D0D0A0079
:102D7000202020205245434F524420202020402034
:102D80005B547970653D25635D2052636453697AB5
:102D9000653D3078253036787C4375724E756D52BE
:102DA0006364733D3078253036787C4D61785263AA
:102DB00064733D3078253036780D0A0020202020BD
:102DC00056414C554520202020204020436C6E3D2C
:102DD00025647C4474793D256420285072657644CE
:102DE000656269743D25642920696E205B25642C29
:102DF0002025645D2077697468204C696D6974656D
:102E0000644372656469743D25630D0A00202020C7
:102E100020424B55502D4441544120402025203321
:102E200064206279746573202D2D20426C6B436F92
:102E3000756E74203D2025640D0A0020202020534B
:102E400054442D4441544120204020252033642007
:102E500062797465730D0A00284154532920257343
:102E60000D0A0028444154452920253032782F2569
:102E70003032780D0A0028424154434829202573F6
:102E80000D0A002856455253494F4E292048573DB8
:102E9000253032782E253032782C2053573D25307E
:102EA00032782E253032780D0A00285549442920E1
:102EB00025730D0A000011241FBECFEFCDBFDFE345
:102EC000DEBF00E00CBF18BE19BE1ABE1BBE11E269
:102ED000A0E0B0E2E6E6F5E601E00BBF02C0079035
:102EE0000D92A83FB107D9F71BBE2EE2A8EFB1E2C1
:102EF00001C01D92A33CB207E1F7D5D10C9429ABD8
:102F000036C30F9200240F932F933F934F935F93F9
:102F10000FB70F93EF93FF93EAB1FBB151914427A1
:102F200035B124B1569578F400928C0800920008CF
:102F300006E10A95F1F700C001E00093000803E004
:102F400000938C0804C00AE10A95F1F700002150B3
:102F5000304019F40E94C4350CC04F5F477011F423
:102F6000519102C000C000C00AE00A95F1F700C00C
:102F7000D9CFFF91EF910F910FBF5F914F913F918B
:102F80002F910F910F901895F190E190D190C190F1
:102F9000B190A190919081900B941B942B943B94B1
:102FA0004B945B946B947B948B949B94AB94BB9469
:102FB000CB94DB94EB94FB940895F801D894E4DF70
:102FC0005894E2DFD894E0CFF801D894DDDF58942C
:102FD000DBDFF801D894D8CFF801D894D5CFF80129
:102FE0005894D2CFF80170965894CEDFF8013896F5
:102FF000D894CADFF8015894C7CFF8015894C4DFB9
:10300000D894C2DFF8015894BFCFFF90EF90DF90C3
:10301000CF90BF90AF909F908F907F906F905F9078
:103020004F903F902F90112408952F923F924F92EE
:103030005F926F927F928F929F92AF92BF92CF9248
:10304000DF92EF92FF920F931F93FB0171906190BB
:103050005190419031902190119001908A01CDDFE3
:10306000FC0171926192519241923192219211929E
:1030700001921F910F91C9CF2F923F924F925F9271
:103080006F927F928F929F92AF92BF92CF92DF9278
:10309000EF92FF920F931F93FB01719061905190FB
:1030A000419031902190119001908A019BDFFC01A9
:1030B00071926192519241923192219211920192B8
:1030C0001F910F91A2CF2F923F924F925F926F92DA
:1030D0007F928F929F92AF92BF92CF92DF92EF92A8
:1030E000FF920F931F93FC0171906190519041905A
:1030F00031902190119001908A0166DFFB0171925D
:1031000061925192419231922192119201921F91BA
:103110000F917BCF2F923F924F925F926F927F924F
:103120008F929F92AF92BF92CF92DF92EF92FF92D7
:103130000F931F93FC0171906190519041903190D9
:103140002190119001908A0138DFFB017192619208
:103150005192419231922192119201921F910F91BD
:1031600054CF2F923F924F925F926F927F928F92A5
:103170009F92AF92BF92CF92DF92EF92FF92CF9346
:10318000DF93EB01DA01BF01F90171906190519079
:1031900041903190219011900190F990E990D9904F
:1031A000C990B990A990999089907F246E245D244C
:1031B0004C243B242A2419240824FB0109957D92E0
:1031C0006D925D924D923D922D921D920D920197BE
:1031D00021F7D9017D926D925D924D923D922D9293
:1031E0001D920D92DF91CF9110CF2F923F924F926F
:1031F0005F926F927F928F929F92AF92BF92CF9287
:10320000DF92EF92FF92CF93DF93EB01DA01BF01E0
:10321000788069805A804B803C802D801E800F8092
:10322000FB010995F901F190E190D190C190B19025
:10323000A190919081907F246E245D244C243B24A6
:103240002A2419240824F990E990D990C990B990BA
:10325000A99099908990F901F192E192D192C1924D
:10326000B192A192919281927D926D925D924D92D6
:103270003D922D921D920D92019751F6DF91CF91C3
:10328000C4CEF7E1E4EE6DCFF7E1E4EEAECFF7E1C7
:10329000EDEF67CFF7E1EDEFA8CFF7E1EDED61CF0F
:1032A000F7E1E2EFA2CF83D10E94E0240E947F25C4
:1032B00061D31092520684E08093420682E68093A6
:1032C0008601C1E0C0932606C093210686E0809364
:1032D0002206C093310612E01093320610922A069D
:1032E00010922B068FE08093290689E58093800158
:1032F0009AE5909381018093820180E48093410656
:10330000809346069091B200907F9093B200909186
:10331000B20092609093B20090E390934106909334
:10332000460680935006C09346061093450603E078
:103330000093410683E18093010821E030E020936F
:1033400026083093270820932808309329081092E4
:103350008C08809380081092230310922103D8E0F8
:10336000D093220381E180932003E0910322F09126
:1033700004228285938580933803909339038CE3EC
:1033800080938203D093800380938303D09381033F
:10339000E0D10E943B274BD2D8D6C09300021092B6
:1033A00001021093020200930402C0932002D09302
:1033B00021020E94542387D182E0E82E91E1F92E68
:1033C00004EC18E28091030481FF43C08091010462
:1033D00080FDFCCFE09203040E9483255BD20E9413
:1033E0006E27BBD6E091B728F091B82819950E94B6
:1033F000DB24E0910322F09104228481823079F46D
:103400008091FB218F5F8093FB2163E00E94F4B1E8
:10341000C091FF21D0910022992309F446C00E9457
:10342000AD3080915D228F5F6FE00E94F4B1909388
:103430005D220E94B926E0910322F0910422878147
:10344000813011F4F0925A228681813011F4F09289
:103450005922E091B528F091B6281995E091AF284E
:10346000F091B02819950E9449220E943F27AACFC7
:1034700087E090E20E9452A810926F24109270246C
:1034800010925F226A8170E0888199810E943527BD
:1034900087E090E20E9452A810926F24109270244C
:1034A00010925F220B80DC81C02D209721F080914B
:1034B000FC218111DDCF0093042010930520E091C1
:1034C000FF21F0910022309769F41092FD211092B3
:1034D000FE211092FF21109200221092FC211092E6
:1034E000FB219DCFD381C481828120910220309124
:1034F0000320820F932F911D80930220909303202D
:10350000CF010E942CAAED2FFC2FDDCF9C01DA0108
:10351000832F99278230910529F18330910549F055
:10352000019791F482E190E02AEB32E02D933C93F5
:103530000895C9019927213061F08230910579F011
:10354000E8E7F2E0892B39F090E080E030E020E01D
:10355000EDCFEEE3F2E0849190E09F01E7CFE8E069
:10356000F2E0F9CF8EE390E02CE732E0DFCF0F926C
:103570000FB60F921F92112408B60F9218BEFFCFFC
:103580001F921FB61F9211248F9388B78F9318BE76
:103590009F938EB19FB180589F4F8EB99FB99F91D5
:1035A0008F9188BF8F911F901FBE1F90189580919B
:1035B000780083FF0AC088E08093780088ED84BF9C
:1035C00081E0809380000D94FE008BEC809352008C
:1035D000809150008860809350008091510083FF5B
:1035E000FCCF82EC809355008091500080618093E5
:1035F00050008091510084FFFCCF88ED84BF84E0AF
:10360000809340001EB81FB881E0809343002FE7ED
:1036100030E020930A0430930B0420930C04309381
:103620000D04809300048093020480E880930001DD
:10363000089588ED84BF81E080937900089588ED36
:1036400084BF8BE180938000089580915000826058
:10365000809350008091510081FFFCCF82E08093E5
:10366000CA01EDE1F0E0E491E0936200ECE1F0E00A
:10367000E491E09363001092CA0180E880936500B2
:103680008BEB8093660080915600897F8093560073
:103690008091560084608093560080916000816024
:1036A000809360000895E0E4F0E084818E7F84835D
:1036B000E0E6F0E080818E7F8083E0E5F0E08081CD
:1036C0008D7F8083089587E08093A2007894089589
:1036D000089590E080E0089508950895089508956C
:1036E0000895089508950895CF93C82FE091AD28C7
:1036F000F091AE2819950E94E530E0910322F091F7
:103700000422C58389E1C89FB001112464537D4F11
:1037100049E150E08BEA98E20E942BABE091AB28A4
:10372000F091AC281995E091B128F091B228199543
:10373000C05EE0910322F09104228781843011F46D
:10374000C0935A228681843011F4C0935922CF91BC
:10375000089549E150E06CEC72E08BEA98E20E9437
:103760002BABE0910322F09104228581BDCF0F9312
:103770001F939C018B01E0910322F091042245816B
:103780006CE083E494E00E9458261F910F91089505
:10379000CF93DF930F92CDB7DEB7AC019E012F5FC1
:1037A0003F4F6CE083E494E00E947126882329F067
:1037B00089810F90DF91CF9108958FEFFACFFF921B
:1037C0000F931F93CF93DF930F92CDB7DEB78C018A
:1037D0009E012F5F3F4FAC016CE083E494E00E94B8
:1037E0007126F82E8823A1F089817EDF980140E0C0
:1037F000F90180812F5F3F4F882319F04F5F4F31D0
:10380000B9F7E091C429F091C529B80181E1199572
:103810008F2D0F90DF91CF911F910F91FF90089501
:10382000AC019B016CE083E494E00C949A262EB1E9
:103830003FB1E0E0F4E0408551858EB19FB16085F5
:103840007185862B972BB0E0A0E064E1880F991F6B
:10385000AA1FBB1F6A95D1F788279927A07FBF7140
:10386000422B532B5D5F842B952B0C941EAB0C9439
:103870001BAB08951F93CF93DF93162F115020F4A5
:10388000DF91CF911F910895EC010E941BAB8993AA
:10389000CE01F4CF0E941BAB0E941BAB0E941BAB5E
:1038A0000C941BABCF93DF93FC0161507109DA01DB
:1038B000EA01C20FD31F50E040E0AC17BD0729F06A
:1038C000CB01841B950B029728F41082CA01DF916B
:1038D000CF9108959D91392F32953F70903A58F4C9
:1038E000305D30839F709A3040F4905D91833296C2
:1038F0004E5F5F4FE2CF395CF4CF995CF7CFCF9347
:10390000DF93DC01EB01FA0150E040E08081882385
:1039100031F09181992359F14C175D0721F4CA01C7
:10392000DF91CF91089520ED280F2A3020F02FEB62
:10393000280F2630E0F460ED690F6A3020F02FEB9D
:10394000290F2630A0F4282F30E0813458F4229536
:10395000207F913450F4962F292B2D934F5F5F4F8A
:103960003296D4CF27533109F2CF9753F5CF50E099
:1039700040E0D5CFE0E6F6E080E1858382E0868313
:1039800088E085838AE18183E0EAF9E01682178284
:1039900080EC858388E18483E0E0F1E0128A8BE6A5
:1039A000838B148A158A20EA208F99E0918F128EDA
:1039B000148E158E168E84E0808B12A23CE633A303
:1039C00014A215A210A611A612A624A795A716A6A2
:1039D00080A308959A01452B09F449C040E1409322
:1039E000660643E04093A0094091A10947FFFCCF40
:1039F0004091A0097093A0094091A10947FFFCCF15
:103A00004091A0096093A0094091A10947FFFCCF14
:103A10004091A00941E04093120180931C019093D2
:103A20001D0120931401309315011092220188EF9B
:103A300091E28093280190932901209324013093EF
:103A400025018091100180688093100180912001F0
:103A50008068809320018091100187FDFCCF80E376
:103A6000809311018093210180E180936506089580
:103A70009A01452B09F469C040E14093660646E08F
:103A80004093A0094091A10947FFFCCF4091A009B4
:103A900040E140936506000000004093660642E066
:103AA0004093A0094091A10947FFFCCF4091A00994
:103AB0007093A0094091A10947FFFCCF4091A00954
:103AC0006093A0094091A10947FFFCCF4091A00954
:103AD0001092120148EF51E240931C0150931D01D6
:103AE000209314013093150140E14093220180930B
:103AF000280190932901209324013093250180917E
:103B0000100180688093100180912001806880936B
:103B100020018091100187FDFCCF80E3809311018B
:103B20008093210180E180936506E0910322F0916A
:103B300004228781863019F481E180935A2286819C
:103B4000863019F481E1809359220895809101040F
:103B500080FDFCCF82E0809303040895CF93DF9330
:103B6000CDB7DEB76097CDBFDEBFF0DF40E150E0FC
:103B70006FEF70E0CE0101960E9491AB40E150E002
:103B800070E060E0CE01019673DF6096CDBFDEBFCE
:103B9000DF91CF910895E0910322F0910422878173
:103BA000863019F490E190935A2296819630A9F4C8
:103BB00020E120935922853041F483E180935A22F9
:103BC000953019F483E1809359228091010480FD9E
:103BD000FCCF82E0809303040895853089F7EDCF10
:103BE000CF92DF92EF92FF920F931F936A017B01B6
:103BF000A901C11420E2D206E104F10408F069C071
:103C000070E060E000E010E220E030E00C191D09F7
:103C10002E093F09401751076207730708F48A010C
:103C200020E12093660626E02093A0092091A109B7
:103C300027FFFCCF2091A00920E12093650600001A
:103C400000002093660622E02093A0092091A1099C
:103C500027FFFCCF2091A009D092A0092091A109B3
:103C600027FFFCCF2091A009C092A0092091A109B3
:103C700027FFFCCF2091A0091092120128EF31E21A
:103C800020931C0130931D01009314011093150122
:103C900020E1209322018093280190932901009331
:103CA00024011093250180911001806880931001F8
:103CB000809120018068809320018091100187FD10
:103CC000FCCF80E3809311018093210180E18093F8
:103CD000650681E01F910F91FF90EF90DF90CF90EC
:103CE0000895CF92DF92EF92FF920F931F936A0194
:103CF0007B01A901C11420E2D206E104F10408F01D
:103D000061C070E060E000E010E220E030E00C19FB
:103D10001D092E093F09401751076207730708F470
:103D20008A0120E12093660623E02093A0092091D8
:103D3000A10927FFFCCF2091A009D092A0092091D2
:103D4000A10927FFFCCF2091A009C092A0092091D2
:103D5000A10927FFFCCF2091A00921E020931201A7
:103D600080931C0190931D01009314011093150181
:103D70001092220188EF91E280932801909329010B
:103D80000093240110932501809110018068809395
:103D900010018091200180688093200180911001A2
:103DA00087FDFCCF80E3809311018093210180E1A6
:103DB0008093650681E01F910F91FF90EF90DF9057
:103DC000CF90089580E0F7CF8091CF0187FDFCCFA1
:103DD0000895FADF8091CF0181FF0BC086E38093C5
:103DE000CA0188ED90E021E030E0EBECF1E084BF27
:103DF00020830895EF92FF920F931F93CF93DF9349
:103E0000EC01F62EE72E8A011092C201DDDFCE0111
:103E1000800F911F26E048ED50E061E070E0EBEC90
:103E2000F1E0C817D90741F4C801DF91CF911F9184
:103E30000F91FF90EF900895C093C0013D2F3F7107
:103E40003093C1012093CA0144BF6083AF2DBE2DC2
:103E50003091C4013D932196FA2EEB2EE2CF2F92A2
:103E60003F924F925F926F927F928F929F92AF920A
:103E7000BF92CF92DF92EF92FF920F931F93CF9357
:103E8000DF93EC01462E372E542E652E8F71782E3F
:103E9000C81BD1099EDF98DF83E38093CA0110928B
:103EA000C1011092C201052D162D88EDC82ED12C0E
:103EB00088248394912C2BECA22EBB24B39433E35F
:103EC000232E01151105A9F4852D962DDF91CF9193
:103ED0001F910F91FF90EF90DF90CF90BF90AF9028
:103EE0009F908F907F906F905F904F903F902F901A
:103EF00008957092C001E42CF32CF70181917F01A9
:103F00008093C4010150110921F07394F0E27F12F3
:103F100012C0C093C0018D2F8F718093C10195E3B2
:103F20009093CA01C601F50184BF8082A0964CDF40
:103F30002092CA01712C4E2C3F2CC3CF1F93CF93DC
:103F4000DF93CDB7DEB7A097CDBFDEBF873009F4D2
:103F5000EEC008F03DC0843009F4C3C088F482305C
:103F600009F475C0833009F496C010E0813009F47B
:103F700057C0A096CDBFDEBFDF91CF911F910895AE
:103F8000853009F0D2C0E091BB28F091BC28CE0169
:103F9000019619958091C12841E0815008F444C0F0
:103FA0004423D9F3282F30E0E1E0F0E0EC0FFD1FCF
:103FB000E20FF31F908141E0911140E061E070E079
:103FC0006C0F7D1F260F371F9150F9019083E5CFAD
:103FD0008A3009F4B0C090F4883009F4AAC089305E
:103FE00041F680910008813009F0ACC080918C08C6
:103FF000833009F0A7C00E949231BBCF8B3009F407
:104000009CC08C3009F0B5CF8FEC97E098C02FDCC6
:10401000E1E0F0E0EC0FFD1FE10FF11D80831F5F79
:104020008091C128181798F3E091BD28F091BE281F
:10403000CE0101961995E091C429F091C5294091CE
:10404000C128BE016F5F7F4F83E1199592CF11E0C8
:104050008091C128873009F010E0E091BB28F091F1
:10406000BC28CE01019619952091C128E1E0F0E02D
:10407000EC0FFD1FE10FF11D91E01217A8F6992337
:1040800039F0808191E08F3F09F090E08F5F80836D
:104090001F5F3196F2CFE091BB28F091BC28CE0192
:1040A000019619958091C12841E0815008F4BCCF58
:1040B0004423D9F3282F30E0E1E0F0E0EC0FFD1FBE
:1040C000E20FF31F908141E09F3F09F040E061E083
:1040D00070E06C0F7D1F260F371F9F5FF9019083E3
:1040E000E4CF11E08091C128873009F010E0E09121
:1040F000BB28F091BC28CE01019619952091C128CA
:10410000E1E0F0E0EC0FFD1FE10FF11D91E012176F
:1041100008F08ACF992331F0808191E0811190E0FD
:10412000815080831F5F3196F2CFABD422CF33DD35
:1041300020CF0CDD1ECFB9D31CCF88EE97E00E94B4
:10414000E12F17CF0E946D3114CFE0E0F6E080E65A
:10415000828388E1868B858B0895CF9380910806B2
:10416000C82FC09586FD1DC08091FA218A3070F459
:104170008F5F8093FA21C5FF30C08091F9218A308A
:1041800008F58F5F8093F921CF9108958A3099F7D0
:10419000E0910322F09104228181D0DE8091FA2106
:1041A000E7CF8C2F807639F78091FA2181508A30C1
:1041B00030F4E0910322F09104228081BFDE10925E
:1041C000FA21D9CF8A3001F7E0910322F09104223D
:1041D0008381B4DE8091F921D4CFC076A9F6809195
:1041E000F92181508A3030F4E0910322F0910422C9
:1041F0008281A4DE1092F921C7CFAC019B016DE052
:104200008EEE97E097C5E82FF0E0EE5FFD4D6383FB
:104210006787638F67A363AB67AFE55BFF4F60831F
:1042200008950F931F939B018A01E0910322F0915F
:104230000422E80FF11D40816DE08EEE97E038D545
:104240001F910F9108950F931F93CF93DF930F92B8
:10425000CDB7DEB7082FAB019E012F5F3F4F6DE05A
:104260008EEE97E03ED5182F882319F06981802FB4
:10427000CADF812F0F90DF91CF911F910F91089589
:1042800008958F929F92AF92BF92CF92DF92EF925A
:10429000FF920F931F93CF93DF93882E962E072FB5
:1042A000142FCEB0DFB08091080490910904A09043
:1042B0000420B0900520E42EF12CA7014C5F5F4F45
:1042C00020910220309103202417350708F06BC09D
:1042D000C091FF21D091002284ECA81688E2B80694
:1042E00049F5DF91CF911F910F91FF90EF90DF90F3
:1042F000CF90BF90AF909F908F90089587E090E20D
:104300000E9452A810926F241092702410925F2283
:104310006A8170E088819981A8D587E090E20E9447
:1043200052A810926F241092702410925F220B807A
:10433000DC81C02D209721F08091FC218111DECFFE
:1043400084EC98E28093042090930520E091FF2173
:10435000F0910022309799F41092FD211092FE21E5
:104360001092FF21109200221092FC211092FB214A
:1043700084EC98E28093042090930520B2CFD381FF
:10438000C48182812091022030910320820F932FDB
:10439000911D8093022090930320CF010E942CAAAC
:1043A000ED2FFC2FD7CFC82AD92A85E090E00E94B4
:1043B00096A9EC01A882B98284E0810F8A831B82CE
:1043C0001C82C50101968093042090930520F5017D
:1043D0008082E0910420F0910520CF010196809326
:1043E0000420909305201083E0910420F091052093
:1043F000CF0101968093042090930520D082E09114
:104400000420F0910520CF01019680930420909321
:104410000520C082A701692D702F80910420909102
:1044200005200E9477AB80910420909105208E0D8D
:104430009F1D8093042090930520809102209091ED
:10444000032004978E199F098093022090930320E4
:104450008091FF2190910022892B91F0E091FD2124
:10446000F091FE21309761F0C383D483C093FD2186
:10447000D093FE218091FC218F5F8093FC2131CF6E
:10448000C093FD21D093FE21C093FF21D093002241
:10449000F1CF08954F925F926F927F928F929F9289
:1044A000AF92BF92CF92DF92EF92FF920F931F9342
:1044B000CF93DF938C012A013B01E901C0900020DA
:1044C000D0900120C60182509F43AC0170E060E0B3
:1044D000441655066606770608F073C022E0C21A35
:1044E00020E4D20A530142018C0E9D1EA11CB11C76
:1044F00084169506A606B70608F443C09C01241945
:104500003509C81BD90B7E01E40CF51CE90199247F
:104510009394C601B0E0A0E0B201481659066A06BD
:104520007B0608F045C06E5F7F4BA30192012C0F04
:104530003D1F411D511D281739074A075B0728F504
:10454000AE01C80147DA992051F0EC0EFD1EF801CA
:10455000EE0DFF1DC00FD11FEC17FD0781F581E0A7
:10456000DF91CF911F910F91FF90EF90DF90CF904F
:10457000BF90AF909F908F907F906F905F904F9083
:104580000895F12CE12C912CC4CF5601A418B50844
:10459000A501C8011FDAA2014C195D094C0F5D1F6E
:1045A00064EC78E2C8018A0D9B1D0E9477ABCBCFEB
:1045B0006C197D096C53774DAE01C801F6CF12928C
:1045C000CBCF80E0CDCFE4ECF8E220910220309117
:1045D000032084EC99E2821B930BE817F90751F54D
:1045E00084EC98E2809304209093052080E091E091
:1045F000809302209093032082E090E48093002037
:104600009093012042E050E060E070E480E090E2AE
:104610002FDAE0910322F091042287818A3019F485
:1046200080E180935A2286818A3019F480E1809358
:10463000592208951192D1CF8091022090910320A8
:1046400090582091002030910120821B930B0895F7
:1046500080930922809315228093212280932D221A
:10466000809339228093452280935122E091032246
:10467000F09104228483813069F0823081F08111CD
:1046800008C01092012280E491E28093C4299093A3
:10469000C5290895809301228FEA93E2F6CF109204
:1046A000012281E491E2F1CF0F931F93CF93DF9327
:1046B0000F92CDB7DEB7E0910322F09104228481FE
:1046C000C7DF84EC98E2809304209093052000E0FB
:1046D00011E0009302201093032041E050E0BE015E
:1046E0006F5F7F4F80E090E085DBE0910420F091E8
:1046F0000520DF01C8011D920197E9F78981882310
:10470000B1F042E050E060E070E480E090E262D915
:10471000E091C429F091C52940E070E060E08FEF9E
:1047200019950F90DF91CF911F910F91089582E01D
:1047300090E4809300209093012042E050E060E0FC
:1047400070E480E090E294D981E0898341E050E018
:10475000BE016F5F7F4F80E090E081DBD9CF0F9388
:104760001F93CF93DF93CEB1DFB1E0910804F091B6
:1047700009042091022030910320A42FB0E08D0184
:104780000C5F1F4F2017310708F44DC0EC2BFD2B99
:10479000245031092A1B3B0B209302203093032025
:1047A000A0910420B09105209D012F5F3F4F2093E1
:1047B0000420309305208C93A0910420B091052013
:1047C000CD01019680930420909305204C93A091F5
:1047D0000420B0910520CD01019680930420909390
:1047E0000520FC93A0910420B0910520CD010196F5
:1047F0008093042090930520EC93415028F4DF919E
:10480000CF911F910F910895FB01A0910420B091C9
:104810000520CD010196809304209093052081917D
:104820008C93BF01EACF80E013DFE0910322F09187
:10483000042287818A3019F481E180935A2286818B
:104840008A30E9F681E180935922D9CF1F93CF9323
:10485000DF930F92CDB7DEB7AC019E012F5F3F4FC4
:1048600063E08BE999E03DD2182F882311F089810C
:10487000EFDE812F0F90DF91CF911F9108950F935D
:104880001F939C018B01E0910322F091042244814B
:1048900063E08BE999E00CD21F910F910895AC0170
:1048A0009B0163E08BE999E045C20F931F93CF937F
:1048B000DF9380910220909103208F3F910511F0AA
:1048C00008F074C00091002010910120C0E0D0E8F1
:1048D000C01BD10B40E051E0481B590BC417D50752
:1048E000A8F1B80184EC98E2C3D82091022030915D
:1048F000032080910020909101209395821B930BBF
:104900008093002090930120E4ECF8E284EC99E29B
:10491000821B930B8E179F07B9F484EC98E2809367
:1049200004209093052080E091E0809302209093F2
:10493000032042E050E060E070E480E090E2DF912C
:10494000CF911F910F9194C81192E4CF209771F1EC
:10495000AE01B80184EC98E28BD8A8015F57BE0184
:104960006C53774D84EC98E20E9480AB1058809194
:10497000042090910520080F191F00930420109324
:10498000052080910220909103208C0F9D1F809321
:104990000220909303208091002090910120C80F65
:1049A000D91FC0930020D0930120C3CFDF91CF91B6
:1049B0001F910F91089580910122811176CF089562
:1049C00047E550E062E072E281E090E013CA47E51B
:1049D00050E062E072E281E090E041CA0F931F93E1
:1049E000CF93DF93D82FCFEFC80F80E0C73008F008
:1049F00043C00E94E53080910222C81769F1CBD8EC
:104A0000C09302228CE0C89F900111242B5F3D4D82
:104A1000209303223093042299D8E0910322F0914D
:104A2000042285810E94741BE0910322F0910422EC
:104A300084810EDE81E090E08C0102501242609190
:104A400002220E9481B26091032270910422C80167
:104A50008D5F9D4D0E948AB2D15EE0910322F0915C
:104A600004228781843011F4D0935A2286818430C5
:104A700011F4D093592281E0DF91CF911F910F91D2
:104A800008959091022228E0E7E0F0E03CE0215018
:104A900009F40895892F90E00196BF010E9400B2A9
:104AA000BC01982F369FA001379F500D11244E5FF7
:104AB0005D4DDA0118968C91882349F381E0890FC6
:104AC0008DCFFC01809102228F5C8083118208953A
:104AD000CF93DC0111968C91119781110DC0CC916F
:104AE000E091C429F091C52941E0BD0182E1199509
:104AF00080ED8C0FCF9172CF80E0CF91089588E147
:104B000080930106089580915922823139F148F449
:104B1000803181F18131F1F0882391F11092592295
:104B20002FC08331F9F090EE980F9830B8F790913C
:104B30005B2221E0290F911121C09091040693FF7F
:104B400015C098E090930606803241F3815080931F
:104B5000592216C088E080930506E0CF88E0809354
:104B60000706DCCF8091040683FD04C088E08093B3
:104B7000050606C088E080930606D0CF20935B220E
:104B800080915A22823131F140F4803181F18131BA
:104B9000E9F0811110925A2208958331F9F090EED4
:104BA000980F9830B8F790915C2221E0290F91116D
:104BB00021C09091040694FF15C090E190930606E1
:104BC000803241F3815080935A22089580E180938E
:104BD0000506E0CF80E180930706DCCF80910406D4
:104BE00084FD04C080E180930506089580E18093F0
:104BF0000606D0CF20935C220895AC019B016BE0A8
:104C00008EEF99E097C0E2E0F2E226E532E2982FDB
:104C10009071887091116287811161873C962E177F
:104C20003F07C1F7992329F090E19093060610926F
:104C30005A22882329F088E0809306061092592290
:104C400008950F931F939B018A01803161F4E091D5
:104C50000322F091042247816BE08EEF99E028D087
:104C60001F910F9108958830D9F7E0910322F091B8
:104C700004224681F1CF0F931F93CF93DF930F92BE
:104C8000CDB7DEB7082FAB019E012F5F3F4F6BE022
:104C90008EEF99E026D0182F882319F06981802F94
:104CA000B2DF812F0F90DF91CF911F910F91089567
:104CB0000F931F93FC01742FC901A801611102C059
:104CC00080E00AC024916150271309C0BF016F5FC3
:104CD0007F4F0E945BAB81E01F910F910895B196C9
:104CE000EDCFDF92EF92FF920F931F93CF93DF935D
:104CF000EC01162F042FD52E7901111102C080E08E
:104D00000FC0BE016F5F7F4F802F9D2D0E9452AB61
:104D10001150892B69F4FE01C491F701C08381E031
:104D2000DF91CF911F910F91FF90EF90DF90089549
:104D3000A196E3CFDA01A90101963CE2611104C01A
:104D4000452B09F01C920895FC012491211109C002
:104D5000623020F041155105B1F33D9361508196C9
:104D6000EDCF4115510579F32D93319641505109FD
:104D7000ECCFCF93DF9300D000D0CDB7DEB78091DA
:104D800020028068809320028091230280FFFCCF64
:104D900081E080932302A0911002B0911102AE5BDA
:104DA000B109B7FF02C0B0E0A0E020E038EB4BE073
:104DB00050E00E943AB26B837C838D839E83AA2746
:104DC000BB27E0910322F0910422378126814D8197
:104DD0005E81443F5140C8F4373019F480E180933C
:104DE0005A22273019F480E1809359228091C128FA
:104DF000882329F0E091B328F091B42819952696DC
:104E0000CDBFDEBFDF91CF910895373019F431E186
:104E100030935A22273019F421E12093592220910E
:104E20005D222111ECCF99838A83E091C429F0910E
:104E3000C52942E0BE016F5F7F4F88E41995DFCF3F
:104E4000BC0187E090E20C94DDA7CF93DF93EC01E7
:104E5000FE0164912196611103C0DF91CF91089505
:104E600087E090E20E9427A8F3CFAB01BC0187E066
:104E700090E20C9401A880E2809362060895CF939B
:104E8000DF9380915E22823031F587E090E20E94CC
:104E900092A80E9403A487E090E20E94ADA8EC01D2
:104EA00097FD19C0E0910322F0910422878183309D
:104EB00019F483E180935A228681833019F483E1C7
:104EC000809359228C2FA5D6811105C08C2FDF919C
:104ED000CF910C940330DF91CF91089580915E22A1
:104EE000823021F168F4811114C08091680685FF39
:104EF00009C08FE08093062081E080935E2202C08B
:104F00008330E9F080915E22823039F5D3D70C945A
:104F1000AD30809106208150809306208111F2CF20
:104F20000E94251B0E940AA782E0E7CF80916806B5
:104F300085FDE8CF8FE08093062083E0DECF80916F
:104F400006208150809306208111DCCF0E94CFA6DD
:104F50000E94531B10925E22D5CF0895E091032248
:104F6000F09104228781823019F481E180935A22E2
:104F70008681823019F481E1809359220895E0916D
:104F80000322F09104228781823019F480E180931A
:104F90005A228681823019F480E180935922089543
:104FA00087E090E20C94B8A787E090E20C94FDA80B
:104FB00021E43DE03F932F932BE33DE03F932F937C
:104FC00024E33DE03F932F9322E23DE03F932F9374
:104FD00024E43CE03F932F9322E02F931F929F9372
:104FE0008F930E94E0AB8DB79EB70E968DBF9EBF8C
:104FF00085E6089560E072E00E94B71B85E608959B
:10500000CF93DF93EB0128812F3359F429812111AC
:1050100008C060E072E00E94101C85E6DF91CF912D
:105020000895CE010E94C81B882399F00E94AE1DEE
:10503000CE010E94DF1BE0910322F0910422CF01F8
:105040008F5F9F4F65818D5F91420E9481B284E6A0
:10505000E5CF8AECE3CFEF92FF920F931F93CF93AC
:10506000DF93CDB7DEB7A097CDBFDEBF8C018091B7
:10507000C128E82EF12C81111CC08CE39CE09F9389
:105080008F9382E08F931F921F930F930E94E0AB48
:105090000F900F900F900F900F900F9085E6A096B5
:1050A000CDBFDEBFDF91CF911F910F91FF90EF90A9
:1050B0000895E091BB28F091BC28CE010196199586
:1050C0009701AE014F5F5F4F60E072E0C8010E9440
:1050D000521CE4CFDF92EF92FF920F931F93CF9376
:1050E000DF93CDB7DEB7A097CDBFDEBF7B01D090F9
:1050F000C12860EC70E2C7010E9452AB8E010F5FC5
:105100001F4F892B31F578018E2D801B8D15D8F01E
:10511000E091BD28F091BE28C8011995E091C429FD
:10512000F091C5294091C128B80183E1199584E621
:10513000A096CDBFDEBFDF91CF911F910F91FF9061
:10514000EF90DF9008950E94371CF70181937F0153
:10515000DBCFA70160E270E0C8010E947F1CD81677
:105160001906B1F28AECE4CFFC018091C2288823B1
:1051700029F081E38083118285E6089580E3FACFE8
:10518000FB012181211127C02081213329F481E0F5
:105190008093C22884E60895203319F41092C2281F
:1051A000F9CF2F33C1F41F9220E32F931F9221E3F5
:1051B0002F9326E33CE03F932F9322E02F931F92FF
:1051C0009F938F930E94E0AB8DB79EB70A968DBFD9
:1051D0009EBF85E608958AEC089580EF9DE1E7D4AF
:1051E0008EE6089581E79EE1FED48EE60895E0EC18
:1051F000F4E081818E7F81830E94CFA60E94191BDB
:1052000084E60895E0ECF4E081818E7F81830E9442
:10521000CFA60E941F1B84E60895EBEAF8E22589D9
:105220002F9324892F9323E33CE03F932F9322E095
:105230002F931F929F938F930E94E0AB8DB79EB7E1
:1052400008968DBF9EBF85E608952091C1281F92C4
:105250002F9320E33CE03F932F9322E02F931F9264
:105260009F938F930E94E0AB8DB79EB708968DBF3A
:105270009EBF85E60895BC0140E052E080E00E94B8
:10528000112185E60895FB0120812F3349F4218106
:10529000211106C060E072E00E94FD2085E60895BD
:1052A000BF0180E00E942321882319F090DB84E66F
:1052B00008958AEC0895BC0140E052E081E00E942C
:1052C000112185E60895FB0120812F3349F42181C6
:1052D000211106C060E072E00E94FD2085E608957D
:1052E000BF0181E00E942321882319F070DB84E64E
:1052F00008958AEC0895BC0140E052E082E00E94EB
:10530000112185E60895FB0120812F3349F4218185
:10531000211106C060E072E00E94FD2085E608953C
:10532000BF0182E00E942321882319F050DB84E62C
:1053300008958AEC0895BC0140E052E083E00E94A9
:10534000112185E60895FB0120812F3349F4218145
:10535000211106C060E072E00E94FD2085E60895FC
:10536000BF0183E00E942321882319F030DB84E60B
:1053700008958AEC0895BC0140E052E080E161DCD0
:1053800085E60895FB0120812F3341F4218121110D
:1053900005C060E072E031DC85E60895BF0180E180
:1053A0006ADC882319F013DB84E608958AEC0895FB
:1053B000BC0140E052E088E044DC85E60895FB0152
:1053C00020812F3341F42181211105C060E072E07A
:1053D00014DC85E60895BF0188E04DDC882319F0D0
:1053E000F6DA84E608958AEC089560E072E047DA20
:1053F00085E60895FB0120812F3341F4218121119D
:1054000005C060E072E04BDA85E60895CF011EDA50
:10541000882319F0DCDA84E608958AEC0895CF93A6
:10542000DF93EC0109D99C01811541E0940710F448
:1054300020E031E03A953F932F939F938F9380E143
:105440009CE09F938F9382E08F931F92DF93CF9383
:105450000E94E0AB8DB79EB70A968DBF9EBF85E6D2
:10546000DF91CF9108958AE492E2BDD38EE608954C
:105470001CDA84E60895A7D884E6089560E072E017
:1054800020DB85E60895CB0123DB811102C08AEC85
:10549000089584E608950E94AE1D84E608950E9452
:1054A000CB1D84E608950E94A61D84E60895909180
:1054B0006806917089E7891B0895DF92EF92FF9249
:1054C0000F931F93CF93DF93EC010FEF11E084E86C
:1054D000E82E8EE0F82E9CE2D92EB7018EEF90E2F6
:1054E0000E9452AB892B19F00115110509F521977E
:1054F000188285E6DF91CF911F910F91FF90EF9079
:10550000DF900895488331968901EC014491CE01E2
:105510000196980121503109442319F001301105F9
:1055200089F7D882890128E1E20EF11CEC01D5CF80
:10553000F701ECCFCF93DF9300D00F92CDB7DEB75A
:10554000FC018091200280688093200280912302D8
:1055500080FFFCCF81E080932302A0911002B091E4
:105560001102AE5BB109B7FF02C0B0E0A0E020E0DD
:1055700038EB4BE050E00E943AB269837A838B8328
:105580009C83AC01662777275F934F9389E09CE06B
:105590009F938F9382E08F931F92FF93EF930E94CC
:1055A000E0ABCDBFDEBF85E62496CDBFDEBFDF9189
:1055B000CF9108952EB13FB1409108045091090454
:1055C000242B352B3F932F9323E03CE03F932F93E5
:1055D00022E02F931F929F938F930E94E0AB8DB791
:1055E0009EB708968DBF9EBF85E608950F931F93C3
:1055F000CF93DF930F920F92CDB7DEB78B01E0917F
:105600000322F091042285818E3009F077C0E09169
:10561000B328F091B428199581E08093D82460E2F2
:1056200070E0C8010E9498AB9C01892BC1F5F8017C
:1056300001900020E9F73197E01BF10BE0FD5CC021
:10564000F695E795E130F10501F587E090E080936C
:10565000A9289093AA286091A9287091AA28695F27
:105660007F4F83E0769567958A95E1F7A80189EAEF
:1056700097E20E947F1C0E940F3A8FEF0F900F90CD
:10568000DF91CF911F910F91089553E0EE0FFF1F0F
:105690005A95E1F7E093A928F093AA28DCCFC80136
:1056A00004962817390741F5A80162E070E0CE01A1
:1056B00001960E947F1C898190E0982F88272A817B
:1056C000820F911D8093A9289093AA280B5F1F4FEA
:1056D000F80101900020E9F73197E01BF10BE0FDA4
:1056E0000BC0F695E79533E0EE0FFF1F3A95E1F713
:1056F000E817F90708F0AFCF8AECC0CF89ECBECF2E
:10570000EF92FF920F931F93CF93DF930F920F921D
:10571000CDB7DEB78B01E0910322F09104228581A1
:105720008E3009F08CC0E091B328F091B42819951F
:1057300082E08093D82460E270E0C8010E9498ABB8
:105740007C01892B09F041C0F80101900020E9F7A4
:105750003197E01BF10BE0FD70C0F695E795E13065
:10576000F10511F587E090E08093A9289093AA288D
:105770006091A9287091AA28695F7F4F83E0769590
:1057800067958A95E1F7A80189EA97E20E947F1C54
:105790000E940F3A8FEF0F900F90DF91CF911F91E2
:1057A0000F91FF90EF90089553E0EE0FFF1F5A9571
:1057B000E1F7CF0169E070E00E9400B2E81BF90B4D
:1057C000E093A928F093AA28D3CFC8010496E8163D
:1057D000F90699F5A80162E070E0CE0101960E94F9
:1057E0007F1C8981282F30E0322F22278A81820F67
:1057F000932F911D8093A9289093AA288730910513
:1058000029F09C0127703327232BB9F487010F5F00
:105810001F4FF80101900020E9F73197E01BF10BD1
:10582000E0FD0BC0F695E79533E0EE0FFF1F3A95CC
:10583000E1F7E817F90708F09BCF8AECACCF89ECC9
:10584000AACFE0910322F091042285818E30A1F449
:10585000E091B328F091B428199585E08093D8247D
:105860000E94145E0E940F3A8EE19EE580936D24A3
:1058700090936E248FEF089589EC0895E0910322B0
:10588000F091042285818E30A1F4E091B328F0914B
:10589000B428199583E08093D8240E94145E0E9456
:1058A0000F3A8EE19EE580936D2490936E248FEFE6
:1058B000089589EC0895E0910322F09104228581F6
:1058C0008E30A1F4E091B328F091B428199586E0C8
:1058D0008093D8240E94145E0E940F3A8EE19EE5C8
:1058E00080936D2490936E248FEF089589EC089532
:1058F000E0910322F09104224085518564E6649F83
:105900009001659F300D11243F932F932DEF3BE0C5
:105910003F932F9322E02F931F929F938F930E9488
:10592000E0AB8DB79EB708968DBF9EBF85E6089504
:10593000CF93DF930F920F92CDB7DEB7FB0120819B
:105940002F33D1F42181211117C02BEC3BE03F9381
:105950002F9322E02F931F929F938F930E94E0AB8F
:105960000F900F900F900F900F900F9085E60F9073
:105970000F90DF91CF91089589E592E089839A8312
:10598000CE0101969F938F9387EC9BE09F938F931B
:10599000FF93EF930E9416AC0F900F900F900F9013
:1059A0000F900F90892BA9F069817A81693582E087
:1059B000780778F4E0910322F091042260877187E0
:1059C000CF018F5F9F4F8A5F91420E948AB284E627
:1059D000CECF8AECCCCFE0910322F0910422238534
:1059E0002F9322852F9324EC3BE03F932F9322E0CB
:1059F0002F931F929F938F930E94E0AB8DB79EB71A
:105A000008968DBF9EBF85E60895CF93DF930F92D2
:105A10000F92CDB7DEB7FB0120812F33D1F4218166
:105A2000211117C02FE02F932FEF2F9323E73BE097
:105A30003F932F9322E02F931F929F938F930E9467
:105A4000E0ABCDBFDEBF85E60F900F90DF91CF9129
:105A5000089519821A82CE0101969F938F938FE643
:105A60009BE09F938F93FF93EF930E9416AC0F9050
:105A70000F900F900F900F900F90892BC9F06981B4
:105A80007A81611590E1790798F4609338037093F7
:105A90003903E0910322F091042262877387CF01DA
:105AA0008F5F9F4F885F91420E948AB284E6CCCF7D
:105AB0008AECCACFFB0120812F33D9F42181211137
:105AC00021C01F9220E32F931F9221E32F9329E6F9
:105AD0003BE03F932F9322E02F931F929F938F934E
