:100000000C94930E0C94B80E0C94B80E0C94B80E7D
:100010000C94B80E0C94B80E0C94B80E0C94B80E48
:100020000C94B80E0C94B80E0C942C120C94B80EC0
:100030000C94B80E0C94B80E0C94B80E0C94B80E28
:100040000C94B80E0C94B80E0C94B80E0C94B80E18
:100050000C94B80E0C94B80E0C94B80E0C94B80E08
:100060000C94B80E0C94B80E0C94B80E0C94B80EF8
:100070000C94B80E0C94B80E0C94B80E0C94B80EE8
:100080000C94B80E0C94B80E0C94FC280C945F2DB4
:100090000C94B80E0C94B80E0C94B80E0C94B80EC8
:1000A0000C94B80E0C94B80E0C94B80E0C94B80EB8
:1000B0000C94B80E0C94B80E0C94B80E0C94CA297B
:1000C0000C94B80E0C94C42C0C94CA2E0C94B80E3C
:1000D0000C94B80E0C94B80E0C94B80E0C94B80E88
:1000E0000C94B80E0C94B80E0C94B80E0C94B80E78
:1000F0000C94B80E0C94B80E0C94B80E0C94B80E68
:100100000C94B80E0C94B80E0C94B80E0C94B80E57
:100110000C94A52E0C94A12C0C94B80E0C94B80E33
:100120000C94B80E0C94B80E0C94B80E0C94B80E37
:100130000C94B80E0C94B80E0C94B80E0C94322992
:100140000C94F10E0C94C02B0C94892D0C94B80EC9
:100150000C94B80E0C941A2C0C94972F0C94B80E87
:100160000C94B80E0C94B80E0C94B80E0C94B80EF7
:100170000C94B80E0C94B80E0C94B80E0C94B80EE7
:100180000C94B80E0C94B80E0C94B80E0C94B80ED7
:100190000C94B80E0C94B80E0C94B80E0C94B80EC7
:1001A0000C94B80E0C94B80E0C94B80E0C94B80EB7
:1001B0000C94B80E0C94B80E0C94B80E0C94B80EA7
:1001C0000C94B80E0C94B80E0C94B80E0C94B80E97
:1001D0000C94B80E0C94B80E0C94B80E0C94B80E87
:1001E0000C94B80E0C94B80E0C94B80E0C94B80E77
:1001F0000C94B80E0C94196F0C94B80E6364696E6D
:100200006F70737578585B003403430068006100B9
:100210006D0065006C0065006F006E002D004D00E4
:1002200069006E0069002D0044004500530046003F
:100230006900720065004D006F0064000000380323
:100240004B00610073007000650072002000260002
:1002500020004F007300770061006C0064002000F4
:1002600047006D0062004800200028005200650031
:1002700076004700290000000403090409023E003B
:10028000020100C03209040000010202010005243D
:10029000001001042402060524060001070582035C
:1002A0000800FF09040100020A000000070504021B
:1002B000100005070583021000051201100102005D
:1002C0000008D016B204010001020001D412DF12AE
:1002D000DE12DD12DC12DB12DA12D512D812D912BC
:1002E0000000000100882AFC2A1B2B6437D535E169
:1002F00035D935FF366D376F370010070000004ED7
:100300004F4E45000000000000000000000000000B
:1003100000000000000000000000000000000001DC
:100320004D465F44455346495245000000000000D9
:1003300000000000000000000000000000000000BD
:10034000008040C020A060E0109050D030B070F02D
:10035000088848C828A868E8189858D838B878F89D
:10036000048444C424A464E4149454D434B474F4CD
:100370000C8C4CCC2CAC6CEC1C9C5CDC3CBC7CFC3D
:10038000028242C222A262E2129252D232B272F2CD
:100390000A8A4ACA2AAA6AEA1A9A5ADA3ABA7AFA3D
:1003A000068646C626A666E6169656D636B676F66D
:1003B0000E8E4ECE2EAE6EEE1E9E5EDE3EBE7EFEDD
:1003C000018141C121A161E1119151D131B171F19D
:1003D000098949C929A969E9199959D939B979F90D
:1003E000058545C525A565E5159555D535B575F53D
:1003F0000D8D4DCD2DAD6DED1D9D5DDD3DBD7DFDAD
:10040000038343C323A363E3139353D333B373F33C
:100410000B8B4BCB2BAB6BEB1B9B5BDB3BBB7BFBAC
:10042000078747C727A767E7179757D737B777F7DC
:100430000F8F4FCF2FAF6FEF1F9F5FDF3FBF7FFF4C
:1004400044465F505052494E545F50494343204602
:10045000756C6C496D61676500434C4F4E450000FB
:100460004E4F4E450000000000000000000000005C
:10047000000000000000000000000000000000007C
:10048000015549445F52414E444F4D000000000069
:10049000000000000000000000000000000000005C
:1004A00000025549445F4C4546545F494E4352450E
:1004B0004D454E5400000000000000000000000008
:1004C0000000035549445F52494748545F494E4331
:1004D00052454D454E540000000000000000000051
:1004E000000000045549445F4C4546545F44454371
:1004F00052454D454E540000000000000000000031
:1005000000000000055549445F52494748545F4484
:10051000454352454D454E54000000000000000088
:100520000000000000064359434C455F53455454B6
:10053000494E47530000000000000000000000008A
:100540000000000000000753544F52455F4D454DD9
:10055000000000000000000000000000000000009B
:100560000000000000000008524543414C4C5F4D24
:10057000454D0000000000000000000000000000E9
:10058000000000000000000009544F47474C455F41
:100590004649454C440000000000000000000000F7
:1005A0000000000000000000000A53544F52455F55
:1005B0004C4F470000000000000000000000000059
:1005C000000000000000000000000B434C4F4E45AF
:1005D000000000000000000000000000000000001B
:1005E00000000000000000000000000C5052494EC6
:1005F000545F5354415445000000000000000000C7
:10060000000000000000000000000000004F46460F
:1006100000000000000000000000000000000000DA
:1006200000000000000000000000000000014D4537
:100630004D4F525900000000000000000000000073
:100640000000000000000000000000000000024C5C
:1006500049564500000000000000000000000000B6
:10066000000000000000000000000000000000008A
:100670004E4F4E450000000000000000000000004A
:10068000000000000000000000000000000000006A
:1006900001504F5745524544000000000000000043
:1006A000000000000000000000000000000000004A
:1006B00000025445524D494E414C5F434F4E4E004F
:1006C000000000000000000000000000000000002A
:1006D0000000035445524D494E414C5F5258545806
:1006E000000000000000000000000000000000000A
:1006F0000000000453455454494E475F4348414E5F
:10070000474500000000000000000000000000005D
:1007100000000000054D454D4F52595F53544F5254
:100720004544000000000000000000000000000040
:100730000000000000064D454D4F52595F434841AF
:100740004E4745440000000000000000000000008B
:1007500000000000000008434F4445435F5258002A
:100760000000000000000000000000000000000089
:100770000000000000000009434F4445435F545807
:100780000000000000000000000000000000000069
:100790000000000000000000074649454C445F444B
:1007A000455445435445440000000000000000004B
:1007B0000000000000000000000A4C4F474D454D6E
:1007C0005F46554C4C000000000000000000000097
:1007D0000000000000000000000025632C256300DD
:1007E00025356400416E7920696E746567657220F5
:1007F00066726F6D203020746F2025752E20526533
:10080000666572656E636520766F6C7461676520DE
:1008100077696C6C2062652028564343202A205457
:1008200048524553484F4C44202F20343039352905
:10083000206D562E002575002535640030203D20A2
:100840006E6F2074696D656F75740D0A312D3630C9
:1008500030203D20313030206D73202D2036303057
:100860003030206D732074696D656F757400257567
:10087000206D730025342E345800253575206D56B3
:10088000002575202866726F6D207768696368207F
:100890002575206E6F6E2D766F6C6174696C65299D
:1008A0000025750025750025632C2563004E4F201B
:1008B0005549442E004368616D656C656F6E4D69E6
:1008C0006E692052657647207769746820444553E5
:1008D0004669726520737461636B20737570706F05
:1008E0007274202553207573696E67204C554641FC
:1008F00020255320636F6D70696C6564207769747F
:1009000068204156522D4743432025532E20536FD4
:1009100075726365733A2068747470733A2F2F6729
:1009200069746875622E636F6D2F6D617869656497
:10093000732F4368616D656C656F6E4D696E6946B6
:1009400069726D7761726544455346697265537487
:1009500061636B0A4C6F676765723A202068747434
:1009600070733A2F2F6769746875622E636F6D2FED
:100970006D6178696564732F4368616D656C656F3F
:100980006E4D696E694C6976654465627567676529
:10099000722E00323032302E31302E31352D31353D
:1009A000353635340031353131313500392E332E7D
:1009B000300034373139333663000D0A000D0A0038
:1009C0000D0A00643130303A4F4B00000000000047
:1009D0000000000000000000000000000000000017
:1009E00000000000653130313A4F4B2057495448E0
:1009F0002054455854000000000000000000000092
:100A000000000000006E3131303A57414954494EE0
:100A10004720464F5220584D4F44454D000000009E
:100A2000000000000000C83230303A554E4B4E4FA7
:100A3000574E20434F4D4D414E44000000000000F2
:100A400000000000000000C93230313A494E5641E2
:100A50004C494420434F4D4D414E4420555341474E
:100A60004500000000000000CA3230323A494E56BC
:100A7000414C494420504152414D4554455200009B
:100A8000000000000000000000783132303A46419A
:100A90004C53450000000000000000000000000072
:100AA00000000000000000000000793132313A54AB
:100AB000525545000000000000000000000000004A
:100AC0000000000000000000000000CB3230333A8C
:100AD00054494D454F5554000000000000000000EF
:100AE00000000000000000000000000056455253C6
:100AF000494F4E0000000000000000000000000010
:100B000000003B21434F4E464947000000000000D3
:100B1000000000000000000063215D2155494400F1
:100B200000000000000000000000000000000000C5
:100B3000CD218E21524541444F4E4C5900000000BA
:100B400000000000000000002322172255504C4FE7
:100B5000414400000000000000000000502200009E
:100B600000000000444F574E4C4F4144000000002D
:100B700000000000552200000000000052455345CF
:100B80005400000000000000000000005A22000095
:100B9000000000005550475241444500000000004D
:100BA0000000000065220000000000004D454D538C
:100BB000495A45000000000000000000000000004D
:100BC0000000702255494453495A45000000000076
:100BD000000000000000000000008822524255542E
:100BE000544F4E0000000000000000000000000014
:100BF000A6229E2252425554544F4E5F4C4F4E47B0
:100C00000000000000000000C622BE224C425554E5
:100C1000544F4E00000000000000000000000000E3
:100C2000E622DE224C425554544F4E5F4C4F4E4705
:100C300000000000000000000623FE224C4544474F
:100C40005245454E0000000000000000000000007A
:100C500025231E234C45445245440000000000005B
:100C6000000000000000000042233B234C4F474D92
:100C70004F4445000000000000000000000000009C
:100C80005D2358234C4F474D454D000000000000A8
:100C90000000000000000000000072234C4F474499
:100CA0004F574E4C4F414400000000009623000077
:100CB000000000004C4F4753544F524500000000C5
:100CC000000000009B230000000000004C4F474341
:100CD0004C45415200000000000000009E2300002F
:100CE0000000000053455454494E470000000000E6
:100CF0000000000000000000A623A123434C454152
:100D0000520000000000000000000000AE230000C0
:100D10000000000053544F52450000000000000046
:100D200000000000B22300000000000052454341D3
:100D30004C4C00000000000000000000B623000042
:100D4000000000004348415247494E470000000060
:100D500000000000000000000000BA2348454C508D
:100D6000000000000000000000000000C0230000A0
:100D70000000000052535349000000000000000032
:100D800000000000000000000000FD2353595354F0
:100D900049434B000000000000000000000000007C
:100DA00000003C2453454E445F5241570000000070
:100DB0000000000000005A240000000053454E448B
:100DC00000000000000000000000000000005824A7
:100DD0000000000047455455494400000000000051
:100DE000000000005E2400000000000044554D504B
:100DF0005F4D465500000000000000005C2400002C
:100E0000000000004944454E544946590000000086
:100E100000000000602400000000000054494D451F
:100E20004F555400000000000000000000000000CA
:100E3000822462245448524553484F4C44000000D9
:100E40000000000000000000EF24D5244155544F5D
:100E500043414C4942524154450000007E25000068
:100E6000000000004649454C44000000000000001E
:100E7000000000000000000044256E25434C4F4E4A
:100E80004500000000000000000000008025000078
:100E90000000000044465F5345544844520000009F
:100EA0000000000000000000C83EB23E44465F5013
:100EB0005052494E545F5049434300000000653F83
:100EC0000000000044465F4657494E464F00000070
:100ED00000000000C03F00000000000044465F4CDE
:100EE0004F474D4F44450000000000000000000047
:100EF0000440DE3F44465F544553544D4F44450043
:100F00000000000000000000914089400000000047
:100F100000000000000000000000000000000000D1
:100F2000000000000001020408102040801B36521F
:100F3000096AD53036A538BF40A39E81F3D7FB7C24
:100F4000E339829B2FFF87348E4344C4DEE9CB54C0
:100F50007B9432A6C2233DEE4C950B42FAC34E0859
:100F60002EA16628D924B2765BA2496D8BD1257259
:100F7000F8F66486689816D4A45CCC5D65B6926C6D
:100F8000704850FDEDB9DA5E154657A78D9D8490E7
:100F9000D8AB008CBCD30AF7E45805B8B34506D0EB
:100FA0002C1E8FCA3F0F02C1AFBD0301138A6B3ADB
:100FB0009111414F67DCEA97F2CFCEF0B4E6739619
:100FC000AC7422E7AD3585E2F937E81C75DF6E4772
:100FD000F11A711D29C5896FB7620EAA18BE1BFCD4
:100FE000563E4BC6D279209ADBC0FE78CD5AF41F0C
:100FF000DDA8338807C731B11210592780EC5F6034
:10100000517FA919B54A0D2DE57A9F93C99CEFA090
:10101000E03B4DAE2AF5B0C8EBBB3C83539961175A
:101020002B047EBA77D626E169146355210C7D63C3
:101030007C777BF26B6FC53001672BFED7AB76CA2E
:1010400082C97DFA5947F0ADD4A2AF9CA472C0B753
:10105000FD9326363FF7CC34A5E5F171D831150460
:10106000C723C31896059A071280E2EB27B27509C9
:10107000832C1A1B6E5AA0523BD6B329E32F8453FC
:10108000D100ED20FCB15B6ACBBE394A4C58CFD0C1
:10109000EFAAFB434D338545F9027F503C9FA85191
:1010A000A3408F929D38F5BCB6DA2110FFF3D2CD64
:1010B0000C13EC5F974417C4A77E3D645D19736001
:1010C000814FDC222A908846EEB814DE5E0BDBE00E
:1010D000323A0A4906245CC2D3AC629195E479E7BE
:1010E000C8376D8DD54EA96C56F4EA657AAE08BA4C
:1010F00078252E1CA6B4C6E8DD741F4BBD8B8A7004
:101100003EB5664803F60E613557B986C11D9EE1AE
:10111000F8981169D98E949B1E87E9CE5528DF8CEB
:10112000A1890DBFE6426841992D0FB054BB164FFF
:1011300046460046414C53450030004F4E00545245
:10114000554500310025313573002573203C4F4E45
:101150007C4F46467C564552424F53457C4445425F
:10116000554747494E473E00444542554747494E3B
:101170004700564552424F5345004F4646004641B0
:101180004C53450030004F4E00545255450031003D
:101190002531357300444542554747494E4700566F
:1011A0004552424F5345004E4F524D414C004F4621
:1011B00046004368616D656C656F6E2D4D696E69A3
:1011C000204445534669726520656E61626C6564B2
:1011D000206669726D77617265206275696C742032
:1011E0006F6E202573206261736564206F6E202509
:1011F000732066726F6D200D0A68747470733A2FD5
:101200002F6769746875622E636F6D2F6D617869E1
:101210006564732F4368616D656C656F6E4D696EB3
:10122000694669726D7761726544455346697265B6
:10123000537461636B2E6769742E0D0A526576696B
:1012400073696F6E3A2025730D0A002573203C46A2
:10125000756C6C496D6167657C4865616465724455
:101260006174613E00486561646572446174610047
:1012700046756C6C496D61676500253331730050AC
:10128000726F64756374696F6E4461746500426166
:101290007463684E756D62657200536F6674776132
:1012A000726556657273696F6E004861726477612A
:1012B000726556657273696F6E0041545300253232
:1012C00034732025313273002573203C4154532D53
:1012D000357C486172647761726556657273696FB7
:1012E0006E2D327C536F66747761726556657273CA
:1012F000696F6E2D327C42617463684E756D6265F4
:10130000722D357C50726F64756374696F6E4461C1
:1013100074652D323E203C48657842797465732DA2
:101320004E3E0050544558542D44454641554C546A
:101330000043544558542D4145533132382D434DC7
:1013400041430043544558542D444553005054459F
:1013500058542D4D414300414E59004145533132BF
:101360003800334B3344455300324B54444541001D
:101370004348470052572F00572F00522F00495320
:101380004F31343434332D343A20554E4B2D434DA8
:1013900044204E4F5F524553500049534F3134342F
:1013A00034332D333A20524553455420544F20496D
:1013B000444C450049534F31343434332D343A20B2
:1013C000414354495645205245540049534F313406
:1013D0003434332D333A20476F742048414C540045
:1013E000524459322C204E4F5420534C43542043E6
:1013F0004D4400496E636F72726563742053656C6F
:101400006563742076616C75652028523229004925
:101410004E544F20414354495645210049534F31C2
:10142000343434332D343A20524459312C204E4F29
:101430005420534C435420434D440049534F3134BE
:101440003434332D343A2053656C656374204E4137
:101450004B0049534F31343434332D343A205365E3
:101460006C656374204F4B0049534F31343434332F
:101470002D34202849444C45293A204154514100FB
:1014800049534F31343434332D343A2049444C4598
:10149000202F204E4F5420575550410049534F3173
:1014A000343434332D343A2048414C54202F204ECC
:1014B0004F5420575550410049534F313434343341
:1014C0002D333A2048414C54494E470049534F313F
:1014D000343434332D343A205043425F535F424C0E
:1014E0004B204E4F5F524553500049534F313434D7
:1014F00034332D343A20532D424C4B0049534F3155
:10150000343434333450726F63657373426C6F6379
:101510006B3A2049534F31343434335F5043425F88
:10152000525F424C4F434B202D2D202564004953E0
:101530004F31343434332D343A20522D424C4B0049
:1015400049534F31343434333450726F636573739D
:10155000426C6F636B3A2049534F31343434335FFC
:101560005043425F525F424C4F434B202D2D20256C
:10157000640049534F31343434332D343A20492DEB
:10158000424C4B0049534F31343434332D343A20DC
:101590004150505F4E4F5F524553500049534F31B9
:1015A000343434333450726F63657373426C6F63D9
:1015B0006B3A2049534F31343434335F5043425FE8
:1015C000495F424C4F434B202D2D20256400495349
:1015D0004F31343434333450726F63657373426CFB
:1015E0006F636B3A2049534F31343434335F504387
:1015F000425F495F424C4F434B202D2D2025640014
:1016000049534F31343434332D343A204E4557202A
:10161000434152442049440049534F313434343318
:101620002D343A2053454E442052415453004953DF
:101630004F31343434332D343A204E4F54205241FC
:1016400054530049534F31343434332D343A20430A
:101650005243206661696C3B2025303458207673F4
:1016600020253034580049534F31343434332D342D
:101670003A206C656E677468206661696C00404052
:10168000204C494E452023256420696E202A25736D
:1016900020404000526561644461746146696C6534
:1016A0005365747570202D2D204552524F522100E4
:1016B000496E76616C69642066696C652074797026
:1016C00065203D20256440256400496E76616C6983
:1016D000642066696C6520696E646578203D20250C
:1016E00064202F202564203B20666F722046696CA1
:1016F000654E756D203D202564004040204C494ECC
:10170000452023256420696E202A2573204040004F
:1017100050494343206B65792073657474696E6723
:1017200073202D2D2025303278004E4F5420494D06
:10173000504C454D454E5445443A20257321000AEE
:101740001E4F641B1A1F53531BAADF53421B710009
:1017500000271B770000091B54FF50F51A5C00009E
:10176000E31AC45050D81A640C50C81ACA5260B553
:101770001ADACA5FA21A6A31518E1A6EE94E821ABB
:101780006D7D57751A45D14F641A5A5A51511AFC3A
:10179000964E451A607E4E391A51724E2C1A6FA819
:1017A000511F1AF5CD5D0D1A5FF151F819CDA45FE7
:1017B000E719CB7E5FD419CC3A5FC219C1035FA889
:1017C00019C0C85E8E19DF8D5E821961A85171192A
:1017D000BD585D67193D795C5C196C1E5C52190C33
:1017E000965B4B19DC025B45191C835A36193B9DED
:1017F000582919BB82591C19EB6B580A19C7FD5798
:10180000F718A78F57E518A43963D61884064FC078
:1018100018828357A2188889578418B0B654701854
:10182000D691555A18B280564518E21D522F1849C4
:10183000534F373831365F417070656E645F526563
:10184000636F72640049534F373831365F526561B8
:10185000645F5265636F7264730049534F37383168
:10186000365F5570646174655F42696E61727900BC
:1018700049534F373831365F526561645F42696E54
:101880006172790049534F373831365F496E74655C
:10189000726E616C5F41757468656E7469636174C2
:1018A000650049534F373831365F45787465726E3D
:1018B000616C5F41757468656E746963617465001D
:1018C00049534F373831365F4765745F4368616C01
:1018D0006C656E67650049534F373831365F536525
:1018E0006C6563740041626F72745F5472616E73F1
:1018F000616374696F6E00436F6D6D69745F5472DC
:10190000616E73616374696F6E00436C6561725FD1
:101910005265636F72645F46696C6500526561640D
:101920005F5265636F7264730057726974655F52CA
:1019300065636F7264004C696D697465645F4372BE
:101940006564697400446562697400437265646922
:1019500074004765745F56616C75650057726974F1
:10196000655F4461746100526561645F44617461E4
:10197000004765745F49534F5F46696C655F494432
:10198000730044656C6574655F46696C65004372FD
:10199000656174655F4379636C69635F5265636F0A
:1019A00072645F46696C65004372656174655F4C83
:1019B000696E6561725F5265636F72645F46696CE0
:1019C00065004372656174655F56616C75655F465D
:1019D000696C65004372656174655F4261636B7534
:1019E000705F46696C65004372656174655F446150
:1019F00074615F46696C65004368616E67655F4648
:101A0000696C655F53657474696E677300476574CC
:101A10005F46696C655F53657474696E67730047F0
:101A200065745F46696C655F494473004765745F20
:101A3000436172645F554944004765745F5665723F
:101A400073696F6E00466F726D61745F50494343F6
:101A50000053656C6563745F4170706C6963617499
:101A6000696F6E004765745F4B65795F5365747489
:101A7000696E6773004765745F44465F4E616D65CC
:101A80007300467265655F4D656D6F7279004765DD
:101A9000745F4170706C69636174696F6E5F494413
:101AA000730044656C6574655F4170706C69636157
:101AB00074696F6E004372656174655F4170706C2C
:101AC00069636174696F6E004765745F4B65795F28
:101AD00056657273696F6E004368616E67655F4B30
:101AE0006579005365745F436F6E666967757261EF
:101AF00074696F6E004368616E67655F4B65795FFF
:101B000053657474696E67730041757468656E74AB
:101B100069636174655F4145535F4556325F4E6F3F
:101B20006E46697273740041757468656E7469639A
:101B30006174655F4145535F4556325F4669727314
:101B4000740041757468656E7469636174655F41A2
:101B500045530041757468656E7469636174655FAF
:101B600049534F0041757468656E69636174655FC0
:101B70004C65676163790025733A202573005742ED
:101B80004220537461727420426C6F636B20546FF7
:101B90006F204C61726765202D2D202564202D2D2E
:101BA0002025730052424220537461727420426CAB
:101BB0006F636B20546F6F204C61726765202D2D11
:101BC000202564202D2D20256400437265617465F5
:101BD0004170702072657475726E6564202D2D20C1
:101BE00025640A00466163746F72792072657365BB
:101BF0007474696E672074686520646576696365CE
:101C0000003D3D2041494420307825303278253050
:101C10003278253032780D0A00205B4B455953202D
:101C20002D2D202564206F662025645D0D0A005D42
:101C30000D0A00202D2D202530326400202D2D206E
:101C4000533D2530327800202D2D20414D4B002072
:101C50002D2D20533D2530327800202D2D20504D44
:101C60004B0020202D3E204E6F2E20253032782034
:101C700028257329205B762520326400205B4649A5
:101C80004C4553202D2D202564206F662025645D52
:101C90000D0A0020202D3E204E6F2E202530327858
:101CA0000D0A0020202D3E204E6F2E202530327848
:101CB000205B436F6D6D3D2573202D2D2050657287
:101CC0006D733D25735D0D0A00284154532920256D
:101CD000730D0A0028444154452920253032782FBD
:101CE000253032780D0A00284241544348292025E6
:101CF000730D0A002856455253494F4E2920485724
:101D00003D253032782E253032782C2053573D2512
:101D10003032782E253032780D0A00285549442972
:101D20002025730D0A0011241FBECFEFCDBFDFE3C6
:101D3000DEBF00E00CBF18BE19BE1ABE1BBE10E20B
:101D4000A0E0B0E2E6E5F2EF00E00BBF02C00790D2
:101D50000D92AA3DB107D9F71BBE29E2AAEDB0E268
:101D600001C01D92AE30B207E1F70DD20C94297973
:101D70006AC33BB78BBFFB01879196913BBF089528
:101D80003BB78BBFCB0142E20D94F00F3BB70B0189
:101D900043E20D94F00F3BB78BBFCB0145E20D94AE
:101DA000F00F3BB746E208C02091CF0127FDFCCFE2
:101DB00022272093CA0108954093CA0128ED31E0FB
:101DC000209334003093CB016091C4017091C50120
:101DD0008091C60199270895FC014093CA0184911E
:101DE00008950F9200240F932F933F934F935F9387
:101DF0000FB70F93EF93FF93EAB1FBB151914427D3
:101E000035B124B1569578F400928C080092000800
:101E100006E10A95F1F700C001E00093000803E035
:101E200000938C0804C00AE10A95F1F700002150E4
:101E3000304019F40E94082C0CC04F5F477011F419
:101E4000519102C000C000C00AE00A95F1F700C03D
:101E5000D9CFFF91EF910F910FBF5F914F913F91BC
:101E60002F910F910F901895F190E190D190C19022
:101E7000B190A190919081900B941B942B943B94E2
:101E80004B945B946B947B948B949B94AB94BB949A
:101E9000CB94DB94EB94FB940895F801D894E4DFA1
:101EA0005894E2DFD894E0CFF801D894DDDF58945D
:101EB000DBDFF801D894D8CFF801D894D5CFF8015A
:101EC0005894D2CFF80170965894CEDFF801389626
:101ED000D894CADFF8015894C7CFF8015894C4DFEA
:101EE000D894C2DFF8015894BFCFFF90EF90DF90F5
:101EF000CF90BF90AF909F908F907F906F905F90AA
:101F00004F903F902F90112408952F923F924F921F
:101F10005F926F927F928F929F92AF92BF92CF9279
:101F2000DF92EF92FF920F931F93FB0171906190EC
:101F30005190419031902190119001908A01CDDF14
:101F4000FC017192619251924192319221921192CF
:101F500001921F910F91C9CF2F923F924F925F92A2
:101F60006F927F928F929F92AF92BF92CF92DF92A9
:101F7000EF92FF920F931F93FB017190619051902C
:101F8000419031902190119001908A019BDFFC01DA
:101F900071926192519241923192219211920192E9
:101FA0001F910F91A2CF2F923F924F925F926F920B
:101FB0007F928F929F92AF92BF92CF92DF92EF92D9
:101FC000FF920F931F93FC0171906190519041908B
:101FD00031902190119001908A0166DFFB0171928E
:101FE00061925192419231922192119201921F91EC
:101FF0000F917BCF2F923F924F925F926F927F9281
:102000008F929F92AF92BF92CF92DF92EF92FF9208
:102010000F931F93FC01719061905190419031900A
:102020002190119001908A0138DFFB017192619239
:102030005192419231922192119201921F910F91EE
:1020400054CF2F923F924F925F926F927F928F92D6
:102050009F92AF92BF92CF92DF92EF92FF92CF9377
:10206000DF93EB01DA01BF01F901719061905190AA
:1020700041903190219011900190F990E990D99080
:10208000C990B990A990999089907F246E245D247D
:102090004C243B242A2419240824FB0109957D9211
:1020A0006D925D924D923D922D921D920D920197EF
:1020B00021F7D9017D926D925D924D923D922D92C4
:1020C0001D920D92DF91CF9110CF2F923F924F92A0
:1020D0005F926F927F928F929F92AF92BF92CF92B8
:1020E000DF92EF92FF92CF93DF93EB01DA01BF0112
:1020F000788069805A804B803C802D801E800F80C4
:10210000FB010995F901F190E190D190C190B19056
:10211000A190919081907F246E245D244C243B24D7
:102120002A2419240824F990E990D990C990B990EB
:10213000A99099908990F901F192E192D192C1927E
:10214000B192A192919281927D926D925D924D9207
:102150003D922D921D920D92019751F6DF91CF91F4
:10216000C4CEFFE0E4E56DCFFFE0E4E5AECFFFE0F5
:10217000EDE667CFFFE0EDE6A8CFFFE0EDE461CF4D
:10218000FFE0E2E6A2CF7FD10E94471E0E94E71E39
:102190005BD31092520684E08093420682E68093DD
:1021A0008601C1E0C0932606C093210686E0809395
:1021B0002206C093310612E01093320610922A06CE
:1021C00010922B068FE08093290689E58093800189
:1021D0009AE5909381018093820180E48093410687
:1021E000809346069091B200907F9093B2009091B8
:1021F000B20092609093B20090E390934106909366
:10220000460680935006C09346061093450603E0A9
:102210000093410683E18093010821E030E02093A0
:102220002608309327082093280830932908109215
:102230008C08809380081092230310922103D8E029
:10224000D093220381E180932003E091E520F09177
:10225000E6208285938580933803909339038CE33D
:1022600080938203D093800380938303D093810370
:10227000DCD10E94A02046D20E94241AC093000202
:10228000109201021093020200930402C0932002F4
:10229000D09321020E94BA1C82D182E0982E01E1E3
:1022A00093E9E92E94E2F92E20E8C22ED12C8091F8
:1022B000030481FF7CC08091010480FDFCCF9092DB
:1022C00003040E94EB1E50D20E94D2200E942C1ABE
:1022D000E0918624F091872419950E94421EE09196
:1022E000E520F091E6208481823009F046C080919B
:1022F000DD208F5F8093DD2063E00E94807191116B
:102300003CC0E091E120F091E220A080B1801281F8
:10231000C381D4818091DE208823D9F08BE090E2C4
:102320000E9429701092B4221092B5221092A1211D
:10233000612F70E0C5010E949A208BE090E20E941C
:1023400029701092B4221092B5221092A1212097E8
:10235000E9F5E0920820F0920920C0920620D09280
:1023600007201092DF201092E0201092E1201092BE
:10237000E2201092DE201092DD200E9450288091F1
:102380009F218F5F6FE00E94807190939F210E9438
:102390001E20E091E520F091E6208781813011F444
:1023A00000939E218681813011F400939D21E0915C
:1023B0008424F09185241995E0917E24F0917F2466
:1023C00019950E94B61B0E94A42071CFA880B980E5
:1023D0001A810B80DC81C02D8091DE20815080939A
:1023E000DE2098CFDA01292F33272230310531F151
:1023F0002330310551F02130310591F482E190E034
:102400002AEB32E02D933C9308959C0133278130D1
:1024100061F02230310579F0E8E7F2E0232B39F062
:1024200090E080E030E020E0EDCFEEE3F2E0849158
:1024300090E09F01E7CFE8E0F2E0F9CF8EE390E093
:102440002CE732E0DFCF0F920FB60F921F921124CC
:1024500008B60F9218BEFFCF1F921FB61F9211240D
:102460008F9388B78F9318BE9F938EB19FB180587A
:102470009F4F8EB99FB99F918F9188BF8F911F9069
:102480001FBE1F9018958091780083FF0AC088E0D6
:102490008093780088ED84BF81E0809380000D9464
:1024A000FE008BEC809352008091500088608093F6
:1024B00050008091510083FFFCCF82EC8093550047
:1024C000809150008061809350008091510084FF82
:1024D000FCCF88ED84BF84E0809340001EB81FB815
:1024E00081E0809343002FE730E020930A0430938B
:1024F0000B0420930C0430930D048093000480930C
:10250000020480E880930001089588ED84BF81E093
:1025100080937900089588ED84BF8BE180938000DB
:102520000895809150008260809350008091510006
:1025300081FFFCCF82E08093CA01EDE1F0E0E491FD
:10254000E0936200ECE1F0E0E491E093630010922C
:10255000CA0180E8809365008BEB809366008091D0
:102560005600897F80935600809156008460809346
:102570005600809160008160809360000895E0E4DF
:10258000F0E084818E7F8483E0E6F0E080818E7FBE
:102590008083E0E5F0E080818D7F8083089587E08F
:1025A0008093A20078940895089590E080E00895C3
:1025B0000895089508950895089508950895089533
:1025C000CF93C82FE0917C24F0917D2419950E942F
:1025D0008628E091E520F091E620C58389E1C89F37
:1025E000B001112464537D4F49E150E08AE794E241
:1025F0000E942A72E0917A24F0917B241995E0914F
:102600008024F09181241995C05EE091E520F0913D
:10261000E6208781843011F4C0939E218681843026
:1026200011F4C0939D21CF91089549E150E06CECE5
:1026300072E08AE794E20E942A72E091E520F0912C
:10264000E6208581BDCF0F931F939C018B01E09104
:10265000E520F091E620458162E08EEF92E00E9455
:10266000C01F1F910F910895CF93DF930F92CDB7A5
:10267000DEB7AC019E012F5F3F4F62E08EEF92E02C
:102680000E94D91F882329F089810F90DF91CF9173
:1026900008958FEFFACFFF920F931F93CF93DF939D
:1026A0000F92CDB7DEB78C019E012F5F3F4FAC017B
:1026B00062E08EEF92E00E94D91FF82E882399F0F5
:1026C00089817EDFC80140E0FC0120810196222340
:1026D00019F04F5F4F31C1F7E0911325F0911425A8
:1026E000B80181E119958F2D0F90DF91CF911F9146
:1026F0000F91FF900895AC019B0162E08EEF92E094
:102700000C9400202EB13FB1E0E0F4E0408551850B
:102710008EB19FB160857185862B972BB0E0A0E0CC
:1027200064E1880F991FAA1FBB1F6A95D1F78827FC
:102730009927A07FBF71422B532B5D5F842B952B74
:102740000C941F720C941C7208951F93CF93DF9307
:10275000EC01162F115020F4DF91CF911F910895B5
:102760000E941C728993F6CF0E941C720E941C72F8
:102770000E941C720C941C72CF93DF93FC01615079
:102780007109DA01EA01C20FD31F50E040E0AC1733
:10279000BD0729F0CB01841B950B029728F410820A
:1027A000CA01DF91CF9108959D91392F32953F70E5
:1027B000903A58F4305D30839F709A3040F4905DC9
:1027C000918332964E5F5F4FE2CF395CF4CF995CD4
:1027D000F7CFCF93DF93EC01DA01F0E0E0E04C912A
:1027E000442341F011969C911197992351F1E617DA
:1027F000F70721F4CF01DF91CF91089580ED840F89
:102800008A3020F08FEB840F8630D8F480ED890F6A
:102810008A3020F02FEB290F263098F4242F30E057
:10282000413450F42295207F913448F4982F292B7D
:10283000299331961296D3CF27533109F3CF97536B
:10284000F6CFF0E0E0E0D6CFE0E6F6E080E1858389
:1028500082E0868388E085838AE18183E0EAF9E08B
:102860001682178280EC858388E18483E0E0F1E0C2
:10287000128A8BE6838B148A158A20EA208F99E0CE
:10288000918F128E148E158E168E84E0808B12A27C
:102890003CE633A314A215A210A611A612A624A7E3
:1028A00095A716A680A308954115510509F44FC0B8
:1028B00020E12093660623E02093A0092091A1093E
:1028C00027FFFCCF2091A009272F33272093A009B1
:1028D0002091A10927FFFCCF2091A0096093A009B6
:1028E0002091A10927FFFCCF2091A00921E020938E
:1028F000120180931C01892F992780931D01409319
:10290000140150931501109222018AED90E28093F8
:102910002801892F992780932901409324015093FE
:102920002501809110018068809310018091200121
:102930008068809320018091100187FDFCCF80E3A7
:10294000809311018093210180E1809365060895B1
:102950009C01FB014115510509F45DC061157041F1
:1029600008F059C09091E420692F70E0762F662717
:102970007295707F6E0F7F1F80E18093660683E003
:102980008093A0098091A10987FFFCCF8091A009C5
:10299000872F99278093A0098091A10987FFFCCFF9
:1029A0008091A0096093A0098091A10987FFFCCFC5
:1029B0008091A00981E08093120120931C01232FB4
:1029C000332720931D014093140150931501109259
:1029D00022018AED90E280932801892F9927809324
:1029E00029014093240150932501809110018068B2
:1029F0008093100180912001806880932001809154
:102A0000100187FDFCCF80E38093110180932101A9
:102A100080E18093650608954115510509F46FC062
:102A200020E12093660626E02093A0092091A109C9
:102A300027FFFCCF2091A00920E12093650600002C
:102A400000002093660622E02093A0092091A109AE
:102A500027FFFCCF2091A009272F33272093A0091F
:102A60002091A10927FFFCCF2091A0096093A00924
:102A70002091A10927FFFCCF2091A00910921201FB
:102A80002AED30E220931C01232F332720931D01D0
:102A9000409314015093150120E12093220180936B
:102AA0002801892F9927809329014093240150936D
:102AB0002501809110018068809310018091200190
:102AC0008068809320018091100187FDFCCF80E316
:102AD000809311018093210180E180936506E0914C
:102AE000E520F091E6208781863019F481E180931A
:102AF0009E218681863019F481E180939D2108957D
:102B00009C01FB014115510509F47DC0611570411F
:102B100008F079C09091E420692F70E0762F662745
:102B20007295707F6E0F7F1F80E18093660686E04E
:102B30008093A0098091A10987FFFCCF8091A00913
:102B400080E180936506000000008093660682E0C5
:102B50008093A0098091A10987FFFCCF8091A009F3
:102B6000872F99278093A0098091A10987FFFCCF27
:102B70008091A0096093A0098091A10987FFFCCFF3
:102B80008091A009109212018AED90E280931C01BD
:102B9000892F992780931D014093140150931501AB
:102BA00080E18093220120932801232F3327209353
:102BB00029014093240150932501809110018068E0
:102BC0008093100180912001806880932001809182
:102BD000100187FDFCCF80E38093110180932101D8
:102BE00080E180936506E091E520F091E620878101
:102BF000863019F481E180939E218681863019F414
:102C000081E180939D210895CF92DF92EF92FF9210
:102C1000CF93DF93C090E420D12CF12CE12C3CE049
:102C2000CC0CDD1CEE1CFF1C3A95D1F78FEFC816BB
:102C3000D806E104F10408F050C080E180936606F4
:102C400086E08093A0098091A10987FFFCCF809145
:102C5000A00980E18093650600000000809366066D
:102C600082E08093A0098091A10987FFFCCF809129
:102C7000A0091092A0098091A10987FFFCCF809143
:102C8000A0091092A0098091A10987FFFCCF8FEFC6
:102C9000E81AF80A8091A009C0E0D8E0C701B6019F
:102CA00068D88093A0092091A10927FFFCCF20912B
:102CB000A009892F99278093A0098091A10987FFF6
:102CC000FCCF8091A00982E0C80ED11CE11CF11C50
:102CD000219721F780E1809365068091010480FDB2
:102CE000FCCF82E080930304DF91CF91FF90EF90BF
:102CF000DF90CF900895CF92DF92EF92FF920F93E3
:102D00001F93CF93DF93CDB7DEB76097CDBFDEBF04
:102D1000C090E420D12CF12CE12C8CE0CC0CDD1CFB
:102D2000EE1CFF1C8A95D1F78FEFC816D806E10478
:102D3000F104E0F069DF40E150E06FEF70E0CE01B8
:102D400001960E94907240E150E070E060E0CE0198
:102D5000019662DE6096CDBFDEBFDF91CF911F91FD
:102D60000F91FF90EF90DF90CF9008958FEFE81ACA
:102D7000F80A01E110E001501109E1F215D8C7018C
:102D8000B6010E94C00E10D88FEFD81AE80AF80AD0
:102D9000F2CFCF92DF92EF92FF920F931F93CF93D8
:102DA000DF93C090E420D12CF12CE12C8CE0CC0CF2
:102DB000DD1CEE1CFF1C8A95D1F78FEFC816D806D4
:102DC000E104F10438F580E18093660683E08093A6
:102DD000A0098091A10987FFFCCF8091A0091092E2
:102DE000A0098091A10987FFFCCF8091A0091092D2
:102DF000A0098091A10987FFFCCF8FEFE81AF80A9C
:102E00008091A00901E110E00150110971F580E104
:102E100080936506E091E520F091E6208781863079
:102E200019F490E190939E219681963009F04CC060
:102E300020E120939D21853041F483E180939E2100
:102E4000953019F483E180939D218091010480FDE8
:102E5000FCCF82E080930304DF91CF911F910F910B
:102E6000FF90EF90DF90CF9008950E94D40E0E94C3
:102E7000D10E0E94D40ED0E0C0E01092A009809143
:102E8000A10987FFFCCF6091A00970E01092A00912
:102E90008091A10987FFFCCF8091A009782BCE01FA
:102EA0000E94C60E0E94D40E2296C11581E0D8075A
:102EB00021F7C701B6010E94CB0E0E94D40E8FEFFE
:102EC000D81AE80AF80AA0CF853009F0B9CFB5CFF3
:102ED000CF92DF92EF92FF920F931F934115E0E1A3
:102EE0005E076105710508F071C0890130E020E0DE
:102EF000C12CE0E1DE2EE12CF12CC41AD50AE60A41
:102F0000F70A0C151D052E053F0508F4680120E1A0
:102F10002093660626E02093A0092091A10927FFAF
:102F2000FCCF2091A00920E120936506000000005D
:102F30002093660622E02093A0092091A10927FF93
:102F4000FCCF2091A009252F33272093A0092091A1
:102F5000A10927FFFCCF2091A0094093A00920914F
:102F6000A10927FFFCCF2091A009109212012AEDA0
:102F700030E220931C01232F332720931D01C092A0
:102F80001401D092150120E12093220180932801A1
:102F9000892F992780932901C0922401D09225017D
:102FA00080911001806880931001809120018068D9
:102FB000809320018091100187FDFCCF80E38093F6
:102FC00011018093210180E18093650681E01F91CA
:102FD0000F91FF90EF90DF90CF900895CF92DF9206
:102FE000EF92FF920F931F934115E0E15E07610599
:102FF000710508F069C0890130E020E0C12CE0E1F2
:10300000DE2EE12CF12CC41AD50AE60AF70A0C15BB
:103010001D052E053F0508F4680120E12093660692
:1030200023E02093A0092091A10927FFFCCF209144
:10303000A009252F33272093A0092091A10927FF5C
:10304000FCCF2091A0094093A0092091A10927FF5E
:10305000FCCF2091A00921E02093120180931C0154
:10306000892F992780931D01C0921401D0921501D8
:10307000109222018AED90E280932801892F9927EE
:1030800080932901C0922401D092250180911001E2
:1030900080688093100180912001806880932001D6
:1030A0008091100187FDFCCF80E380931101809314
:1030B000210180E18093650681E01F910F91FF90CF
:1030C000EF90DF90CF90089580E0F7CF8091CF010F
:1030D00087FDFCCF0895FADF8091CF0181FF0BC0FF
:1030E00086E38093CA0188ED90E021E030E0EBECCC
:1030F000F1E084BF20830895CF92DF92EF92FF9298
:103100000F931F93CF93DF938C01EB017A01109201
:10311000C201DCDF90E080E046E068ED70E0CC24A6
:10312000C394D12CEBECF1E09C01200F311F8E15E4
:103130009F0549F4DF91CF911F910F91FF90EF9080
:10314000DF90CF900895202F280F2093C001232FC8
:103150002F712093C1014093CA0164BFC0822091A6
:10316000C40129930196E0CF3F924F925F926F92F4
:103170007F928F929F92AF92BF92CF92DF92EF9207
:10318000FF920F931F93CF93DF93EC018B016A01A2
:103190008F71582EC81BD1099EDF98DF83E380937F
:1031A000CA011092C1011092C201760185E3382E46
:1031B00098EDA92EB12C88248394912C3BEC632E9E
:1031C0007724739443E3442EC6018E199F09E114BA
:1031D000F10491F4DF91CF911F910F91FF90EF9047
:1031E000DF90CF90BF90AF909F908F907F906F9027
:1031F0005F904F903F9008955092C001F8018191E7
:103200008F018093C401F1E0EF1AF10821F053948B
:1032100080E25812D9CFC093C0018D2F8F71809357
:10322000C1013092CA01C501F30184BF8082A0961A
:103230004DDF4092CA01512CC7CF1F93CF93DF932C
:10324000CDB7DEB7A097CDBFDEBF873009F4EEC0A3
:1032500008F03DC0843009F4C3C088F4823009F41A
:1032600075C0833009F496C010E0813009F457C06E
:10327000A096CDBFDEBFDF91CF911F91089585301D
:1032800009F0D2C0E0918A24F0918B24CE010196FE
:1032900019958091902441E0815008F444C0442362
:1032A000D9F3282F30E0E1E0F0E0EC0FFD1FE20F52
:1032B000F31F908141E0911140E061E070E06C0FFC
:1032C0007D1F260F371F9150F9019083E5CF8A307B
:1032D00009F4B0C090F4883009F4AAC0893041F6EE
:1032E00080910008813009F0ACC080918C08833057
:1032F00009F0A7C00E94C528BBCF8B3009F49CC041
:103300008C3009F0B5CF80E494E098C01BDAE1E09E
:10331000F0E0EC0FFD1FE10FF11D80831F5F809136
:103320009024181798F3E0918C24F0918D24CE010D
:1033300001961995E0911325F09114254091902460
:10334000BE016F5F7F4F83E1199592CF11E08091AD
:103350009024873009F010E0E0918A24F0918B24CA
:10336000CE010196199520919024E1E0F0E0EC0F58
:10337000FD1FE10FF11D91E01217A8F6992339F016
:10338000808191E08F3F09F090E08F5F80831F5F25
:103390003196F2CFE0918A24F0918B24CE010196F0
:1033A00019958091902441E0815008F4BCCF4423CA
:1033B000D9F3282F30E0E1E0F0E0EC0FFD1FE20F41
:1033C000F31F908141E09F3F09F040E061E070E031
:1033D0006C0F7D1F260F371F9F5FF9019083E4CF8D
:1033E00011E080919024873009F010E0E0918A2468
:1033F000F0918B24CE010196199520919024E1E063
:10340000F0E0EC0FFD1FE10FF11D91E0121708F045
:103410008ACF992331F0808191E0811190E0815031
:1034200080831F5F3196F2CF94D422CFB2DC20CFBD
:10343000EBDB1ECF9DD31CCF89E594E00E948B2748
:1034400017CF0E94A02814CFE0E0F6E080E6828348
:1034500088E1868B858B0895CF9380910806C82FCD
:10346000C09586FD1DC08091DC208A3070F48F5F8E
:103470008093DC20C5FF30C08091DB208A3008F5C6
:103480008F5F8093DB20CF9108958A3099F7E09188
:10349000E520F091E6208181D0DE8091DC20E7CF2D
:1034A0008C2F807639F78091DC2081508A3030F47F
:1034B000E091E520F091E6208081BFDE1092DC20D3
:1034C000D9CF8A3001F7E091E520F091E6208381A1
:1034D000B4DE8091DB20D4CFC076A9F68091DB20CA
:1034E00081508A3030F4E091E520F091E62082812D
:1034F000A4DE1092DB20C7CFAC019B016DE08FE50D
:1035000094E07EC5E82FF0E0EC51FF4D8FE063833F
:1035100081503C968111FBCF08950F931F939B011F
:103520008A01E091E520F091E620E80FF11D40814D
:103530006DE08FE594E024D51F910F9108950F93CE
:103540001F93CF93DF930F92CDB7DEB7082FAB0158
:103550009E012F5F3F4F6DE08FE594E02AD5182F35
:10356000882319F06981802FCDDF812F0F90DF91A3
:10357000CF911F910F9108950895CF92DF92FF92FE
:103580000F931F93CF93DF93F42EEEB1FFB12091F1
:10359000080430910904C42ED12C4091062050918A
:1035A0000720C0910820D0910920D6011F964A1704
:1035B0005B0708F057C0C359D44209F43FC0E091FB
:1035C000E120F091E220C080D1801281C381D481BA
:1035D0008091DE208823D1F08BE090E20E94297058
:1035E0001092B4221092B5221092A121612F70E0A6
:1035F000C601A0D58BE090E20E9429701092B422FF
:103600001092B5221092A121209701F583E994E24E
:10361000809308209093092080E890E08093062012
:10362000909307201092DF201092E0201092E1206A
:103630001092E2201092DE201092DD20DF91CF91D7
:103640001F910F91FF90DF90CF900895C880D9808F
:103650001A810B80DC81C02D8091DE208150809307
:10366000DE20B6CFE22BF32B9C2F937024E0291B96
:1036700030E08E01020F131FD9011896CA0FDB1F0D
:1036800048505109421B530B40930620509307208A
:103690009E012F5F3F4F209308203093092088839D
:1036A000A0910820B0910920CD01019680930820B7
:1036B00090930920FC92A0910820B0910920CD019F
:1036C00001968093082090930920FC93A0910820F4
:1036D000B0910920CD010196809308209093092094
:1036E000EC93A60180910820909109200E947672A7
:1036F00080910820909109208C0D9D1D80930820B9
:1037000090930920809106209091072004978C19AE
:103710009D098093062090930720F801C083D183F0
:1037200044E04F0D4283138214828091E1209091F6
:10373000E220892B91F0E091DF20F091E02030979A
:1037400061F0038314830093DF201093E0208091C5
:10375000DE208F5F8093DE2071CF0093DF201093F7
:10376000E0200093E1201093E220F1CF08954F92E2
:103770005F926F927F928F929F92AF92BF92CF9201
:10378000DF92EF92FF920F931F93CF93DF938C0101
:103790002A013B01E901C0900420D0900520C60118
:1037A00082589F43AC0170E060E0441655066606FF
:1037B000770608F072C022E0C21A20E4D20A530150
:1037C00042018C0E9D1EA11CB11C84169506A606F6
:1037D000B70608F442C044195509C81BD90B7E012D
:1037E000E40CF51CEA0199249394C601B0E0A0E032
:1037F000B201481659066A067B0608F045C06E5F9E
:103800007F4BA30192012C0F3D1F411D511D281715
:1038100039074A075B0728F5AE01C80145D899204A
:1038200051F0EC0EFD1EF801EE0DFF1DC00FD11F73
:10383000EC17FD0781F581E0DF91CF911F910F918A
:10384000FF90EF90DF90CF90BF90AF909F908F90C0
:103850007F906F905F904F900895F12CE12C912C08
:10386000C4CF5601A418B508A501C8011DD8A201EE
:103870004C195D094C0F5D1F63E974E2C8018A0DA4
:103880009B1D0E947672CBCF6C197D096D567B4DC6
:10389000AE01C801F6CF1292CBCF80E0CDCFE3E9E5
:1038A000F4E2209106203091072083E195E2821B0B
:1038B000930BE817F90751F583E994E28093082008
:1038C0009093092080E890E0809306209093072051
:1038D00082E090E4809304209093052042E050E041
:1038E00060E070E484E090E297D8E091E520F09108
:1038F000E62087818A3019F480E180939E218681B9
:103900008A3019F480E180939D2108951192D1CFDE
:1039100080910620909107209058209104203091AA
:103920000520821B930B0895E4EEF0E287833C961A
:1039300091E2E839F907D1F7E091E520F091E6202E
:103940008483813069F0823081F0811108C0109247
:10395000E3208CEB9AE1809313259093142508952E
:103960008093E32082E19DE1F6CF1092E3208DEB7E
:103970009AE1F1CFCF93DF930F92CDB7DEB7E0910D
:10398000E520F091E6208481CFDF83E994E2809303
:1039900008209093092080E890E08093062090937F
:1039A000072041E050E0BE016F5F7F4F80E090E074
:1039B000A3DBE0910820F091092080E8DF011D924F
:1039C0008A95E9F789818823A9F042E050E060E018
:1039D00070E484E090E20E945414E0911325F09189
:1039E000142540E070E060E08FEF19950F90DF91B3
:1039F000CF91089582E090E4809304209093052075
:103A000042E050E060E070E484E090E205D881E0BC
:103A1000898341E050E0BE016F5F7F4F80E090E01E
:103A2000A3DBDBCF0F931F93CF93DF93CEB1DFB137
:103A3000E0910804F09109042091062030910720BC
:103A4000A42FB0E08D010C5F1F4F2017310708F441
:103A50004DC0EC2BFD2B245031092A1B3B0B20932E
:103A6000062030930720A0910820B09109209D01E5
:103A70002F5F3F4F20930820309309208C93A09113
:103A80000820B0910920CD010196809308209093E1
:103A900009204C93A0910820B0910920CD010196F6
:103AA0008093082090930920FC93A0910820B09166
:103AB0000920CD0101968093082090930920EC9372
:103AC000415028F4DF91CF911F910F910895FB0190
:103AD000A0910820B0910920CD0101968093082083
:103AE0009093092081918C93BF01EACF80E01CDF85
:103AF000E091E520F091E62087818A3019F481E198
:103B000080939E2186818A30E9F681E180939D2110
:103B1000D9CF1F93CF93DF930F92CDB7DEB7AC0110
:103B20009E012F5F3F4F63E08CE096E042D2182F5A
:103B3000882311F08981F8DE812F0F90DF91CF91DA
:103B40001F9108950F931F939C018B01E091E52035
:103B5000F091E620448163E08CE096E011D21F9161
:103B60000F910895AC019B0163E08CE096E048C2A0
:103B70000F931F93CF93DF9380910620909107209E
:103B80008038910508F079C000910420109105203B
:103B9000C0E0D0E8C01BD10B40E850E0481B590BF7
:103BA000C417D507C0F1B80183E994E20E940C154F
:103BB00020910620309107208091042090910520CB
:103BC00080589F4F821B930B809304209093052075
:103BD000E3E9F4E283E195E2821B930B8E179F07E2
:103BE000C1F483E994E2809308209093092080E84F
:103BF00090E0809306209093072042E050E060E040
:103C000070E484E090E2DF91CF911F910F910C94CA
:103C10000C151192E3CF209781F1AE01B80183E931
:103C200094E20E940C15A80140585F47BE016D56F2
:103C30007B4D83E994E20E947F72105880910820A6
:103C400090910920080F191F009308201093092054
:103C500080910620909107208C0F9D1F8093062055
:103C6000909307208091042090910520C80FD91FC0
:103C7000C0930420D0930520C0CFDF91CF911F9136
:103C80000F9108958091E320811172CF089547EB41
:103C900050E064EE70E281E090E02ECA47EB50E025
:103CA00064EE70E281E090E05FCA0F931F93CF93C0
:103CB000DF93D82FCFEFC80F80E0CF3008F044C09B
:103CC0000E9486288091E420C81771F162D8C093C1
:103CD000E4208CE0C89F9001112429513F4D20938E
:103CE000E5203093E6200E940416E091E520F09153
:103CF000E62085810E94E012E091E520F091E62027
:103D0000848112DE81E090E08C01045E10426091BB
:103D1000E4200E94BB786091E5207091E620C80104
:103D20008B519F4D0E94C478D15EE091E520F091C7
:103D3000E6208781843011F4D0939E2186818430DF
:103D400011F4D0939D2181E0DF91CF911F910F91CC
:103D500008959091E42020E1EFE0F0E03CE0215074
:103D600009F40895892F90E00196BF010E948C719B
:103D7000BC01982F369FA001379F500D11244C5144
:103D80005F4DDA0118968C91882349F381E0890F01
:103D90008CCFFC018091E4208F5C80831182089598
:103DA000CF93DC0111968C91119781110DC0CC91AC
:103DB000E0911325F091142541E0BD0182E11995B0
:103DC00080ED8C0FCF9171CF80E0CF91089588E185
:103DD00080930106089580919D21823139F148F444
:103DE000803181F18131F1F0882391F110929D2190
:103DF0002FC08331F9F090EE980F9830B8F790917A
:103E00009B2121E0290F911121C09091040693FF7D
:103E100015C098E090930606803241F3815080935C
:103E20009D2116C088E080930506E0CF88E080934E
:103E30000706DCCF8091040683FD04C088E08093F0
:103E4000050606C088E080930606D0CF20939B210C
:103E500080919E21823131F140F4803181F18131B4
:103E6000E9F0811110929E2108958331F9F090EECE
:103E7000980F9830B8F790919C2121E0290F91116B
:103E800021C09091040694FF15C090E1909306061E
:103E9000803241F3815080939E21089580E1809388
:103EA0000506E0CF80E180930706DCCF8091040611
:103EB00084FD04C080E180930506089580E180932D
:103EC0000606D0CF20939C210895AC019B016BE0A6
:103ED0008FE696E095C0E4EEF0E228E931E2982F13
:103EE0009071887091116287811161873C962E17BD
:103EF0003F07C1F7992329F090E1909306061092AD
:103F00009E21882329F088E08093060610929D2147
:103F100008950F931F939B018A01803161F4E09112
:103F2000E520F091E62047816BE08FE696E028D00F
:103F30001F910F9108958830D9F7E091E520F09115
:103F4000E6204681F1CF0F931F93CF93DF930F921B
:103F5000CDB7DEB7082FAB019E012F5F3F4F6BE05F
:103F60008FE696E026D0182F882319F06981802FDC
:103F7000B2DF812F0F90DF91CF911F910F910895A4
:103F80000F931F93FC01942FA801611102C080E0E0
:103F90000BC08491615089130AC0BF016F5F7F4FCE
:103FA000C9010E945A7281E01F910F910895B19644
:103FB000ECCFCF92DF92EF92FF921F93CF93DF93DC
:103FC000EC01162F7A016901111102C080E00EC0C8
:103FD000BE016F5F7F4FC7010E9451721150892B44
:103FE00069F4FE01C491F601C08381E0DF91CF91B5
:103FF0001F91FF90EF90DF90CF900895A196E4CFAE
:10400000DA0101965CE2611104C0232B09F01C92D5
:104010000895FC014491411109C0623020F021153E
:104020003105B1F35D9361508196EDCF21153105D6
:1040300079F34D93319621503109ECCFCF93DF9333
:1040400000D000D0CDB7DEB7809120028068809389
:1040500020028091230280FFFCCF81E08093230225
:10406000A0911002B0911102AE5BB109B7FF02C07E
:10407000B0E0A0E020E038EB4BE050E00E94A071FF
:104080006B837C838D839E83AA27BB27E091E520E9
:10409000F091E620378126814D815E81443F514079
:1040A000C8F4373019F480E180939E21273019F449
:1040B00080E180939D2180919024882329F0E091D4
:1040C0008224F091832419952696CDBFDEBFDF911F
:1040D000CF910895373019F431E130939E21273084
:1040E00019F421E120939D2120919F212111ECCFF2
:1040F00099838A83E0911325F091142542E0BE0153
:104100006F5F7F4F88E41995DFCFBC018BE090E2B1
:104110000C94B66FCF93DF93EC01FE01649121966E
:10412000611103C0DF91CF9108958BE090E20E946E
:10413000FE6FF3CFAB01BC018BE090E20C94DA6F21
:1041400080E2809362060895CF93DF938091A0214F
:10415000823029F58BE090E20E9469700E94DC6B4E
:104160008BE090E20E948470EC0197FD18C0E09112
:10417000E520F091E6208781833019F483E1809374
:104180009E218681833019F483E180939D218C2FB9
:10419000EBD4811104C08C2FDF91CF91DCC6DF916D
:1041A000CF9108958091A021823019F168F4811196
:1041B00013C08091680685FF09C08FE080930A20B4
:1041C00081E08093A02102C08330E1F08091A021A2
:1041D000823031F519D664C780910A2081508093CE
:1041E0000A208111F3CF0E9491120E94E36E82E0B7
:1041F000E8CF8091680685FDE9CF8FE080930A20A3
:1042000083E0DFCF80910A20815080930A208111C2
:10421000DDCF0E94A86E0E94BF121092A021D6CFBF
:104220000895E091E520F091E6208781823019F42D
:1042300081E180939E218681823019F481E180930F
:104240009D210895E091E520F091E620878182305C
:1042500019F480E180939E218681823019F480E1F7
:1042600080939D2108958BE090E20C94916F8BE0F8
:1042700090E20C94D47022EB39E03F932F932CEA18
:1042800039E03F932F9325EA39E03F932F9323E9B9
:1042900039E03F932F9325EB38E03F932F9321E0B4
:1042A0002F931F929F938F930E9497728DB79EB703
:1042B0000E968DBF9EBF85E6089560E071E00E9476
:1042C000231385E60895CF93DF93EB0128812F33E5
:1042D00059F42981211108C060E071E00E947B132C
:1042E00085E6DF91CF910895CE010E943413882393
:1042F00099F00E947B16CE010E944B13E091E520BD
:10430000F091E620CF018F5F9F4F65818F5D9042D6
:104310000E94BB7884E6E5CF8AECE3CFEF92FF9270
:104320000F931F93CF93DF93CDB7DEB7A097CDBF89
:10433000DEBF8C0180919024E82EF12C81111CC0ED
:104340008DEA98E09F938F9381E08F931F921F9344
:104350000F930E9497720F900F900F900F900F90F5
:104360000F9085E6A096CDBFDEBFDF91CF911F9164
:104370000F91FF90EF900895E0918A24F0918B24A3
:10438000CE01019619959701AE014F5F5F4F60E036
:1043900071E0C8010E94BC13E4CFDF92EF92FF925C
:1043A0000F931F93CF93DF93CDB7DEB7A097CDBF09
:1043B000DEBF7B01D090902462E470E2C7010E94CE
:1043C00051728E010F5F1F4F892B31F578018E2DB1
:1043D000801B8D15D8F0E0918C24F0918D24C801BC
:1043E0001995E0911325F091142540919024B8017E
:1043F00083E1199584E6A096CDBFDEBFDF91CF9112
:104400001F910F91FF90EF90DF9008950E94A213EB
:10441000F70181937F01DBCFA70160E270E0C80163
:104420000E94E913D8161906B1F28AECE4CFFC0118
:1044300080919124882329F081E38083118285E68D
:10444000089580E3FACFFB012181211127C020814B
:10445000213329F481E08093912484E60895203368
:1044600019F410929124F9CF2F33C1F41F9220E355
:104470002F931F9221E32F9327EA38E03F932F9346
:1044800021E02F931F929F938F930E9497728DB775
:104490009EB70A968DBF9EBF85E608958AEC089563
:1044A00088E697E12FD38EE608958EEE97E146D306
:1044B0008EE60895E0ECF4E081818E7F81830E9496
:1044C000A86E0E94851284E60895E0ECF4E08181F4
:1044D0008E7F81830E94A86E0E948B1284E60895CD
:1044E000EAE7F4E225892F9324892F9324EA38E020
:1044F0003F932F9321E02F931F929F938F930E94BE
:1045000097728DB79EB708968DBF9EBF85E60895BA
:10451000209190241F922F9321EA38E03F932F930C
:1045200021E02F931F929F938F930E9497728DB7D4
:104530009EB708968DBF9EBF85E60895BC0140E0FA
:1045400051E080E00E948D1A85E60895FB012081EC
:104550002F3349F42181211106C060E071E00E94EF
:104560007C1A85E60895BF0180E00E949F1A882387
:1045700019F094DB84E608958AEC0895BC0140E0CC
:1045800051E081E00E948D1A85E60895FB012081AB
:104590002F3349F42181211106C060E071E00E94AF
:1045A0007C1A85E60895BF0181E00E949F1A882346
:1045B00019F074DB84E608958AEC0895BC0140E0AC
:1045C00051E082E00E948D1A85E60895FB0120816A
:1045D0002F3349F42181211106C060E071E00E946F
:1045E0007C1A85E60895BF0182E00E949F1A882305
:1045F00019F054DB84E608958AEC0895BC0140E08C
:1046000051E083E00E948D1A85E60895FB01208128
:104610002F3349F42181211106C060E071E00E942E
:104620007C1A85E60895BF0183E00E949F1A8823C3
:1046300019F034DB84E608958AEC0895BC0140E06B
:1046400051E080E166DC85E60895FB0120812F338F
:1046500041F42181211105C060E071E036DC85E67E
:104660000895BF0180E16FDC882319F017DB84E631
:1046700008958AEC0895BC0140E051E088E049DCEF
:1046800085E60895FB0120812F3341F4218121111A
:1046900005C060E071E019DC85E60895BF0188E09F
:1046A00052DC882319F0FADA84E608958AEC08953A
:1046B00060E071E047DA85E60895FB0120812F3341
:1046C00041F42181211105C060E071E04BDA85E6FB
:1046D0000895CF011EDA882319F0E0DA84E6089500
:1046E0008AEC0895CF93DF93EC0112D99C018038B6
:1046F000910510F420E830E0205831093F932F93C2
:104700009F938F9381E898E09F938F9381E08F939D
:104710001F92DF93CF930E9497728DB79EB70A9630
:104720008DBF9EBF85E6DF91CF91089587EB9BE11A
:1047300005D28EE608951CDA84E60895B0D884E6A2
:10474000089560E071E025DB85E60895CB0128DB64
:10475000811102C08AEC089584E608950E947B16B8
:1047600084E608950E94C91684E608950E940416FE
:1047700084E6089590916806917089E7891B0895F1
:10478000DF92EF92FF920F931F93CF93DF93EC0191
:104790000FEF10E08CEEE82E8AE0F82E9CE2D92E86
:1047A000B70189E890E20E945172892B19F0011536
:1047B000110509F52197188285E6DF91CF911F91A8
:1047C0000F91FF90EF90DF90089548833196890113
:1047D000EC014491CE010196980121503109442306
:1047E00019F00130110589F7D882890128E1E20E1C
:1047F000F11CEC01D5CFF701ECCFCF93DF9300D0C4
:104800000F92CDB7DEB7FC018091200280688093C3
:1048100020028091230280FFFCCF81E0809323025D
:10482000A0911002B0911102AE5BB109B7FF02C0B6
:10483000B0E0A0E020E038EB4BE050E00E94A07137
:1048400069837A838B839C83AA27BB279F938F934B
:104850008AE798E09F938F9381E08F931F92FF9355
:10486000EF930E949772CDBFDEBF85E62496CDBF41
:10487000DEBFDF91CF9108952EB13FB14091080482
:1048800050910904242B352B3F932F9324E738E0D4
:104890003F932F9321E02F931F929F938F930E941A
:1048A00097728DB79EB708968DBF9EBF85E6089517
:1048B00089EC089589EC089589EC089589EC0895B0
:1048C00089EC0895E091E520F091E620408551853E
:1048D00064E6649F9001659F300D11243F932F93F0
:1048E0002EE638E03F932F9321E02F931F929F9362
:1048F0008F930E9497728DB79EB708968DBF9EBF0B
:1049000085E60895CF93DF930F920F92CDB7DEB770
:10491000FB0120812F33D1F42181211117C02CE319
:1049200038E03F932F9321E02F931F929F938F9313
:104930000E9497720F900F900F900F900F900F9012
:1049400085E60F900F90DF91CF91089589E592E071
:1049500089839A83CE0101969F938F9388E398E091
:104960009F938F93FF93EF930E94CD720F900F90C0
:104970000F900F900F900F90892BA9F069817A8189
:10498000693582E0780778F4E091E520F091E6203F
:1049900060877187CF018F5F9F4F8C5D90420E942F
:1049A000C47884E6CECF8AECCCCFE091E520F091BC
:1049B000E62023852F9322852F9325E338E03F932C
:1049C0002F9321E02F931F929F938F930E949772B2
:1049D0008DB79EB708968DBF9EBF85E60895CF938D
:1049E000DF930F920F92CDB7DEB7FB0120812F33FB
:1049F000D1F42181211117C02FE02F932FEF2F9396
:104A000024EE37E03F932F9321E02F931F929F9343
:104A10008F930E949772CDBFDEBF85E60F900F90F7
:104A2000DF91CF91089519821A82CE0101969F934A
:104A30008F9380EE97E09F938F93FF93EF930E9465
:104A4000CD720F900F900F900F900F900F90892BB9
:104A5000C9F069817A81611590E1790798F46093D2
:104A6000380370933903E091E520F091E6206287E6
:104A70007387CF018F5F9F4F8A5D90420E94C478F9
:104A800084E6CCCF8AECCACFFB0120812F33D9F446
:104A90002181211121C01F9220E32F931F9221E336
:104AA0002F932AED37E03F932F9321E02F931F920E
:104AB0009F938F930E9497728DB79EB70A968DBF72
:104AC0009EBF85E60895213319F43AD384E608950C
:104AD000203311F45AD3FACF8AEC0895FC01809167
:104AE0000008813021F480918C08833029F080E324
:104AF0008083118285E6089581E3FACF89EC0895D9
:104B000089EC08959C0191E09093AE229093AD22A0
:104B10008CE38093AB2285E090E08093A922909370
:104B2000AA221092A3221092A4221092A5221092DF
:104B3000A6222093A1223093A222089527E0209359
:104B4000AE222CE231E02093A9223093AA221092C7
:104B5000A3221092A4221092A5221092A622809342
:104B6000A1229093A2220895CF939091AE229630E5
:104B700009F4B7C0A0F4943009F48DC0953009F45D
:104B80009CC0933030F491116CC0C0E08C2FCF9159
:104B900008959330D1F78093AC2284E069C09830B7
:104BA00009F4FBC0993009F46DC0973071F7853175
:104BB00009F0F0C01092AD228091AD228F5F8093FA
:104BC000AD224091A3225091A4226091A522709120
:104BD000A622E091A122F091A22220E830E081EA11
:104BE00091E21995C82F882309F407C161E08BE091
:104BF00090E20E94FE6F6091AD228BE090E20E94F5
:104C0000FE6F6091AD2260958BE090E20E94FE6F96
:104C100060E870E081EA91E28DDA60E081EA91E299
:104C2000FC0101962081620F52E281329507C1F7A3
:104C30008BE090E20E94FE6F8091A3229091A422CB
:104C4000A091A522B091A62280589F4FAF4FBF4F91
:104C50008093A3229093A422A093A522B093A6228E
:104C600095CF813041F41092A7221092A82283E0C0
:104C70008093AE220EC0843041F466E08BE090E277
:104C80000E94FE6F1092AE2204C08831D9F38B319E
:104C9000C9F3C1E07BCF9091AC222FEF30E0291B0C
:104CA00031098217130611F485E0E2CF65E18BE04C
:104CB00090E20E94FE6F82E0DBCF2091A72230912C
:104CC000A822A9014F5F5F4F4093A7225093A822CB
:104CD0002F553E4DF901808386E040385105C9F6D5
:104CE000C7CF2091AC229091AD2229134BC090E008
:104CF00021EA31E2F9012F5F3F4F4081940FF2E248
:104D000021323F07B9F78913D1CF4091A3225091A7
:104D1000A4226091A5227091A622E091A122F09197
:104D2000A22220E830E081EA91E21995C82F882379
:104D300011F18091AD228F5F8093AD228091A322EB
:104D40009091A422A091A522B091A62280589F4FB5
:104D5000AF4FBF4F8093A3229093A422A093A5228C
:104D6000B093A62266E08BE090E20E94FE6F82E0A4
:104D70008093AE220BCF68E18BE090E20E94FE6F41
:104D800068E17CCF492F4150550B24171506C1F718
:104D900066E08DCF8B3109F475CF883109F46DCF82
:104DA000863009F409CF853109F073CF61E08BE0DB
:104DB00090E20E94FE6F6091AD228BE090E20E9433
:104DC000FE6F6091AD2260958BE090E20E94FE6FD5
:104DD00060E870E081EA91E2ADD960E081EA91E2B9
:104DE000FC0101962081620FE2E281329E07C1F749
:104DF0008BE090E20E94FE6F4CCF64E08BE090E28B
:104E00000E94FE6F89E034CF8091AE22813019F08C
:104E1000873029F108958091A9229091AA229C01BE
:104E2000215031092093A9223093AA22892B31F5F0
:104E30008091AB229FEF980F9093AB22882361F073
:104E400065E18BE090E20E94FE6F85E090E0809348
:104E5000A9229093AA2208951092AE22F6CF8091B3
:104E6000A9229091AA229C01215031092093A922C4
:104E70003093AA22892B11F41092AE220895282F84
:104E800090E080E0FC01ED53F64FE491E21303C0A3
:104E90008C53964F08958196893231E0930791F7AC
:104EA00090E080E00895FC01862FBA018F33E1F491
:104EB0007696259134912115310559F181EA91E2D7
:104EC000F90119958F3F31F591E09093B1222EB100
:104ED0003FB14091080450910904242B352B2093B5
:104EE000AF223093B02208958D3359F474962591F2
:104EF00034912115310569F081EA91E2F9011995A2
:104F0000E1CF811102C07096D4CF803211F4729635
:104F1000EECF89EC08950F931F93CF93DF938C010D
:104F2000CCEEDAE0BE01C8010E945172892B49F42F
:104F300050E040E060E0CE01DF91CF911F910F91F2
:104F4000B2CF68968FE0C432D80761F7DF91CF9176
:104F50001F910F910895EF92FF920F931F93CF939C
:104F6000DF939FE9980F2FEB280F2A3140F19A31F8
:104F700040F190ED980F9A3040F08F3531F0982F36
:104F80009D7F9D3311F08032F1F42091B422309155
:104F9000B5222F3F310558F4A9014F5F5F4F409371
:104FA000B4225093B5222F553E4DF901808381E004
:104FB000DF91CF911F910F91FF90EF9008959A315B
:104FC00020F78052E2CF8D3009F053C0E091B42237
:104FD000F091B522EF55FE4D10821092B42210923E
:104FE000B5220091B1220111E2CF8091A121982F29
:104FF0009F7D99F488EC43DF8DD880EC99E08AD8C6
:105000000023A9F28091A121882389F281EA91E20B
:105010007CD88DEB99E07ED8CACF8D7F8D3351F34C
:10502000E1EAF1E27F011191112331F01F3321F008
:105030001D3311F01032B1F7F7011082CCEEDAE037
:10504000BE0181EA91E20E945172892B61F41092B3
:10505000A121A7014F5F5F4F612FCE0124DF01E047
:105060008F3F49F6A4CF6896FFE0C432DF0741F7CF
:10507000C1CF883069F48091B4229091B522009715
:1050800009F495CF01978093B4229093B5228FCFE6
:105090008B3109F08CCF1092B4221092B52287CFB9
:1050A0008091B122882389F1E091E520F091E620FA
:1050B000208531852115310541F18EB19FB1409197
:1050C000080450910904842B952B4091AF225091F4
:1050D000B022841B950B64E670E00E948C7162170D
:1050E000730798F01092B1228BECC9DE13D88AEBCB
:1050F00099E010D8E091B222F091B322309729F0D4
:1051000019951092B2221092B32208958091B12283
:105110008823A9F01092B1228BECB1DE0E948A2084
:105120008AEB99E00E948A20E091B222F091B322AA
:10513000309729F019951092B2221092B322089557
:10514000809100088130E1F480918C088330C1F4B3
:10515000089581E08093000893E090938C088093F9
:10516000B6221092B7228EB19FB1209108043091DF
:105170000904822B932B8093B9229093BA2208952D
:105180008091B822882329F3089510928C081092F8
:105190000008E6EBF2E2108211820895A0E2B6E088
:1051A00081E015968C93159725E135E228B939B938
:1051B00025E535E22AB93BB910B813B812B816B8CC
:1051C00017B811B8E0E0F9E010A211A22FEF30E01B
:1051D00026A337A32FEF3FEF20A731A7808398E8BE
:1051E000938390E1948793E097831C968C931C970C
:1051F00082E01A968C9308951F921FB61F92112475
:105200008F9388B78F9318BE8BB78F931BBE9F93D6
:10521000EF93FF93E0E0F9E013828FE790E086AB35
:1052200097AB81E190E080AF91AFE0E0FAE010A2AF
:1052300011A28FEF9FEF86A397A389E8838316823D
:1052400081E084878EE0808310922A06FF91EF919F
:105250009F918F918BBF8F9188BF8F911F901FBEA1
:105260001F9018951F921FB61F9211242F9328B7D5
:105270002F9318BE2BB72F931BBE3F938F939F93F3
:10528000EF93FF939091280683B1967021E009F087
:1052900020E0880F822B83B982B1882309F476C07D
:1052A00012B883B187708730D9F51092000980E178
:1052B00080930C091092030A1B9B2DC08CEA94E08A
:1052C0008093260A9093270A82E081B981E0809337
:1052D0000C0A83E08093060A86B197B1877039F093
:1052E00090B18F5F8930D1F4E8B1F9B1908381E05A
:1052F0008093BB2288E880930309FF91EF919F91EF
:105300008F913F912F912BBF2F9128BF2F911F90ED
:105310001FBE1F9018958CE694E0D2CF9695E1CFF2
:1053200093B1892F8C7031F3947081B181111EC0BB
:1053300080B186959923C1F090E0892B80B926B180
:1053400037B12F5F3F4F26B937B927703327232B4B
:1053500089F6E8B1F9B19F012F5F3F4F28B939B9FC
:10536000808381E081B9C6CF90E8E7CF81B18130F9
:1053700009F0C0CFEAB1FBB19F012F5F3F4F2AB9BF
:105380003BB9911180E0808311B8B4CF82B1809590
:1053900082B9B0CF1F920F920FB60F92112408B6A8
:1053A0000F9218BE0BB60F921BBE2F933F938F9395
:1053B0009F93EF93FF9381B1823098F081B18D304C
:1053C00080F4E1B1F0E0EE0FFF1FE75BFF4D0190CD
:1053D000F081E02D19948FE790E08093260A909356
:1053E000270AFF91EF919F918F913F912F910F90FD
:1053F0000BBE0F9008BE0F900FBE0F901F90189518
:105400008E9A8EE0809340088FE390E08093260A86
:105410009093270A85E081B9E4CF8E9886E081B920
:105420008FEF82B914B815B8E8B1F9B1808180B9AD
:10543000D8CF009B06C08E9A82B1809582B987E052
:10544000EACF8E98FCCF009B11C08E9880B18695D4
:1054500080B984B195B1019684B995B984B195B1FB
:1054600087709927892B21F488E0D5CF8E9AEECFCB
:1054700024B135B186B197B12817390751F58AE0C3
:10548000CACFEAB1FBB1309731F08081882329F08F
:105490008E9A89E0C0CF82B1F9CF8E98FACFEAB167
:1054A000FBB13097D1F080818823A9F08E98319696
:1054B000EAB9FBB924B135B186B197B128173907DC
:1054C000F1F2E8B1F9B1CF01019688B999B98181BA
:1054D00080B986E0A0CF8E9AEACF82B1882321F0EE
:1054E0008E988FEF82B9E6CF8E9AFBCF8E988BE0A5
:1054F00092CF8E988CE08FCF1092000A1092060AFD
:10550000109240081092410881E08093BC2269CF3C
:10551000CF93DF93EBEBF2E210821182E0E4F6E04E
:10552000128A84E08283C0E8D1E082E68E83A0E222
:10553000B6E081E016968C93169711968C9311978E
:1055400096E012969C93129751968C93519732E065
:1055500052963C9352971A961C921A971B961C923D
:105560001B979FE019969C9399E598832AE52983D8
:105570009A8390E491839683A0EBB0E012962C91ED
:105580001297207F12962C93129712962C911297B5
:10559000226012962C9320E321832683908B8683AE
:1055A000358383E08183E0E0F8E083E1818321E0DB
:1055B00030E026A337A320A731A7E0E8F8E014865F
:1055C0008083E0E2F3E01382118288E0828391E13C
:1055D0009083A091E520B091E6201A962D913C9100
:1055E000208F318FE0E8F3E09CE392838083938304
:1055F0008183DF91CF91D2CDA0E2B6E01A961C92C2
:105600001A97EBEBF2E210821182E0E0F9E01082EF
:105610001382178280E18487E0E0FAE0108213822F
:10562000168281E08487E0E4F8E010821182169609
:105630008C938E9808950F931F93CF93DF9380914F
:10564000BB22882309F483C01092BB22C6B1D7B114
:10565000209709F48AC08E01095F1F4F93E01695C9
:1056600007959A95E1F7E0911325F0911425402FC5
:1056700065E175E280E41995C730D10508F475C07D
:10568000E0911325F0911425402F65E175E280E447
:105690001995E091E520F091E6208781883019F492
:1056A00083E180939E218681883019F483E1809381
:1056B0009D21E0918824F0918924BE0185E195E245
:1056C0001995EC0194FF4EC0DF7E85E595E28AB91D
:1056D0009BB9209709F449C0AE01495F5F4F83E051
:1056E000569547958A95E1F7E0911325F091142599
:1056F00065E175E281E41995E091E520F091E620FD
:105700008781893019F483E180939E2186818930D5
:1057100019F483E180939D21C6B9D7B985E195E25B
:1057200088B999B910926008109261088FE090E0F2
:10573000809366089093670888E090E080936A08F9
:1057400090936B0883E28093410883E081B9809154
:10575000BC22882381F01092BC22DF91CF911F914F
:105760000F911CCD1AB81BB8B4CF1092000A10923A
:10577000060A14DDECCFDF91CF911F910F910895B0
:105780001F921FB61F9211242F9328B72F9318BE74
:105790002BB72F931BBE3F938F939F93EF93FF9352
:1057A000E0E0F9E080E484871782E0E8F3E082E05B
:1057B000878389EB818385E195E28AB99BB981E092
:1057C00090E084B995B916B88EB19FB120910804C4
:1057D00030910904822B932B8093BE229093BF2299
:1057E00081E08093C22218B817B81092BD2288E0D9
:1057F00080938706FF91EF919F918F913F912F9119
:105800002BBF2F9128BF2F911F901FBE1F9018955F
:10581000E0E0F9E08FEF94E086A397A380E6848729
:1058200080E387838FEF90E086AB97AB88E080932F
:10583000870608951F921FB61F9211242F9328B731
:105840002F9318BE2BB72F931BBE3F934F935F939D
:105850008F939F93EF93FF931092070A1092000A81
:105860001092470910924009809181038E7F8093A6
:10587000810384B195B180FF16C0379B5EC086B1AD
:10588000869586B984B195B1019684B995B987702A
:105890009927892B41F4EAB1FBB1CF0101968AB96E
:1058A0009BB986B1808384B195B187709927892B84
:1058B000C9F086B144B155B1E4B1F5B193E0F695C4
:1058C000E7959A95E1F7EB5EFA4D90E04770552722
:1058D00028E030E0241B350B02C0959587952A956A
:1058E000E2F7808381E08093C1221092C2228FEF81
:1058F0009FEF8093260A9093270A1092200A109215
:10590000210A1092060A1092070A1092030A84E0F4
:105910008093000A83E08093BD22FF91EF919F91D5
:105920008F915F914F913F912F912BBF2F9128BF66
:105930002F911F901FBE1F90189586B18695806885
:10594000A0CF1F921FB61F9211248F9388B78F93F9
:1059500018BE8BB78F931BBEEF93FF93E0E8F3E085
:1059600081818F7C8183E0E0FAE088E8838381E0B5
:105970008083FF91EF918F918BBF8F9188BF8F9123
:105980001F901FBE1F9018951F921FB61F921124C3
:105990008F9388B78F9318BE8BB78F931BBE9F933F
:1059A000EF93FF9380916009109260091092610952
:1059B00093E0909340098135B8F5813348F186B181
:1059C0008695806886B984B195B1019684B995B9F8
:1059D00087709927892B41F4EAB1FBB1CF01019679
:1059E0008AB99BB986B1808386B1869586B984B120
:1059F00095B1019684B995B987709927892B41F49F
:105A0000EAB1FBB1CF0101968AB99BB986B1808317
:105A1000FF91EF919F918F918BBF8F9188BF8F9155
:105A20001F901FBE1F9018958155803268F186B176
:105A30008695806886B984B195B1019684B995B987
:105A400087709927892B41F4EAB1FBB1CF01019608
:105A50008AB99BB986B1808386B18695806886B9FC
:105A600084B195B1019684B995B987709927892B2E
:105A700041F4EAB1FBB1CF0101968AB99BB986B175
:105A8000808386B186959ECF84B195B180FFE4CFA7
:105A900086B18695806886B984B195B1019684B93E
:105AA00095B987709927892B09F089CFEAB1FBB1A5
:105AB000CF0101968AB99BB986B1808380CF1F92AE
:105AC0001FB61F9211248F9388B78F9318BE8BB780
:105AD0008F931BBE9F93EF93FF9384E08093850683
