:100000000C9437170C945C170C945C170C945C17C9
:100010000C945C170C945C170C945C170C945C1794
:100020000C945C170C945C170C94931A0C945C174A
:100030000C945C170C945C170C945C170C945C1774
:100040000C945C170C945C170C945C170C945C1764
:100050000C945C170C945C170C945C170C945C1754
:100060000C945C170C945C170C945C170C945C1744
:100070000C945C170C945C170C945C170C945C1734
:100080000C945C170C945C170C94F4310C94403A6B
:100090000C945C170C945C170C945C170C945C1714
:1000A0000C945C170C945C170C945C170C945C1704
:1000B0000C945C170C945C170C945C170C94C23273
:1000C0000C945C170C943D360C94AB3B0C945C1771
:1000D0000C945C170C945C170C945C170C945C17D4
:1000E0000C945C170C945C170C945C170C945C17C4
:1000F0000C945C170C945C170C945C170C945C17B4
:100100000C945C170C945C170C945C170C945C17A3
:100110000C94863B0C941A360C945C170C945C1768
:100120000C945C170C945C170C945C170C945C1783
:100130000C945C170C945C170C945C170C942A328A
:100140000C945D170C9439350C946A3A0C945C1736
:100150000C945C170C9493350C94783C0C945C17BD
:100160000C945C170C945C170C945C170C945C1743
:100170000C945C170C945C170C945C170C945C1733
:100180000C945C170C945C170C945C170C945C1723
:100190000C945C170C945C170C945C170C945C1713
:1001A0000C945C170C945C170C945C170C945C1703
:1001B0000C945C170C945C170C945C170C945C17F3
:1001C0000C945C170C945C170C945C170C945C17E3
:1001D0000C945C170C945C170C945C170C945C17D3
:1001E0000C945C170C945C170C945C170C945C17C3
:1001F0000C945C170C946D9D0C945C176364696E91
:100200006F70737578585B003403430068006100B9
:100210006D0065006C0065006F006E002D004D00E4
:1002200069006E0069002D0044004500530046003F
:100230006900720065004D006F0064000000380323
:100240004B00610073007000650072002000260002
:1002500020004F007300770061006C0064002000F4
:1002600047006D0062004800200028005200650031
:1002700076004700290000000403090409023E003B
:10028000020100C03209040000010202010005243D
:10029000001001042402060524060001070582035C
:1002A0000800FF09040100020A000000070504021B
:1002B000100005070583021000051201100102005D
:1002C0000008D016B2040100010200013B1B461BCE
:1002D000451B441B431B421B411B3C1B3F1B401B3C
:1002E000000000018033F4331334223F3E3F423F8D
:1002F000411B433F60427342400007008033F433A8
:100300001334363F3E3F423F411B433F60427342FE
:10031000500007008033F43313343A3F3E3F423FEE
:10032000411B433F60427342A40007008033F43313
:100330001334B342EF42F342411BF442D649F4492D
:10034000000404008033F4331334C242EF42F3421A
:10035000411BF442D649F449000407008033F433CA
:100360001334D142EF42F342411BF442D649F449DF
:10037000001004008033F4331334E042EF42F342C0
:10038000411BF442D649F449001007008033F4338E
:1003900013343069D967E567DD67CD6839693B6932
:1003A0000010070000000000000000000000000036
:1003B000000000000000000000000000000000003D
:1003C000000000000000000000000000000000002D
:1003D000000000000000000000000000000000001D
:1003E000000000000000000000000000303DE93D7A
:1003F0000A3E5E616C617161726174613F1B401BFA
:1004000000000001A5342735D836A759AA59B75995
:10041000B859795C3F1B401B00000000004E4F4E56
:100420004500000000000000000000000000000087
:1004300000000000000000000000000000014D4628
:100440005F554C5452414C4947485400000000004D
:100450000000000000000000000000000000024D4D
:10046000465F554C5452414C494748545F455631BC
:100470005F38304200000000000000000000000370
:100480004D465F554C5452414C494748545F455680
:10049000315F3136344200000000000000000000EF
:1004A000044D465F434C41535349435F314B000079
:1004B000000000000000000000000000000000003C
:1004C00000054D465F434C41535349435F314B5FF9
:1004D00037420000000000000000000000000000A3
:1004E0000000064D465F434C41535349435F344B34
:1004F00000000000000000000000000000000000FC
:10050000000000074D465F434C41535349435F345D
:100510004B5F3742000000000000000000000000B8
:1005200000000000084D465F4445534649524500CF
:1005300000000000000000000000000000000000BB
:1005400000000000000C49534F3134343433415F14
:10055000534E494646000000000000000000000025
:100560000000000000000D49534F31343434334152
:100570005F52454144455200000000000000000069
:100580000000000000000001000001000101000067
:100590000101000100000100010100010000010152
:1005A0000000010001010000010100010000010143
:1005B0000000010001010001000001000101000034
:1005C0000101000100000100010100010000010122
:1005D0000000010001010001000001000101000014
:1005E0000101000100000101000001000101000003
:1005F00001010001000001000101000100000101F2
:1006000000000100010100000101000100000101E2
:1006100000000100010100010000010001010000D3
:1006200001010001000001010000010001010000C2
:1006300001010001000001000101000100000101B1
:1006400000000100010100010000010001010000A3
:100650000101000100000100010100010000010191
:100660000000010001010000010100010000010182
:100670000000010001010001000001000101000073
:1006800001010001000001008040C020A060E010D6
:100690009050D030B070F0088848C828A868E81892
:1006A0009858D838B878F8048444C424A464E4146E
:1006B0009454D434B474F40C8C4CCC2CAC6CEC1C32
:1006C0009C5CDC3CBC7CFC028242C222A262E21244
:1006D0009252D232B272F20A8A4ACA2AAA6AEA1A32
:1006E0009A5ADA3ABA7AFA068646C626A666E6160E
:1006F0009656D636B676F60E8E4ECE2EAE6EEE1ED2
:100700009E5EDE3EBE7EFE018141C121A161E111FE
:100710009151D131B171F1098949C929A969E91901
:100720009959D939B979F9058545C525A565E515DD
:100730009555D535B575F50D8D4DCD2DAD6DED1DA1
:100740009D5DDD3DBD7DFD038343C323A363E313B3
:100750009353D333B373F30B8B4BCB2BAB6BEB1BA1
:100760009B5BDB3BBB7BFB078747C727A767E7177D
:100770009757D737B777F70F8F4FCF2FAF6FEF1F41
:100780009F5FDF3FBF7FFF44465F505052494E544A
:100790005F504943432046756C6C496D6167650045
:1007A000434C4F4E4500004E4F4E450000000000A8
:1007B0000000000000000000000000000000000039
:1007C00000000000000000015549445F52414E44C2
:1007D0004F4D00000000000000000000000000007D
:1007E0000000000000000000025549445F4C4546EF
:1007F000545F494E4352454D454E540000000000A1
:10080000000000000000000000035549445F524909
:100810004748545F494E4352454D454E54000000F1
:1008200000000000000000000000045549445F4C37
:100830004546545F44454352454D454E54000000E3
:100840000000000000000000000000055549445F62
:1008500052494748545F44454352454D454E540024
:1008600000000000000000000000000006435943A3
:100870004C455F53455454494E4753000000000017
:1008800000000000000000000000000000075354BA
:100890004F52455F4D454D00000000000000000034
:1008A00000000000000000000000000000000852EE
:1008B0004543414C4C5F4D454D0000000000000099
:1008C000000000000000000000000000000000091F
:1008D000544F47474C455F4649454C440000000093
:1008E0000000000000000000000000000000000008
:1008F0000A53544F52455F4C4F4700000000000020
:1009000000000000000000000000000000000000E7
:10091000000B434C4F4E450000000000000000005B
:1009200000000000000000000000000000000000C7
:1009300000000C5052494E545F535441544500003E
:1009400000000000000000000000000000000000A7
:10095000000000004F4646000000000000000000BC
:100960000000000000000000000000000000000087
:1009700000000000014D454D4F525900000000009D
:100980000000000000000000000000000000000067
:100990000000000000024C49564500000000000025
:1009A0000000000000000000000000000000000047
:1009B000000000000000004E4F4E45000000000007
:1009C0000000000000000000000000000000000027
:1009D0000000000000000001504F57455245440000
:1009E0000000000000000000000000000000000007
:1009F0000000000000000000025445524D494E41E5
:100A00004C5F434F4E4E000000000000000000000D
:100A1000000000000000000000035445524D494E04
:100A2000414C5F5258545800000000000000000084
:100A30000000000000000000000004534554544929
:100A40004E475F4348414E4745000000000000000C
:100A50000000000000000000000000054D454D4F63
:100A600052595F53544F52454400000000000000AB
:100A7000000000000000000000000000064D454D91
:100A80004F52595F4348414E474544000000000023
:100A90000000000000000000000000000008434FBC
:100AA0004445435F52580000000000000000000071
:100AB00000000000000000000000000000000943EA
:100AC0004F4445435F545800000000000000000000
:100AD000000000000000000000000000000000070F
:100AE0004649454C445F4445544543544544000001
:100AF00000000000000000000000000000000000F6
:100B00000A4C4F474D454D5F46554C4C0000000088
:100B100000000000000000000000000000000000D5
:100B20000025632C25630025356400416E7920691A
:100B30006E74656765722066726F6D203020746F09
:100B40002025752E205265666572656E6365207678
:100B50006F6C746167652077696C6C206265202812
:100B6000564343202A205448524553484F4C442072
:100B70002F203430393529206D562E00257500255B
:100B800035640030203D206E6F2074696D656F758F
:100B9000740D0A312D363030203D20313030206D3B
:100BA00073202D203630303030206D732074696D05
:100BB000656F7574002575206D730025342E3458CB
:100BC00000253575206D56002575202866726F6DDD
:100BD000207768696368202575206E6F6E2D766FAB
:100BE0006C6174696C6529002575002575002563A5
:100BF0002C2563004E4F205549442E004368616DFB
:100C0000656C656F6E4D696E692052657647207719
:100C10006974682044455346697265207374616342
:100C20006B20737570706F72742025532075736913
:100C30006E67204C55464120255320636F6D7069C7
:100C40006C65642077697468204156522D47434390
:100C50002025532E20536F75726365733A20687494
:100C60007470733A2F2F6769746875622E636F6DA5
:100C70002F6D6178696564732F4368616D656C657C
:100C80006F6E4D696E694669726D77617265444534
:100C90005346697265537461636B0A4C6F6767658D
:100CA000723A202068747470733A2F2F67697468E1
:100CB00075622E636F6D2F6D6178696564732F4364
:100CC00068616D656C656F6E4D696E694C697665BE
:100CD00044656275676765722E00323032302E309F
:100CE000392E32382D303730393437003135313103
:100CF000313500392E332E300066343435663138C4
:100D0000000D0A000D0A000D0A000D0A000D0A0070
:100D10000D0A00643130303A4F4B000000000000F3
:100D200000000000000000000000000000000000C3
:100D300000000000653130313A4F4B20574954488C
:100D4000205445585400000000000000000000003E
:100D500000000000006E3131303A57414954494E8D
:100D60004720464F5220584D4F44454D000000004B
:100D7000000000000000C83230303A554E4B4E4F54
:100D8000574E20434F4D4D414E440000000000009F
:100D900000000000000000C93230313A494E56418F
:100DA0004C494420434F4D4D414E442055534147FB
:100DB0004500000000000000CA3230323A494E5669
:100DC000414C494420504152414D45544552000048
:100DD000000000000000000000783132303A464147
:100DE0004C5345000000000000000000000000001F
:100DF00000000000000000000000793132313A5458
:100E000052554500000000000000000000000000F6
:100E10000000000000000000000000CB3230333A38
:100E200054494D454F55540000000000000000009B
:100E30000000000000000000000000005645525372
:100E4000494F4E00000000000000000000000000BC
:100E500000009527434F4E46494700000000000020
:100E60000000000000000000BD27B72755494400DE
:100E70000000000000000000000000000000000072
:100E80002728E827524541444F4E4C5900000000A6
:100E900000000000000000007D28712855504C4FD4
:100EA000414400000000000000000000AA280000EB
:100EB00000000000444F574E4C4F414400000000DA
:100EC00000000000AF28000000000000524553451C
:100ED000540000000000000000000000B4280000E2
:100EE00000000000555047524144450000000000FA
:100EF00000000000BF280000000000004D454D53D9
:100F0000495A4500000000000000000000000000F9
:100F10000000CA2855494453495A450000000000C2
:100F200000000000000000000000E228524255547A
:100F3000544F4E00000000000000000000000000C0
:100F40000029F82852425554544F4E5F4C4F4E479B
:100F50000000000000000000202918294C425554D0
:100F6000544F4E0000000000000000000000000090
:100F7000402938294C425554544F4E5F4C4F4E47F0
:100F80000000000000000000602958294C4544473B
:100F90005245454E00000000000000000000000027
:100FA0007F2978294C454452454400000000000048
:100FB00000000000000000009C2995294C4F474D7F
:100FC0004F44450000000000000000000000000049
:100FD000B729B2294C4F474D454D00000000000095
:100FE00000000000000000000000CC294C4F4744E6
:100FF0004F574E4C4F41440000000000F0290000C4
:10100000000000004C4F4753544F52450000000071
:1010100000000000F5290000000000004C4F47438D
:101020004C4541520000000000000000F82900007B
:101030000000000053455454494E47000000000092
:101040000000000000000000002AFB29434C45413D
:10105000520000000000000000000000082A00000C
:101060000000000053544F524500000000000000F3
:10107000000000000C2A000000000000524543411F
:101080004C4C00000000000000000000102A00008E
:10109000000000004348415247494E47000000000D
:1010A00000000000000000000000142A48454C50D9
:1010B0000000000000000000000000001A2A0000EC
:1010C00000000000525353490000000000000000DF
:1010D00000000000000000000000572A535953543C
:1010E00049434B0000000000000000000000000029
:1010F0000000972A53454E445F52415700000000BC
:101100000000000000003D2B0000000053454E444D
:101110000000000000000000000000000000B32AF2
:1011200000000000474554554944000000000000FD
:1011300000000000FB2B00000000000044554D5053
:101140005F4D46550000000000000000DE2B00004F
:10115000000000004944454E544946590000000033
:1011600000000000182C00000000000054494D450C
:101170004F55540000000000000000000000000077
:10118000552C352C5448524553484F4C44000000D0
:101190000000000000000000C22CA82C4155544F54
:1011A00043414C494252415445000000512D00003A
:1011B000000000004649454C4400000000000000CB
:1011C0000000000000000000172D412D434C4F4E41
:1011D0004500000000000000000000007D2D000020
:1011E0000000000044465F5345544844520000004C
:1011F0000000000000000000A670907044465F50A0
:101200005052494E545F504943430000000043711F
:101210000000000044465F4657494E464F0000001C
:1012200000000000A17100000000000044465F4C77
:101230004F474D4F444500000000000000000000F3
:10124000E771BF7144465F544553544D4F444500C8
:10125000000000000000000075726D7200000000C8
:10126000000000000000000000000000000000007E
:101270000000000000080008000000000000000856
:10128000000808080808080008000800000008080E
:1012900000080808008000800000000000000080B6
:1012A000008080808080800080008000000080803E
:1012B00000808080000100010000000000000001AB
:1012C0000001010101010100010001000000010114
:1012D000000101010000000000000000000000000B
:1012E00000000000010101010101010101010101F2
:1012F00001010101010101010101010101010101DE
:1013000001010101010101010101010101010101CD
:1013100001010101000000000000000000000000C9
:1013200000000000000000000000000000000000BD
:1013300000000000000000000000000000000000AD
:101340000000000001010101010101010101010191
:101350000101010100000000000000000000000089
:10136000000000000000000000000000000000007D
:101370000000000001010101010101010101010161
:101380000101010100000000000000000000000059
:101390000000000001010101010101010101010141
:1013A000010101010101010101010101010101012D
:1013B0000101010100000000000000000000000029
:1013C0000000000001010101010101010101010111
:1013D00001010101000000020200000200020202FD
:1013E00002000002000000020200000200020202ED
:1013F00002000002000000020200000200020202DD
:10140000020000020404040606040406040606069C
:10141000060404060404040606040406040606067C
:10142000060404060000000202000002000202029C
:10143000020000020000000202000002000202029C
:10144000020000020404040606040406040606065C
:10145000060404060000000202000002000202026C
:10146000020000020404040606040406040606063C
:10147000060404060404040606040406040606061C
:10148000060404060404040606040406040606060C
:1014900006040406040404060604040604060606FC
:1014A000060404060000000202000002000202021C
:1014B000020000020000000202000002000202021C
:1014C00002000002040404060604040604060606DC
:1014D00006040406000808080000000800000800D0
:1014E00008080008000808080000000800000800BC
:1014F00008080008000808080000000800000800AC
:1015000008080008101818181010101810101810DB
:10151000181810181018181810101018101018108B
:10152000181810180008080800000008000008003B
:10153000080800080008080800000008000008006B
:10154000080800081018181810101018101018109B
:10155000181810180008080800000008000008000B
:10156000080800081018181810101018101018107B
:10157000181810181018181810101018101018102B
:10158000181810181018181810101018101018101B
:10159000181810181018181810101018101018100B
:1015A00018181018000808080000000800000800BB
:1015B00008080008000808080000000800000800EB
:1015C000080800081018181810101018101018101B
:1015D0001818101853414B3A09005549443A09006C
:1015E000415451413A09005468657265206973207D
:1015F0006174206C65617374206F6E65206D6F720D
:1016000065206361726420747970652063616E6423
:1016100069646174652C20627574207468657265F4
:1016200020776173206E6F7420656E6F7567682018
:101630007465726D696E616C206275666665722094
:1016400073706163652E0D0A000D0A000400010924
:101650000100000000000000000000000000000089
:101660000000004E58500000000000000000000084
:101670000000004D4946415245204D696E69000009
:10168000000000000000000000000000000000005A
:10169000000000000000000000000000000000004A
:1016A000000000000000000000000000000000003A
:1016B000000000040001080100000000000000001C
:1016C000000000000000000000004E585000000024
:1016D000000000000000000000004D494641524556
:1016E00020436C617373696320316B00000000005C
:1016F00000000000000000000000000000000000EA
:1017000000000000000000000000000000000000D9
:1017100000000000000000000000020001180100AD
:1017200000000000000000000000000000000000B9
:10173000004E5850000000000000000000000000B3
:10174000004D494641524520436C617373696320E3
:10175000346B0000000000000000000000000000EA
:101760000000000000000000000000000000000079
:101770000000000000000000000000000000000069
:101780000044000100010000000000000000000013
:1017900000000000000000004E5850000000000053
:1017A00000000000000000004D4946415245205510
:1017B0006C7472616C69676874000000000000005E
:1017C0000000000000000000000000000000000019
:1017D0000000000000000000000000000000000009
:1017E00000000000000000004400010001000000B3
:1017F0000000000000000000000000000000004E9B
:101800005850000000000000000000000000004DE3
:10181000494641524520556C7472616C6967687421
:101820002043000000000000000000000000000055
:1018300000000000000000000000000000000000A8
:101840000000000000000000000000000000004454
:101850000001000000000000000000000000000087
:101860000000000000004E58500000000000000082
:101870000000000000004D494641524520556C745F
:1018800072616C6967687420455631000000000081
:101890000000000000000000000000000000000048
:1018A0000000000000000000000000000000000038
:1018B00000000000000044030120017577810280D0
:1018C000000000000000000000000005004E58501D
:1018D000000000000000000000000000004D49462C
:1018E000415245204445534669726500000000009E
:1018F00000000000000000000000000000000000E8
:1019000000000000000000000000000000000000D7
:10191000000000000000000000000000004403017F
:1019200020017577810280000000000000000000A7
:10193000000005004E5850000000000000000000AC
:10194000000000004D494641524520444553466938
:1019500072652045563100000000000000000000C4
:101960000000000000000000000000000000000077
:101970000000000000000000000000000000000067
:101980000000000004030128013877B14A434F509A
:10199000333100000000000000090149424D000001
:1019A00000000000000000000000004A434F5033D8
:1019B00031000000000000000000000000000000F6
:1019C0000000000000000000000000000000000017
:1019D0000000000000000000000000000000000007
:1019E000000000000000000000000048000120018D
:1019F0007877B1024A434F5076323431000000000C
:101A00000C0149424D0000000000000000000000F1
:101A100000004A434F5033312076322E342E3100AD
:101A200000000000000000000000000000000000B6
:101A300000000000000000000000000000000000A6
:101A40000000000000000000000000000000000096
:101A5000000048000120013833B14A434F5034316F
:101A6000563232000000000C0149424D00000000D7
:101A70000000000000000000004A434F50343120B5
:101A800076322E320000000000000000000000004E
:101A90000000000000000000000000000000000046
:101AA0000000000000000000000000000000000036
:101AB000000000000000000000040001280138338D
:101AC000B14A434F503431563233310000000D01DA
:101AD00049424D000000000000000000000000002E
:101AE0004A434F5034312076322E332E31000000DD
:101AF00000000000000000000000000000000000E6
:101B000000000000000000000000000000000000D5
:101B100000000000000000000000000000000000C5
:101B20000400018801000000000000000000000027
:101B300000000000000000496E66696E656F6E006F
:101B4000000000000000004D494641524520436C12
:101B5000617373696320316B0000000000000000B6
:101B60000000000000000000000000000000000075
:101B70000000000000000000000000000000000065
:101B800000000000000000020001980100000000B9
:101B90000000000000000000000000000000476599
:101BA0006D706C75730000000000000000004D5067
:101BB000434F530000000000000000000000000040
:101BC0000000000000000000000000000000000015
:101BD0000000000000000000000000000000000005
:101BE0000000000000000000000000000000000CE9
:101BF00001000000000000000000000000000000E4
:101C00000000000000496E6E6F766973696F6E2088
:101C100052265400004A6577656C00000000000001
:101C200000000000000000000000000000000000B4
:101C300000000000000000000000000000000000A4
:101C40000000000000000000000000000000000094
:101C50000000000000020001380100000000000048
:101C60000000000000000000000000004E6F6B69E3
:101C70006100000000000000000000004D494641E6
:101C8000524520436C617373696320346B202D20AF
:101C9000656D756C6174656420283632313220437D
:101CA0006C6173736963290000000000000000008C
:101CB00000000000000000000000000008000138E3
:101CC0000100000000000000000000000000000013
:101CD0000000004E6F6B6961000000000000000012
:101CE0000000004D494641524520436C61737369C1
:101CF0006320346B202D20656D756C6174656420E4
:101D00002836313331204E464329000000000000C0
:101D100000000000000000000000000000000000C3
:101D20000000000001020408102040801B36520908
:101D30006AD53036A538BF40A39E81F3D7FB7CE33C
:101D400039829B2FFF87348E4344C4DEE9CB547B1A
:101D50009432A6C2233DEE4C950B42FAC34E082E98
:101D6000A16628D924B2765BA2496D8BD12572F881
:101D7000F66486689816D4A45CCC5D65B6926C70E7
:101D80004850FDEDB9DA5E154657A78D9D8490D871
:101D9000AB008CBCD30AF7E45805B8B34506D02C89
:101DA0001E8FCA3F0F02C1AFBD0301138A6B3A9168
:101DB00011414F67DCEA97F2CFCEF0B4E67396ACF0
:101DC0007422E7AD3585E2F937E81C75DF6E47F11F
:101DD0001A711D29C5896FB7620EAA18BE1BFC5661
:101DE0003E4BC6D279209ADBC0FE78CD5AF41FDD77
:101DF000A8338807C731B11210592780EC5F6051B2
:101E00007FA919B54A0D2DE57A9F93C99CEFA0E0F3
:101E10003B4DAE2AF5B0C8EBBB3C83539961172B01
:101E2000047EBA77D626E169146355210C7D637C64
:101E3000777BF26B6FC53001672BFED7AB76CA821A
:101E4000C97DFA5947F0ADD4A2AF9CA472C0B7FDCA
:101E50009326363FF7CC34A5E5F171D8311504C788
:101E600023C31896059A071280E2EB27B2750983FF
:101E70002C1A1B6E5AA0523BD6B329E32F8453D1A0
:101E800000ED20FCB15B6ACBBE394A4C58CFD0EF95
:101E9000AAFB434D338545F9027F503C9FA851A3CF
:101EA000408F929D38F5BCB6DA2110FFF3D2CD0CED
:101EB00013EC5F974417C4A77E3D645D197360817E
:101EC0004FDC222A908846EEB814DE5E0BDBE0324F
:101ED0003A0A4906245CC2D3AC629195E479E7C81A
:101EE000376D8DD54EA96C56F4EA657AAE08BA788E
:101EF000252E1CA6B4C6E8DD741F4BBD8B8A703E30
:101F0000B5664803F60E613557B986C11D9EE1F8E6
:101F1000981169D98E949B1E87E9CE5528DF8CA134
:101F2000890DBFE6426841992D0FB054BB164F464C
:101F3000460046414C53450030004F4E0054525528
:101F40004500310025313573002573203C4F4E7C10
:101F50004F46467C564552424F53457C4445425578
:101F60004747494E473E00444542554747494E473B
:101F700000564552424F5345004F46460046414C9D
:101F800053450030004F4E00545255450031002556
:101F900031357300444542554747494E4700564541
:101FA00052424F5345004E4F524D414C004F464612
:101FB000004368616D656C656F6E2D4D696E6920BB
:101FC0004445534669726520656E61626C656420A4
:101FD0006669726D77617265206275696C74206FD5
:101FE0006E202573206261736564206F6E202573F7
:101FF0002066726F6D200D0A68747470733A2F2F0B
:102000006769746875622E636F6D2F6D617869659D
:1020100064732F4368616D656C656F6E4D696E69A1
:102020004669726D776172654445534669726553BE
:102030007461636B2E6769742E0D0A52657669733D
:10204000696F6E3A2025730D0A002573203C467592
:102050006C6C496D6167657C48656164657244615B
:1020600074613E0048656164657244617461004654
:10207000756C6C496D616765002533317300507272
:102080006F64756374696F6E446174650042617456
:1020900063684E756D62657200536F667477617226
:1020A0006556657273696F6E00486172647761721C
:1020B0006556657273696F6E004154530025323462
:1020C000732025313273002573203C4154532D3544
:1020D0007C486172647761726556657273696F6E70
:1020E0002D327C536F6674776172655665727369C1
:1020F0006F6E2D327C42617463684E756D626572DD
:102100002D357C50726F64756374696F6E446174B1
:10211000652D323E203C48657842797465732D4EBA
:102120003E0050544558542D44454641554C5400AA
:1021300043544558542D4145533132382D434D4178
:10214000430043544558542D44455300505445587A
:10215000542D4D414300414E5900414553313238D1
:1021600000334B3344455300324B54444541004304
:1021700048470052572F00572F00522F0049534F06
:1021800031343434332D343A20554E4B2D434D44A5
:10219000204E4F5F524553500049534F3134343431
:1021A000332D333A20524553455420544F2049444F
:1021B0004C450049534F31343434332D343A2041A7
:1021C0004354495645205245540049534F31343405
:1021D00034332D333A20476F742048414C54005219
:1021E0004459322C204E4F5420534C435420434DDD
:1021F0004400496E636F72726563742053656C6549
:1022000063742076616C7565202852322900494E2E
:10221000544F20414354495645210049534F3134CE
:102220003434332D343A20524459312C204E4F54FB
:1022300020534C435420434D440049534F313434D0
:1022400034332D343A2053656C656374204E414B12
:102250000049534F31343434332D343A2053656CB4
:10226000656374204F4B0049534F31343434332D60
:1022700034202849444C45293A20415451410049D1
:10228000534F31343434332D343A2049444C4520B3
:102290002F204E4F5420575550410049534F313451
:1022A0003434332D343A2048414C54202F204E4FA3
:1022B0005420575550410049534F31343434332D55
:1022C000333A2048414C54494E4700203D3E2000BF
:1022D000554E4B4E4F574E5F535441544500495352
:1022E0004F31343434335F345F53544154455F418C
:1022F00043544956450049534F31343434335F34E5
:102300005F53544154455F4558504543545F5241D3
:1023100054530049534F31343434335F33415F53A6
:10232000544154455F48414C540049534F31343473
:1023300034335F33415F53544154455F4143544903
:1023400056450049534F31343434335F33415F5382
:10235000544154455F5245414459320049534F312D
:10236000343434335F33415F53544154455F5245F5
:10237000414459310049534F31343434335F334190
:102380005F53544154455F49444C450049534F31D4
:10239000343434332D343A205043425F535F424C3F
:1023A0004B204E4F5F524553500049534F31343408
:1023B00034332D343A20532D424C4B00203D3E20E7
:1023C00000554E4B4E4F574E5F53544154450049B4
:1023D000534F31343434335F345F53544154455F89
:1023E0004143544956450049534F31343434335FE7
:1023F000345F53544154455F4558504543545F52F0
:102400004154530049534F31343434335F33415FC7
:1024100053544154455F48414C540049534F313463
:102420003434335F33415F53544154455F41435427
:102430004956450049534F31343434335F33415F9B
:1024400053544154455F5245414459320049534F1A
:1024500031343434335F33415F53544154455F5218
:1024600045414459310049534F31343434335F339B
:10247000415F53544154455F49444C450049534FD3
:1024800031343434333450726F63657373426C6F1C
:10249000636B3A2049534F31343434335F504342F5
:1024A0005F525F424C4F434B202D2D202564004945
:1024B000534F31343434332D343A20522D424C4B67
:1024C0000049534F31343434333450726F63657381
:1024D00073426C6F636B3A2049534F313434343359
:1024E0005F5043425F525F424C4F434B202D2D20A3
:1024F00025640049534F31343434332D343A204964
:102500002D424C4B0049534F31343434332D343A3F
:10251000204150505F4E4F5F524553500049534F3A
:1025200031343434333450726F63657373426C6F7B
:10253000636B3A2049534F31343434335F50434254
:102540005F495F424C4F434B202D2D2025640049AD
:10255000534F31343434333450726F636573734284
:102560006C6F636B3A2049534F31343434335F50CE
:1025700043425F495F424C4F434B202D2D20256441
:102580000049534F31343434332D343A204E4557BB
:1025900020434152442049440049534F313434349C
:1025A000332D343A2053454E442052415453004970
:1025B000534F31343434332D343A204E4F5420525B
:1025C0004154530049534F31343434332D343A207D
:1025D000435243206661696C3B2025303458207695
:1025E0007320253034580049534F31343434332D5F
:1025F000343A206C656E677468206661696C0020EF
:102600003D3E2000554E4B4E4F574E5F5354415464
:10261000450049534F31343434335F345F535441B0
:1026200054455F4143544956450049534F31343472
:1026300034335F345F53544154455F4558504543EC
:10264000545F524154530049534F31343434335F53
:1026500033415F53544154455F48414C5400495302
:102660004F31343434335F33415F53544154455F09
:102670004143544956450049534F31343434335F54
:1026800033415F53544154455F52454144593200F0
:1026900049534F31343434335F33415F53544154E1
:1026A000455F5245414459310049534F3134343428
:1026B000335F33415F53544154455F49444C4500B7
:1026C0004040204C494E452023256420696E202A35
:1026D000257320404000526561644461746146691D
:1026E0006C655365747570202D2D204552524F52E4
:1026F0002100496E76616C69642066696C6520749E
:10270000797065203D20256440256400496E76611E
:102710006C69642066696C6520696E646578203D2B
:10272000202564202F202564203B20666F722046E0
:10273000696C654E756D203D202564004040204C3D
:10274000494E452023256420696E202A25732040A8
:10275000400050494343206B657920736574746968
:102760006E6773202D2D2025303278004E4F542077
:10277000494D504C454D454E5445443A2025732112
:10278000000A4981A62B1A4884952BAA0885842B18
:10279000710000692B7700004B2B542A83372B5C88
:1027A0000000252BC47B821A2B6437820A2BCAE1D6
:1027B0008EF72ADA598EE42A6A5C83D02A6E2D813C
:1027C000C42A6DDF85B72A45FC81A62A5A858393E2
:1027D0002AFCDA80872A60C2807B2A51B6806E2A62
:1027E0006FD383612AF55B8C4F2A5F1C843A2ACD14
:1027F000338E292ACB0D8E162ACCC98D042AC1927C
:102800008DEA29C0578DD029DF1C8DC42961D3835F
:10281000B329BDE48BA9293D058B9E296CA88A9418
:10282000290C208A8D29DC8C8987291C0D8978291F
:102830003B23876B29BB0A885E29EBF1864C29C7AD
:1028400083863929A715862729A4E585182984EBCD
:1028500085022982F185E42888F785C628B0FD85A0
:10286000B228D603869C28B209868728E20F867193
:102870002849534F373831365F417070656E645F59
:102880005265636F72640049534F373831365F5277
:102890006561645F5265636F7264730049534F37BB
:1028A0003831365F5570646174655F42696E61727C
:1028B000790049534F373831365F526561645F4262
:1028C000696E6172790049534F373831365F496E0E
:1028D0007465726E616C5F41757468656E7469636E
:1028E0006174650049534F373831365F45787465F8
:1028F000726E616C5F41757468656E746963617452
:10290000650049534F373831365F4765745F436818
:10291000616C6C656E67650049534F373831365FBF
:1029200053656C6563740041626F72745F547261C9
:102930006E73616374696F6E00436F6D6D69745F70
:102940005472616E73616374696F6E00436C65618C
:10295000725F5265636F72645F46696C65005265B1
:1029600061645F5265636F72647300577269746566
:102970005F5265636F7264004C696D697465645F72
:1029800043726564697400446562697400437265EA
:10299000646974004765745F56616C7565005772B1
:1029A0006974655F4461746100526561645F44618C
:1029B0007461004765745F49534F5F46696C655F9A
:1029C0004944730044656C6574655F46696C6500D5
:1029D0004372656174655F4379636C69635F5265D7
:1029E000636F72645F46696C65004372656174650C
:1029F0005F4C696E6561725F5265636F72645F46BA
:102A0000696C65004372656174655F56616C7565DC
:102A10005F46696C65004372656174655F4261631E
:102A20006B75705F46696C65004372656174655FC4
:102A3000446174615F46696C65004368616E6765F7
:102A40005F46696C655F53657474696E67730047B0
:102A500065745F46696C655F53657474696E67730E
:102A6000004765745F46696C655F4944730047655C
:102A7000745F436172645F554944004765745F56F3
:102A8000657273696F6E00466F726D61745F504955
:102A900043430053656C6563745F4170706C696398
:102AA0006174696F6E004765745F4B65795F53654C
:102AB0007474696E6773004765745F44465F4E6166
:102AC0006D657300467265655F4D656D6F72790067
:102AD0004765745F4170706C69636174696F6E5FA4
:102AE0004944730044656C6574655F4170706C693E
:102AF000636174696F6E004372656174655F4170F4
:102B0000706C69636174696F6E004765745F4B65D3
:102B1000795F56657273696F6E004368616E6765B1
:102B20005F4B6579005365745F436F6E66696775C7
:102B3000726174696F6E004368616E67655F4B65B3
:102B4000795F53657474696E677300417574686565
:102B50006E7469636174655F4145535F4556325FCA
:102B60004E6F6E46697273740041757468656E7459
:102B700069636174655F4145535F4556325F4669DD
:102B80007273740041757468656E7469636174650D
:102B90005F4145530041757468656E746963617483
:102BA000655F49534F0041757468656E6963617470
:102BB000655F4C65676163790025733A2025730072
:102BC00057424220537461727420426C6F636B20D1
:102BD000546F6F204C61726765202D2D2025642075
:102BE0002D2D2025730052424220537461727420AF
:102BF000426C6F636B20546F6F204C61726765206D
:102C00002D2D202564202D2D202564004372656123
:102C100074654170702072657475726E6564202DE4
:102C20002D2025640A00466163746F7279207265F5
:102C300073657474696E672074686520646576696D
:102C4000636500466163746F7279207265736574A1
:102C500074696E67207468652064657669636500D1
:102C60003D3D2041494420307825303278253032AE
:102C700078253032780D0A00205B4B455953202DC2
:102C80002D202564206F662025645D0D0A005D0DF2
:102C90000A00202D2D202530326400202D2D2053B8
:102CA0003D2530327800202D2D20414D4B00202D28
:102CB0002D20533D2530327800202D2D20504D4BB6
:102CC0000020202D3E204E6F2E20253032782028E7
:102CD000257329205B762520326400205B46494C11
:102CE0004553202D2D202564206F662025645D0D21
:102CF0000A0020202D3E204E6F2E20253032780DE8
:102D00000A0020202D3E204E6F2E202530327820C4
:102D10005B436F6D6D3D2573202D2D205065726DC9
:102D2000733D25735D0D0A00202020205245434F3E
:102D300052442020202040205B547970653D25635B
:102D40005D2052636453697A653D3078253036786A
:102D50007C4375724E756D526364733D30782530D7
:102D600036787C4D6178526364733D307825303617
:102D7000780D0A002020202056414C554520202067
:102D800020204020436C6E3D25647C4474793D25B1
:102D90006420285072657644656269743D25642913
:102DA00020696E205B25642C2025645D2077697482
:102DB00068204C696D697465644372656469743D2B
:102DC00025630D0A0020202020424B55502D444100
:102DD000544120402025203364206279746573209B
:102DE0002D2D20426C6B436F756E74203D20256441
:102DF0000D0A00202020205354442D4441544120EA
:102E0000204020252033642062797465730D0A0008
:102E100028415453292025730D0A00284441544564
:102E20002920253032782F253032780D0A002842AB
:102E300041544348292025730D0A00285645525312
:102E4000494F4E292048573D253032782E253032C3
:102E5000782C2053573D253032782E253032780D8E
:102E60000A0028554944292025730D0A0000112421
:102E70001FBECFEFCDBFDFE3DEBF00E00CBF18BE4B
:102E800019BE1ABE1BBE11E2A0E0B0E2E0ECF1E513
:102E900001E00BBF02C007900D92A63BB107D9F726
:102EA0001BBE2DE2A6EBB1E201C01D92AC3EB20703
:102EB000E1F7D5D10C9456A12DC30F9200240F93A6
:102EC0002F933F934F935F930FB70F93EF93FF931E
:102ED000EAB1FBB15191442735B124B1569578F44C
:102EE00000928C080092000806E10A95F1F700C0F4
:102EF00001E00093000803E000938C0804C00AE19D
:102F00000A95F1F700002150304019F40E948135F4
:102F10000CC04F5F477011F4519102C000C000C057
:102F20000AE00A95F1F700C0D9CFFF91EF910F9118
:102F30000FBF5F914F913F912F910F910F90189577
:102F4000F190E190D190C190B190A1909190819039
:102F50000B941B942B943B944B945B946B947B94B9
:102F60008B949B94AB94BB94CB94DB94EB94FB94A9
:102F70000895F801D894E4DF5894E2DFD894E0CFC4
:102F8000F801D894DDDF5894DBDFF801D894D8CF6E
:102F9000F801D894D5CFF8015894D2CFF8017096A3
:102FA0005894CEDFF8013896D894CADFF8015894C7
:102FB000C7CFF8015894C4DFD894C2DFF801589401
:102FC000BFCFFF90EF90DF90CF90BF90AF909F90DA
:102FD0008F907F906F905F904F903F902F90112433
:102FE00008952F923F924F925F926F927F928F92AD
:102FF0009F92AF92BF92CF92DF92EF92FF920F9388
:103000001F93FB01719061905190419031902190FC
:10301000119001908A01CDDFFC0171926192519271
:10302000419231922192119201921F910F91C9CF39
:103030002F923F924F925F926F927F928F929F92C8
:10304000AF92BF92CF92DF92EF92FF920F931F93B6
:10305000FB017190619051904190319021901190BD
:1030600001908A019BDFFC01719261925192419221
:1030700031922192119201921F910F91A2CF2F9222
:103080003F924F925F926F927F928F929F92AF92F8
:10309000BF92CF92DF92EF92FF920F931F93FC01AA
:1030A00071906190519041903190219011900190D8
:1030B0008A0166DFFB0171926192519241923192D5
:1030C0002192119201921F910F917BCF2F923F92EB
:1030D0004F925F926F927F928F929F92AF92BF9228
:1030E000CF92DF92EF92FF920F931F93FC017190AA
:1030F00061905190419031902190119001908A01FE
:1031000038DFFB017192619251924192319221928A
:10311000119201921F910F9154CF2F923F924F9293
:103120005F926F927F928F929F92AF92BF92CF9257
:10313000DF92EF92FF92CF93DF93EB01DA01BF01B1
:10314000F9017190619051904190319021901190CE
:103150000190F990E990D990C990B990A99099906F
:1031600089907F246E245D244C243B242A24192436
:103170000824FB0109957D926D925D924D923D92DE
:103180002D921D920D92019721F7D9017D926D929A
:103190005D924D923D922D921D920D92DF91CF91B5
:1031A00010CF2F923F924F925F926F927F928F92A9
:1031B0009F92AF92BF92CF92DF92EF92FF92CF9306
:1031C000DF93EB01DA01BF01788069805A804B8080
:1031D0003C802D801E800F80FB010995F901F19044
:1031E000E190D190C190B190A190919081907F2475
:1031F0006E245D244C243B242A2419240824F990AD
:10320000E990D990C990B990A99099908990F901C5
:10321000F192E192D192C192B192A1929192819256
:103220007D926D925D924D923D922D921D920D92E6
:10323000019751F6DF91CF91C4CEF7E1E0EC6DCF6D
:10324000F7E1E0ECAECFF7E1E9ED67CFF7E1E9EDCB
:10325000A8CFF7E1E9EB61CFF7E1EEECA2CF7AD1AD
:103260000E94AB240E944A2558D31092520684E053
:103270008093420682E680938601C1E0C0932606D1
:10328000C093210686E080932206C093310612E0A7
:103290001093320610922A0610922B068FE080932C
:1032A000290689E5809380019AE5909381018093B6
:1032B000820180E480934106809346069091B2009B
:1032C000907F9093B2009091B20092609093B20080
:1032D00090E3909341069093460680935006C093E6
:1032E00046061093450603E00093410683E1809370
:1032F000010821E030E0209326083093270820932E
:1033000028083093290810928C0880938008109226
:10331000230310922103D8E0D093220381E180930C
:103320002003E091C121F091C22182859385809391
:103330003803909339038CE380938203D093800306
:1033400080938303D0938103D7D10E94F82642D281
:10335000CFD6C09300021092010210930202009394
:103360000402C0932002D09321020E9422237ED126
:1033700082E0E82E91E1F92E0DE618E28091030437
:1033800081FF3AC08091010480FDFCCFE0920304EC
:103390000E944E2552D20E942B27B2D6E0915D2882
:1033A000F0915E2819950E94A624E091C121F09128
:1033B000C2218481823071F48091B9218F5F809322
:1033C000B92163E00E9421A8C091BD21D091BE2106
:1033D0009923F1F10E946A300E948426E091C12174
:1033E000F091C2218781813011F4F09218228681F8
:1033F000813011F4F0921722E0915B28F0915C2863
:103400001995E0915528F091562819950E941C2293
:103410000E94FC26B3CF83E090E20E947F9E109230
:103420002C2410922D2410921C226A8170E0888135
:1034300099810E94F22683E090E20E947F9E109282
:103440002C2410922D2410921C220B80DC81C02D84
:10345000209721F08091BA218111DDCF00936B2854
:1034600010936C28E091BD21F091BE21309769F452
:103470001092BB211092BC211092BD211092BE214E
:103480001092BA211092B921A5CFD381C481828133
:103490002091692830916A28820F932F911D809383
:1034A000692890936A28CF010E9459A0ED2FFC2F24
:1034B000DDCF9C01DA01832F99278230910529F114
:1034C0008330910549F0019791F482E190E02AEB75
:1034D00032E02D933C930895C9019927213061F082
:1034E0008230910579F0E8E7F2E0892B39F090E03D
:1034F00080E030E020E0EDCFEEE3F2E0849190E078
:103500009F01E7CFE8E0F2E0F9CF8EE390E02CE70F
:1035100032E0DFCF0F920FB60F921F92112408B640
:103520000F9218BEFFCF1F921FB61F9211248F93C8
:1035300088B78F9318BE9F938EB19FB180589F4FCD
:103540008EB99FB99F918F9188BF8F911F901FBE99
:103550001F9018958091780083FF0AC088E08093BF
:10356000780088ED84BF81E0809380000D94FE0098
:103570008BEC8093520080915000886080935000C3
:103580008091510083FFFCCF82EC809355008091A5
:1035900050008061809350008091510084FFFCCFE7
:1035A00088ED84BF84E0809340001EB81FB881E09E
:1035B000809343002FE730E020930A0430930B04FC
:1035C00020930C0430930D04809300048093020434
:1035D00080E880930001089588ED84BF81E08093A6
:1035E0007900089588ED84BF8BE180938000089571
:1035F000809150008260809350008091510081FF43
:10360000FCCF82E08093CA01EDE1F0E0E491E09329
:103610006200ECE1F0E0E491E09363001092CA01F3
:1036200080E8809365008BEB809366008091560064
:10363000897F809356008091560084608093560065
:10364000809160008160809360000895E0E4F0E084
:1036500084818E7F8483E0E6F0E080818E7F8083AA
:10366000E0E5F0E080818D7F8083089587E080939E
:10367000A20078940895089590E080E00895089558
:103680000895089508950895089508950895CF938D
:10369000C82FE0915328F091542819950E94A23028
:1036A000E091C121F091C221C58388E1C89FB0019A
:1036B000112464537D4F48E150E081E598E20E9477
:1036C00058A1E0915128F09152281995E09157287E
:1036D000F09158281995C05EE091C121F091C22166
:1036E0008781843011F4C09318228681843011F4CC
:1036F000C0931722CF91089548E150E06CEC72E03E
:1037000081E598E20E9458A1E091C121F091C22187
:103710008581BDCF0F931F939C018B01E091C12147
:10372000F091C22145816BE08CE194E00E94232658
:103730001F910F910895CF93DF930F92CDB7DEB70E
:10374000AC019E012F5F3F4F6BE08CE194E00E9443
:103750003C26882329F089810F90DF91CF9108952D
:103760008FEFFACFFF920F931F93CF93DF930F92B8
:10377000CDB7DEB78C019E012F5F3F4FAC016BE0F0
:103780008CE194E00E943C26F82E8823A1F08981E8
:103790007EDF980140E0F90180812F5F3F4F882351
:1037A00019F04F5F4F31B9F7E091ED28F091EE2815
:1037B000B80181E119958F2D0F90DF91CF911F9165
:1037C0000F91FF900895AC019B016BE08CE194E0B8
:1037D0000C9465262EB13FB1E0E0F4E040855185C0
:1037E0008EB19FB160857185862B972BB0E0A0E0EC
:1037F00064E1880F991FAA1FBB1F6A95D1F788271C
:103800009927A07FBF71422B532B5D5F842B952B93
:103810000C944BA10C9448A108951F93CF93DF9370
:10382000162F115020F4DF91CF911F910895EC01D4
:103830000E9448A18993CE01F4CF0E9448A10E9422
:1038400048A10E9448A10C9448A1CF93DF93FC01AA
:1038500061507109DA01EA01C20FD31F50E040E064
:10386000AC17BD0729F0CB01841B950B029728F4F8
:103870001082CA01DF91CF9108959D91392F329521
:103880003F70903A58F4305D30839F709A3040F426
:10389000905D918332964E5F5F4FE2CF395CF4CFFB
:1038A000995CF7CFCF93DF93DC01EB01FA0150E095
:1038B00040E08081882331F09181992359F14C17A0
:1038C0005D0721F4CA01DF91CF91089520ED280F03
:1038D0002A3020F02FEB280F2630E0F460ED690F3E
:1038E0006A3020F02FEB290F2630A0F4282F30E08B
:1038F000813458F42295207F913450F4962F292B4F
:103900002D934F5F5F4F3296D4CF27533109F2CFBB
:103910009753F5CF50E040E0D5CFE0E6F6E080E108
:10392000858382E0868388E085838AE18183E0EA7B
:10393000F9E01682178280EC858388E18483E0E0D9
:10394000F1E0128A8BE6838B148A158A20EA208F95
:1039500099E0918F128E148E158E168E84E0808BD6
:1039600012A23CE633A314A215A210A611A612A619
:1039700024A795A716A680A308959A01452B09F4BC
:1039800049C040E14093660643E04093A00940915E
:10399000A10947FFFCCF4091A0097093A009409175
:1039A000A10947FFFCCF4091A0096093A009409175
:1039B000A10947FFFCCF4091A00941E040931201CB
:1039C00080931C0190931D012093140130931501E5
:1039D0001092220186EB91E28093280190932901B5
:1039E00020932401309325018091100180688093F9
:1039F0001001809120018068809320018091100146
:103A000087FDFCCF80E3809311018093210180E149
:103A10008093650608959A01452B09F469C040E139
:103A20004093660646E04093A0094091A10947FFF4
:103A3000FCCF4091A00940E14093650600000000E2
:103A40004093660642E04093A0094091A10947FFD8
:103A5000FCCF4091A0097093A0094091A10947FFB4
:103A6000FCCF4091A0096093A0094091A10947FFB4
:103A7000FCCF4091A0091092120146EB51E2409315
:103A80001C0150931D01209314013093150140E156
:103A900040932201809328019093290120932401CF
:103AA00030932501809110018068809310018091EE
:103AB00020018068809320018091100187FDFCCF58
:103AC00080E3809311018093210180E1809365065A
:103AD000E091C121F091C2218781863019F481E102
:103AE000809318228681863019F481E18093172211
:103AF00008958091010480FDFCCF82E0809303044F
:103B00000895CF93DF93CDB7DEB76097CDBFDEBF0B
:103B1000F0DF40E150E06FEF70E0CE0101960E94CF
:103B2000BEA140E150E070E060E0CE01019673DF9D
:103B30006096CDBFDEBFDF91CF910895E091C121A6
:103B4000F091C2218781863019F490E19093182278
:103B500096819630A9F420E120931722853041F414
:103B600083E180931822953019F483E18093172222
:103B70008091010480FDFCCF82E0809303040895CE
:103B8000853089F7EDCFCF92DF92EF92FF920F93BE
:103B90001F936A017B01A901C11420E2D206E1044E
:103BA000F10408F069C070E060E000E010E220E09D
:103BB00030E00C191D092E093F0940175107620713
:103BC000730708F48A0120E12093660626E020931B
:103BD000A0092091A10927FFFCCF2091A00920E195
:103BE00020936506000000002093660622E02093E3
:103BF000A0092091A10927FFFCCF2091A009D09214
:103C0000A0092091A10927FFFCCF2091A009C09213
:103C1000A0092091A10927FFFCCF2091A0091092B3
:103C2000120126EB31E220931C0130931D01009319
:103C300014011093150120E12093220180932801A3
:103C40009093290100932401109325018091100184
:103C5000806880931001809120018068809320010A
:103C60008091100187FDFCCF80E380931101809348
:103C7000210180E18093650681E01F910F91FF9003
:103C8000EF90DF90CF900895CF92DF92EF92FF9266
:103C90000F931F936A017B01A901C11420E2D20690
:103CA000E104F10408F061C070E060E000E010E2BF
:103CB00020E030E00C191D092E093F09401751077B
:103CC0006207730708F48A0120E12093660623E067
:103CD0002093A0092091A10927FFFCCF2091A009E2
:103CE000D092A0092091A10927FFFCCF2091A00923
:103CF000C092A0092091A10927FFFCCF2091A00923
:103D000021E02093120180931C0190931D010093E8
:103D10001401109315011092220186EB91E2809319
:103D2000280190932901009324011093250180918B
:103D30001001806880931001809120018068809339
:103D400020018091100187FDFCCF80E38093110159
:103D50008093210180E18093650681E01F910F919E
:103D6000FF90EF90DF90CF90089580E0F7CF8091A3
:103D7000CF0187FDFCCF0895FADF8091CF0181FF4D
:103D80000BC086E38093CA0188ED90E021E030E02B
:103D9000EBECF1E084BF20830895EF92FF920F9344
:103DA0001F93CF93DF93EC01F62EE72E8A0110923A
:103DB000C201DDDFCE01800F911F26E048ED50E00B
:103DC00061E070E0EBECF1E0C817D90741F4C801FD
:103DD000DF91CF911F910F91FF90EF900895C093C5
:103DE000C0013D2F3F713093C1012093CA0144BFF0
:103DF0006083AF2DBE2D3091C4013D932196FA2EE4
:103E0000EB2EE2CF2F923F924F925F926F927F9272
:103E10008F929F92AF92BF92CF92DF92EF92FF92DA
:103E20000F931F93CF93DF93EC01462E372E542E22
:103E3000652E8F71782EC81BD1099EDF98DF83E332
:103E40008093CA011092C1011092C201052D162D56
:103E500088EDC82ED12C88248394912C2BECA22E93
:103E6000BB24B39433E3232E01151105A9F4852D4A
:103E7000962DDF91CF911F910F91FF90EF90DF90E2
:103E8000CF90BF90AF909F908F907F906F905F90FA
:103E90004F903F902F9008957092C001E42CF32C26
:103EA000F70181917F018093C4010150110921F034
:103EB0007394F0E27F1212C0C093C0018D2F8F71F6
:103EC0008093C10195E39093CA01C601F50184BFB7
:103ED0008082A0964CDF2092CA01712C4E2C3F2C80
:103EE000C3CF1F93CF93DF93CDB7DEB7A097CDBFDE
:103EF000DEBF873009F4EEC008F03DC0843009F41D
:103F0000C3C088F4823009F475C0833009F496C0C8
:103F100010E0813009F457C0A096CDBFDEBFDF911D
:103F2000CF911F910895853009F0D2C0E0916128AA
:103F3000F0916228CE01019619958091672841E0A1
:103F4000815008F444C04423D9F3282F30E0E1E045
:103F5000F0E0EC0FFD1FE20FF31F908141E09111A3
:103F600040E061E070E06C0F7D1F260F371F91501D
:103F7000F9019083E5CF8A3009F4B0C090F488301D
:103F800009F4AAC0893041F680910008813009F017
:103F9000ACC080918C08833009F0A7C00E944F31DB
:103FA000BBCF8B3009F49CC08C3009F0B5CF87E8CB
:103FB00097E098C02FDCE1E0F0E0EC0FFD1FE10F8F
:103FC000F11D80831F5F80916728181798F3E09197
:103FD0006328F0916428CE0101961995E091ED28AF
:103FE000F091EE2840916728BE016F5F7F4F83E11B
:103FF000199592CF11E080916728873009F010E081
:10400000E0916128F0916228CE01019619952091E6
:104010006728E1E0F0E0EC0FFD1FE10FF11D91E0FA
:104020001217A8F6992339F0808191E08F3F09F0AB
:1040300090E08F5F80831F5F3196F2CFE09161281F
:10404000F0916228CE01019619958091672841E090
:10405000815008F4BCCF4423D9F3282F30E0E1E0AD
:10406000F0E0EC0FFD1FE20FF31F908141E09F3F56
:1040700009F040E061E070E06C0F7D1F260F371FF4
:104080009F5FF9019083E4CF11E08091672887302A
:1040900009F010E0E0916128F0916228CE010196CC
:1040A000199520916728E1E0F0E0EC0FFD1FE10F8A
:1040B000F11D91E0121708F08ACF992331F0808129
:1040C00091E0811190E0815080831F5F3196F2CFA3
:1040D000A3D422CF33DD20CF0CDD1ECFB0D31CCF35
:1040E00080EA97E00E949E2F17CF0E942A3114CFBA
:1040F000E0E0F6E080E6828388E1868B858B089598
:10410000CF9380910806C82FC09586FD1DC0809171
:10411000B8218A3070F48F5F8093B821C5FF30C01A
:104120008091B7218A3008F58F5F8093B721CF91B6
:1041300008958A3099F7E091C121F091C2218181DF
:10414000D0DE8091B821E7CF8C2F807639F780912F
:10415000B82181508A3030F4E091C121F091C22120
:104160008081BFDE1092B821D9CF8A3001F7E0916B
:10417000C121F091C2218381B4DE8091B721D4CFD7
:10418000C076A9F68091B72181508A3030F4E09151
:10419000C121F091C2218281A4DE1092B721C7CF44
:1041A000AC019B016DE086EA97E08FC5E82FF0E057
:1041B000E054FE4D63836787638F67A363AB67AF8C
:1041C000E55BFF4F608308950F931F939B018A0166
:1041D000E091C121F091C221E80FF11D40816DE015
:1041E00086EA97E030D51F910F9108950F931F93A2
:1041F000CF93DF930F92CDB7DEB7082FAB019E01AF
:104200002F5F3F4F6DE086EA97E036D5182F882361
:1042100019F06981802FCADF812F0F90DF91CF9134
:104220001F910F91089508958F929F92AF92BF9220
:10423000CF92DF92EF92FF920F931F93CF93DF9372
:10424000882E962E072F142FCEB0DFB08091080451
:1042500090910904A0906B28B0906C28E42EF12C6A
:10426000A7014C5F5F4F2091692830916A2824177D
:10427000350708F06BC0C091BD21D091BE218DE6FD
:10428000A81688E2B80649F5DF91CF911F910F91EA
:10429000FF90EF90DF90CF90BF90AF909F908F9066
:1042A000089583E090E20E947F9E10922C24109249
:1042B0002D2410921C226A8170E08881998192D508
:1042C00083E090E20E947F9E10922C2410922D2475
:1042D00010921C220B80DC81C02D209721F0809150
:1042E000BA218111DECF8DE698E280936B289093FE
:1042F0006C28E091BD21F091BE21309799F4109285
:10430000BB211092BC211092BD211092BE211092AF
:10431000BA211092B9218DE698E280936B28909390
:104320006C28B2CFD381C4818281209169283091D9
:104330006A28820F932F911D8093692890936A2891
:10434000CF010E9459A0ED2FFC2FD7CFC82AD92A20
:1043500085E090E00E94C39FEC01A882B98284E0CE
:10436000810F8A831B821C82C501019680936B2872
:1043700090936C28F5018082E0916B28F0916C2875
:10438000CF01019680936B2890936C281083E09165
:104390006B28F0916C28CF01019680936B28909345
:1043A0006C28D082E0916B28F0916C28CF010196A7
:1043B00080936B2890936C28C082A701692D702F81
:1043C00080916B2890916C280E94A4A180916B2809
:1043D00090916C288E0D9F1D80936B2890936C2874
:1043E0008091692890916A2804978E199F0980937B
:1043F000692890936A288091BD219091BE21892BD4
:1044000091F0E091BB21F091BC21309761F0C38322
:10441000D483C093BB21D093BC218091BA218F5FFC
:104420008093BA2131CFC093BB21D093BC21C093DC
:10443000BD21D093BE21F1CF08954F925F926F922C
:104440007F928F929F92AF92BF92CF92DF92EF9224
:10445000FF920F931F93CF93DF938C012A013B01AF
:10446000E901C0900020D0900120C60182589F43EE
:10447000AC0170E060E0441655066606770608F069
:1044800073C022E0C21A20E4D20A530142018C0E0A
:104490009D1EA11CB11C84169506A606B70608F43D
:1044A00043C09C0124193509C81BD90B7E01E40CBB
:1044B000F51CE90199249394C601B0E0A0E0B20193
:1044C000481659066A067B0608F045C06E5F7F4BAA
:1044D000A30192012C0F3D1F411D511D28173907C3
:1044E0004A075B0728F5AE01C80147DA992051F069
:1044F000EC0EFD1EF801EE0DFF1DC00FD11FEC17D5
:10450000FD0781F581E0DF91CF911F910F91FF9021
:10451000EF90DF90CF90BF90AF909F908F907F9063
:104520006F905F904F900895F12CE12C912CC4CFA7
:104530005601A418B508A501C8011FDAA2014C193B
:104540005D094C0F5D1F6DE678E2C8018A0D9B1D69
:104550000E94A4A1CBCF6C197D096359774DAE01A0
:10456000C801F6CF1292CBCF80E0CDCFEDE6F8E2D6
:104570002091692830916A288DEE98E2821B930B76
:10458000E817F90751F58DE698E280936B28909330
:104590006C2880E890E08093692890936A2882E0F4
:1045A00090E4809300209093012042E050E060E08E
:1045B00070E480E090E22FDAE091C121F091C22115
:1045C00087818A3019F480E18093182286818A30AD
:1045D00019F480E18093172208951192D1CF809130
:1045E000692890916A2890582091002030910120EC
:1045F000821B930B08958093C7218093D3218093CE
:10460000DF218093EB218093F72180930322809315
:104610000F22813069F0823081F0811108C0109240
:10462000BF2183E191E28093ED289093EE280895D5
:104630008093BF2189E793E2F6CF1092BF2184E1F6
:1046400091E2F1CFCF93DF930F92CDB7DEB7E09138
:10465000C121F091C2218481CEDF8DE698E2809362
:104660006B2890936C2880E890E080936928909361
:104670006A2841E050E0BE016F5F7F4F80E090E02C
:104680008CDBE0916B28F0916C2880E8DF011D92B3
:104690008A95E9F789818823A1F042E050E060E043
:1046A00070E480E090E269D9E091ED28F091EE2885
:1046B00040E070E060E08FEF19950F90DF91CF91AF
:1046C000089582E090E4809300209093012042E0DE
:1046D00050E060E070E480E090E29DD981E0898361
:1046E00041E050E0BE016F5F7F4F80E090E08ADBE9
:1046F000DBCF0F931F93CF93DF93CEB1DFB1E09168
:104700000804F09109042091692830916A28A42FA7
:10471000B0E08D010C5F1F4F2017310708F44DC02A
:10472000EC2BFD2B245031092A1B3B0B20936928CD
:1047300030936A28A0916B28B0916C289D012F5F5F
:104740003F4F20936B2830936C288C93A0916B285B
:10475000B0916C28CD01019680936B2890936C28C2
:104760004C93A0916B28B0916C28CD010196809359
:104770006B2890936C28FC93A0916B28B0916C28C7
:10478000CD01019680936B2890936C28EC93415057
:1047900028F4DF91CF911F910F910895FB01A09113
:1047A0006B28B0916C28CD01019680936B28909373
:1047B0006C2881918C93BF01EACF80E01CDFE091EF
:1047C000C121F091C22187818A3019F481E180935F
:1047D000182286818A30E9F681E180931722D9CFA9
:1047E0001F93CF93DF930F92CDB7DEB7AC019E013D
:1047F0002F5F3F4F63E083E599E03ED2182F882377
:1048000011F08981F8DE812F0F90DF91CF911F91F8
:1048100008950F931F939C018B01E091C121F091AA
:10482000C221448163E083E599E00DD21F910F918D
:104830000895AC019B0163E083E599E046C20F93C4
:104840001F93CF93DF938091692890916A288038D5
:10485000910508F076C00091002010910120C0E081
:10486000D0E8C01BD10B40E850E0481B590BC417DF
:10487000D507B0F1B8018DE698E2CDD8209169282E
:1048800030916A28809100209091012080589F4F9C
:10489000821B930B8093002090930120EDE6F8E2B9
:1048A0008DEE98E2821B930B8E179F07B9F48DE66D
:1048B00098E280936B2890936C2880E890E0809336
:1048C000692890936A2842E050E060E070E480E05C
:1048D00090E2DF91CF911F910F919DC81192E4CF8B
:1048E000209779F1AE01B8018DE698E294D8A8013D
:1048F00040585F47BE016359774D8DE698E20E94AC
:10490000ADA1105880916B2890916C28080F191F49
:1049100000936B2810936C288091692890916A28E5
:104920008C0F9D1F8093692890936A2880910020A6
:1049300090910120C80FD91FC0930020D09301206F
:10494000C2CFDF91CF911F910F9108958091BF2128
:10495000811175CF089547E550E060EC71E281E088
:1049600090E01BCA47E550E060EC71E281E090E026
:1049700049CA0F931F93CF93DF93D82FCFEFC80F60
:1049800080E0C73008F043C00E94A2308091C0216F
:10499000C81769F1D3D8C093C0218CE0C89F90019B
:1049A00011242D533E4D2093C1213093C221A1D813
:1049B000E091C121F091C22185810E94471BE091C5
:1049C000C121F091C221848116DE81E090E08C014A
:1049D000005C11426091C0210E94AEA86091C1218B
:1049E0007091C221C8018F539E4D0E94B7A8D15E1D
:1049F000E091C121F091C2218781843011F4D093DC
:104A000018228681843011F4D093172281E0DF913F
:104A1000CF911F910F9108959091C02128E0E7E078
:104A2000F0E03CE0215009F40895892F90E00196D0
:104A3000BF010E942DA8BC01982F369FA001379F6F
:104A4000500D112440545E4DDA0118968C91882344
:104A500049F381E0890F8DCFFC018091C0218F5CEB
:104A6000808311820895CF93DC0111968C91119768
:104A700081110DC0CC91E091ED28F091EE2841E03C
:104A8000BD0182E1199580ED8C0FCF9172CF80E04E
:104A9000CF91089588E180930106089580911722AF
:104AA000823139F148F4803181F18131F1F088238C
:104AB00091F1109217222FC08331F9F090EE980FE8
:104AC0009830B8F79091192221E0290F911121C057
:104AD0009091040693FF15C098E0909306068032EB
:104AE00041F381508093172216C088E08093050619
:104AF000E0CF88E080930706DCCF8091040683FD39
:104B000004C088E08093050606C088E0809306060E
:104B1000D0CF2093192280911822823131F140F4B4
:104B2000803181F18131E9F08111109218220895CC
:104B30008331F9F090EE980F9830B8F790911A22DF
:104B400021E0290F911121C09091040694FF15C016
:104B500090E190930606803241F3815080931822B1
:104B6000089580E180930506E0CF80E180930706F9
:104B7000DCCF8091040684FD04C080E180930506AB
:104B8000089580E180930606D0CF20931A220895DD
:104B9000AC019B016BE086EB99E097C0E0ECF1E2A1
:104BA00024E132E2982F907188709111628781110F
:104BB00061873C962E173F07C1F7992329F090E1B2
:104BC0009093060610921822882329F088E080939B
:104BD00006061092172208950F931F939B018A01D6
:104BE000803161F4E091C121F091C22147816BE0F5
:104BF00086EB99E028D01F910F9108958830D9F75E
:104C0000E091C121F091C2214681F1CF0F931F9312
:104C1000CF93DF930F92CDB7DEB7082FAB019E0184
:104C20002F5F3F4F6BE086EB99E026D0182F88234B
:104C300019F06981802FB2DF812F0F90DF91CF9122
:104C40001F910F9108950F931F93FC01742FC901B9
:104C5000A801611102C080E00AC0249161502713AD
:104C600009C0BF016F5F7F4F0E9488A181E01F9143
:104C70000F910895B196EDCFDF92EF92FF920F93CF
:104C80001F93CF93DF93EC01162F042FD52E7901BC
:104C9000111102C080E00FC0BE016F5F7F4F802FF7
:104CA0009D2D0E947FA11150892B69F4FE01C491B2
:104CB000F701C08381E0DF91CF911F910F91FF90A9
:104CC000EF90DF900895A196E3CFDA01A901019654
:104CD0003CE2611104C0452B09F01C920895FC01CF
:104CE0002491211109C0623020F041155105B1F322
:104CF0003D9361508196EDCF4115510579F32D9388
:104D0000319641505109ECCFCF93DF9300D00F92F1
:104D1000CDB7DEB780912002806880932002809119
:104D2000230280FFFCCF81E080932302A091100238
:104D3000B0911102E091C121F091C221AE5BB109A5
:104D4000B7FF02C0B0E0A0E020E038EB4BE050E05D
:104D50000E9467A869837A838B839C83978186816D
:104D60002B813C81243F3140C0F4973019F490E10D
:104D700090931822873019F480E180931722809154
:104D800067288823A1F0E0915928F0915A282496A9
:104D9000CDBFDEBFDF91CF911994973019F491E127
:104DA00090931822873019F481E18093172224967A
:104DB000CDBFDEBFDF91CF910895BC0183E090E2CB
:104DC0000C940A9ECF93DF93EC01FE01649121962F
:104DD000611103C0DF91CF91089583E090E20E94BA
:104DE000549EF3CFAB01BC0183E090E20C942E9E65
:104DF00080E2809362060895CF93DF9380911B2217
:104E0000823031F583E090E20E94BF9E0E94309A8A
:104E100083E090E20E94DA9EEC0197FD19C0E091D8
:104E2000C121F091C2218781833019F483E18093FD
:104E300018228681833019F483E1809317228C2F06
:104E4000A5D6811105C08C2FDF91CF910C94C02F76
:104E5000DF91CF91089580911B22823021F168F477
:104E6000811114C08091680685FF09C08FE080938E
:104E7000022081E080931B2202C08330E9F0809100
:104E80001B22823039F5D3D70C946A3080910220EE
:104E90008150809302208111F2CF0E94F81A0E9463
:104EA000379D82E0E7CF8091680685FDE8CF8FE0EF
:104EB0008093022083E0DECF809102208150809396
:104EC00002208111DCCF0E94FC9C0E94261B1092C4
:104ED0001B22D5CF0895E091C121F091C221878195
:104EE000823019F481E1809318228681823019F48E
:104EF00081E1809317220895E091C121F091C221B0
:104F00008781823019F480E1809318228681823073
:104F100019F480E180931722089583E090E20C94C5
:104F2000E59D83E090E20C942A9F29EF3CE03F93BB
:104F30002F9323EF3CE03F932F932CEE3CE03F93E5
:104F40002F932AED3CE03F932F932CEF3BE03F93D0
:104F50002F9322E02F931F929F938F930E940DA275
:104F60008DB79EB70E968DBF9EBF85E6089560E013
:104F700072E00E948A1B85E60895CF93DF93EB01D0
:104F800028812F3359F42981211108C060E072E093
:104F90000E94E31B85E6DF91CF910895CE010E9428
:104FA0009B1B882399F00E94811DCE010E94B21B99
:104FB000E091C121F091C221CF018F5F9F4F6581A8
:104FC0008B5B91420E94AEA884E6E5CF8AECE3CFEA
:104FD000EF92FF920F931F93CF93DF93CDB7DEB77E
:104FE000A097CDBFDEBF8C0180916728E82EF12C01
:104FF00081111CC084EF9BE09F938F9382E08F937D
:105000001F921F930F930E940DA20F900F900F906D
:105010000F900F900F9085E6A096CDBFDEBFDF9179
:10502000CF911F910F91FF90EF900895E09161282B
:10503000F0916228CE01019619959701AE014F5F5C
:105040005F4F60E072E0C8010E94251CE4CFDF9250
:10505000EF92FF920F931F93CF93DF93CDB7DEB7FD
:10506000A097CDBFDEBF7B01D090672863EA70E2D6
:10507000C7010E947FA18E010F5F1F4F892B31F561
:1050800078018E2D801B8D15D8F0E0916328F0916A
:105090006428C8011995E091ED28F091EE2840911F
:1050A0006728B80183E1199584E6A096CDBFDEBFDD
:1050B000DF91CF911F910F91FF90EF90DF900895B6
:1050C0000E940A1CF70181937F01DBCFA70160E2F8
:1050D00070E0C8010E94521CD8161906B1F28AEC81
:1050E000E4CFFC0180916828882329F081E3808344
:1050F000118285E6089580E3FACFFB012181211119
:1051000027C02081213329F481E08093682884E638
:105110000895203319F410926828F9CF2F33C1F481
:105120001F9220E32F931F9221E32F932EEE3BE05B
:105130003F932F9322E02F931F929F938F930E9470
:105140000DA28DB79EB70A968DBF9EBF85E60895C6
:105150008AEC089583EC9DE1E7D48EE6089584E41B
:105160009EE1FED48EE60895E0ECF4E081818E7F2E
:1051700081830E94FC9C0E94EC1A84E60895E0EC76
:10518000F4E081818E7F81830E94FC9C0E94F21A50
:1051900084E60895E1E5F8E225892F9324892F9389
:1051A0002BEE3BE03F932F9322E02F931F929F9390
:1051B0008F930E940DA28DB79EB708968DBF9EBF9C
:1051C00085E60895209167281F922F9328EE3BE0F3
:1051D0003F932F9322E02F931F929F938F930E94D0
:1051E0000DA28DB79EB708968DBF9EBF85E6089528
:1051F000BC0140E052E080E00E94E42085E6089592
:10520000FB0120812F3349F42181211106C060E088
:1052100072E00E94D02085E60895BF0180E00E94E0
:10522000F620882319F09EDB84E608958AEC089521
:10523000BC0140E052E081E00E94E42085E6089550
:10524000FB0120812F3349F42181211106C060E048
:1052500072E00E94D02085E60895BF0181E00E949F
:10526000F620882319F07EDB84E608958AEC089501
:10527000BC0140E052E082E00E94E42085E608950F
:10528000FB0120812F3349F42181211106C060E008
:1052900072E00E94D02085E60895BF0182E00E945E
:1052A000F620882319F05EDB84E608958AEC0895E1
:1052B000BC0140E052E083E00E94E42085E60895CE
:1052C000FB0120812F3349F42181211106C060E0C8
:1052D00072E00E94D02085E60895BF0183E00E941D
:1052E000F620882319F03EDB84E608958AEC0895C1
:1052F000BC0140E052E080E16FDC85E60895FB01EF
:1053000020812F3341F42181211105C060E072E03A
:105310003FDC85E60895BF0180E178DC882319F041
:1053200021DB84E608958AEC0895BC0140E052E058
:1053300088E052DC85E60895FB0120812F3341F49B
:105340002181211105C060E072E022DC85E608952C
:10535000BF0188E05BDC882319F004DB84E6089554
:105360008AEC089560E072E054DA85E60895FB0166
:1053700020812F3341F42181211105C060E072E0CA
:1053800058DA85E60895CF012BDA882319F0EADA96
:1053900084E608958AEC0895CF93DF93EC011FD93A
:1053A0009C018038910510F420E830E02058310944
:1053B0003F932F939F938F9388EC9BE09F938F93C2
:1053C00082E08F931F92DF93CF930E940DA28DB73F
:1053D0009EB70A968DBF9EBF85E6DF91CF91089557
:1053E0008DE192E2BDD38EE6089529DA84E6089530
:1053F000BDD884E6089560E072E02EDB85E608956E
:10540000CB0131DB811102C08AEC089584E6089556
:105410000E94811D84E608950E949E1D84E60895E1
:105420000E94791D84E6089590916806917089E73D
:10543000891B0895DF92EF92FF920F931F93CF93F2
:10544000DF93EC010FEF11E08CE3E82E8EE0F82EF5
:105450009CE2D92EB7018BEB90E20E947FA1892BB1
:1054600019F00115110509F52197188285E6DF91DC
:10547000CF911F910F91FF90EF90DF900895488397
:1054800031968901EC014491CE0101969801215099
:105490003109442319F00130110589F7D8828901B7
:1054A00028E1E20EF11CEC01D5CFF701ECCFCF9350
:1054B000DF9300D00F92CDB7DEB7FC0180912002C0
:1054C0008068809320028091230280FFFCCF81E0DE
:1054D00080932302A0911002B0911102AE5BB1093A
:1054E000B7FF02C0B0E0A0E020E038EB4BE050E0B6
:1054F0000E9467A869837A838B839C83AC016627AB
:1055000077275F934F9381EC9BE09F938F9382E08B
:105510008F931F92FF93EF930E940DA2CDBFDEBF2A
:1055200085E62496CDBFDEBFDF91CF9108952EB1E1
:105530003FB14091080450910904242B352B3F932F
:105540002F932BEB3BE03F932F9322E02F931F925F
:105550009F938F930E940DA28DB79EB708968DBF23
:105560009EBF85E608950F931F93CF93DF930F920D
:105570000F92CDB7DEB78B01E091C121F091C2212E
:1055800085818D3009F077C0E0915928F0915A2833
:10559000199581E08093832460E270E0C8010E9445
:1055A000C5A19C01892BC1F5F80101900020E9F704
:1055B0003197E01BF10BE0FD5CC0F695E795E1301B
:1055C000F10501F587E090E080934F2890935028F3
:1055D00060914F2870915028695F7F4F83E07695E6
:1055E00067958A95E1F7A8018FE497E20E94521C23
:1055F0000E94CC398FEF0F900F90DF91CF911F91C8
:105600000F91089553E0EE0FFF1F5A95E1F7E093D5
:105610004F28F0935028DCCFC8010496281739078B
:1056200041F5A80162E070E0CE0101960E94521C93
:10563000898190E0982F88272A81820F911D80937D
:105640004F28909350280B5F1F4FF80101900020C6
:10565000E9F73197E01BF10BE0FD0BC0F695E795FC
:1056600033E0EE0FFF1F3A95E1F7E817F90708F06E
:10567000AFCF8AECC0CF89ECBECFEF92FF920F93F1
:105680001F93CF93DF930F920F92CDB7DEB78B01AD
:10569000E091C121F091C22185818D3009F08CC04B
:1056A000E0915928F0915A28199582E0809383243B
:1056B00060E270E0C8010E94C5A17C01892B09F05D
:1056C00041C0F80101900020E9F73197E01BF10B90
:1056D000E0FD70C0F695E795E130F10511F587E042
:1056E00090E080934F289093502860914F287091BC
:1056F0005028695F7F4F83E0769567958A95E1F73B
:10570000A8018FE497E20E94521C0E94CC398FEFCF
:105710000F900F90DF91CF911F910F91FF90EF901D
:10572000089553E0EE0FFF1F5A95E1F7CF0169E0AE
:1057300070E00E942DA8E81BF90BE0934F28F0932E
:105740005028D3CFC8010496E816F90699F5A801A8
:1057500062E070E0CE0101960E94521C8981282FE0
:1057600030E0322F22278A81820F932F911D809360
:105770004F28909350288730910529F09C0127707D
:105780003327232BB9F487010F5F1F4FF8010190D6
:105790000020E9F73197E01BF10BE0FD0BC0F69517
:1057A000E79533E0EE0FFF1F3A95E1F7E817F907A9
:1057B00008F09BCF8AECACCF89ECAACFE091C12155
:1057C000F091C22185818D30A1F4E0915928F091AA
:1057D0005A28199585E0809383240E94A7590E9436
:1057E000CC3981EB99E580932A2490932B248FEF79
:1057F000089589EC0895E091C121F091C22185813D
:105800008D30A1F4E0915928F0915A28199583E040
:10581000809383240E94A7590E94CC3981EB99E59B
:1058200080932A2490932B248FEF089589EC089578
:10583000E091C121F091C22185818D30A1F4E091E8
:105840005928F0915A28199586E0809383240E9464
:10585000A7590E94CC3981EB99E580932A24909333
:105860002B248FEF089589EC0895E091C121F091E8
:10587000C2214085518564E6649F9001659F300D8B
:1058800011243F932F9325EB3BE03F932F9322E08E
:105890002F931F929F938F930E940DA28DB79EB757
:1058A00008968DBF9EBF85E60895CF93DF930F9234
:1058B0000F92CDB7DEB7FB0120812F33D1F42181C8
:1058C000211117C023E83BE03F932F9322E02F9351
:1058D0001F929F938F930E940DA20F900F900F9095
:1058E0000F900F900F9085E60F900F90DF91CF9162
:1058F000089589E592E089839A83CE0101969F936A
:105900008F938FE79BE09F938F93FF93EF930E947A
:1059100043A20F900F900F900F900F900F90892B34
:10592000A9F069817A81693582E0780778F4E0919D
:10593000C121F091C22160877187CF018F5F9F4F96
:10594000885B91420E94B7A884E6CECF8AECCCCF88
:10595000E091C121F091C22123852F9322852F93BD
:105960002CE73BE03F932F9322E02F931F929F93CE
:105970008F930E940DA28DB79EB708968DBF9EBFD4
:1059800085E60895CF93DF930F920F92CDB7DEB7E0
:10599000FB0120812F33D1F42181211117C02FE089
:1059A0002F932FEF2F932BE23BE03F932F9322E097
:1059B0002F931F929F938F930E940DA2CDBFDEBFA6
:1059C00085E60F900F90DF91CF91089519821A828A
:1059D000CE0101969F938F9387E29BE09F938F93D5
:1059E000FF93EF930E9443A20F900F900F900F90A0
:1059F0000F900F90892BC9F069817A81611590E130
:105A0000790798F46093380370933903E091C121CA
:105A1000F091C22162877387CF018F5F9F4F865BB2
:105A200091420E94B7A884E6CCCF8AECCACFFB0192
:105A300020812F33D9F42181211121C01F9220E32D
:105A40002F931F9221E32F9321E23BE03F932F936B
:105A500022E02F931F929F938F930E940DA28DB7E8
:105A60009EB70A968DBF9EBF85E60895213319F42F
:105A7000F1D384E60895203311F411D4FACF8AECDF
:105A80000895FC0180910008813021F480918C08F8
:105A9000833029F080E38083118285E6089581E3D5
:105AA000FACFE091C121F091C22185818D30A1F41E
:105AB000E0915928F0915A28199584E08093832425
:105AC0000E94A7590E94CC3981EB99E580932A2442
:105AD00090932B248FEF08958C3069F4E09159282E
