:100000000C943E170C9463170C9463170C946317AD
:100010000C9463170C9463170C9463170C94631778
:100020000C9463170C9463170C94A31A0C94631725
:100030000C9463170C9463170C9463170C94631758
:100040000C9463170C9463170C9463170C94631748
:100050000C9463170C9463170C9463170C94631738
:100060000C9463170C9463170C9463170C94631728
:100070000C9463170C9463170C9463170C94631718
:100080000C9463170C9463170C9417320C94633A16
:100090000C9463170C9463170C9463170C946317F8
:1000A0000C9463170C9463170C9463170C946317E8
:1000B0000C9463170C9463170C9463170C94E5323B
:1000C0000C9463170C9460360C94CE3B0C9463171D
:1000D0000C9463170C9463170C9463170C946317B8
:1000E0000C9463170C9463170C9463170C946317A8
:1000F0000C9463170C9463170C9463170C94631798
:100100000C9463170C9463170C9463170C94631787
:100110000C94A93B0C943D360C9463170C94631714
:100120000C9463170C9463170C9463170C94631767
:100130000C9463170C9463170C9463170C944D3252
:100140000C9464170C945C350C948D3A0C946317E2
:100150000C9463170C94B6350C949B3C0C94631769
:100160000C9463170C9463170C9463170C94631727
:100170000C9463170C9463170C9463170C94631717
:100180000C9463170C9463170C9463170C94631707
:100190000C9463170C9463170C9463170C946317F7
:1001A0000C9463170C9463170C9463170C946317E7
:1001B0000C9463170C9463170C9463170C946317D7
:1001C0000C9463170C9463170C9463170C946317C7
:1001D0000C9463170C9463170C9463170C946317B7
:1001E0000C9463170C9463170C9463170C946317A7
:1001F0000C9463170C9491A20C9463176364696E5A
:100200006F70737578585B003403430068006100B9
:100210006D0065006C0065006F006E002D004D00E4
:1002200069006E0069002D0044004500530046003F
:100230006900720065004D006F0064000000380323
:100240004B00610073007000650072002000260002
:1002500020004F007300770061006C0064002000F4
:1002600047006D0062004800200028005200650031
:1002700076004700290000000403090409023E003B
:10028000020100C03209040000010202010005243D
:10029000001001042402060524060001070582035C
:1002A0000800FF09040100020A000000070504021B
:1002B000100005070583021000051201100102005D
:1002C0000008D016B2040100010200014B1B561BAE
:1002D000551B541B531B521B511B4C1B4F1B501BBC
:1002E0000000000100A33317343634453F613F65F9
:1002F0003F511B663F834296424000070000A333F4
:1003000017343634593F613F653F511B663F834286
:1003100096425000070000A333173436345D3F6126
:100320003F653F511B663F83429642A40007000091
:10033000A33317343634D64212431643511B1743A6
:10034000F949174A0004040000A33317343634E592
:100350004212431643511B1743F949174A00040739
:100360000000A33317343634F44212431643511BB2
:100370001743F949174A0010040000A33317343615
:1003800034034312431643511B1743F949174A00DC
:1003900010070000A333173436348469FC670868FB
:1003A000006821698D698F69001007000000000056
:1003B000000000000000000000000000000000003D
:1003C000000000000000000000000000000000002D
:1003D000000000000000000000000000000000001D
:1003E000000000000000000000000000000000000D
:1003F0000000000000000000533D0C3E2D3E8161D6
:100400008F619461956197614F1B501B0000000143
:1004100000C8344A35FB36CA59CD59DA59DB599CE4
:100420005C4F1B501B0000000000004E4F4E45006B
:1004300000000000000000000000000000000000BC
:100440000000000000000000000000014D465F5564
:100450004C5452414C4947485400000000000000F1
:10046000000000000000000000000000024D465F98
:10047000554C5452414C494748545F4556315F38BA
:1004800030420000000000000000000000034D4664
:100490005F554C5452414C494748545F4556315F73
:1004A0003136344200000000000000000000044D1E
:1004B000465F434C41535349435F314B00000000BA
:1004C0000000000000000000000000000000000527
:1004D0004D465F434C41535349435F314B5F374275
:1004E000000000000000000000000000000000000C
:1004F000064D465F434C41535349435F344B000024
:1005000000000000000000000000000000000000EB
:1005100000074D465F434C41535349435F344B5FA3
:100520003742000000000000000000000000000052
:100530000000084D465F44455346495245000000BF
:1005400000000000000000000000000000000000AB
:100550000000000C49534F3134343433415F534E63
:1005600049464600000000000000000000000000B6
:10057000000000000D49534F3134343433415F5291
:10058000454144455200000000000000000000000A
:100590000000000000010000010001010000010155
:1005A0000001000001000101000100000101000044
:1005B0000100010100000101000100000101000033
:1005C0000100010100010000010001010000010122
:1005D0000001000001000101000100000101000014
:1005E0000100010100010000010001010000010102
:1005F00000010000010100000100010100000101F3
:1006000000010000010001010001000001010000E3
:1006100001000101000001010001000001010000D2
:1006200001000101000100000100010100000101C1
:1006300000010000010100000100010100000101B2
:1006400000010000010001010001000001010000A3
:100650000100010100010000010001010000010191
:100660000001000001000101000100000101000083
:100670000100010100000101000100000101000072
:100680000100010100010000010001010000010161
:100690000001000001008040C020A060E0109050E8
:1006A000D030B070F0088848C828A868E818985872
:1006B000D838B878F8048444C424A464E414945466
:1006C000D434B474F40C8C4CCC2CAC6CEC1C9C5C12
:1006D000DC3CBC7CFC028242C222A262E212925248
:1006E000D232B272F20A8A4ACA2AAA6AEA1A9A5A12
:1006F000DA3ABA7AFA068646C626A666E616965606
:10070000D636B676F60E8E4ECE2EAE6EEE1E9E5EB1
:10071000DE3EBE7EFE018141C121A161E111915108
:10072000D131B171F1098949C929A969E9199959E1
:10073000D939B979F9058545C525A565E5159555D5
:10074000D535B575F50D8D4DCD2DAD6DED1D9D5D81
:10075000DD3DBD7DFD038343C323A363E3139353B7
:10076000D333B373F30B8B4BCB2BAB6BEB1B9B5B81
:10077000DB3BBB7BFB078747C727A767E717975775
:10078000D737B777F70F8F4FCF2FAF6FEF1F9F5F21
:10079000DF3FBF7FFF44465F505052494E545F5089
:1007A0004943432046756C6C496D61676500434C55
:1007B0004F4E4500004E4F4E450000000000000027
:1007C0000000000000000000000000000000000029
:1007D0000000000000015549445F52414E444F4D16
:1007E0000000000000000000000000000000000009
:1007F000000000000000025549445F4C4546545F2C
:10080000494E4352454D454E540000000000000043
:1008100000000000000000035549445F524947486A
:10082000545F494E4352454D454E54000000000070
:100830000000000000000000045549445F4C45469C
:10084000545F44454352454D454E5400000000005E
:10085000000000000000000000055549445F5249B7
:100860004748545F44454352454D454E54000000AF
:1008700000000000000000000000064359434C4502
:100880005F53455454494E47530000000000000098
:1008900000000000000000000000000753544F5209
:1008A000455F4D454D0000000000000000000000C5
:1008B0000000000000000000000000000852454356
:1008C000414C4C5F4D454D00000000000000000011
:1008D0000000000000000000000000000009544F6C
:1008E00047474C455F4649454C4400000000000026
:1008F00000000000000000000000000000000A539B
:10090000544F52455F4C4F4700000000000000006C
:100910000000000000000000000000000000000BCC
:10092000434C4F4E45000000000000000000000056
:1009300000000000000000000000000000000000B7
:100940000C5052494E545F5354415445000000002E
:100950000000000000000000000000000000000097
:1009600000004F46460000000000000000000000AC
:100970000000000000000000000000000000000077
:100980000000014D454D4F5259000000000000008D
:100990000000000000000000000000000000000057
:1009A000000000024C495645000000000000000015
:1009B0000000000000000000000000000000000037
:1009C00000000000004E4F4E4500000000000000F7
:1009D0000000000000000000000000000000000017
:1009E000000000000001504F5745524544000000F0
:1009F00000000000000000000000000000000000F7
:100A0000000000000000025445524D494E414C5F29
:100A1000434F4E4E000000000000000000000000A8
:100A200000000000000000035445524D494E414C67
:100A30005F52585458000000000000000000000001
:100A400000000000000000000453455454494E4784
:100A50005F4348414E474500000000000000000091
:100A6000000000000000000000054D454D4F5259A8
:100A70005F53544F52454400000000000000000046
:100A800000000000000000000000064D454D4F52E0
:100A9000595F4348414E47454400000000000000B4
:100AA000000000000000000000000008434F444523
:100AB000435F5258000000000000000000000000EA
:100AC00000000000000000000000000009434F4447
:100AD00045435F5458000000000000000000000083
:100AE0000000000000000000000000000007464970
:100AF000454C445F44455445435445440000000080
:100B000000000000000000000000000000000A4C8F
:100B10004F474D454D5F46554C4C000000000000CE
:100B200000000000000000000000000000000025A0
:100B3000632C25630025356400416E7920696E744D
:100B4000656765722066726F6D203020746F202596
:100B5000752E205265666572656E636520766F6CD2
:100B6000746167652077696C6C2062652028564344
:100B700043202A205448524553484F4C44202F20AC
:100B80003430393529206D562E0025750025356401
:100B90000030203D206E6F2074696D656F75740D97
:100BA0000A312D363030203D20313030206D732019
:100BB0002D203630303030206D732074696D656FB4
:100BC0007574002575206D730025342E345800256A
:100BD0003575206D56002575202866726F6D20775B
:100BE00068696368202575206E6F6E2D766F6C6165
:100BF00074696C65290025750025750025632C2511
:100C000063004E4F205549442E004368616D656C6A
:100C1000656F6E4D696E69205265764720776974FD
:100C200068204445534669726520737461636B2084
:100C3000737570706F7274202553207573696E67B9
:100C4000204C55464120255320636F6D70696C65BB
:100C5000642077697468204156522D47434320250C
:100C6000532E20536F75726365733A2068747470E5
:100C7000733A2F2F6769746875622E636F6D2F6DDD
:100C80006178696564732F4368616D656C656F6E2B
:100C90004D696E694669726D776172654445534668
:100CA000697265537461636B0A4C6F676765723A6A
:100CB000202068747470733A2F2F676974687562A6
:100CC0002E636F6D2F6D6178696564732F43686162
:100CD0006D656C656F6E4D696E694C6976654465CE
:100CE0006275676765722E00323032302E31302ED9
:100CF00031342D3130333831350031353131313502
:100D000000392E332E300038366334376661000DDB
:100D10000A000D0A000D0A000D0A000D0A000D0A56
:100D200000643130303A4F4B0000000000000000FA
:100D300000000000000000000000000000000000B3
:100D40000000653130313A4F4B2057495448205408
:100D500045585400000000000000000000000000A2
:100D60000000006E3131303A57414954494E472016
:100D7000464F5220584D4F44454D000000000000A2
:100D800000000000C83230303A554E4B4E4F574E9F
:100D900020434F4D4D414E44000000000000000034
:100DA0000000000000C93230313A494E56414C49EA
:100DB0004420434F4D4D414E44205553414745003B
:100DC000000000000000CA3230323A494E56414C11
:100DD000494420504152414D4554455200000000C5
:100DE00000000000000000783132303A46414C5398
:100DF00045000000000000000000000000000000AE
:100E00000000000000000000793132313A545255A0
:100E1000450000000000000000000000000000008D
:100E2000000000000000000000CB3230333A54498B
:100E30004D454F5554000000000000000000000028
:100E40000000000000000000000056455253494FCA
:100E50004E00000000000000000000000000000044
:100E6000B827434F4E4649470000000000000000ED
:100E7000000000000000E027DA2755494400000088
:100E800000000000000000000000000000004A28F0
:100E90000B28524541444F4E4C59000000000000C1
:100EA000000000000000A028942855504C4F4144F9
:100EB00000000000000000000000CD28000000003D
:100EC0000000444F574E4C4F4144000000000000CA
:100ED0000000D22800000000000052455345540095
:100EE00000000000000000000000D7280000000003
:100EF00000005550475241444500000000000000EA
:100F00000000E2280000000000004D454D53495A02
:100F1000450000000000000000000000000000008C
:100F2000ED2855494453495A45000000000000008F
:100F30000000000000000000052952425554544FA3
:100F40004E00000000000000000000000000232907
:100F50001B2952425554544F4E5F4C4F4E47000090
:100F600000000000000043293B294C425554544FD7
:100F70004E00000000000000000000000000632997
:100F80005B294C425554544F4E5F4C4F4E47000026
:100F900000000000000083297B294C45444752454E
:100FA000454E000000000000000000000000A229E3
:100FB0009B294C45445245440000000000000000BD
:100FC000000000000000BF29B8294C4F474D4F4496
:100FD0004500000000000000000000000000DA29C9
:100FE000D5294C4F474D454D000000000000000042
:100FF0000000000000000000EF294C4F47444F570D
:101000004E4C4F41440000000000132A0000000035
:1010100000004C4F4753544F524500000000000061
:101020000000182A0000000000004C4F47434C45C8
:10103000415200000000000000001B2A00000000D8
:10104000000053455454494E470000000000000082
:10105000000000000000232A1E2A434C4541520094
:10106000000000000000000000002B2A000000002B
:10107000000053544F5245000000000000000000E3
:1010800000002F2A000000000000524543414C4C54
:1010900000000000000000000000332A00000000F3
:1010A00000004348415247494E47000000000000FD
:1010B0000000000000000000372A48454C500000A6
:1010C000000000000000000000003D2A00000000B9
:1010D00000005253534900000000000000000000CF
:1010E00000000000000000007A2A5359535449437D
:1010F0004B000000000000000000000000000000A5
:10110000BA2A53454E445F52415700000000000088
:1011100000000000602B0000000053454E4400001A
:10112000000000000000000000000000D62A0000BF
:1011300000004745545549440000000000000000ED
:1011400000001E2C00000000000044554D505F4D73
:1011500046550000000000000000012C00000000C7
:1011600000004944454E5449465900000000000023
:1011700000003B2C00000000000054494D454F5535
:101180005400000000000000000000000000782C67
:10119000582C5448524553484F4C4400000000001E
:1011A000000000000000E52CCB2C4155544F43417A
:1011B0004C494252415445000000742D000000008B
:1011C00000004649454C44000000000000000000BB
:1011D0000000000000003A2D642D434C4F4E4500A6
:1011E00000000000000000000000A02D0000000032
:1011F000000044465F53455448445200000000003C
:10120000000000000000FA70E47044465F50505245
:10121000494E545F5049434300000000977100005D
:10122000000044465F4657494E464F00000000000C
:101230000000F57100000000000044465F4C4F477D
:101240004D4F4445000000000000000000003B72CC
:10125000137244465F544553544D4F4445000000BB
:10126000000000000000C972C17200000000000010
:10127000000000000000000000000000000000006E
:10128000000000080008000000000000000800083E
:1012900008080808080008000800000008080008FE
:1012A000080800800080000000000000008000802E
:1012B000808080808000800080000000808000802E
:1012C000808000010001000000000000000100011A
:1012D0000101010101000100010000000101000104
:1012E00001010000000000000000000000000000FC
:1012F00000000101010101010101010101010101E0
:1013000001010101010101010101010101010101CD
:1013100001010101010101010101010101010101BD
:1013200001010000000000000000000000000000BB
:1013300000000000000000000000000000000000AD
:10134000000000000000000000000000000000009D
:10135000000001010101010101010101010101017F
:10136000010100000000000000000000000000007B
:10137000000000000000000000000000000000006D
:10138000000001010101010101010101010101014F
:10139000010100000000000000000000000000004B
:1013A000000001010101010101010101010101012F
:1013B000010101010101010101010101010101011D
:1013C000010100000000000000000000000000001B
:1013D00000000101010101010101010101010101FF
:1013E00001010000000202000002000202020200ED
:1013F00000020000000202000002000202020200DD
:1014000000020000000202000002000202020200CC
:101410000002040404060604040604060606060484
:10142000040604040406060404060406060606046C
:101430000406000000020200000200020202020094
:10144000000200000002020000020002020202008C
:101450000002040404060604040604060606060444
:101460000406000000020200000200020202020064
:101470000002040404060604040604060606060424
:10148000040604040406060404060406060606040C
:1014900004060404040606040406040606060604FC
:1014A00004060404040606040406040606060604EC
:1014B0000406000000020200000200020202020014
:1014C000000200000002020000020002020202000C
:1014D00000020404040606040406040606060604C4
:1014E00004060008080800000008000008000808BA
:1014F00000080008080800000008000008000808AC
:10150000000800080808000000080000080008089B
:1015100000081018181810101018101018101818AB
:10152000101810181818101010181010181018187B
:10153000101800080808000000080000080008084B
:10154000000800080808000000080000080008085B
:10155000000810181818101010181010181018186B
:10156000101800080808000000080000080008081B
:10157000000810181818101010181010181018184B
:10158000101810181818101010181010181018181B
:10159000101810181818101010181010181018180B
:1015A00010181018181810101018101018101818FB
:1015B00010180008080800000008000008000808CB
:1015C00000080008080800000008000008000808DB
:1015D00000081018181810101018101018101818EB
:1015E000101853414B3A09005549443A09004154F7
:1015F00051413A090054686572652069732061742D
:10160000206C65617374206F6E65206D6F7265204C
:101610006361726420747970652063616E646964CB
:101620006174652C2062757420746865726520771A
:101630006173206E6F7420656E6F756768207465C6
:10164000726D696E616C206275666665722073707A
:101650006163652E0D0A000D0A00040001090100F6
:10166000000000000000000000000000000000007A
:10167000004E585000000000000000000000000074
:10168000004D4946415245204D696E6900000000F9
:10169000000000000000000000000000000000004A
:1016A000000000000000000000000000000000003A
:1016B000000000000000000000000000000000002A
:1016C000000400010801000000000000000000000C
:1016D00000000000000000004E5850000000000014
:1016E00000000000000000004D49464152452043E3
:1016F0006C617373696320316B00000000000000AF
:1017000000000000000000000000000000000000D9
:1017100000000000000000000000000000000000C9
:10172000000000000000000002000118010000009D
:101730000000000000000000000000000000004E5B
:101740005850000000000000000000000000004DA4
:10175000494641524520436C617373696320346B81
:101760000000000000000000000000000000000079
:101770000000000000000000000000000000000069
:101780000000000000000000000000000000004415
:101790000001000100000000000000000000000047
:1017A0000000000000004E58500000000000000043
:1017B0000000000000004D494641524520556C7420
:1017C00072616C696768740000000000000000002E
:1017D0000000000000000000000000000000000009
:1017E00000000000000000000000000000000000F9
:1017F00000000000000044000100010000000000A3
:10180000000000000000000000000000004E5850E2
:10181000000000000000000000000000004D4946EC
:1018200041524520556C7472616C6967687420433D
:1018300000000000000000000000000000000000A8
:101840000000000000000000000000000000000098
:101850000000000000000000000000000044000143
:101860000000000000000000000000000000000078
:10187000000000004E585000000000000000000072
:10188000000000004D494641524520556C7472617C
:101890006C69676874204556310000000000000044
:1018A0000000000000000000000000000000000038
:1018B0000000000000000000000000000000000028
:1018C00000000000440301200175778102800000C0
:1018D00000000000000000000005004E585000000D
:1018E00000000000000000000000004D4946415289
:1018F0004520444553466972650000000000000021
:1019000000000000000000000000000000000000D7
:1019100000000000000000000000000000000000C7
:10192000000000000000000000000044030120014E
:1019300075778102800000000000000000000000B8
:1019400005004E585000000000000000000000009C
:1019500000004D4946415245204445534669726551
:10196000204556310000000000000000000000008B
:101970000000000000000000000000000000000067
:101980000000000000000000000000000000000057
:10199000000004030128013877B14A434F50333126
:1019A00000000000000000090149424D0000000055
:1019B0000000000000000000004A434F5033310097
:1019C0000000000000000000000000000000000017
:1019D0000000000000000000000000000000000007
:1019E00000000000000000000000000000000000F7
:1019F000000000000000000000480001200178778E
:101A0000B1024A434F5076323431000000000C01DD
:101A100049424D00000000000000000000000000EE
:101A20004A434F5033312076322E342E310000009D
:101A300000000000000000000000000000000000A6
:101A40000000000000000000000000000000000096
:101A50000000000000000000000000000000000086
:101A600048000120013833B14A434F5034315632D7
:101A700032000000000C0149424D0000000000004F
:101A8000000000000000004A434F503431207632FD
:101A90002E320000000000000000000000000000E6
:101AA0000000000000000000000000000000000036
:101AB0000000000000000000000000000000000026
:101AC0000000000000000004000128013833B14A82
:101AD000434F503431563233310000000D0149423A
:101AE0004D000000000000000000000000004A431C
:101AF0004F5034312076322E332E3100000000005A
:101B000000000000000000000000000000000000D5
:101B100000000000000000000000000000000000C5
:101B200000000000000000000000000000000400B1
:101B3000018801000000000000000000000000001B
:101B40000000000000496E66696E656F6E0000005F
:101B500000000000004D494641524520436C61732E
:101B600073696320316B000000000000000000007A
:101B70000000000000000000000000000000000065
:101B80000000000000000000000000000000000055
:101B900000000000000200019801000000000000A9
:101BA00000000000000000000000000047656D70AC
:101BB0006C75730000000000000000004D50434FA2
:101BC00053000000000000000000000000000000C2
:101BD0000000000000000000000000000000000005
:101BE00000000000000000000000000000000000F5
:101BF000000000000000000000000000000C0100D8
:101C000000000000000000000000000000000000D4
:101C1000000000496E6E6F766973696F6E20522600
:101C20005400004A6577656C000000000000000069
:101C300000000000000000000000000000000000A4
:101C40000000000000000000000000000000000094
:101C50000000000000000000000000000000000084
:101C60000000000200013801000000000000000038
:101C7000000000000000000000004E6F6B69610072
:101C8000000000000000000000004D4946415245A0
:101C900020436C617373696320346B202D20656D64
:101CA000756C6174656420283632313220436C6172
:101CB0007373696329000000000000000000000049
:101CC00000000000000000000000080001380100D2
:101CD0000000000000000000000000000000000004
:101CE000004E6F6B69610000000000000000000002
:101CF000004D494641524520436C6173736963202E
:101D0000346B202D20656D756C61746564202836F8
:101D1000313331204E46432900000000000000000E
:101D200000000000000000000000000000000000B3
:101D3000000001020408102040801B3652096AD5B9
:101D40003036A538BF40A39E81F3D7FB7CE33982B0
:101D50009B2FFF87348E4344C4DEE9CB547B9432FF
:101D6000A6C2233DEE4C950B42FAC34E082EA16647
:101D700028D924B2765BA2496D8BD12572F8F6641E
:101D800086689816D4A45CCC5D65B6926C70485099
:101D9000FDEDB9DA5E154657A78D9D8490D8AB004E
:101DA0008CBCD30AF7E45805B8B34506D02C1E8F77
:101DB000CA3F0F02C1AFBD0301138A6B3A911141B3
:101DC0004F67DCEA97F2CFCEF0B4E67396AC74229C
:101DD000E7AD3585E2F937E81C75DF6E47F11A711A
:101DE0001D29C5896FB7620EAA18BE1BFC563E4B53
:101DF000C6D279209ADBC0FE78CD5AF41FDDA83315
:101E00008807C731B11210592780EC5F60517FA954
:101E100019B54A0D2DE57A9F93C99CEFA0E03B4D83
:101E2000AE2AF5B0C8EBBB3C83539961172B047EF7
:101E3000BA77D626E169146355210C7D637C777BE4
:101E4000F26B6FC53001672BFED7AB76CA82C97DB6
:101E5000FA5947F0ADD4A2AF9CA472C0B7FD932647
:101E6000363FF7CC34A5E5F171D8311504C723C34B
:101E70001896059A071280E2EB27B27509832C1A8F
:101E80001B6E5AA0523BD6B329E32F8453D100EDE9
:101E900020FCB15B6ACBBE394A4C58CFD0EFAAFBCD
:101EA000434D338545F9027F503C9FA851A3408F95
:101EB000929D38F5BCB6DA2110FFF3D2CD0C13ECAD
:101EC0005F974417C4A77E3D645D197360814FDC42
:101ED000222A908846EEB814DE5E0BDBE0323A0A26
:101EE0004906245CC2D3AC629195E479E7C8376DAA
:101EF0008DD54EA96C56F4EA657AAE08BA78252ECF
:101F00001CA6B4C6E8DD741F4BBD8B8A703EB56657
:101F10004803F60E613557B986C11D9EE1F8981148
:101F200069D98E949B1E87E9CE5528DF8CA1890D37
:101F3000BFE6426841992D0FB054BB164F4646008C
:101F400046414C53450030004F4E00545255450019
:101F5000310025313573002573203C4F4E7C4F46B0
:101F6000467C564552424F53457C4445425547476F
:101F7000494E473E00444542554747494E47005663
:101F80004552424F5345004F46460046414C53454B
:101F90000030004F4E005452554500310025313578
:101FA0007300444542554747494E47005645524203
:101FB0004F5345004E4F524D414C004F4646004353
:101FC00068616D656C656F6E2D4D696E6920444565
:101FD000534669726520656E61626C65642066694E
:101FE000726D77617265206275696C74206F6E2006
:101FF0002573206261736564206F6E2025732066EF
:10200000726F6D200D0A68747470733A2F2F6769B0
:10201000746875622E636F6D2F6D61786965647386
:102020002F4368616D656C656F6E4D696E694669B9
:10203000726D776172654445534669726553746188
:10204000636B2E6769742E0D0A5265766973696F2A
:102050006E3A2025730D0A002573203C46756C6C82
:10206000496D6167657C486561646572446174614E
:102070003E00486561646572446174610046756C38
:102080006C496D61676500253331730050726F6470
:10209000756374696F6E446174650042617463684E
:1020A0004E756D62657200536F6674776172655626
:1020B000657273696F6E004861726477617265560C
:1020C000657273696F6E004154530025323473207A
:1020D00025313273002573203C4154532D357C4803
:1020E0006172647761726556657273696F6E2D32C5
:1020F0007C536F66747761726556657273696F6E33
:102100002D327C42617463684E756D6265722D3547
:102110007C50726F64756374696F6E446174652D71
:10212000323E203C48657842797465732D4E3E00FE
:1021300050544558542D44454641554C5400435441
:102140004558542D4145533132382D434D414300BC
:1021500043544558542D4445530050544558542D2C
:102160004D414300414E590041455331323800330F
:102170004B3344455300324B544445410043484798
:102180000052572F00572F00522F0049534F313420
:102190003434332D343A20554E4B2D434D44204E8C
:1021A0004F5F524553500049534F31343434332D2F
:1021B000333A20524553455420544F2049444C450E
:1021C0000049534F31343434332D343A2041435491
:1021D000495645205245540049534F313434343325
:1021E0002D333A20476F742048414C5400524459D3
:1021F000322C204E4F5420534C435420434D440026
:10220000496E636F72726563742053656C656374A5
:102210002076616C7565202852322900494E544F52
:1022200020414354495645210049534F31343434F9
:10223000332D343A20524459312C204E4F542053E0
:102240004C435420434D440049534F3134343433CC
:102250002D343A2053656C656374204E414B004920
:10226000534F31343434332D343A2053656C656325
:1022700074204F4B0049534F31343434332D3420C4
:102280002849444C45293A20415451410049534F73
:1022900031343434332D343A2049444C45202F20F6
:1022A0004E4F5420575550410049534F3134343428
:1022B000332D343A2048414C54202F204E4F542087
:1022C000575550410049534F31343434332D333A4C
:1022D0002048414C54494E4700203D3E2000554E79
:1022E0004B4E4F574E5F53544154450049534F3165
:1022F000343434335F345F53544154455F41435465
:102300004956450049534F31343434335F345F53B9
:10231000544154455F4558504543545F52415453CE
:102320000049534F31343434335F33415F535441A8
:1023300054455F48414C540049534F313434343391
:102340005F33415F53544154455F414354495645BF
:102350000049534F31343434335F33415F53544178
:1023600054455F5245414459320049534F3134344A
:1023700034335F33415F53544154455F52454144C8
:1023800059310049534F31343434335F33415F5353
:10239000544154455F49444C450049534F3134340E
:1023A00034332D343A205043425F535F424C4B202C
:1023B0004E4F5F524553500049534F3134343433FC
:1023C0002D343A20532D424C4B00203D3E200055E9
:1023D0004E4B4E4F574E5F53544154450049534F57
:1023E00031343434335F345F53544154455F414397
:1023F000544956450049534F31343434335F345FC8
:1024000053544154455F4558504543545F524154DD
:10241000530049534F31343434335F33415F5354A5
:102420004154455F48414C540049534F3134343492
:10243000335F33415F53544154455F4143544956E0
:10244000450049534F31343434335F33415F535483
:102450004154455F5245414459320049534F31344C
:102460003434335F33415F53544154455F524541E7
:102470004459310049534F31343434335F33415F71
:1024800053544154455F49444C450049534F3134FE
:102490003434333450726F63657373426C6F636BA3
:1024A0003A2049534F31343434335F5043425F5202
:1024B0005F424C4F434B202D2D2025640049534F44
:1024C00031343434332D343A20522D424C4B0049B0
:1024D000534F31343434333450726F636573734205
:1024E0006C6F636B3A2049534F31343434335F504F
:1024F00043425F525F424C4F434B202D2D202564B9
:102500000049534F31343434332D343A20492D426D
:102510004C4B0049534F31343434332D343A20413D
:1025200050505F4E4F5F524553500049534F313426
:102530003434333450726F63657373426C6F636B02
:102540003A2049534F31343434335F5043425F496A
:102550005F424C4F434B202D2D2025640049534FA3
:1025600031343434333450726F63657373426C6F3B
:10257000636B3A2049534F31343434335F50434214
:102580005F495F424C4F434B202D2D20256400496D
:10259000534F31343434332D343A204E4557204391
:1025A0004152442049440049534F31343434332D8F
:1025B000343A2053454E4420524154530049534F1E
:1025C00031343434332D343A204E4F542052415458
:1025D000530049534F31343434332D343A2043526D
:1025E00043206661696C3B20253034582076732087
:1025F000253034580049534F31343434332D343A74
:10260000206C656E677468206661696C00203D3ED1
:102610002000554E4B4E4F574E5F5354415445008A
:1026200049534F31343434335F345F53544154454C
:102630005F4143544956450049534F313434343394
:102640005F345F53544154455F4558504543545F90
:10265000524154530049534F31343434335F334182
:102660005F53544154455F48414C540049534F31E6
:10267000343434335F33415F53544154455F4143F5
:10268000544956450049534F31343434335F334154
:102690005F53544154455F524541445932004953B8
:1026A0004F31343434335F33415F53544154455FC9
:1026B0005245414459310049534F31343434335F2A
:1026C00033415F53544154455F49444C45004040B9
:1026D000204C494E452023256420696E202A25730D
:1026E00020404000526561644461746146696C65D4
:1026F0005365747570202D2D204552524F52210084
:10270000496E76616C69642066696C6520747970C5
:1027100065203D20256440256400496E76616C6922
:10272000642066696C6520696E646578203D2025AB
:1027300064202F202564203B20666F722046696C40
:10274000654E756D203D202564004040204C494E6B
:10275000452023256420696E202A257320404000EF
:1027600050494343206B65792073657474696E67C3
:1027700073202D2D2025303278004E4F5420494DA6
:10278000504C454D454E5445443A20257321000A8E
:102790004982B42B1A4C86A32BAA0C87922B71006A
:1027A00000772B770000592B542A84452B5C0000BE
:1027B000332BC47B83282B643783182BCA8C930557
:1027C0002BDA0493F22A6A5C84DE2A6E1582D22AFE
:1027D0006DAE8AC52A45FC82B42A5A8584A12AFC9A
:1027E000C281952A60AA81892A519E817C2A6FD351
:1027F000846F2AF506915D2A5F1C85482ACDDE92FA
:10280000372ACBB892242ACC7492122AC13D92F86E
:1028100029C00292DE29DFC791D22961D384C12960
:10282000BD8F90B7293DB08FAC296C538FA2290C76
:10283000CB8E9B29DC378E95291CB88D86293BCE03
:102840008B7929BBB58C6C29EB9C8B5A29C72E8BB5
:102850004729A7C08A3529A4739626298431821076
:102860002982B48AF22888BA8AD428B0E387C0289B
:10287000D6BE88AA28B2AF899528E248857F284924
:10288000534F373831365F417070656E645F526503
:10289000636F72640049534F373831365F52656158
:1028A000645F5265636F7264730049534F37383108
:1028B000365F5570646174655F42696E617279005C
:1028C00049534F373831365F526561645F42696EF4
:1028D0006172790049534F373831365F496E7465FC
:1028E000726E616C5F41757468656E746963617462
:1028F000650049534F373831365F45787465726EDD
:10290000616C5F41757468656E74696361746500BC
:1029100049534F373831365F4765745F4368616CA0
:102920006C656E67650049534F373831365F5365C4
:102930006C6563740041626F72745F5472616E7390
:10294000616374696F6E00436F6D6D69745F54727B
:10295000616E73616374696F6E00436C6561725F71
:102960005265636F72645F46696C650052656164AD
:102970005F5265636F7264730057726974655F526A
:1029800065636F7264004C696D697465645F43725E
:1029900065646974004465626974004372656469C2
:1029A00074004765745F56616C7565005772697491
:1029B000655F4461746100526561645F4461746184
:1029C000004765745F49534F5F46696C655F4944D2
:1029D000730044656C6574655F46696C650043729D
:1029E000656174655F4379636C69635F5265636FAA
:1029F00072645F46696C65004372656174655F4C23
:102A0000696E6561725F5265636F72645F46696C7F
:102A100065004372656174655F56616C75655F46FC
:102A2000696C65004372656174655F4261636B75D3
:102A3000705F46696C65004372656174655F4461EF
:102A400074615F46696C65004368616E67655F46E7
:102A5000696C655F53657474696E6773004765746C
:102A60005F46696C655F53657474696E6773004790
:102A700065745F46696C655F494473004765745FC0
:102A8000436172645F554944004765745F566572DF
:102A900073696F6E00466F726D61745F5049434396
:102AA0000053656C6563745F4170706C6963617439
:102AB000696F6E004765745F4B65795F5365747429
:102AC000696E6773004765745F44465F4E616D656C
:102AD0007300467265655F4D656D6F72790047657D
:102AE000745F4170706C69636174696F6E5F4944B3
:102AF000730044656C6574655F4170706C696361F7
:102B000074696F6E004372656174655F4170706CCB
:102B100069636174696F6E004765745F4B65795FC7
:102B200056657273696F6E004368616E67655F4BCF
:102B30006579005365745F436F6E6669677572618E
:102B400074696F6E004368616E67655F4B65795F9E
:102B500053657474696E67730041757468656E744B
:102B600069636174655F4145535F4556325F4E6FDF
:102B70006E46697273740041757468656E7469633A
:102B80006174655F4145535F4556325F46697273B4
:102B9000740041757468656E7469636174655F4142
:102BA00045530041757468656E7469636174655F4F
:102BB00049534F0041757468656E69636174655F60
:102BC0004C65676163790025733A2025730057428D
:102BD0004220537461727420426C6F636B20546F97
:102BE0006F204C61726765202D2D202564202D2DCE
:102BF0002025730052424220537461727420426C4B
:102C00006F636B20546F6F204C61726765202D2DB0
:102C1000202564202D2D2025640043726561746594
:102C20004170702072657475726E6564202D2D2060
:102C300025640A00466163746F727920726573655A
:102C40007474696E6720746865206465766963656D
:102C500000466163746F727920726573657474697C
:102C60006E672074686520646576696365003D3D24
:102C7000204149442030782530327825303278257B
:102C80003032780D0A00205B4B455953202D2D2002
:102C90002564206F662025645D0D0A005D0D0A0025
:102CA000202D2D202530326400202D2D20533D2550
:102CB00030327800202D2D20414D4B00202D2D202D
:102CC000533D2530327800202D2D20504D4B0020D3
:102CD000202D3E204E6F2E2025303278202825735F
:102CE00029205B762520326400205B46494C455301
:102CF000202D2D202564206F662025645D0D0A009F
:102D000020202D3E204E6F2E20253032780D0A00D7
:102D100020202D3E204E6F2E2025303278205B4320
:102D20006F6D6D3D2573202D2D205065726D733DA7
:102D300025735D0D0A00202020205245434F524448
:102D40002020202040205B547970653D25635D2064
:102D500052636453697A653D3078253036787C4318
:102D600075724E756D526364733D307825303678D8
:102D70007C4D6178526364733D3078253036780D30
:102D80000A002020202056414C554520202020209C
:102D90004020436C6E3D25647C4474793D2564205D
:102DA000285072657644656269743D2564292069FE
:102DB0006E205B25642C2025645D20776974682073
:102DC0004C696D697465644372656469743D25631B
:102DD0000D0A0020202020424B55502D44415441E3
:102DE00020402025203364206279746573202D2DC6
:102DF00020426C6B436F756E74203D2025640D0A74
:102E000000202020205354442D4441544120204090
:102E100020252033642062797465730D0A002841EF
:102E20005453292025730D0A002844415445292074
:102E3000253032782F253032780D0A00284241544F
:102E40004348292025730D0A002856455253494FFF
:102E50004E292048573D253032782E253032782CA7
:102E60002053573D253032782E253032780D0A0018
:102E700028554944292025730D0A000011241FBE3E
:102E8000CFEFCDBFDFE3DEBF00E00CBF18BE19BE41
:102E90001ABE1BBE11E2A0E0B0E2E8E0FCE501E0F2
:102EA0000BBF02C007900D92AA3BB107D9F71BBE1A
:102EB0002DE2AAEBB1E201C01D92A93FB207E1F7F2
:102EC000D5D10C947AA636C30F9200240F932F937A
:102ED0003F934F935F930FB70F93EF93FF93EAB135
:102EE000FBB15191442735B124B1569578F4009245
:102EF0008C080092000806E10A95F1F700C001E095
:102F00000093000803E000938C0804C00AE10A95CE
:102F1000F1F700002150304019F40E94A4350CC094
:102F20004F5F477011F4519102C000C000C00AE029
:102F30000A95F1F700C0D9CFFF91EF910F910FBF24
:102F40005F914F913F912F910F910F901895F190B4
:102F5000E190D190C190B190A190919081900B940B
:102F60001B942B943B944B945B946B947B948B9429
:102F70009B94AB94BB94CB94DB94EB94FB9408951B
:102F8000F801D894E4DF5894E2DFD894E0CFF80158
:102F9000D894DDDF5894DBDFF801D894D8CFF8015E
:102FA000D894D5CFF8015894D2CFF80170965894A0
:102FB000CEDFF8013896D894CADFF8015894C7CF0D
:102FC000F8015894C4DFD894C2DFF8015894BFCFF9
:102FD000FF90EF90DF90CF90BF90AF909F908F9039
:102FE0007F906F905F904F903F902F9011240895A5
:102FF0002F923F924F925F926F927F928F929F9209
:10300000AF92BF92CF92DF92EF92FF920F931F93F6
:10301000FB017190619051904190319021901190FD
:1030200001908A01CDDFFC0171926192519241922F
:1030300031922192119201921F910F91C9CF2F923B
:103040003F924F925F926F927F928F929F92AF9238
:10305000BF92CF92DF92EF92FF920F931F93FB01EB
:103060007190619051904190319021901190019018
:103070008A019BDFFC0171926192519241923192DF
:103080002192119201921F910F91A2CF2F923F9204
:103090004F925F926F927F928F929F92AF92BF9268
:1030A000CF92DF92EF92FF920F931F93FC017190EA
:1030B00061905190419031902190119001908A013E
:1030C00066DFFB017192619251924192319221929D
:1030D000119201921F910F917BCF2F923F924F92AD
:1030E0005F926F927F928F929F92AF92BF92CF9298
:1030F000DF92EF92FF920F931F93FC01719061900A
:103100005190419031902190119001908A0138DFC7
:10311000FB017192619251924192319221921192EE
:1031200001921F910F9154CF2F923F924F925F9235
:103130006F927F928F929F92AF92BF92CF92DF92C7
:10314000EF92FF92CF93DF93EB01DA01BF01F90118
:103150007190619051904190319021901190019027
:10316000F990E990D990C990B990A99099908990D7
:103170007F246E245D244C243B242A241924082413
:10318000FB0109957D926D925D924D923D922D923B
:103190001D920D92019721F7D9017D926D925D925A
:1031A0004D923D922D921D920D92DF91CF9110CFB5
:1031B0002F923F924F925F926F927F928F929F9247
:1031C000AF92BF92CF92DF92EF92FF92CF93DF93B5
:1031D000EB01DA01BF01788069805A804B803C8026
:1031E0002D801E800F80FB010995F901F190E1907F
:1031F000D190C190B190A190919081907F246E2444
:103200005D244C243B242A2419240824F990E990B5
:10321000D990C990B990A99099908990F901F192AB
:10322000E192D192C192B192A192919281927D92BA
:103230006D925D924D923D922D921D920D9201974D
:1032400051F6DF91CF91C4CEF7E1E7EC6DCFF7E116
:10325000E7ECAECFF7E1E0EE67CFF7E1E0EEA8CF25
:10326000F7E1E0EC61CFF7E1E5EDA2CF83D10E9479
:10327000C0240E945F2561D31092520684E080939F
:10328000420682E680938601C1E0C0932606C09381
:10329000210686E080932206C093310612E0109347
:1032A000320610922A0610922B068FE08093290690
:1032B00089E5809380019AE5909381018093820152
:1032C00080E480934106809346069091B200907FFF
:1032D0009093B2009091B20092609093B20090E30C
:1032E000909341069093460680935006C0934606FD
:1032F0001093450603E00093410683E180930108A3
:1033000021E030E0209326083093270820932808F6
:103310003093290810928C08809380081092230320
:1033200010922103D8E0D093220381E180932003FF
:10333000E091C521F091C621828593858093380361
:10334000909339038CE380938203D093800380931E
:103350008303D0938103E0D10E941B274BD2D8D6A0
:10336000C093000210920102109302020093040223
:10337000C0932002D09321020E94372387D182E09C
:10338000E82E91E1F92E0AE718E28091030481FF0B
:1033900043C08091010480FDFCCFE09203040E94B1
:1033A00063255BD20E944E27BBD6E0916D28F09139
:1033B0006E2819950E94BB24E091C521F091C62189
:1033C0008481823079F48091BD218F5F8093BD210B
:1033D00063E00E9445ADC091C121D091C2219923E3
:1033E00009F446C00E948D3080911F228F5F6FE0EC
:1033F0000E9445AD90931F220E949926E091C5211D
:10340000F091C6218781813011F4F0921C228681CF
:10341000813011F4F0921B22E0916B28F0916C281E
:103420001995E0916528F091662819950E942C2243
:103430000E941F27AACF87E090E20E94A3A31092C8
:10344000312410923224109221226A8170E0888106
:1034500099810E94152787E090E20E94A3A3109211
:10346000312410923224109221220B80DC81C02D55
:10347000209721F08091BE218111DDCF009304209F
:1034800010930520E091C121F091C221309769F499
:103490001092BF211092C0211092C1211092C2211E
:1034A0001092BE211092BD219DCFD381C481828113
:1034B0002091022030910320820F932F911D809341
:1034C000022090930320CF010E947DA5ED2FFC2FB9
:1034D000DDCF9C01DA01832F99278230910529F1F4
:1034E0008330910549F0019791F482E190E02AEB55
:1034F00032E02D933C930895C9019927213061F062
:103500008230910579F0E8E7F2E0892B39F090E01C
:1035100080E030E020E0EDCFEEE3F2E0849190E057
:103520009F01E7CFE8E0F2E0F9CF8EE390E02CE7EF
:1035300032E0DFCF0F920FB60F921F92112408B620
:103540000F9218BEFFCF1F921FB61F9211248F93A8
:1035500088B78F9318BE9F938EB19FB180589F4FAD
:103560008EB99FB99F918F9188BF8F911F901FBE79
:103570001F9018958091780083FF0AC088E080939F
:10358000780088ED84BF81E0809380000D94FE0078
:103590008BEC8093520080915000886080935000A3
:1035A0008091510083FFFCCF82EC80935500809185
:1035B00050008061809350008091510084FFFCCFC7
:1035C00088ED84BF84E0809340001EB81FB881E07E
:1035D000809343002FE730E020930A0430930B04DC
:1035E00020930C0430930D04809300048093020414
:1035F00080E880930001089588ED84BF81E0809386
:103600007900089588ED84BF8BE180938000089550
:10361000809150008260809350008091510081FF22
:10362000FCCF82E08093CA01EDE1F0E0E491E09309
:103630006200ECE1F0E0E491E09363001092CA01D3
:1036400080E8809365008BEB809366008091560044
:10365000897F809356008091560084608093560045
:10366000809160008160809360000895E0E4F0E064
:1036700084818E7F8483E0E6F0E080818E7F80838A
:10368000E0E5F0E080818D7F8083089587E080937E
:10369000A20078940895089590E080E00895089538
:1036A0000895089508950895089508950895CF936D
:1036B000C82FE0916328F091642819950E94C530C5
:1036C000E091C521F091C621C58389E1C89FB00171
:1036D000112464537D4F49E150E081E698E20E9455
:1036E0007CA6E0916128F09162281995E091672805
:1036F000F09168281995C05EE091C521F091C6212E
:103700008781843011F4C0931C228681843011F4A7
:10371000C0931B22CF91089549E150E06CEC72E018
:1037200081E698E20E947CA6E091C521F091C62135
:103730008581BDCF0F931F939C018B01E091C52123
:10374000F091C62145816BE08AE294E00E94382620
:103750001F910F910895CF93DF930F92CDB7DEB7EE
:10376000AC019E012F5F3F4F6BE08AE294E00E9424
:103770005126882329F089810F90DF91CF910895F8
:103780008FEFFACFFF920F931F93CF93DF930F9298
:10379000CDB7DEB78C019E012F5F3F4FAC016BE0D0
:1037A0008AE294E00E945126F82E8823A1F08981B4
:1037B0007EDF980140E0F90180812F5F3F4F882331
:1037C00019F04F5F4F31B9F7E091FA28F091FB28DB
:1037D000B80181E119958F2D0F90DF91CF911F9145
:1037E0000F91FF900895AC019B016BE08AE294E099
:1037F0000C947A262EB13FB1E0E0F4E0408551858B
:103800008EB19FB160857185862B972BB0E0A0E0CB
:1038100064E1880F991FAA1FBB1F6A95D1F78827FB
:103820009927A07FBF71422B532B5D5F842B952B73
:103830000C946FA60C946CA608951F93CF93DF93FE
:10384000162F115020F4DF91CF911F910895EC01B4
:103850000E946CA68993CE01F4CF0E946CA60E94B0
:103860006CA60E946CA60C946CA6CF93DF93FC010F
:1038700061507109DA01EA01C20FD31F50E040E044
:10388000AC17BD0729F0CB01841B950B029728F4D8
:103890001082CA01DF91CF9108959D91392F329501
:1038A0003F70903A58F4305D30839F709A3040F406
:1038B000905D918332964E5F5F4FE2CF395CF4CFDB
:1038C000995CF7CFCF93DF93DC01EB01FA0150E075
:1038D00040E08081882331F09181992359F14C1780
:1038E0005D0721F4CA01DF91CF91089520ED280FE3
:1038F0002A3020F02FEB280F2630E0F460ED690F1E
:103900006A3020F02FEB290F2630A0F4282F30E06A
:10391000813458F42295207F913450F4962F292B2E
:103920002D934F5F5F4F3296D4CF27533109F2CF9B
:103930009753F5CF50E040E0D5CFE0E6F6E080E1E8
:10394000858382E0868388E085838AE18183E0EA5B
:10395000F9E01682178280EC858388E18483E0E0B9
:10396000F1E0128A8BE6838B148A158A20EA208F75
:1039700099E0918F128E148E158E168E84E0808BB6
:1039800012A23CE633A314A215A210A611A612A6F9
:1039900024A795A716A680A308959A01452B09F49C
:1039A00049C040E14093660643E04093A00940913E
:1039B000A10947FFFCCF4091A0097093A009409155
:1039C000A10947FFFCCF4091A0096093A009409155
:1039D000A10947FFFCCF4091A00941E040931201AB
:1039E00080931C0190931D012093140130931501C5
:1039F000109222018AEB91E2809328019093290191
:103A000020932401309325018091100180688093D8
:103A10001001809120018068809320018091100125
:103A200087FDFCCF80E3809311018093210180E129
:103A30008093650608959A01452B09F469C040E119
:103A40004093660646E04093A0094091A10947FFD4
:103A5000FCCF4091A00940E14093650600000000C2
:103A60004093660642E04093A0094091A10947FFB8
:103A7000FCCF4091A0097093A0094091A10947FF94
:103A8000FCCF4091A0096093A0094091A10947FF94
:103A9000FCCF4091A009109212014AEB51E24093F1
:103AA0001C0150931D01209314013093150140E136
:103AB00040932201809328019093290120932401AF
:103AC00030932501809110018068809310018091CE
:103AD00020018068809320018091100187FDFCCF38
:103AE00080E3809311018093210180E1809365063A
:103AF000E091C521F091C6218781863019F481E1DA
:103B000080931C228681863019F481E180931B22E8
:103B100008958091010480FDFCCF82E0809303042E
:103B20000895CF93DF93CDB7DEB76097CDBFDEBFEB
:103B3000F0DF40E150E06FEF70E0CE0101960E94AF
:103B4000E2A640E150E070E060E0CE01019673DF54
:103B50006096CDBFDEBFDF91CF910895E091C52182
:103B6000F091C6218781863019F490E190931C2250
:103B700096819630A9F420E120931B22853041F4F0
:103B800083E180931C22953019F483E180931B22FA
:103B90008091010480FDFCCF82E0809303040895AE
:103BA000853089F7EDCFCF92DF92EF92FF920F939E
:103BB0001F936A017B01A901C11420E2D206E1042E
:103BC000F10408F069C070E060E000E010E220E07D
:103BD00030E00C191D092E093F09401751076207F3
:103BE000730708F48A0120E12093660626E02093FB
:103BF000A0092091A10927FFFCCF2091A00920E175
:103C000020936506000000002093660622E02093C2
:103C1000A0092091A10927FFFCCF2091A009D092F3
:103C2000A0092091A10927FFFCCF2091A009C092F3
:103C3000A0092091A10927FFFCCF2091A009109293
:103C400012012AEB31E220931C0130931D010093F5
:103C500014011093150120E1209322018093280183
:103C60009093290100932401109325018091100164
:103C700080688093100180912001806880932001EA
:103C80008091100187FDFCCF80E380931101809328
:103C9000210180E18093650681E01F910F91FF90E3
:103CA000EF90DF90CF900895CF92DF92EF92FF9246
:103CB0000F931F936A017B01A901C11420E2D20670
:103CC000E104F10408F061C070E060E000E010E29F
:103CD00020E030E00C191D092E093F09401751075B
:103CE0006207730708F48A0120E12093660623E047
:103CF0002093A0092091A10927FFFCCF2091A009C2
:103D0000D092A0092091A10927FFFCCF2091A00902
:103D1000C092A0092091A10927FFFCCF2091A00902
:103D200021E02093120180931C0190931D010093C8
:103D3000140110931501109222018AEB91E28093F5
:103D4000280190932901009324011093250180916B
:103D50001001806880931001809120018068809319
:103D600020018091100187FDFCCF80E38093110139
:103D70008093210180E18093650681E01F910F917E
:103D8000FF90EF90DF90CF90089580E0F7CF809183
:103D9000CF0187FDFCCF0895FADF8091CF0181FF2D
:103DA0000BC086E38093CA0188ED90E021E030E00B
:103DB000EBECF1E084BF20830895EF92FF920F9324
:103DC0001F93CF93DF93EC01F62EE72E8A0110921A
:103DD000C201DDDFCE01800F911F26E048ED50E0EB
:103DE00061E070E0EBECF1E0C817D90741F4C801DD
:103DF000DF91CF911F910F91FF90EF900895C093A5
:103E0000C0013D2F3F713093C1012093CA0144BFCF
:103E10006083AF2DBE2D3091C4013D932196FA2EC3
:103E2000EB2EE2CF2F923F924F925F926F927F9252
:103E30008F929F92AF92BF92CF92DF92EF92FF92BA
:103E40000F931F93CF93DF93EC01462E372E542E02
:103E5000652E8F71782EC81BD1099EDF98DF83E312
:103E60008093CA011092C1011092C201052D162D36
:103E700088EDC82ED12C88248394912C2BECA22E73
:103E8000BB24B39433E3232E01151105A9F4852D2A
:103E9000962DDF91CF911F910F91FF90EF90DF90C2
:103EA000CF90BF90AF909F908F907F906F905F90DA
:103EB0004F903F902F9008957092C001E42CF32C06
:103EC000F70181917F018093C4010150110921F014
:103ED0007394F0E27F1212C0C093C0018D2F8F71D6
:103EE0008093C10195E39093CA01C601F50184BF97
:103EF0008082A0964CDF2092CA01712C4E2C3F2C60
:103F0000C3CF1F93CF93DF93CDB7DEB7A097CDBFBD
:103F1000DEBF873009F4EEC008F03DC0843009F4FC
:103F2000C3C088F4823009F475C0833009F496C0A8
:103F300010E0813009F457C0A096CDBFDEBFDF91FD
:103F4000CF911F910895853009F0D2C0E09171287A
:103F5000F0917228CE01019619958091772841E061
:103F6000815008F444C04423D9F3282F30E0E1E025
:103F7000F0E0EC0FFD1FE20FF31F908141E0911183
:103F800040E061E070E06C0F7D1F260F371F9150FD
:103F9000F9019083E5CF8A3009F4B0C090F48830FD
:103FA00009F4AAC0893041F680910008813009F0F7
:103FB000ACC080918C08833009F0A7C00E94723198
:103FC000BBCF8B3009F49CC08C3009F0B5CF85E9AC
:103FD00097E098C02FDCE1E0F0E0EC0FFD1FE10F6F
:103FE000F11D80831F5F80917728181798F3E09167
:103FF0007328F0917428CE0101961995E091FA2862
:10400000F091FB2840917728BE016F5F7F4F83E1DD
:10401000199592CF11E080917728873009F010E050
:10402000E0917128F0917228CE01019619952091A6
:104030007728E1E0F0E0EC0FFD1FE10FF11D91E0CA
:104040001217A8F6992339F0808191E08F3F09F08B
:1040500090E08F5F80831F5F3196F2CFE0917128EF
:10406000F0917228CE01019619958091772841E050
:10407000815008F4BCCF4423D9F3282F30E0E1E08D
:10408000F0E0EC0FFD1FE20FF31F908141E09F3F36
:1040900009F040E061E070E06C0F7D1F260F371FD4
:1040A0009F5FF9019083E4CF11E0809177288730FA
:1040B00009F010E0E0917128F0917228CE0101968C
:1040C000199520917728E1E0F0E0EC0FFD1FE10F5A
:1040D000F11D91E0121708F08ACF992331F0808109
:1040E00091E0811190E0815080831F5F3196F2CF83
:1040F000A8D422CF33DD20CF0CDD1ECFB5D31CCF0B
:104100008EEA97E00E94C12F17CF0E944D3114CF45
:10411000E0E0F6E080E6828388E1868B858B089577
:10412000CF9380910806C82FC09586FD1DC0809151
:10413000BC218A3070F48F5F8093BC21C5FF30C0F2
:104140008091BB218A3008F58F5F8093BB21CF918E
:1041500008958A3099F7E091C521F091C6218181B7
:10416000D0DE8091BC21E7CF8C2F807639F780910B
:10417000BC2181508A3030F4E091C521F091C621F4
:104180008081BFDE1092BC21D9CF8A3001F7E09147
:10419000C521F091C6218381B4DE8091BB21D4CFAB
:1041A000C076A9F68091BB2181508A3030F4E0912D
:1041B000C521F091C6218281A4DE1092BB21C7CF18
:1041C000AC019B016DE084EB97E094C5E82FF0E033
:1041D000EC53FE4D63836787638F67A363AB67AF61
:1041E000E55BFF4F608308950F931F939B018A0146
:1041F000E091C521F091C621E80FF11D40816DE0ED
:1042000084EB97E035D51F910F9108950F931F937D
:10421000CF93DF930F92CDB7DEB7082FAB019E018E
:104220002F5F3F4F6DE084EB97E03BD5182F88233D
:1042300019F06981802FCADF812F0F90DF91CF9114
:104240001F910F91089508958F929F92AF92BF9200
:10425000CF92DF92EF92FF920F931F93CF93DF9352
:10426000882E962E072F142FCEB0DFB08091080431
:1042700090910904A0900420B0900520E42EF12C28
:10428000A7014C5F5F4F209102203091032024173B
:10429000350708F06BC0C091C121D091C2218AE7D7
:1042A000A81688E2B80649F5DF91CF911F910F91CA
:1042B000FF90EF90DF90CF90BF90AF909F908F9046
:1042C000089587E090E20E94A3A3109231241092F7
:1042D0003224109221226A8170E088819981A5D5CB
:1042E00087E090E20E94A3A310923124109232241E
:1042F000109221220B80DC81C02D209721F080912B
:10430000BE218111DECF8AE798E28093042090934A
:104310000520E091C121F091C221309799F41092CB
:10432000BF211092C0211092C1211092C22110927F
:10433000BE211092BD218AE798E2809304209093D9
:104340000520B2CFD381C481828120910220309197
:104350000320820F932F911D8093022090930320BE
:10436000CF010E947DA5ED2FFC2FD7CFC82AD92AD7
:1043700085E090E00E94E7A4EC01A882B98284E085
:10438000810F8A831B821C82C501019680930420C1
:1043900090930520F5018082E0910420F0910520A2
:1043A000CF01019680930420909305201083E09123
:1043B0000420F0910520CF01019680930420909372
:1043C0000520D082E0910420F0910520CF010196D4
:1043D0008093042090930520C082A701692D702F3F
:1043E00080910420909105200E94C8A6809104200D
:1043F000909105208E0D9F1D8093042090930520A1
:10440000809102209091032004978E199F09809338
:104410000220909303208091C1219091C221892B89
:1044200091F0E091BF21F091C021309761F0C383FA
:10443000D483C093BF21D093C0218091BE218F5FD0
:104440008093BE2131CFC093BF21D093C021C093B0
:10445000C121D093C221F1CF08954F925F926F9204
:104460007F928F929F92AF92BF92CF92DF92EF9204
:10447000FF920F931F93CF93DF938C012A013B018F
:10448000E901C0900020D0900120C60182589F43CE
:10449000AC0170E060E0441655066606770608F049
:1044A00073C022E0C21A20E4D20A530142018C0EEA
:1044B0009D1EA11CB11C84169506A606B70608F41D
:1044C00043C09C0124193509C81BD90B7E01E40C9B
:1044D000F51CE90199249394C601B0E0A0E0B20173
:1044E000481659066A067B0608F045C06E5F7F4B8A
:1044F000A30192012C0F3D1F411D511D28173907A3
:104500004A075B0728F5AE01C80147DA992051F048
:10451000EC0EFD1EF801EE0DFF1DC00FD11FEC17B4
:10452000FD0781F581E0DF91CF911F910F91FF9001
:10453000EF90DF90CF90BF90AF909F908F907F9043
:104540006F905F904F900895F12CE12C912CC4CF87
:104550005601A418B508A501C8011FDAA2014C191B
:104560005D094C0F5D1F6AE778E2C8018A0D9B1D4B
:104570000E94C8A6CBCF6C197D096658774DAE0155
:10458000C801F6CF1292CBCF80E0CDCFEAE7F8E2B8
:1045900020910220309103208AEF98E2821B930B36
:1045A000E817F90751F58AE798E280930420909381
:1045B000052080E890E0809302209093032082E021
:1045C00090E4809300209093012042E050E060E06E
:1045D00070E480E090E22FDAE091C521F091C621ED
:1045E00087818A3019F480E180931C2286818A3089
:1045F00019F480E180931B2208951192D1CF80910C
:1046000002209091032090582091002030910120A9
:10461000821B930B08958093CB218093D7218093A5
:10462000E3218093EF218093FB21809307228093E5
:104630001322E091C521F091C6218483813069F075
:10464000823081F0811108C01092C32183E291E28F
:104650008093FA289093FB2808958093C3218EE8D5
:1046600093E2F6CF1092C32184E291E2F1CFCF938F
:10467000DF930F92CDB7DEB7E091C521F091C6214F
:104680008481C9DF8AE798E2809304209093052013
:1046900080E890E0809302209093032041E050E076
:1046A000BE016F5F7F4F80E090E087DBE0910420E8
:1046B000F091052080E8DF011D928A95E9F7898154
:1046C0008823A1F042E050E060E070E480E090E2F6
:1046D00064D9E091FA28F091FB2840E070E060E0B6
:1046E0008FEF19950F90DF91CF91089582E090E4BC
:1046F000809300209093012042E050E060E070E45D
:1047000080E090E298D981E0898341E050E0BE01E9
:104710006F5F7F4F80E090E085DBDBCF0F931F93CF
:10472000CF93DF93CEB1DFB1E0910804F09109049B
:104730002091022030910320A42FB0E08D010C5F66
:104740001F4F2017310708F44DC0EC2BFD2B2450D0
:1047500031092A1B3B0B2093022030930320A091A8
:104760000420B09105209D012F5F3F4F209304202E
:10477000309305208C93A0910420B0910520CD01A9
:10478000019680930420909305204C93A0910420DF
:10479000B0910520CD0101968093042090930520CF
:1047A000FC93A0910420B0910520CD010196809347
:1047B000042090930520EC93415028F4DF91CF9191
:1047C0001F910F910895FB01A0910420B091052045
:1047D000CD010196809304209093052081918C93C4
:1047E000BF01EACF80E017DFE091C521F091C6213B
:1047F00087818A3019F481E180931C2286818A3076
:10480000E9F681E180931B22D9CF1F93CF93DF93E9
:104810000F92CDB7DEB7AC019E012F5F3F4F63E033
:1048200081E699E03ED2182F882311F08981F3DECA
:10483000812F0F90DF91CF911F9108950F931F93B8
:104840009C018B01E091C521F091C621448163E078
:1048500081E699E00DD21F910F910895AC019B0163
:1048600063E081E699E046C20F931F93CF93DF93F5
:1048700080910220909103208038910508F076C045
:104880000091002010910120C0E0D0E8C01BD10BA6
:1048900040E850E0481B590BC417D507B0F1B801E8
:1048A0008AE798E2C8D820910220309103208091B5
:1048B00000209091012080589F4F821B930B809382
:1048C000002090930120EAE7F8E28AEF98E2821B49
:1048D000930B8E179F07B9F48AE798E28093042020
:1048E0009093052080E890E080930220909303202D
:1048F00042E050E060E070E480E090E2DF91CF9130
:104900001F910F9198C81192E4CF209779F1AE01D1
:10491000B8018AE798E28FD8A80140585F47BE01E6
:104920006658774D8AE798E20E94D1A61058809188
:10493000042090910520080F191F00930420109364
:10494000052080910220909103208C0F9D1F809361
:104950000220909303208091002090910120C80FA5
:10496000D91FC0930020D0930120C2CFDF91CF91F7
:104970001F910F9108958091C321811175CF0895E2
:1049800047E550E064EC71E281E090E016CA47E54B
:1049900050E064EC71E281E090E044CA0F931F9311
:1049A000CF93DF93D82FCFEFC80F80E0C73008F048
:1049B00043C00E94C5308091C421C81769F1CED888
:1049C000C093C4218CE0C89F9001112429533E4D0F
:1049D0002093C5213093C6219CD8E091C521F09148
:1049E000C62185810E94571BE091C521F091C62107
:1049F000848111DE81E090E08C01045C11426091C1
:104A0000C4210E94D2AD6091C5217091C621C80118
:104A10008B539E4D0E94DBADD15EE091C521F0919C
:104A2000C6218781843011F4D0931C228681843082
:104A300011F4D0931B2281E0DF91CF911F910F9150
:104A400008959091C42128E0E7E0F0E03CE0215097
:104A500009F40895892F90E00196BF010E9451AD9D
:104A6000BC01982F369FA001379F500D11244C5345
:104A70005E4DDA0118968C91882349F381E0890F05
:104A80008DCFFC018091C4218F5C808311820895B9
:104A9000CF93DC0111968C91119781110DC0CC91AF
:104AA000E091FA28F091FB2841E0BD0182E11995DF
:104AB00080ED8C0FCF9172CF80E0CF91089588E187
:104AC00080930106089580911B22823139F148F4C8
:104AD000803181F18131F1F0882391F110921B2214
:104AE0002FC08331F9F090EE980F9830B8F790917D
:104AF0001D2221E0290F911121C09091040693FFFE
:104B000015C098E090930606803241F3815080935F
:104B10001B2216C088E080930506E0CF88E08093D2
:104B20000706DCCF8091040683FD04C088E08093F3
:104B3000050606C088E080930606D0CF20931D228C
:104B400080911C22823131F140F4803181F1813138
:104B5000E9F0811110921C2208958331F9F090EE52
:104B6000980F9830B8F790911E2221E0290F9111EB
:104B700021C09091040694FF15C090E19093060621
:104B8000803241F3815080931C22089580E180930C
:104B90000506E0CF80E180930706DCCF8091040614
:104BA00084FD04C080E180930506089580E1809330
:104BB0000606D0CF20931E220895AC019B016BE026
:104BC00084EC99E097C0E4ECF1E228E132E2982F1E
:104BD0009071887091116287811161873C962E17C0
:104BE0003F07C1F7992329F090E1909306061092B0
:104BF0001C22882329F088E08093060610921B224D
:104C000008950F931F939B018A01803161F4E09115
:104C1000C521F091C62147816BE084EC99E028D052
:104C20001F910F9108958830D9F7E091C521F09137
:104C3000C6214681F1CF0F931F93CF93DF930F923D
:104C4000CDB7DEB7082FAB019E012F5F3F4F6BE062
:104C500084EC99E026D0182F882319F06981802FE1
:104C6000B2DF812F0F90DF91CF911F910F910895A7
:104C70000F931F93FC01742FC901A801611102C099
:104C800080E00AC024916150271309C0BF016F5F03
:104C90007F4F0E94ACA681E01F910F910895B196BD
:104CA000EDCFDF92EF92FF920F931F93CF93DF939D
:104CB000EC01162F042FD52E7901111102C080E0CE
:104CC0000FC0BE016F5F7F4F802F9D2D0E94A3A656
:104CD0001150892B69F4FE01C491F701C08381E072
:104CE000DF91CF911F910F91FF90EF90DF9008958A
:104CF000A196E3CFDA01A90101963CE2611104C05B
:104D0000452B09F01C920895FC012491211109C042
:104D1000623020F041155105B1F33D936150819609
:104D2000EDCF4115510579F32D933196415051093D
:104D3000ECCFCF93DF9300D000D0CDB7DEB780911A
:104D400020028068809320028091230280FFFCCFA4
:104D500081E080932302A0911002B0911102AE5B1A
:104D6000B109B7FF02C0B0E0A0E020E038EB4BE0B3
:104D700050E00E948BAD6B837C838D839E83AA273A
:104D8000BB27E091C521F091C621378126814D8155
:104D90005E81443F5140C8F4373019F480E180937C
:104DA0001C22273019F480E180931B228091772800
:104DB000882329F0E0916928F0916A2819952696B0
:104DC000CDBFDEBFDF91CF910895373019F431E1C7
:104DD00030931C22273019F421E120931B222091CB
:104DE0001F222111ECCF99838A83E091FA28F09158
:104DF000FB2842E0BE016F5F7F4F88E41995DFCF4B
:104E0000BC0187E090E20C942EA3CF93DF93EC01DA
:104E1000FE0164912196611103C0DF91CF91089545
:104E200087E090E20E9478A3F3CFAB01BC0187E05A
:104E300090E20C9452A380E2809362060895CF938F
:104E4000DF9380912022823031F587E090E20E944A
:104E5000E3A30E94549F87E090E20E94FEA3EC012E
:104E600097FD19C0E091C521F091C621878183305B
:104E700019F483E180931C228681833019F483E145
:104E800080931B228C2FA5D6811105C08C2FDF911A
:104E9000CF910C94E32FDF91CF9108958091202240
:104EA000823021F168F4811114C08091680685FF79
:104EB00009C08FE08093062081E08093202202C009
:104EC0008330E9F080912022823039F5D3D70C94D9
:104ED0008D30809106208150809306208111F2CF81
:104EE0000E94081B0E945BA282E0E7CF80916806C7
:104EF00085FDE8CF8FE08093062083E0DECF8091B0
:104F000006208150809306208111DCCF0E9420A2D0
:104F10000E94361B10922022D5CF0895E091C52122
:104F2000F091C6218781823019F481E180931C229F
:104F30008681823019F481E180931B220895E091EB
:104F4000C521F091C6218781823019F480E18093D8
:104F50001C228681823019F480E180931B220895FF
:104F600087E090E20C9409A387E090E20C944EA4B1
:104F700027E03DE03F932F9321E03DE03F932F93C7
:104F80002AEF3CE03F932F9328EE3CE03F932F9392
:104F90002AE03CE03F932F9322E02F931F929F93B0
:104FA0008F930E9431A78DB79EB70E968DBF9EBF7F
:104FB00085E6089560E072E00E949A1B85E60895F8
:104FC000CF93DF93EB0128812F3359F429812111ED
:104FD00008C060E072E00E94F31B85E6DF91CF918C
:104FE0000895CE010E94AB1B882399F00E94911D69
:104FF000CE010E94C21BE091C521F091C621CF01D4
:105000008F5F9F4F65818F5B91420E94D2AD84E696
:10501000E5CF8AECE3CFEF92FF920F931F93CF93EC
:10502000DF93CDB7DEB7A097CDBFDEBF8C018091F7
:105030007728E82EF12C81111CC082E09CE09F9320
:105040008F9382E08F931F921F930F930E9431A73B
:105050000F900F900F900F900F900F9085E6A096F5
:10506000CDBFDEBFDF91CF911F910F91FF90EF90E9
:105070000895E0917128F0917228CE01019619955A
:105080009701AE014F5F5F4F60E072E0C8010E9480
:10509000351CE4CFDF92EF92FF920F931F93CF93D3
:1050A000DF93CDB7DEB7A097CDBFDEBF7B01D09039
:1050B000772868EA70E2C7010E94A3A68E010F5FFD
:1050C0001F4F892B31F578018E2D801B8D15D8F05F
:1050D000E0917328F0917428C8011995E091FA289D
:1050E000F091FB2840917728B80183E1199584E677
:1050F000A096CDBFDEBFDF91CF911F910F91FF90A2
:10510000EF90DF9008950E941A1CF70181937F01B0
:10511000DBCFA70160E270E0C8010E94621CD816D4
:105120001906B1F28AECE4CFFC018091782888233B
:1051300029F081E38083118285E6089580E3FACF28
:10514000FB012181211127C02081213329F481E035
:105150008093782884E60895203319F410927828F3
:10516000F9CF2F33C1F41F9220E32F931F9221E335
:105170002F932CEF3BE03F932F9322E02F931F922E
:105180009F938F930E9431A78DB79EB70A968DBFCC
:105190009EBF85E608958AEC089583ED9DE1E7D4EE
:1051A0008EE6089584E59EE1FED48EE60895E0EC57
:1051B000F4E081818E7F81830E9420A20E94FC1AEC
:1051C00084E60895E0ECF4E081818E7F81830E9483
:1051D00020A20E94021B84E60895E1E6F8E22589F8
:1051E0002F9324892F9329EF3BE03F932F9322E0C5
:1051F0002F931F929F938F930E9431A78DB79EB7D5
:1052000008968DBF9EBF85E60895209177281F924E
:105210002F9326EF3BE03F932F9322E02F931F9293
:105220009F938F930E9431A78DB79EB708968DBF2D
:105230009EBF85E60895BC0140E052E080E00E94F8
:10524000F42085E60895FB0120812F3349F4218164
:10525000211106C060E072E00E94E02085E608951A
:10526000BF0180E00E940621882319F090DB84E6CC
:1052700008958AEC0895BC0140E052E081E00E946C
:10528000F42085E60895FB0120812F3349F4218124
:10529000211106C060E072E00E94E02085E60895DA
:1052A000BF0181E00E940621882319F070DB84E6AB
:1052B00008958AEC0895BC0140E052E082E00E942B
:1052C000F42085E60895FB0120812F3349F42181E4
:1052D000211106C060E072E00E94E02085E608959A
:1052E000BF0182E00E940621882319F050DB84E68A
:1052F00008958AEC0895BC0140E052E083E00E94EA
:10530000F42085E60895FB0120812F3349F42181A3
:10531000211106C060E072E00E94E02085E6089559
:10532000BF0183E00E940621882319F030DB84E668
:1053300008958AEC0895BC0140E052E080E161DC10
:1053400085E60895FB0120812F3341F4218121114D
:1053500005C060E072E031DC85E60895BF0180E1C0
:105360006ADC882319F013DB84E608958AEC08953B
:10537000BC0140E052E088E044DC85E60895FB0192
:1053800020812F3341F42181211105C060E072E0BA
:1053900014DC85E60895BF0188E04DDC882319F010
:1053A000F6DA84E608958AEC089560E072E046DA61
:1053B00085E60895FB0120812F3341F421812111DD
:1053C00005C060E072E04ADA85E60895CF011DDA93
:1053D000882319F0DCDA84E608958AEC0895CF93E7
:1053E000DF93EC010CD99C018038910510F420E882
:1053F00030E0205831093F932F939F938F9386ED90
:105400009BE09F938F9382E08F931F92DF93CF93C4
:105410000E9431A78DB79EB70A968DBF9EBF85E6C5
:10542000DF91CF9108958DE292E2BDD38EE608958B
:105430001BDA84E60895AAD884E6089560E072E055
:1054400020DB85E60895CB0123DB811102C08AECC5
:10545000089584E608950E94911D84E608950E94AF
:10546000AE1D84E608950E94891D84E608959091FA
:105470006806917089E7891B0895DF92EF92FF9289
:105480000F931F93CF93DF93EC010FEF11E08AE4AA
:10549000E82E8EE0F82E9CE2D92EB70180EC90E247
:1054A0000E94A3A6892B19F00115110509F5219772
:1054B000188285E6DF91CF911F910F91FF90EF90B9
:1054C000DF900895488331968901EC014491CE0123
:1054D0000196980121503109442319F0013011053A
:1054E00089F7D882890128E1E20EF11CEC01D5CFC1
:1054F000F701ECCFCF93DF9300D00F92CDB7DEB79B
:10550000FC01809120028068809320028091230218
:1055100080FFFCCF81E080932302A0911002B09124
:105520001102AE5BB109B7FF02C0B0E0A0E020E01D
:1055300038EB4BE050E00E948BAD69837A838B831C
:105540009C83AC01662777275F934F938FEC9BE09A
:105550009F938F9382E08F931F92FF93EF930E940C
:1055600031A7CDBFDEBF85E62496CDBFDEBFDF917C
:10557000CF9108952EB13FB1409108045091090494
:10558000242B352B3F932F9329EC3BE03F932F9314
:1055900022E02F931F929F938F930E9431A78DB784
:1055A0009EB708968DBF9EBF85E608950F931F9303
:1055B000CF93DF930F920F92CDB7DEB78B01E091BF
:1055C000C521F091C62185818D3009F077C0E09129
:1055D0006928F0916A28199581E080938E2460E211
:1055E00070E0C8010E94E9A69C01892BC1F5F80171
:1055F00001900020E9F73197E01BF10BE0FD5CC062
:10560000F695E795E130F10501F587E090E08093AC
:105610005F289093602860915F2870916028695F8F
:105620007F4F83E0769567958A95E1F7A8018FE52E
:1056300097E20E94621C0E94EF398FEF0F900F904B
:10564000DF91CF911F910F91089553E0EE0FFF1F4F
:105650005A95E1F7E0935F28F0936028DCCFC8010A
:1056600004962817390741F5A80162E070E0CE01E1
:1056700001960E94621C898190E0982F88272A81D8
:10568000820F911D80935F28909360280B5F1F4FBE
:10569000F80101900020E9F73197E01BF10BE0FDE4
:1056A0000BC0F695E79533E0EE0FFF1F3A95E1F753
:1056B000E817F90708F0AFCF8AECC0CF89ECBECF6E
:1056C000EF92FF920F931F93CF93DF930F920F925E
:1056D000CDB7DEB78B01E091C521F091C621858160
:1056E0008D3009F08CC0E0916928F0916A281995F5
:1056F00082E080938E2460E270E0C8010E94E9A6F7
:105700007C01892B09F041C0F80101900020E9F7E4
:105710003197E01BF10BE0FD70C0F695E795E130A5
:10572000F10511F587E090E080935F289093602861
:1057300060915F2870916028695F7F4F83E0769564
:1057400067958A95E1F7A8018FE597E20E94621CB0
:105750000E94EF398FEF0F900F90DF91CF911F9143
:105760000F91FF90EF90089553E0EE0FFF1F5A95B1
:10577000E1F7CF0169E070E00E9451ADE81BF90B41
:10578000E0935F28F0936028D3CFC8010496E81611
:10579000F90699F5A80162E070E0CE0101960E9439
:1057A000621C8981282F30E0322F22278A81820FC4
:1057B000932F911D80935F289093602887309105E7
:1057C00029F09C0127703327232BB9F487010F5F41
:1057D0001F4FF80101900020E9F73197E01BF10B12
:1057E000E0FD0BC0F695E79533E0EE0FFF1F3A950D
:1057F000E1F7E817F90708F09BCF8AECACCF89EC0A
:10580000AACFE091C521F091C62185818D30A1F408
:10581000E0916928F0916A28199585E080938E249B
:105820000E94CA590E94EF3984ED99E580932F2494
:10583000909330248FEF089589EC0895E091C5216D
:10584000F091C62185818D30A1F4E0916928F09115
:105850006A28199583E080938E240E94CA590E9479
:10586000EF3984ED99E580932F24909330248FEFC6
:10587000089589EC0895E091C521F091C6218581B4
:105880008D30A1F4E0916928F0916A28199586E09D
:1058900080938E240E94CA590E94EF3984ED99E5C5
:1058A00080932F24909330248FEF089589EC0895EE
:1058B000E091C521F091C6214085518564E6649F41
:1058C0009001659F300D11243F932F9323EC3BE013
:1058D0003F932F9322E02F931F929F938F930E94C9
:1058E00031A78DB79EB708968DBF9EBF85E60895F8
:1058F000CF93DF930F920F92CDB7DEB7FB012081DC
:105900002F33D1F42181211117C021E93BE03F93CE
:105910002F9322E02F931F929F938F930E9431A782
:105920000F900F900F900F900F900F9085E60F90B3
:105930000F90DF91CF91089589E592E089839A8352
:10594000CE0101969F938F938DE89BE09F938F9359
:10595000FF93EF930E9467A70F900F900F900F9007
:105960000F900F90892BA9F069817A81693582E0C7
:10597000780778F4E091C521F091C621608771879E
:10598000CF018F5F9F4F8C5B91420E94DBAD84E61D
:10599000CECF8AECCCCFE091C521F091C6212385F2
:1059A0002F9322852F932AE83BE03F932F9322E009
:1059B0002F931F929F938F930E9431A78DB79EB70D
:1059C00008968DBF9EBF85E60895CF93DF930F9213
:1059D0000F92CDB7DEB7FB0120812F33D1F42181A7
:1059E000211117C02FE02F932FEF2F9329E33BE0D6
:1059F0003F932F9322E02F931F929F938F930E94A8
:105A000031A7CDBFDEBF85E60F900F90DF91CF911C
:105A1000089519821A82CE0101969F938F9385E390
:105A20009BE09F938F93FF93EF930E9467A70F9044
:105A30000F900F900F900F900F90892BC9F06981F4
:105A40007A81611590E1790798F460933803709337
:105A50003903E091C521F091C62162877387CF0198
:105A60008F5F9F4F8A5B91420E94DBAD84E6CCCF73
:105A70008AECCACFFB0120812F33D9F42181211177
:105A800021C01F9220E32F931F9221E32F932FE237
:105A90003BE03F932F9322E02F931F929F938F938E
:105AA0000E9431A78DB79EB70A968DBF9EBF85E62F
:105AB0000895213319F4F1D384E60895203311F4C5
:105AC00011D4FACF8AEC0895FC018091000881304E
:105AD00021F480918C08833029F080E38083118247
