:100000000C94FB170C9420180C9420180C942018B6
:100010000C9420180C9420180C9420180C94201880
:100020000C9420180C9420180C94C8190C942018C7
:100030000C9420180C9420180C9420180C94201860
:100040000C9420180C9420180C9420180C94201850
:100050000C9420180C9420180C9420180C94201840
:100060000C9420180C9420180C9420180C94201830
:100070000C9420180C9420180C9420180C94201820
:100080000C9420180C9420180C9428310C9474397A
:100090000C9420180C9420180C9420180C94201800
:1000A0000C9420180C9420180C9420180C942018F0
:1000B0000C9420180C9420180C9420180C94F631F1
:1000C0000C9420180C9471350C94DF3A0C94201881
:1000D0000C9420180C9420180C9420180C942018C0
:1000E0000C9420180C9420180C9420180C942018B0
:1000F0000C9420180C9420180C9420180C942018A0
:100100000C9420180C9420180C9420180C9420188F
:100110000C94BA3A0C944E350C9420180C94201878
:100120000C9420180C9420180C9420180C9420186F
:100130000C9420180C9420180C9420180C945E3108
:100140000C9421180C946D340C949E390C94201846
:100150000C9420180C94C7340C94AC3B0C942018CD
:100160000C9420180C9420180C9420180C9420182F
:100170000C9420180C9420180C9420180C9420181F
:100180000C9420180C9420180C9420180C9420180F
:100190000C9420180C9420180C9420180C942018FF
:1001A0000C9420180C9420180C9420180C942018EF
:1001B0000C9420180C9420180C9420180C942018DF
:1001C0000C9420180C9420180C9420180C942018CF
:1001D0000C9420180C9420180C9420180C942018BF
:1001E0000C9420180C9420180C9420180C942018AF
:1001F0000C9420180C94E2A50C9420186364696E8A
:100200006F70737578585B003403430068006100B9
:100210006D0065006C0065006F006E002D004D00E4
:1002200069006E0069002D0044004500530046003F
:100230006900720065004D006F0064000000380323
:100240004B00610073007000650072002000260002
:1002500020004F007300770061006C0064002000F4
:1002600047006D0062004800200028005200650031
:1002700076004700290000000403090409023E003B
:10028000020100C03209040000010202010005243D
:10029000001001042402060524060001070582035C
:1002A0000800FF09040100020A000000070504021B
:1002B000100005070583021000051201100102005D
:1002C0000008D016B20401000102DC01701A7B1A8A
:1002D0007A1A791A781A771A761A711A741A751A9C
:1002E00000000001B43228334733563E723E763E5A
:1002F000761A773EC541D84140000700B432283312
:1003000047336A3E723E763E761A773EC541D84103
:1003100050000700B432283347336E3E723E763EBB
:10032000761A773EC541D841A4000700B43228337D
:100330004733184254425842761A5942624980491A
:1003400000040400B4322833473327425442584251
:10035000761A59426249804900040700B4322833B2
:100360004733364254425842761A594262498049CC
:1003700000100400B43228334733454254425842F7
:10038000761A59426249804900100700B432283376
:100390004733D06B676A736A6B6A5B6BFD6BFF6B8D
:1003A00000100700B43228334733E56B676A736A7D
:1003B0006B6A5B6BFD6BFF6B00080700B432283380
:1003C0004733ED6B676A736A6B6A5B6BFD6BFF6B40
:1003D00000100700B43228334733F56B676A736A3D
:1003E0006B6A5B6BFD6BFF6B00200700643C1D3D7F
:1003F0003E3DE960F760FC60FD60FF60741A751AAD
:1004000000000001D9335B340C3633593659435957
:100410004459055C741A751A00000000004E4F4ED6
:100420004500000000000000000000000000000087
:1004300000000000000000000000000000014D4628
:100440005F554C5452414C4947485400000000004D
:100450000000000000000000000000000000024D4D
:10046000465F554C5452414C494748545F455631BC
:100470005F38304200000000000000000000000370
:100480004D465F554C5452414C494748545F455680
:10049000315F3136344200000000000000000000EF
:1004A000044D465F434C41535349435F314B000079
:1004B000000000000000000000000000000000003C
:1004C00000054D465F434C41535349435F314B5FF9
:1004D00037420000000000000000000000000000A3
:1004E0000000064D465F434C41535349435F344B34
:1004F00000000000000000000000000000000000FC
:10050000000000074D465F434C41535349435F345D
:100510004B5F3742000000000000000000000000B8
:1005200000000000084D465F4445534649524500CF
:1005300000000000000000000000000000000000BB
:100540000000000000094D465F44455346495245AE
:100550005F4556315F324B00000000000000000094
:100560000000000000000A4D465F444553464952D2
:10057000455F4556315F344B00000000000000002D
:10058000000000000000000B4D465F444553464903
:1005900052455F4556315F384B00000000000000B7
:1005A00000000000000000000C49534F3134343487
:1005B00033415F534E4946460000000000000000F2
:1005C0000000000000000000000D49534F3134349A
:1005D0003433415F52454144455200000000000061
:1005E0000000000000000000000001000001000108
:1005F00001000001010001000001000101000100F3
:1006000000010100000100010100000101000100E2
:1006100000010100000100010100010000010001D2
:1006200001000001010001000001000101000100C2
:1006300000010100000100010100010000010001B2
:1006400001000001010001000001010000010001A2
:100650000100000101000100000100010100010092
:100660000001010000010001010000010100010082
:100670000001010000010001010001000001000172
:100680000100000101000100000101000001000162
:100690000100000101000100000100010100010052
:1006A0000001010000010001010001000001000142
:1006B0000100000101000100000100010100010032
:1006C0000001010000010001010000010100010022
:1006D0000001010000010001010001000001000112
:1006E00001000001010001000001008040C020A0C5
:1006F00060E0109050D030B070F0088848C828A84A
:1007000068E8189858D838B878F8048444C424A401
:1007100064E4149454D434B474F40C8C4CCC2CACE9
:100720006CEC1C9C5CDC3CBC7CFC028242C222A2C5
:1007300062E2129252D232B272F20A8A4ACA2AAAE9
:100740006AEA1A9A5ADA3ABA7AFA068646C626A6A1
:1007500066E6169656D636B676F60E8E4ECE2EAE89
:100760006EEE1E9E5EDE3EBE7EFE018141C121A177
:1007700061E1119151D131B171F1098949C929A9B9
:1007800069E9199959D939B979F9058545C525A571
:1007900065E5159555D535B575F50D8D4DCD2DAD59
:1007A0006DED1D9D5DDD3DBD7DFD038343C323A335
:1007B00063E3139353D333B373F30B8B4BCB2BAB59
:1007C0006BEB1B9B5BDB3BBB7BFB078747C727A711
:1007D00067E7179757D737B777F70F8F4FCF2FAFF9
:1007E0006FEF1F9F5FDF3FBF7FFF44465F50505258
:1007F000494E545F504943432046756C6C496D61C6
:10080000676500434C4F4E4500004E4F4E4500007B
:1008100000000000000000000000000000000000D8
:1008200000000000000000000000015549445F5234
:10083000414E444F4D000000000000000000000049
:100840000000000000000000000000025549445F65
:100850004C4546545F494E4352454D454E54000069
:1008600000000000000000000000000003554944A3
:100870005F52494748545F494E4352454D454E5497
:1008800000000000000000000000000000045549C6
:10089000445F4C4546545F44454352454D454E5494
:1008A00000000000000000000000000000000555EE
:1008B00049445F52494748545F44454352454D457A
:1008C0004E54000000000000000000000000000680
:1008D0004359434C455F53455454494E47530000D8
:1008E0000000000000000000000000000000000008
:1008F0000753544F52455F4D454D00000000000026
:1009000000000000000000000000000000000000E7
:100910000008524543414C4C5F4D454D00000000DE
:1009200000000000000000000000000000000000C7
:10093000000009544F47474C455F4649454C440029
:1009400000000000000000000000000000000000A7
:100950000000000A53544F52455F4C4F47000000BF
:100960000000000000000000000000000000000087
:10097000000000000B434C4F4E45000000000000FB
:100980000000000000000000000000000000000067
:1009900000000000000C5052494E545F5354415423
:1009A0004500000000000000000000000000000002
:1009B000000000000000004F46460000000000005C
:1009C0000000000000000000000000000000000027
:1009D00000000000000000014D454D4F525900003D
:1009E0000000000000000000000000000000000007
:1009F0000000000000000000024C495645000000C5
:100A000000000000000000000000000000000000E6
:100A1000000000000000000000004E4F4E450000A6
:100A200000000000000000000000000000000000C6
:100A30000000000000000000000001504F57455228
:100A4000454400000000000000000000000000001D
:100A50000000000000000000000000025445524D5C
:100A6000494E414C5F434F4E4E00000000000000D5
:100A70000000000000000000000000000354455288
:100A80004D494E414C5F5258545800000000000040
:100A900000000000000000000000000000045345BA
:100AA0005454494E475F4348414E474500000000BB
:100AB0000000000000000000000000000000054DE4
:100AC000454D4F52595F53544F524544000000006A
:100AD0000000000000000000000000000000000610
:100AE0004D454D4F52595F4348414E4745440000E4
:100AF00000000000000000000000000000000000F6
:100B000008434F4445435F52580000000000000076
:100B100000000000000000000000000000000000D5
:100B20000009434F4445435F545800000000000053
:100B300000000000000000000000000000000000B5
:100B40000000074649454C445F44455445435445DD
:100B50004400000000000000000000000000000051
:100B60000000000A4C4F474D454D5F46554C4C0028
:100B70000000000000000000000000000000000075
:100B80000000000025632C25630025356400416EBC
:100B90007920696E74656765722066726F6D2030AA
:100BA00020746F2025752E205265666572656E6310
:100BB0006520766F6C746167652077696C6C206264
:100BC000652028564343202A205448524553484F15
:100BD0004C44202F203430393529206D562E0025E5
:100BE00075002535640030203D206E6F2074696DDE
:100BF000656F75740D0A312D363030203D2031304F
:100C000030206D73202D203630303030206D732031
:100C100074696D656F7574002575206D73002534DA
:100C20002E345800253575206D5600257520286610
:100C3000726F6D207768696368202575206E6F6E0E
:100C40002D766F6C6174696C6529002575002575BA
:100C50000025632C2563004E4F205549442E004348
:100C600068616D656C656F6E4D696E692052657661
:100C7000472077697468204445534669726520733C
:100C80007461636B20737570706F727420255320CC
:100C90007573696E67204C55464120255320636F5C
:100CA0006D70696C65642077697468204156522DB7
:100CB0004743432025532E20536F75726365733A63
:100CC0002068747470733A2F2F6769746875622E88
:100CD000636F6D2F6D6178696564732F4368616D13
:100CE000656C656F6E4D696E694669726D7761728C
:100CF0006544455346697265537461636B0A4C6F72
:100D0000676765723A202068747470733A2F2F6792
:100D100069746875622E636F6D2F6D6178696564A3
:100D2000732F4368616D656C656F6E4D696E694CBC
:100D300069766544656275676765722E003230308A
:100D40003932320031353131313500392E332E30E0
:100D50000032666534333534000D0A000D0A000D8B
:100D60000A000D0A000D0A000D0A00643130303A05
:100D70004F4B0000000000000000000000000000D9
:100D8000000000000000000000000000653130316C
:100D90003A4F4B20574954482054455854000000BE
:100DA000000000000000000000000000006E313173
:100DB000303A57414954494E4720464F5220584DEA
:100DC0004F44454D00000000000000000000C83204
:100DD00030303A554E4B4E4F574E20434F4D4D41BC
:100DE0004E4400000000000000000000000000C9A8
:100DF0003230313A494E56414C494420434F4D4DD3
:100E0000414E44205553414745000000000000007A
:100E1000CA3230323A494E56414C49442050415230
:100E2000414D455445520000000000000000000004
:100E300000783132303A46414C5345000000000002
:100E400000000000000000000000000000000000A2
:100E50000000793132313A5452554500000000000B
:100E60000000000000000000000000000000000082
:100E7000000000CB3230333A54494D454F555400B1
:100E80000000000000000000000000000000000062
:100E90000000000056455253494F4E00000000002C
:100EA00000000000000000000000CA26434F4E462C
:100EB00049470000000000000000000000000000A2
:100EC000F226EC2655494400000000000000000016
:100ED00000000000000000005C271D27524541442F
:100EE0004F4E4C59000000000000000000000000C0
:100EF000B227A62755504C4F414400000000000087
:100F000000000000DF27000000000000444F574EA3
:100F10004C4F41440000000000000000E4270000A6
:100F2000000000005245534554000000000000003E
:100F300000000000E9270000000000005550475263
:100F4000414445000000000000000000F4270000BC
:100F5000000000004D454D53495A45000000000077
:100F600000000000000000000000FF275549445326
:100F7000495A450000000000000000000000000089
:100F80000000172852425554544F4E0000000000F4
:100F9000000000000000000035282D285242555462
:100FA000544F4E5F4C4F4E470000000000000000C1
:100FB00055284D284C425554544F4E000000000017
:100FC000000000000000000075286D284C425554B8
:100FD000544F4E5F4C4F4E47000000000000000091
:100FE00095288D284C4544475245454E0000000049
:100FF0000000000000000000B428AD284C45445219
:101000004544000000000000000000000000000057
:10101000D128CA284C4F474D4F44450000000000DE
:101020000000000000000000EC28E7284C4F474D6E
:10103000454D00000000000000000000000000001E
:10104000000001294C4F47444F574E4C4F4144003C
:101050000000000025290000000000004C4F47530D
:10106000544F524500000000000000002A290000F3
:10107000000000004C4F47434C4541520000000027
:10108000000000002D2900000000000053455454CA
:10109000494E470000000000000000000000000072
:1010A00035293029434C4541520000000000000022
:1010B000000000003D2900000000000053544F5282
:1010C0004500000000000000000000004129000071
:1010D00000000000524543414C4C0000000000005D
:1010E0000000000045290000000000004348415274
:1010F00047494E47000000000000000000000000CB
:101100000000492948454C50000000000000000044
:10111000000000004F290000000000005253534916
:1011200000000000000000000000000000000000BF
:1011300000008C295359535449434B0000000000D0
:1011400000000000000000000000CC2953454E4480
:101150005F52415700000000000000000000722AAA
:101160000000000053454E44000000000000000055
:10117000000000000000E829000000004745545529
:10118000494400000000000000000000302B000077
:101190000000000044554D505F4D465500000000D2
:1011A00000000000132B0000000000004944454EE1
:1011B0005449465900000000000000004D2B00007B
:1011C0000000000054494D454F55540000000000F8
:1011D00000000000000000008A2B6A2B5448524592
:1011E00053484F4C44000000000000000000000085
:1011F000F72BDD2B4155544F43414C49425241544A
:1012000045000000862C0000000000004649454CC7
:10121000440000000000000000000000000000008A
:101220004C2C762C434C4F4E450000000000000033
:1012300000000000B22C00000000000044465F5394
:101240004554484452000000000000000000000027
:1012500075755F7544465F505052494E545F504912
:10126000434300000000FF750000000044465F4655
:1012700057494E464F000000000000006C76000009
:101280000000000044465F4C4F474D4F444500006E
:101290000000000000000000E9768A7644465F54B2
:1012A0004553544D4F44450000000000000000002D
:1012B00077776F770000000000000000000000005A
:1012C000000000000000000000000000000800080E
:1012D00000000000000000080008080808080800D6
:1012E00008000800000008080008080800800080C6
:1012F000000000000000008000808080808080006E
:10130000800080000000808000808080000100015B
:1013100000000000000000010001010101010100C6
:1013200001000100000001010001010100000000B6
:1013300000000000000000000000000001010101A9
:10134000010101010101010101010101010101018D
:10135000010101010101010101010101010101017D
:101360000101010101010101010101010000000071
:10137000000000000000000000000000000000006D
:10138000000000000000000000000000000000005D
:101390000000000000000000000000000101010149
:1013A0000101010101010101010101010000000031
:1013B000000000000000000000000000000000002D
:1013C0000000000000000000000000000101010119
:1013D0000101010101010101010101010000000001
:1013E00000000000000000000000000001010101F9
:1013F00001010101010101010101010101010101DD
:1014000001010101010101010101010100000000D0
:1014100000000000000000000000000001010101C8
:1014200001010101010101010101010100000002AE
:10143000020000020002020202000002000000029C
:10144000020000020002020202000002000000028C
:10145000020000020002020202000002040404066C
:10146000060404060406060606040406040404062C
:10147000060404060406060606040406000000022C
:10148000020000020002020202000002000000024C
:10149000020000020002020202000002040404062C
:1014A00006040406040606060604040600000002FC
:1014B000020000020002020202000002040404060C
:1014C00006040406040606060604040604040406CC
:1014D00006040406040606060604040604040406BC
:1014E00006040406040606060604040604040406AC
:1014F00006040406040606060604040600000002AC
:1015000002000002000202020200000200000002CB
:1015100002000002000202020200000204040406AB
:101520000604040604060606060404060008080865
:10153000000000080000080008080008000808086B
:10154000000000080000080008080008000808085B
:10155000000000080000080008080008101818180B
:10156000101010181010181018181018101818183B
:10157000101010181010181018181018000808086B
:10158000000000080000080008080008000808081B
:1015900000000008000008000808000810181818CB
:1015A000101010181010181018181018000808083B
:1015B00000000008000008000808000810181818AB
:1015C00010101018101018101818101810181818DB
:1015D00010101018101018101818101810181818CB
:1015E00010101018101018101818101810181818BB
:1015F00010101018101018101818101800080808EB
:10160000000000080000080008080008000808089A
:10161000000000080000080008080008101818184A
:1016200010101018101018101818101853414B3AB9
:1016300009005549443A0900415451413A090054BE
:1016400068657265206973206174206C65617374CC
:10165000206F6E65206D6F72652063617264207407
:101660007970652063616E6469646174652C2062C1
:10167000757420746865726520776173206E6F746D
:1016800020656E6F756768207465726D696E616C38
:10169000206275666665722073706163652E0D0A3F
:1016A000000D0A0004000109010000000000000014
:1016B00000000000000000000000004E5850000034
:1016C00000000000000000000000004D49464152AB
:1016D00045204D696E690000000000000000000018
:1016E00000000000000000000000000000000000FA
:1016F00000000000000000000000000000000000EA
:1017000000000000000000000000000400010801CB
:1017100000000000000000000000000000000000C9
:1017200000004E58500000000000000000000000C3
:1017300000004D494641524520436C617373696313
:1017400020316B00000000000000000000000000DD
:101750000000000000000000000000000000000089
:101760000000000000000000000000000000000079
:10177000000002000118010000000000000000004D
:101780000000000000000000004E58500000000063
:101790000000000000000000004D49464152452075
:1017A000436C617373696320346B000000000000B8
:1017B0000000000000000000000000000000000029
:1017C0000000000000000000000000000000000019
:1017D00000000000000000000044000100010000C3
:1017E00000000000000000000000000000000000F9
:1017F0004E585000000000000000000000000000F3
:101800004D494641524520556C7472616C69676858
:101810007400000000000000000000000000000054
:1018200000000000000000000000000000000000B8
:1018300000000000000000000000000000000000A8
:101840004400010001000000000000000000000052
:10185000000000000000004E585000000000000092
:10186000000000000000004D494641524520556CE3
:101870007472616C696768742043000000000000A6
:101880000000000000000000000000000000000058
:101890000000000000000000000000000000000048
:1018A00000000000000000440001000000000000F3
:1018B00000000000000000000000000000004E5882
:1018C00050000000000000000000000000004D4932
:1018D0004641524520556C7472616C69676874208A
:1018E000455631000000000000000000000000002C
:1018F00000000000000000000000000000000000E8
:101900000000000000000000000000000000440390
:1019100001200175778102800000000000000000B6
:1019200000000005004E58500000000000000000BC
:1019300000000000004D49464152452044455346B1
:101940006972650000000000000000000000000057
:101950000000000000000000000000000000000087
:101960000000000000000000000000000000000077
:10197000000000000044030120017577810280000F
:101980000000000000000000000005004E5850005C
:101990000000000000000000000000004D4946412A
:1019A0005245204445534669726520455631000032
:1019B0000000000000000000000000000000000027
:1019C0000000000000000000000000000000000017
:1019D00000000000000000000000000004030128D7
:1019E000013877B14A434F50333100000000000006
:1019F00000090149424D0000000000000000000005
:101A00000000004A434F5033310000000000000046
:101A100000000000000000000000000000000000C6
:101A200000000000000000000000000000000000B6
:101A300000000000000000000000000000000000A6
:101A400000000048000120017877B1024A434F505E
:101A500076323431000000000C0149424D00000094
:101A6000000000000000000000004A434F503331E6
:101A70002076322E342E31000000000000000000DD
:101A80000000000000000000000000000000000056
:101A90000000000000000000000000000000000046
:101AA0000000000000000000000048000120013894
:101AB00033B14A434F503431563232000000000CEB
:101AC0000149424D0000000000000000000000003D
:101AD000004A434F5034312076322E32000000004D
:101AE00000000000000000000000000000000000F6
:101AF00000000000000000000000000000000000E6
:101B000000000000000000000000000000000000D5
:101B10000004000128013833B14A434F5034315694
:101B20003233310000000D0149424D000000000039
:101B300000000000000000004A434F50343120767E
:101B4000322E332E310000000000000000000000A3
:101B50000000000000000000000000000000000085
:101B60000000000000000000000000000000000075
:101B700000000000000000000400018801000000D7
:101B8000000000000000000000000000000000490C
:101B90006E66696E656F6E00000000000000004D0B
:101BA000494641524520436C617373696320316B30
:101BB0000000000000000000000000000000000025
:101BC0000000000000000000000000000000000015
:101BD0000000000000000000000000000000000203
:101BE000000198010000000000000000000000005B
:101BF00000000000000047656D706C757300000008
:101C00000000000000004D50434F53000000000052
:101C100000000000000000000000000000000000C4
:101C200000000000000000000000000000000000B4
:101C300000000000000000000000000000000000A4
:101C4000000000000000000C010000000000000087
:101C500000000000000000000000000000496E6E5F
:101C60006F766973696F6E2052265400004A65775B
:101C7000656C000000000000000000000000000093
:101C80000000000000000000000000000000000054
:101C90000000000000000000000000000000000044
:101CA0000000000000000000000000000002000131
:101CB00038010000000000000000000000000000EB
:101CC000000000004E6F6B69610000000000000022
:101CD000000000004D494641524520436C6173733A
:101CE000696320346B202D20656D756C61746564AB
:101CF00020283632313220436C61737369632900C6
:101D000000000000000000000000000000000000D3
:101D10000000000008000138010000000000000081
:101D200000000000000000000000004E6F6B6961C1
:101D300000000000000000000000004D4946415234
:101D40004520436C617373696320346B202D2065DB
:101D50006D756C61746564202836313331204E46D0
:101D60004329000000000000000000000000000007
:101D70000000000000000000000000E4D12FB83A8D
:101D80006C59070F74E2D1A6CB953841E8D62BFCED
:101D9000973A50FC8249175B3EA06DF18E6B3497E9
:101DA0002DC05A3D47F28EC01A69B50E7BA4D1589A
:101DB000C6932FD8A13F42B67C05E9A09E63F51DCE
:101DC000C7B428D709346A285ECBF1D6498F30B121
:101DD0002C5AE71AD069874FE3B52C7DE3069A1297
:101DE00085BC4FD8B56F03472C1AE9A690CB7DF17F
:101DF0003E52843F06A1D8945BC72E2C417AB6850B
:101E00003FD0E9EB2C47D150FA3986421BAD78F927
:101E1000C5630EB8C71E2D6F09A453C1AF92680DDC
:101E200034E75BAF427C9561DE0B389EF528C370CA
:101E30004A1DB6432C95FABE17608D4B2EF08D3C93
:101E4000975A61D0B7491AE35C2F8614BDC37EAFA1
:101E50006805926BD814A7950FE23CD2846FB1A9A4
:101E60003E50C71FD8A374C56B0E927B419CE206FF
:101E7000ADF35821E74A8DFC90356B000102040850
:101E8000102040801B3652096AD53036A538BF4035
:101E9000A39E81F3D7FB7CE339829B2FFF87348E8F
:101EA0004344C4DEE9CB547B9432A6C2233DEE4CBE
:101EB000950B42FAC34E082EA16628D924B2765B50
:101EC000A2496D8BD12572F8F66486689816D4A461
:101ED0005CCC5D65B6926C704850FDEDB9DA5E156C
:101EE0004657A78D9D8490D8AB008CBCD30AF7E4ED
:101EF0005805B8B34506D02C1E8FCA3F0F02C1AF9C
:101F0000BD0301138A6B3A9111414F67DCEA97F2E6
:101F1000CFCEF0B4E67396AC7422E7AD3585E2F926
:101F200037E81C75DF6E47F11A711D29C5896FB737
:101F3000620EAA18BE1BFC563E4BC6D279209ADB15
:101F4000C0FE78CD5AF41FDDA8338807C731B1121F
:101F500010592780EC5F60517FA919B54A0D2DE516
:101F60007A9F93C99CEFA0E03B4DAE2AF5B0C8EB39
:101F7000BB3C83539961172B047EBA77D626E1695F
:101F8000146355210C7D637C777BF26B6FC5300148
:101F9000672BFED7AB76CA82C97DFA5947F0ADD41C
:101FA000A2AF9CA472C0B7FD9326363FF7CC34A5F0
:101FB000E5F171D8311504C723C31896059A0712A5
:101FC00080E2EB27B27509832C1A1B6E5AA0523B94
:101FD000D6B329E32F8453D100ED20FCB15B6ACB4B
:101FE000BE394A4C58CFD0EFAAFB434D338545F953
:101FF000027F503C9FA851A3408F929D38F5BCB6FC
:10200000DA2110FFF3D2CD0C13EC5F974417C4A76D
:102010007E3D645D197360814FDC222A908846EE14
:10202000B814DE5E0BDBE0323A0A4906245CC2D308
:10203000AC629195E479E7C8376D8DD54EA96C56A1
:10204000F4EA657AAE08BA78252E1CA6B4C6E8DD97
:10205000741F4BBD8B8A703EB5664803F60E613522
:1020600057B986C11D9EE1F8981169D98E949B1EBF
:1020700087E9CE5528DF8CA1890DBFE642684199DA
:102080002D0FB054BB162573204020256400257306
:1020900020402025640025732040202564002573FE
:1020A00020402025640025732040202564002573EE
:1020B00020402025640025732040202564002573DE
:1020C00020402025640025732040202564002573CE
:1020D00020402025640025732040202564002573BE
:1020E00020402025640025732040202564002573AE
:1020F000204020256400257320402025640025739E
:10210000204020256400257320402025640025738D
:10211000204020256400257320402025640025737D
:1021200020402025640025732040202564004F4670
:10213000460046414C53450030004F4E0054525526
:102140004500310025313573002573203C4F4E7C0E
:102150004F46467C564552424F53457C4445425576
:102160004747494E473E00444542554747494E4739
:1021700000564552424F5345004F46460046414C9B
:1021800053450030004F4E00545255450031002554
:102190003135730025730025730025730025730006
:1021A0004368616D656C656F6E2D4D696E69204485
:1021B00045534669726520656E61626C6564206690
:1021C00069726D77617265206275696C74206F6EDB
:1021D000202573206261736564206F6E2025732053
:1021E00066726F6D200D0A68747470733A2F2F67D2
:1021F00069746875622E636F6D2F6D6178696564AF
:10220000732F4368616D656C656F6E4D696E6946CD
:1022100069726D776172654445534669726553749E
:1022200061636B2E6769742E0D0A52657669736956
:102230006F6E3A2025730D0A002573203C46756C9D
:102240006C496D6167657C48656164657244617461
:10225000617C4C697374446972733E004C69737499
:102260004469727300486561646572446174610019
:1022700046756C6C496D616765002533317300509C
:10228000726F64756374696F6E4461746500426156
:102290007463684E756D62657200536F6674776122
:1022A000726556657273696F6E004861726477611A
:1022B000726556657273696F6E002532347320251E
:1022C000313273002573203C486172647761726516
:1022D00056657273696F6E2D327C536F66747761C9
:1022E000726556657273696F6E2D327C42617463DC
:1022F000684E756D6265722D357C50726F647563C2
:1023000074696F6E446174652D323E203C48657877
:1023100042797465732D4E3E0050544558542D44F7
:10232000454641554C540043544558542D4145535E
:102330003132382D434D41430043544558542D44C8
:1023400045530050544558542D4D41430044455386
:102350000041455331323800334B3344455300324A
:102360004B54444541004348470052572F00572FD4
:1023700000522F0025732040202564002573204043
:1023800020256400257320402025640049534F31E7
:10239000343434332D343A20554E4B2D434D4420A4
:1023A0004E4F5F524553500049534F31343434330C
:1023B0002D333A20524553455420544F2049444C24
:1023C000450049534F31343434332D343A2041439E
:1023D00054495645205245540049534F3134343402
:1023E000332D333A20476F742048414C54005244F7
:1023F00059322C204E4F5420534C435420434D44CB
:1024000000496E636F72726563742053656C656317
:10241000742076616C7565202852322900494E542B
:102420004F20414354495645210049534F313434DC
:1024300034332D343A20524459312C204E4F5420FD
:10244000534C435420434D440049534F31343434AA
:10245000332D343A2053656C656374204E414B0034
:1024600049534F31343434332D343A2053656C653D
:102470006374204F4B0049534F31343434332D347F
:10248000202849444C45293A2041545141004953A0
:102490004F31343434332D343A2049444C45202FC5
:1024A000204E4F5420575550410049534F3134343A
:1024B00034332D343A2048414C54202F204E4F5471
:1024C00020575550410049534F31343434332D3364
:1024D0003A2048414C54494E4700203D3E2000558B
:1024E0004E4B4E4F574E5F53544154450049534F46
:1024F00031343434335F345F53544154455F414386
:10250000544956450049534F31343434335F345FB6
:1025100053544154455F4558504543545F524154CC
:10252000530049534F31343434335F33415F535494
:102530004154455F48414C540049534F3134343481
:10254000335F33415F53544154455F4143544956CF
:10255000450049534F31343434335F33415F535472
:102560004154455F5245414459320049534F31343B
:102570003434335F33415F53544154455F524541D6
:102580004459310049534F31343434335F33415F60
:1025900053544154455F49444C450049534F3134ED
:1025A0003434332D343A205354415348494E472054
:1025B000464F522052452D5452414E530049534FDD
:1025C00031343434332D343A205043425F535F4228
:1025D0004C4B204E4F5F524553500049534F3134BE
:1025E0003434332D343A20532D424C4B00203D3EA1
:1025F0002000554E4B4E4F574E5F535441544500AB
:1026000049534F31343434335F345F53544154456C
:102610005F4143544956450049534F3134343433B4
:102620005F345F53544154455F4558504543545FB0
:10263000524154530049534F31343434335F3341A2
:102640005F53544154455F48414C540049534F3106
:10265000343434335F33415F53544154455F414315
:10266000544956450049534F31343434335F334174
:102670005F53544154455F524541445932004953D8
:102680004F31343434335F33415F53544154455FE9
:102690005245414459310049534F31343434335F4A
:1026A00033415F53544154455F49444C45004953BD
:1026B0004F31343434333450726F63657373426C0A
:1026C0006F636B3A2049534F31343434335F504396
:1026D000425F525F424C4F434B202D2D202564001A
:1026E00049534F31343434332D343A20522D424C37
:1026F0004B0049534F31343434333450726F636577
:102700007373426C6F636B3A2049534F31343434E6
:10271000335F5043425F525F424C4F434B202D2D5D
:102720002025640049534F31343434332D343A205A
:10273000492D424C4B0049534F31343434332D34FE
:102740003A204150505F4E4F5F524553500049531D
:102750004F31343434333450726F63657373426C69
:102760006F636B3A2049534F31343434335F5043F5
:10277000425F495F424C4F434B202D2D2025640082
:1027800049534F31343434333450726F636573734B
:10279000426C6F636B3A2049534F31343434335FAA
:1027A0005043425F495F424C4F434B202D2D202523
:1027B000640049534F31343434332D343A204E457C
:1027C0005720434152442049440049534F31343447
:1027D00034332D343A2053454E4420524154530053
:1027E00049534F31343434332D343A204E4F542032
:1027F000524154530049534F31343434332D343A19
:1028000020435243206661696C3B202530345820B8
:10281000767320253034580049534F3134343433E3
:102820002D343A206C656E677468206661696C00AF
:10283000203D3E2000554E4B4E4F574E5F53544166
:1028400054450049534F31343434335F345F53546B
:102850004154455F4143544956450049534F313433
:102860003434335F345F53544154455F45585045C9
:1028700043545F524154530049534F31343434333D
:102880005F33415F53544154455F48414C540049C4
:10289000534F31343434335F33415F5354415445E3
:1028A0005F4143544956450049534F313434343322
:1028B0005F33415F53544154455F5245414459325F
:1028C0000049534F31343434335F33415F53544103
:1028D00054455F5245414459310049534F313434D6
:1028E00034335F33415F53544154455F49444C4551
:1028F000004040204C494E452023256420696E202D
:102900002A25732040400025732040202564005272
:102910006561644461746146696C65536574757082
:10292000202D2D204552524F522100496E76616C68
:1029300069642066696C652074797065203D202586
:102940006440256400496E76616C69642066696C38
:102950006520696E646578203D202564202F202540
:1029600064203B20666F722046696C654E756D2051
:102970003D202564004040204C494E4520232564DD
:1029800020696E202A25732040400050494343208F
:102990006B65792073657474696E6773202D2D20C3
:1029A00025303278004E4F5420494D504C454D450E
:1029B0004E5445443A20257321000A8588DF2D1A9C
:1029C000848BCE2DAA448CBD2D710000A22D7700E2
:1029D00000842D54668A702D5C00005E2DC4B7897A
:1029E000532D647389432DCA4296302DDABA951D52
:1029F0002D6A988A092D6E6988FD2C6D1B8DF02C2F
:102A0000453889DF2C5AC18ACC2CFC1688C02C6032
:102A1000FE87B42C51F287A72C6F0F8B9A2CF5B739
:102A200093882C5F588B732CCD9495622CCB6E952C
:102A30004F2CCC2A953D2CC1F394232CC0B894097B
:102A40002CDF7D94FD2B610F8BEC2BBD4093E22B93
:102A50003D6092D72B6C0392CD2B0C7B91C62BDC67
:102A6000E790C02B1C6890B12B3B5F8EA42BBB65FD
:102A70008F972BEB2D8E852BC7BF8D722BA7518D7A
:102A8000602BA4218D512B84278D3B2B822D8D1DF6
:102A90002B88338DFF2AB0398DEB2AD63F8DD52A6E
:102AA000B2458DC02AE24B8DAA2A49534F3738319F
:102AB000365F417070656E645F5265636F7264006B
:102AC00049534F373831365F526561645F526563F1
:102AD0006F7264730049534F373831365F557064F5
:102AE0006174655F42696E6172790049534F37388E
:102AF00031365F526561645F42696E617279004987
:102B0000534F373831365F496E7465726E616C5F52
:102B100041757468656E7469636174650049534FEB
:102B2000373831365F45787465726E616C5F417518
:102B30007468656E7469636174650049534F373812
:102B400031365F4765745F4368616C6C656E6765BD
:102B50000049534F373831365F53656C65637400F5
:102B600041626F72745F5472616E73616374696FF6
:102B70006E00436F6D6D69745F5472616E73616353
:102B800074696F6E00436C6561725F5265636F724A
:102B9000645F46696C6500526561645F5265636F8E
:102BA0007264730057726974655F5265636F726413
:102BB000004C696D697465645F4372656469740093
:102BC00044656269740043726564697400476574A2
:102BD0005F56616C75650057726974655F44617416
:102BE0006100526561645F44617461004765745FB0
:102BF00049534F5F46696C655F4944730044656C97
:102C00006574655F46696C65004372656174655FF4
:102C10004379636C69635F5265636F72645F466991
:102C20006C65004372656174655F4C696E656172C5
:102C30005F5265636F72645F46696C6500437265DD
:102C40006174655F56616C75655F46696C650043CC
:102C500072656174655F4261636B75705F46696C34
:102C600065004372656174655F446174615F4669C4
:102C70006C65004368616E67655F46696C655F53AC
:102C8000657474696E6773004765745F46696C6547
:102C90005F53657474696E6773004765745F466956
:102CA0006C655F494473004765745F436172645F9C
:102CB000554944004765745F56657273696F6E00CD
:102CC000466F726D61745F504943430053656C6594
:102CD00063745F4170706C69636174696F6E004703
:102CE00065745F4B65795F53657474696E677300D3
:102CF0004765745F44465F4E616D6573004672655B
:102D0000655F4D656D6F7279004765745F417070E6
:102D10006C69636174696F6E5F4944730044656CEC
:102D20006574655F4170706C69636174696F6E0092
:102D30004372656174655F4170706C696361746949
:102D40006F6E004765745F4B65795F566572736996
:102D50006F6E004368616E67655F4B657900536510
:102D6000745F436F6E66696775726174696F6E0038
:102D70004368616E67655F4B65795F53657474691D
:102D80006E67730041757468656E7469636174651C
:102D90005F4145535F4556325F4E6F6E46697273B1
:102DA000740041757468656E7469636174655F4130
:102DB00045535F4556325F466972737400417574BE
:102DC00068656E7469636174655F41455300417560
:102DD0007468656E7469636174655F49534F00413F
:102DE000757468656E69636174655F4C656761637E
:102DF000790025733A20257300257320402025642F
:102E00000057424220537461727420426C6F636BAE
:102E100020546F6F204C61726765202D2D20256432
:102E2000202D2D202573005242422053746172746C
:102E300020426C6F636B20546F6F204C617267652A
:102E4000202D2D202564202D2D2025640043726522
:102E50006174654170702072657475726E6564206E
:102E60002D2D2025640A00466163746F72792072EB
:102E70006573657474696E6720746865206465762F
:102E800069636500466163746F727920726573656A
:102E90007474696E6720746865206465766963651B
:102EA0000025732040202564002A2A2A2A20444530
:102EB000534649524520494E5445524E414C2053A9
:102EC000544F52414745202A2A2A2A0D0A002A2A0D
:102ED0002A2A204445534649524520484541444505
:102EE000522044415441202A2A2A2A0D0A002573DF
:102EF0003D3D20414944203078253032782530321C
:102F000078253032780D0A0025735B4B6579732084
:102F10002D2D20256420746F74616C5D0D0A005D99
:102F20000D0A00202D2D202530326400203A202566
:102F300030327800202D2D20414D4B00203A2025A5
:102F400030327800202D2D20504D4B0025732D3E22
:102F5000202573205B76253032640025735B46693B
:102F60006C6573202D2D20256420746F74616C5D59
:102F70000D0A0025732D3E20253032780D0A0025DC
:102F8000732D3E2025303278205B436F6D6D3D25DB
:102F900073202D2D2025735D0D0A002573284441D3
:102FA00054452920253032782F253032780D0A00FB
:102FB0002573284241544348292025730D0A0025D2
:102FC000732856455253494F4E292048573D2530C6
:102FD00032782E253032782C2053573D25303278E8
:102FE0002E253032780D0A002573285549442920B2
:102FF00025730D0A000011241FBECFEFCDBFDFE304
:10300000DEBF00E00CBF18BE19BE1ABE1BBE14E224
:10301000A0E0B0E2E8EBF2E601E00BBF02C00790EF
:103020000D92A83EB107D9F71BBE20E3A8EEB4E28B
:1030300001C01D92AA31B207E1F746D00C94CBA98A
:103040009EC10F9200240F932F933F934F935F9352
:103050000FB70F93EF93FF93EAB1FBB15191442760
:1030600035B124B1569578F400928C08009200088E
:1030700006E10A95F1F700C001E00093000803E0C3
:1030800000938C0804C00AE10A95F1F70000215072
:10309000304019F40E94B5340CC04F5F477011F4F2
:1030A000519102C000C000C00AE00A95F1F700C0CB
:1030B000D9CFFF91EF910F910FBF5F914F913F914A
:1030C0002F910F910F9018957AD10E94E0230E94C2
:1030D0007F2458D31092520684E08093420682E601
:1030E00080938601C1E0C0932606C093210686E046
:1030F00080932206C093310612E01093320610929C
:103100002A0610922B068FE08093290689E580938A
:1031100080019AE5909381018093820180E48093FD
:103120004106809346069091B200907F9093B20042
:103130009091B20092609093B20090E39093410618
:103140009093460680935006C0934606109345061A
:1031500003E00093410683E18093010821E030E021
:1031600020932608309327082093280830932908B5
:1031700010928C08809380081092230310922103F0
:10318000D8E0D093220381E180932003E091F324DF
:10319000F091F424828593858093380390933903CA
:1031A0008CE380938203D093800380938303D09336
:1031B0008103D7D10E942D2642D2CFD6C0930002E0
:1031C000109201021093020200930402C0932002A5
:1031D000D09321020E9457227ED182E0E82E91E115
:1031E000F92E0BE91AE28091030481FF3AC0809125
:1031F000010480FDFCCFE09203040E94832452D29C
:103200000E946026B2D6E0918B2AF0918C2A199503
:103210000E94DB23E091F324F091F4248481823036
:1032200071F48091EB248F5F8093EB2463E00E9424
:1032300096B0C091EF24D091F0249923F1F10E942F
:103240009E2F0E94B925E091F324F091F424878108
:10325000813011F4F0924A258681813011F4F09288
:103260004925E091892AF0918A2A1995E091832ACB
:10327000F091842A19950E9451210E943126B3CFE2
:1032800083E090E20E94F4A610925E2610925F26E0
:1032900010924E256A8170E0888199810E942726CC
:1032A00083E090E20E94F4A610925E2610925F26C0
:1032B00010924E250B80DC81C02D209721F080914B
:1032C000EC248111DDCF0093992A10939A2AE09182
:1032D000EF24F091F024309769F41092ED241092CD
:1032E000EE241092EF241092F0241092EC2410920D
:1032F000EB24A5CFD381C48182812091972A30917C
:10330000982A820F932F911D8093972A9093982A41
:10331000CF010E94CEA8ED2FFC2FDDCF9C01DA015A
:10332000832F99278230910529F18330910549F047
:10333000019791F482E190E02AEB32E02D933C93E7
:103340000895C9019927213061F08230910579F003
:10335000E8E7F2E0892B39F090E080E030E020E00F
:10336000EDCFEEE3F2E0849190E09F01E7CFE8E05B
:10337000F2E0F9CF8EE390E02CE732E0DFCF0F925E
:103380000FB60F921F92112408B60F9218BEFFCFEE
:103390001F921FB61F9211248F9388B78F9318BE68
:1033A0009F938EB19FB1805C9F4F8EB99FB99F91C3
:1033B0008F9188BF8F911F901FBE1F90189580918D
:1033C000780083FF0AC088E08093780088ED84BF8E
:1033D00081E0809380000D94FE008BEC809352007E
:1033E000809150008860809350008091510083FF4D
:1033F000FCCF82EC809355008091500080618093D7
:1034000050008091510084FFFCCF88ED84BF84E0A0
:10341000809340001EB81FB881E0809343002FE3E3
:1034200030E020930A0430930B0420930C04309373
:103430000D04809300048093020480E880930001CF
:10344000089588ED84BF81E080937900089588ED28
:1034500084BF8BE18093800008958091500082604A
:10346000809350008091510081FFFCCF82E08093D7
:10347000CA01EDE1F0E0E491E0936200ECE1F0E0FC
:10348000E491E09363001092CA0180E880936500A4
:103490008BEB8093660080915600897F8093560065
:1034A0008091560084608093560080916000816016
:1034B000809360000895E0E4F0E084818E7F84834F
:1034C000E0E6F0E080818E7F8083E0E5F0E08081BF
:1034D0008D7F8083089587E08093A200789408957B
:1034E000089590E080E0089508950895089508955E
:1034F0000895089508950895CF93C82FE091812AE3
:10350000F091822A19950E94D62FE091F324F09130
:10351000F424C58388E1C89FB001112464537D4F12
:1035200048E150E08FE79AE20E94CDA9E0917F2A1E
:10353000F091802A1995E091852AF091862A1995B3
:10354000C05EE091F324F091F4248781843011F47B
:10355000C0934A258681843011F4C0934925CF91C8
:10356000089548E150E06CEC72E08FE79AE20E9427
:10357000CDA9E091F324F091F4248581BDCF0F9380
:103580001F939C018B01E091F324F091F424458179
:103590006EE08CE194E00E9458251F910F910895F0
:1035A000CF93DF930F92CDB7DEB7AC019E012F5FB3
:1035B0003F4F6EE08CE194E00E947125882329F052
:1035C00089810F90DF91CF9108958FEFFACFFF920D
:1035D0000F931F93CF93DF930F92CDB7DEB78C017C
:1035E0009E012F5F3F4FAC016EE08CE194E00E94A2
:1035F0007125F82E8823A1F089817EDF980140E0B3
:10360000F90180812F5F3F4F882319F04F5F4F31C1
:10361000B9F7E0911B2BF0911C2BB80181E11995B2
:103620008F2D0F90DF91CF911F910F91FF900895F3
:10363000AC019B016EE08CE194E00C949A252EB1D4
:103640003FB1E0E0F4E0408551858EB19FB16085E7
:103650007185862B972BB0E0A0E064E1880F991F5D
:10366000AA1FBB1F6A95D1F788279927A07FBF7132
:10367000422B532B5D5F842B952B0C94C0A90C948B
:10368000BDA908951F93CF93DF93162F115020F4F7
:10369000DF91CF911F910895EC010E94BDA98993FC
:1036A000CE01F4CF0E94BDA90E94BDA90E94BDA970
:1036B0000C94BDA9CF93DF93FC0161507109DA012D
:1036C000EA01C20FD31F50E040E0AC17BD0729F05C
:1036D000CB01841B950B029728F41082CA01DF915D
:1036E000CF9108959D91392F32953F70903A58F4BB
:1036F000305D30839F709A3040F4905D91833296B4
:103700004E5F5F4FE2CF395CF4CF995CF7CFCF9338
:10371000DF93DC01EB01FA0150E040E08081882377
:1037200031F09181992359F14C175D0721F4CA01B9
:10373000DF91CF91089520ED280F2A3020F02FEB54
:10374000280F2630E0F460ED690F6A3020F02FEB8F
:10375000290F2630A0F4282F30E0813458F4229528
:10376000207F913450F4962F292B2D934F5F5F4F7C
:103770003296D4CF27533109F2CF9753F5CF50E08B
:1037800040E0D5CFE0E6F6E080E1858382E0868305
:1037900088E085838AE18183E0EAF9E01682178276
:1037A00080EC858388E18483E0E0F1E0128A8BE697
:1037B000838B148A158A20EA208F99E0918F128ECC
:1037C000148E158E168E84E0808B12A23CE633A3F5
:1037D00014A215A210A611A612A624A795A716A694
:1037E00080A308959A01452B09F449C040E1409314
:1037F000660643E04093A0094091A10947FFFCCF32
:103800004091A0097093A0094091A10947FFFCCF06
:103810004091A0096093A0094091A10947FFFCCF06
:103820004091A00941E04093120180931C019093C4
:103830001D0120931401309315011092220188EE8E
:1038400094E28093280190932901209324013093DE
:1038500025018091100180688093100180912001E2
:103860008068809320018091100187FDFCCF80E368
:10387000809311018093210180E180936506089572
:103880009A01452B09F469C040E14093660646E081
:103890004093A0094091A10947FFFCCF4091A009A6
:1038A00040E140936506000000004093660642E058
:1038B0004093A0094091A10947FFFCCF4091A00986
:1038C0007093A0094091A10947FFFCCF4091A00946
:1038D0006093A0094091A10947FFFCCF4091A00946
:1038E0001092120148EE54E240931C0150931D01C6
:1038F000209314013093150140E1409322018093FD
:10390000280190932901209324013093250180916F
:10391000100180688093100180912001806880935D
:1039200020018091100187FDFCCF80E3809311017D
:103930008093210180E180936506E091F324F0916A
:10394000F4248781863019F481E180934A258681A9
:10395000863019F481E1809349250895809101040E
:1039600080FDFCCF82E0809303040895CF93DF9322
:10397000CDB7DEB76097CDBFDEBFF0DF40E150E0EE
:103980006FEF70E0CE0101960E9433AA40E150E053
:1039900070E060E0CE01019673DF6096CDBFDEBFC0
:1039A000DF91CF910895E091F324F091F424878181
:1039B000863019F490E190934A2596819630A9F4C7
:1039C00020E120934925853041F483E180934A2505
:1039D000953019F483E1809349258091010480FD9D
:1039E000FCCF82E0809303040895853089F7EDCF02
:1039F000CF92DF92EF92FF920F931F936A017B01A8
:103A0000A901C11420E2D206E104F10408F069C062
:103A100070E060E000E010E220E030E00C191D09E9
:103A20002E093F09401751076207730708F48A01FE
:103A300020E12093660626E02093A0092091A109A9
:103A400027FFFCCF2091A00920E12093650600000C
:103A500000002093660622E02093A0092091A1098E
:103A600027FFFCCF2091A009D092A0092091A109A5
:103A700027FFFCCF2091A009C092A0092091A109A5
:103A800027FFFCCF2091A0091092120128EE34E20A
:103A900020931C0130931D01009314011093150114
:103AA00020E1209322018093280190932901009323
:103AB00024011093250180911001806880931001EA
:103AC000809120018068809320018091100187FD02
:103AD000FCCF80E3809311018093210180E18093EA
:103AE000650681E01F910F91FF90EF90DF90CF90DE
:103AF0000895CF92DF92EF92FF920F931F936A0186
:103B00007B01A901C11420E2D206E104F10408F00E
:103B100061C070E060E000E010E220E030E00C19ED
:103B20001D092E093F09401751076207730708F462
:103B30008A0120E12093660623E02093A0092091CA
:103B4000A10927FFFCCF2091A009D092A0092091C4
:103B5000A10927FFFCCF2091A009C092A0092091C4
:103B6000A10927FFFCCF2091A00921E02093120199
:103B700080931C0190931D01009314011093150173
:103B80001092220188EE94E28093280190932901FB
:103B90000093240110932501809110018068809387
:103BA0001001809120018068809320018091100194
:103BB00087FDFCCF80E3809311018093210180E198
:103BC0008093650681E01F910F91FF90EF90DF9049
:103BD000CF90089580E0F7CF8091CF0187FDFCCF93
:103BE0000895FADF8091CF0181FF0BC086E38093B7
:103BF000CA0188ED90E021E030E0EBECF1E084BF19
:103C000020830895EF92FF920F931F93CF93DF933A
:103C1000EC01F62EE72E8A011092C201DDDFCE0103
:103C2000800F911F26E048ED50E061E070E0EBEC82
:103C3000F1E0C817D90741F4C801DF91CF911F9176
:103C40000F91FF90EF900895C093C0013D2F3F71F9
:103C50003093C1012093CA0144BF6083AF2DBE2DB4
:103C60003091C4013D932196FA2EEB2EE2CF2F9294
:103C70003F924F925F926F927F928F929F92AF92FC
:103C8000BF92CF92DF92EF92FF920F931F93CF9349
:103C9000DF93EC01462E372E542E652E8F71782E31
:103CA000C81BD1099EDF98DF83E38093CA0110927D
:103CB000C1011092C201052D162D88EDC82ED12C00
:103CC00088248394912C2BECA22EBB24B39433E351
:103CD000232E01151105A9F4852D962DDF91CF9185
:103CE0001F910F91FF90EF90DF90CF90BF90AF901A
:103CF0009F908F907F906F905F904F903F902F900C
:103D000008957092C001E42CF32CF70181917F019A
:103D10008093C4010150110921F07394F0E27F12E5
:103D200012C0C093C0018D2F8F718093C10195E3A4
:103D30009093CA01C601F50184BF8082A0964CDF32
:103D40002092CA01712C4E2C3F2CC3CF1F93CF93CE
:103D5000DF93CDB7DEB7A097CDBFDEBF873009F4C4
:103D6000EEC008F03DC0843009F4C3C088F482304E
:103D700009F475C0833009F496C010E0813009F46D
:103D800057C0A096CDBFDEBFDF91CF911F910895A0
:103D9000853009F0D2C0E0918F2AF091902ACE01AF
:103DA000019619958091952A41E0815008F444C00C
:103DB0004423D9F3282F30E0E1E0F0E0EC0FFD1FC1
:103DC000E20FF31F908141E0911140E061E070E06B
:103DD0006C0F7D1F260F371F9150F9019083E5CF9F
:103DE0008A3009F4B0C090F4883009F4AAC0893050
:103DF00041F680910008813009F0ACC080918C08B8
:103E0000833009F0A7C00E948330BBCF8B3009F408
:103E10009CC08C3009F0B5CF8AEE97E098C02FDCBB
:103E2000E1E0F0E0EC0FFD1FE10FF11D80831F5F6B
:103E30008091952A181798F3E091912AF091922A8F
:103E4000CE0101961995E0911B2BF0911C2B40910E
:103E5000952ABE016F5F7F4F83E1199592CF11E0E4
:103E60008091952A873009F010E0E0918F2AF09137
:103E7000902ACE01019619952091952AE1E0F0E073
:103E8000EC0FFD1FE10FF11D91E01217A8F6992329
:103E900039F0808191E08F3F09F090E08F5F80835F
:103EA0001F5F3196F2CFE0918F2AF091902ACE01D8
:103EB000019619958091952A41E0815008F4BCCF74
:103EC0004423D9F3282F30E0E1E0F0E0EC0FFD1FB0
:103ED000E20FF31F908141E09F3F09F040E061E075
:103EE00070E06C0F7D1F260F371F9F5FF9019083D5
:103EF000E4CF11E08091952A873009F010E0E0913D
:103F00008F2AF091902ACE01019619952091952A39
:103F1000E1E0F0E0EC0FFD1FE10FF11D91E0121761
:103F200008F08ACF992331F0808191E0811190E0EF
:103F3000815080831F5F3196F2CFA3D422CF33DD2F
:103F400020CF0CDD1ECFB0D31CCF83E098E00E94C1
:103F5000D32E17CF0E945E3014CFE0E0F6E080E66B
:103F6000828388E1868B858B0895CF9380910806A4
:103F7000C82FC09586FD1DC08091EA248A3070F458
:103F80008F5F8093EA24C5FF30C08091E9248A3096
:103F900008F58F5F8093E924CF9108958A3099F7CF
:103FA000E091F324F091F4248181D0DE8091EA2421
:103FB000E7CF8C2F807639F78091EA2481508A30C0
:103FC00030F4E091F324F091F4248081BFDE10926C
:103FD000EA24D9CF8A3001F7E091F324F091F42458
:103FE0008381B4DE8091E924D4CFC076A9F6809194
:103FF000E92481508A3030F4E091F324F091F424E4
:104000008281A4DE1092E924C7CFAC019B016DE050
:1040100089E098E08FC5E82FF0E0EE50FB4D638318
:104020006787638F67A363AB67AFE55BFF4F608311
:1040300008950F931F939B018A01E091F324F0915F
:10404000F424E80FF11D40816DE089E098E030D55F
:104050001F910F9108950F931F93CF93DF930F92AA
:10406000CDB7DEB7082FAB019E012F5F3F4F6DE04C
:1040700089E098E036D5182F882319F06981802FC0
:10408000CADF812F0F90DF91CF911F910F9108957B
:1040900008958F929F92AF92BF92CF92DF92EF924C
:1040A000FF920F931F93CF93DF93882E962E072FA7
:1040B000142FCEB0DFB08091080490910904A09035
:1040C000992AB0909A2AE42EF12CA7014C5F5F4FF9
:1040D0002091972A3091982A2417350708F06BC051
:1040E000C091EF24D091F0248BE9A8168AE2B8069B
:1040F00049F5DF91CF911F910F91FF90EF90DF90E5
:10410000CF90BF90AF909F908F90089583E090E202
:104110000E94F4A610925E2610925F2610924E2501
:104120006A8170E08881998192D583E090E20E9453
:10413000F4A610925E2610925F2610924E250B80F8
:10414000DC81C02D209721F08091EC248111DECFFD
:104150008BE99AE28093992A90939A2AE091EF242E
:10416000F091F024309799F41092ED241092EE24FF
:104170001092EF241092F0241092EC241092EB2471
:104180008BE99AE28093992A90939A2AB2CFD381AD
:10419000C48182812091972A3091982A820F932F8F
:1041A000911D8093972A9093982ACF010E94CEA8C0
:1041B000ED2FFC2FD7CFC82AD92A85E090E00E94A6
:1041C00038A8EC01A882B98284E0810F8A831B821F
:1041D0001C82C50101968093992A90939A2AF50131
:1041E0008082E091992AF0919A2ACF0101968093DA
:1041F000992A90939A2A1083E091992AF0919A2A09
:10420000CF0101968093992A90939A2AD082E091C7
:10421000992AF0919A2ACF0101968093992A909336
:104220009A2AC082A701692D702F8091992A9091B6
:104230009A2A0E9419AA8091992A90919A2A8E0D01
:104240009F1D8093992A90939A2A8091972A909102
:10425000982A04978E199F098093972A9093982AF9
:104260008091EF249091F024892B91F0E091ED243E
:10427000F091EE24309761F0C383D483C093ED2492
:10428000D093EE248091EC248F5F8093EC2431CF87
:10429000C093ED24D093EE24C093EF24D093F02468
:1042A000F1CF08954F925F926F927F928F929F927B
:1042B000AF92BF92CF92DF92EF92FF920F931F9334
:1042C000CF93DF938C012A013B01E901C0900020CC
:1042D000D0900120C60182589F43AC0170E060E09D
:1042E000441655066606770608F073C022E0C21A27
:1042F00020E4D20A530142018C0E9D1EA11CB11C68
:1043000084169506A606B70608F443C09C01241936
:104310003509C81BD90B7E01E40CF51CE901992471
:104320009394C601B0E0A0E0B201481659066A06AF
:104330007B0608F045C06E5F7F4BA30192012C0FF6
:104340003D1F411D511D281739074A075B0728F5F6
:10435000AE01C80147DA992051F0EC0EFD1EF801BC
:10436000EE0DFF1DC00FD11FEC17FD0781F581E099
:10437000DF91CF911F910F91FF90EF90DF90CF9041
:10438000BF90AF909F908F907F906F905F904F9075
:104390000895F12CE12C912CC4CF5601A418B50836
:1043A000A501C8011FDAA2014C195D094C0F5D1F60
:1043B0006BE97AE2C8018A0D9B1D0E9419AACBCF36
:1043C0006C197D096556754DAE01C801F6CF129284
:1043D000CBCF80E0CDCFEBE9FAE22091972A309164
:1043E000982A8BE19BE2821B930BE817F90751F5A2
:1043F0008BE99AE28093992A90939A2A80E890E038
:104400008093972A9093982A82E090E480930020EA
:104410009093012042E050E060E070E480E090E2A0
:104420002FDAE091F324F091F42487818A3019F493
:1044300080E180934A2586818A3019F480E1809357
:10444000492508951192D1CF8091972A9091982A69
:1044500090582091002030910120821B930B0895E9
:104460008093F924809305258093112580931D2541
:10447000809329258093352580934125813069F0EB
:10448000823081F0811108C01092F12488E490E21A
:1044900080931B2B90931C2B08958093F1248EEA1C
:1044A00092E2F6CF1092F12489E490E2F1CFCF931B
:1044B000DF930F92CDB7DEB7E091F324F091F424AF
:1044C0008481CEDF8BE99AE28093992A90939A2A8D
:1044D00080E890E08093972A9093982A41E050E0FA
:1044E000BE016F5F7F4F80E090E08CDBE091992A06
:1044F000F0919A2A80E8DF011D928A95E9F7898177
:104500008823A1F042E050E060E070E480E090E2B7
:1045100069D9E0911B2BF0911C2B40E070E060E02A
:104520008FEF19950F90DF91CF91089582E090E47D
:10453000809300209093012042E050E060E070E41E
:1045400080E090E29DD981E0898341E050E0BE01A6
:104550006F5F7F4F80E090E08ADBDBCF0F931F938C
:10456000CF93DF93CEB1DFB1E0910804F09109045D
:104570002091972A3091982AA42FB0E08D010C5FEA
:104580001F4F2017310708F44DC0EC2BFD2B245092
:1045900031092A1B3B0B2093972A3093982AA0912C
:1045A000992AB0919A2A9D012F5F3F4F2093992A13
:1045B00030939A2A8C93A091992AB0919A2ACD018E
:1045C00001968093992A90939A2A4C93A091992AC4
:1045D000B0919A2ACD0101968093992A90939A2AB4
:1045E000FC93A091992AB0919A2ACD0101968093CB
:1045F000992A90939A2AEC93415028F4DF91CF9115
:104600001F910F910895FB01A091992AB0919A2AC8
:10461000CD0101968093992A90939A2A81918C9347
:10462000BF01EACF80E01CDFE091F324F091F42495
:1046300087818A3019F481E180934A2586818A3006
:10464000E9F681E180934925D9CF1F93CF93DF937A
:104650000F92CDB7DEB7AC019E012F5F3F4F63E0F5
:1046600086EB99E03ED2182F882311F08981F8DE7D
:10467000812F0F90DF91CF911F9108950F931F937A
:104680009C018B01E091F324F091F424448163E0D8
:1046900086EB99E00DD21F910F910895AC019B011B
:1046A00063E086EB99E046C20F931F93CF93DF93AD
:1046B0008091972A9091982A8038910508F076C0C9
:1046C0000091002010910120C0E0D0E8C01BD10B68
:1046D00040E850E0481B590BC417D507B0F1B801AA
:1046E0008BE99AE2CDD82091972A3091982A80912F
:1046F00000209091012080589F4F821B930B809344
:10470000002090930120EBE9FAE28BE19BE2821B0F
:10471000930B8E179F07B9F48BE99AE28093992A3D
:1047200090939A2A80E890E08093972A9093982A11
:1047300042E050E060E070E480E090E2DF91CF91F1
:104740001F910F919DC81192E4CF209779F1AE018E
:10475000B8018BE99AE294D8A80140585F47BE019E
:104760006556754D8BE99AE20E9422AA10588091F5
:10477000992A90919A2A080F191F0093992A109349
:104780009A2A8091972A9091982A8C0F9D1F809346
:10479000972A9093982A8091002090910120C80F29
:1047A000D91FC0930020D0930120C2CFDF91CF91B9
:1047B0001F910F9108958091F124811175CF089573
:1047C00047E550E062EF74E281E090E01BCA47E504
:1047D00050E062EF74E281E090E049CA0F931F93CA
:1047E000CF93DF93D82FCFEFC80F80E0C73008F00A
:1047F00043C00E94D62F8091F224C81769F1D3D804
:10480000C093F2248CE0C89F900111242B503B4DA3
:104810002093F3243093F424A1D8E091F324F09171
:10482000F42485810E947C1AE091F324F091F42411
:10483000848116DE81E090E08C01025F1442609179
:10484000F2240E942AB16091F3247091F424C801EB
:104850008D509B4D0E9433B1D15EE091F324F091D5
:10486000F4248781843011F4D0934A2586818430E2
:1048700011F4D093492581E0DF91CF911F910F91E1
:1048800008959091F22428E0E7E0F0E03CE0215028
:1048900009F40895892F90E00196BF010E94A2B00B
:1048A000BC01982F369FA001379F500D11244E5008
:1048B0005B4DDA0118968C91882349F381E0890FCA
:1048C0008DCFFC018091F2248F5C8083118208954A
:1048D000CF93DC0111968C91119781110DC0CC9171
:1048E000E0911B2BF0911C2B41E0BD0182E1199559
:1048F00080ED8C0FCF9172CF80E0CF91089588E149
:1049000080930106089580914925823139F148F458
:10491000803181F18131F1F0882391F110924925A4
:104920002FC08331F9F090EE980F9830B8F790913E
:104930004B2521E0290F911121C09091040693FF8E
:1049400015C098E090930606803241F38150809321
:10495000492516C088E080930506E0CF88E0809363
:104960000706DCCF8091040683FD04C088E08093B5
:10497000050606C088E080930606D0CF20934B251D
:1049800080914A25823131F140F4803181F18131C9
:10499000E9F0811110924A2508958331F9F090EEE3
:1049A000980F9830B8F790914C2521E0290F91117C
:1049B00021C09091040694FF15C090E190930606E3
:1049C000803241F3815080934A25089580E180939D
:1049D0000506E0CF80E180930706DCCF80910406D6
:1049E00084FD04C080E180930506089580E18093F2
:1049F0000606D0CF20934C250895AC019B016BE0B7
:104A000089E19AE097C0E2EFF4E226E435E2982FDC
:104A10009071887091116287811161873C962E1781
:104A20003F07C1F7992329F090E190930606109271
:104A30004A25882329F088E08093060610924925AC
:104A400008950F931F939B018A01803161F4E091D7
:104A5000F324F091F42447816BE089E19AE028D0B7
:104A60001F910F9108958830D9F7E091F324F091C8
:104A7000F4244681F1CF0F931F93CF93DF930F92CE
:104A8000CDB7DEB7082FAB019E012F5F3F4F6BE024
:104A900089E19AE026D0182F882319F06981802FA8
:104AA000B2DF812F0F90DF91CF911F910F91089569
:104AB0000F931F93FC01742FC901A801611102C05B
:104AC00080E00AC024916150271309C0BF016F5FC5
:104AD0007F4F0E94FDA981E01F910F910895B1962B
:104AE000EDCFDF92EF92FF920F931F93CF93DF935F
:104AF000EC01162F042FD52E7901111102C080E090
:104B00000FC0BE016F5F7F4F802F9D2D0E94F4A9C3
:104B10001150892B69F4FE01C491F701C08381E033
:104B2000DF91CF911F910F91FF90EF90DF9008954B
:104B3000A196E3CFDA01A90101963CE2611104C01C
:104B4000452B09F01C920895FC012491211109C004
:104B5000623020F041155105B1F33D9361508196CB
:104B6000EDCF4115510579F32D93319641505109FF
:104B7000ECCFCF93DF9300D00F92CDB7DEB780910B
:104B800020028068809320028091230280FFFCCF66
:104B900081E080932302A0911002B0911102E09174
:104BA000F324F091F424AE5BB109B7FF02C0B0E08A
:104BB000A0E020E038EB4BE050E00E94E3B06983D6
:104BC0007A838B839C83978186812B813C81243FD0
:104BD0003140C0F4973019F490E190934A25873022
:104BE00019F480E1809349258091952A8823A1F0CA
:104BF000E091872AF091882A2496CDBFDEBFDF910D
:104C0000CF911994973019F491E190934A25873008
:104C100019F481E1809349252496CDBFDEBFDF9151
:104C2000CF910895BC0183E090E20C947FA6CF93CE
:104C3000DF93EC01FE0164912196611103C0DF91C5
:104C4000CF91089583E090E20E94C9A6F3CFAB0113
:104C5000BC0183E090E20C94A3A680E280936206FC
:104C60000895CF93DF9380914D25823031F583E015
:104C700090E20E9434A70E942EA283E090E20E945C
:104C80004FA7EC0197FD19C0E091F324F091F424B3
:104C90008781833019F483E180934A2586818330AC
:104CA00019F483E1809349258C2FA5D6811105C085
:104CB0008C2FDF91CF910C94F52EDF91CF91089539
:104CC00080914D25823021F168F4811114C08091CA
:104CD000680685FF09C08FE18093022081E0809300
:104CE0004D2502C08330E9F080914D25823039F5A1
:104CF000D3D70C949E2F8091022081508093022064
:104D00008111F2CF0E942D1A0E94ACA582E0E7CF5C
:104D10008091680685FDE8CF8FE18093022083E0D3
:104D2000DECF809102208150809302208111DCCF60
:104D30000E9471A50E945B1A10924D25D5CF08954F
:104D4000E091F324F091F4248781823019F481E119
:104D500080934A258681823019F481E18093492528
:104D60000895E091F324F091F4248781823019F4BE
:104D700080E180934A258681823019F480E1809316
:104D80004925089583E090E20C945AA683E090E2CE
:104D90000C949FA721E53DE03F932F932BE43DE04A
:104DA0003F932F9324E43DE03F932F932DE33DE089
:104DB0003F932F932FE53CE03F932F9321E02F93D8
:104DC0001F929F938F930E9482AA8DB79EB70E96D3
:104DD0008DBF9EBF85E6089560E071E00E94BF1A16
:104DE00085E60895CF93DF93EB0128812F3359F4A3
:104DF0002981211108C060E071E00E94181B85E63E
:104E0000DF91CF910895CE010E94D01A882399F0A6
:104E10000E94B61CCE010E94E71AE091F324F091A3
:104E2000F424CF018F5F9F4F65818D5E94420E9475
:104E30002AB184E6E5CF8AECE3CFEF92FF920F939D
:104E40001F93CF93DF93CDB7DEB7A097CDBFDEBF63
:104E50008C018091952AE82EF12C81111CC087E5E8
:104E60009CE09F938F9381E08F931F921F930F93EA
:104E70000E9482AA0F900F900F900F900F900F90AA
:104E800085E6A096CDBFDEBFDF91CF911F910F9138
:104E9000FF90EF900895E0918F2AF091902ACE0133
:104EA000019619959701AE014F5F5F4F60E071E089
:104EB000C8010E945A1BE4CFDF92EF92FF920F933A
:104EC0001F93CF93DF93CDB7DEB7A097CDBFDEBFE3
:104ED0007B01D090952A64EC73E2C7010E94F4A98B
:104EE0008E010F5F1F4F892B31F578018E2D801BAE
:104EF0008D15D8F0E091912AF091922AC801199568
:104F0000E0911B2BF0911C2B4091952AB80183E175
:104F1000199584E6A096CDBFDEBFDF91CF911F919A
:104F20000F91FF90EF90DF9008950E943F1BF701D3
:104F300081937F01DBCFA70160E270E0C8010E948E
:104F4000871BD8161906B1F28AECE4CFFC018091D8
:104F5000962A882329F081E38083118285E60895CB
:104F600080E3FACFFB012181211127C02081213369
:104F700029F481E08093962A84E60895203319F479
:104F80001092962AF9CF2F33C1F41F9220E32F936A
:104F90001F9221E32F9321E53CE03F932F9321E0E3
:104FA0002F931F929F938F930E9482AA8DB79EB7D3
:104FB0000A968DBF9EBF85E608958AEC089588EF16
:104FC0009CE1E7D48EE6089589E79DE1FED48EE664
:104FD0000895E0ECF4E081818E7F81830E9471A5C9
:104FE0000E94211A84E60895E0ECF4E081818E7F2E
:104FF00081830E9471A50E94271A84E60895EFE735
:10500000FAE225892F9324892F932EE43CE03F93E5
:105010002F9321E02F931F929F938F930E9482AA38
:105020008DB79EB708968DBF9EBF85E608952091E7
:10503000952A1F922F932BE43CE03F932F9321E07E
:105040002F931F929F938F930E9482AA8DB79EB732
:1050500008968DBF9EBF85E60895BC0140E051E0F3
:1050600080E00E94192085E60895FB0120812F33FE
:1050700049F42181211106C060E071E00E94052001
:1050800085E60895BF0180E00E942B20882319F057
:105090009EDB84E608958AEC0895BC0140E051E06F
:1050A00081E00E94192085E60895FB0120812F33BD
:1050B00049F42181211106C060E071E00E940520C1
:1050C00085E60895BF0181E00E942B20882319F016
:1050D0007EDB84E608958AEC0895BC0140E051E04F
:1050E00082E00E94192085E60895FB0120812F337C
:1050F00049F42181211106C060E071E00E94052081
:1051000085E60895BF0182E00E942B20882319F0D4
:105110005EDB84E608958AEC0895BC0140E051E02E
:1051200083E00E94192085E60895FB0120812F333A
:1051300049F42181211106C060E071E00E94052040
:1051400085E60895BF0183E00E942B20882319F093
:105150003EDB84E608958AEC0895BC0140E051E00E
:1051600080E16FDC85E60895FB0120812F3341F457
:105170002181211105C060E071E03FDC85E60895E2
:10518000BF0180E178DC882319F021DB84E60895F3
:105190008AEC0895BC0140E051E088E052DC85E6ED
:1051A0000895FB0120812F3341F42181211105C095
:1051B00060E071E022DC85E60895BF0188E05BDCF9
:1051C000882319F004DB84E608958AEC089560E0F2
:1051D00071E054DA85E60895FB0120812F3341F414
:1051E0002181211105C060E071E058DA85E608955B
:1051F000CF012BDA882319F0EADA84E608958AECE5
:105200000895CF93DF93EC011FD99C01803891055D
:1052100010F420E830E0205831093F932F939F93FA
:105220008F938BE29CE09F938F9381E08F931F92EB
:10523000DF93CF930E9482AA8DB79EB70A968DBF47
:105240009EBF85E6DF91CF91089582E591E2BDD3BF
:105250008EE6089529DA84E60895BDD884E6089597
:1052600060E071E02EDB85E60895CB0131DB811132
:1052700002C08AEC089584E608950E94B61C84E674
:1052800008950E94D31C84E608950E94AE1C84E613
:10529000089590916806917089E7891B0895DF92BF
:1052A000EF92FF920F931F93CF93DF93EC010FEFD9
:1052B00010E084E9E82E8EE0F82E9CE2D92EB701AA
:1052C0008CED93E20E94F4A9892B19F001151105C8
:1052D00009F52197188285E6DF91CF911F910F91F3
:1052E000FF90EF90DF900895488331968901EC019B
:1052F0004491CE010196980121503109442319F0BF
:105300000130110589F7D882890128E1E20EF11CEC
:10531000EC01D5CFF701ECCFCF93DF9300D00F9204
:10532000CDB7DEB7FC018091200280688093200217
:105330008091230280FFFCCF81E080932302A09123
:105340001002B0911102AE5BB109B7FF02C0B0E02C
:10535000A0E020E038EB4BE050E00E94E3B069832E
:105360007A838B839C83AC01662777275F934F9367
:1053700084E29CE09F938F9381E08F931F92FF9331
:10538000EF930E9482AACDBFDEBF85E62496CDBFF3
:10539000DEBFDF91CF9108952EB13FB14091080457
:1053A00050910904242B352B3F932F932EE13CE0A1
:1053B0003F932F9321E02F931F929F938F930E94EF
:1053C00082AA8DB79EB708968DBF9EBF85E60895C9
:1053D0000F931F93CF93DF930F920F92CDB7DEB74A
:1053E0008B01E091F324F091F42485818D3009F054
:1053F00077C0E091872AF091882A199581E08093FF
:10540000B52660E270E0C8010E943AAA9C01892B8F
:10541000C1F5F80101900020E9F73197E01BF10B8D
:10542000E0FD5CC0F695E795E130F10501F587E018
:1054300090E080937D2A90937E2A60917D2A7091DE
:105440007E2A695F7F4F83E0769567958A95E1F7BD
:10545000A8018DE799E20E94871B0E9400398FEF17
:105460000F900F90DF91CF911F910F91089553E00E
:10547000EE0FFF1F5A95E1F7E0937D2AF0937E2A05
:10548000DCCFC80104962817390741F5A80162E06E
:1054900070E0CE0101960E94871B898190E0982FD1
:1054A00088272A81820F911D80937D2A90937E2ADE
:1054B0000B5F1F4FF80101900020E9F73197E01BC7
:1054C000F10BE0FD0BC0F695E79533E0EE0FFF1F03
:1054D0003A95E1F7E817F90708F0AFCF8AECC0CFAB
:1054E00089ECBECFEF92FF920F931F93CF93DF9380
:1054F0000F920F92CDB7DEB78B01E091F324F091BC
:10550000F42485818D3009F08CC0E091872AF091D8
:10551000882A199582E08093B52660E270E0C80180
:105520000E943AAA7C01892B09F041C0F801019040
:105530000020E9F73197E01BF10BE0FD70C0F69514
:10554000E795E130F10511F587E090E080937D2A41
:1055500090937E2A60917D2A70917E2A695F7F4FA9
:1055600083E0769567958A95E1F7A8018DE799E242
:105570000E94871B0E9400398FEF0F900F90DF91E0
:10558000CF911F910F91FF90EF90089553E0EE0F90
:10559000FF1F5A95E1F7CF0169E070E00E94A2B0C9
:1055A000E81BF90BE0937D2AF0937E2AD3CFC80144
:1055B0000496E816F90699F5A80162E070E0CE01BC
:1055C00001960E94871B8981282F30E0322F2227E5
:1055D0008A81820F932F911D80937D2A90937E2A3A
:1055E0008730910529F09C0127703327232BB9F4CC
:1055F00087010F5F1F4FF80101900020E9F73197F5
:10560000E01BF10BE0FD0BC0F695E79533E0EE0FE4
:10561000FF1F3A95E1F7E817F90708F09BCF8AECEE
:10562000ACCF89ECAACFE091F324F091F4248581EA
:105630008D30A1F4E091872AF091882A199585E0B0
:105640008093B5260E9433590E9400398DE399E575
:1056500080935C2690935D268FEF089589EC0895E2
:10566000E091F324F091F42485818D30A1F4E09150
:10567000872AF091882A199583E08093B5260E94A5
:1056800033590E9400398DE399E580935C2690930D
:105690005D268FEF089589EC0895E091F324F09151
:1056A000F42485818D30A1F4E091872AF091882A35
:1056B000199586E08093B5260E9433590E940039DF
:1056C0008DE399E580935C2690935D268FEF089596
:1056D00089EC0895E091F324F091F42440855185FC
:1056E00064E6649F9001659F300D11243F932F93D2
:1056F00028E13CE03F932F9321E02F931F929F934B
:105700008F930E9482AA8DB79EB708968DBF9EBFC9
:1057100085E60895CF93DF930F920F92CDB7DEB752
:10572000FB0120812F33D1F42181211117C026EEF6
:105730003BE03F932F9321E02F931F929F938F93F2
:105740000E9482AA0F900F900F900F900F900F90D1
:1057500085E60F900F90DF91CF91089589E592E053
:1057600089839A83CE0101969F938F9382EE9BE06B
:105770009F938F93FF93EF930E94B8AA0F900F907F
:105780000F900F900F900F90892BA9F069817A816B
:10579000693582E0780778F4E091F324F091F424FD
:1057A00060877187CF018F5F9F4F8A5E94420E940E
:1057B00033B184E6CECF8AECCCCFE091F324F091E4
:1057C000F42423852F9322852F932FED3BE03F93E5
:1057D0002F9321E02F931F929F938F930E9482AA71
:1057E0008DB79EB708968DBF9EBF85E60895CF936F
:1057F000DF930F920F92CDB7DEB7FB0120812F33DD
:10580000D1F42181211117C02FE02F932FEF2F9377
:105810002EE83BE03F932F9321E02F931F929F931D
:105820008F930E9482AACDBFDEBF85E60F900F90B6
:10583000DF91CF91089519821A82CE0101969F932C
:105840008F938AE89BE09F938F93FF93EF930E943F
:10585000B8AA0F900F900F900F900F900F90892B78
:10586000C9F069817A81611590E1790798F46093B4
:10587000380370933903E091F324F091F4246287A4
:105880007387CF018F5F9F4F885E94420E9433B130
:1058900084E6CCCF8AECCACFFB0120812F33D9F428
:1058A0002181211121C01F9220E32F931F9221E318
:1058B0002F9324E83BE03F932F9321E02F931F92F7
:1058C0009F938F930E9482AA8DB79EB70A968DBF31
:1058D0009EBF85E60895213319F4F0D384E6089538
:1058E000203311F410D4FACF8AEC0895FC01809192
:1058F0000008813021F480918C08833029F080E306
:105900008083118285E6089581E3FACFE091F32444
:10591000F091F42485818D30A1F4E091872AF091F3
:10592000882A199584E08093B5260E9433590E94F5
:1059300000398DE399E580935C2690935D268FEF87
:1059400008958C3069F4E091872AF091882A19959E
:1059500081E0809393270E94E9608EEF90E6EBCF81
:1059600089EC08958DE00E947C1AE091872AF091DD
:10597000882A199587E08093B5260E9433590E94A2
:1059800000398DE399E580935C2690935D268FEF37
:1059900008959C0191E090935B2690935A268CE3A6
:1059A0008093582685E090E0809356269093572662
:1059B0001092502610925126109252261092532681
:1059C00020934E2630934F26089527E020935B26A0
:1059D0002CE231E020935626309357261092502621
:1059E00010925126109252261092532680934E26E2
:1059F00090934F260895CF9390915B26963009F4AB
:105A0000B7C0A0F4943009F48DC0953009F49CC05F
:105A1000933030F491116CC0C0E08C2FCF91089579
:105A20009330D1F78093592684E069C0983009F407
:105A3000FBC0993009F46DC0973071F7853109F0DA
:105A4000F0C010925A2680915A268F5F80935A2672
:105A500040915026509151266091522670915326C4
:105A6000E0914E26F0914F2620E830E08EE495E25A
:105A70001995C82F882309F408C161E083E090E2FA
:105A80000E94C9A660915A2683E090E20E94C9A6AE
:105A900060915A26609583E090E20E94C9A660E872
:105AA00070E08EE495E2D3D860E08EE495E2FC01EC
:105AB00001962081620F55E28E3C9507C1F783E085
:105AC00090E20E94C9A68091502690915126A09103
:105AD0005226B091532680589F4FAF4FBF4F8093AF
