:100000000C94FE100C9423110C9423110C942311C6
:100010000C9423110C9423110C9423110C94231190
:100020000C9423110C9423110C9463140C9423113D
:100030000C9423110C9423110C9423110C94231170
:100040000C9423110C9423110C9423110C94231160
:100050000C9423110C9423110C9423110C94231150
:100060000C9423110C9423110C9423110C94231140
:100070000C9423110C9423110C9423110C94231130
:100080000C9423110C9423110C9484290C94D42DDA
:100090000C9423110C9423110C9423110C94231110
:1000A0000C9423110C9423110C9423110C94231100
:1000B0000C9423110C9423110C9423110C94522AA8
:1000C0000C9423110C94392D0C943F2F0C94231174
:1000D0000C9423110C9423110C9423110C942311D0
:1000E0000C9423110C9423110C9423110C942311C0
:1000F0000C9423110C9423110C9423110C942311B0
:100100000C9423110C9423110C9423110C9423119F
:100110000C941A2F0C94162D0C9423110C9423116B
:100120000C9423110C9423110C9423110C9423117F
:100130000C9423110C9423110C9423110C94BA29C0
:100140000C9424110C94352C0C94FE2D0C9423113A
:100150000C9423110C948F2C0C940C300C942311C0
:100160000C9423110C9423110C9423110C9423113F
:100170000C9423110C9423110C9423110C9423112F
:100180000C9423110C9423110C9423110C9423111F
:100190000C9423110C9423110C9423110C9423110F
:1001A0000C9423110C9423110C9423110C942311FF
:1001B0000C9423110C9423110C9423110C942311EF
:1001C0000C9423110C9423110C9423110C942311DF
:1001D0000C9423110C9423110C9423110C942311CF
:1001E0000C9423110C9423110C9423110C942311BF
:1001F0000C9423110C942F740C9423116364696E76
:100200006F70737578585B003403430068006100B9
:100210006D0065006C0065006F006E002D004D00E4
:1002200069006E0069002D0044004500530046003F
:100230006900720065004D006F0064000000380323
:100240004B00610073007000650072002000260002
:1002500020004F007300770061006C0064002000F4
:1002600047006D0062004800200028005200650031
:1002700076004700290000000403090409023E003B
:10028000020100C03209040000010202010005243D
:10029000001001042402060524060001070582035C
:1002A0000800FF09040100020A000000070504021B
:1002B000100005070583021000051201100102005D
:1002C0000008D016B2040100010200010B1516153A
:1002D000151514151315121511150C150F151015EC
:1002E0000000000100102B842BA32B223B9B39A77D
:1002F000399F39BF3A2B3B2D3B001007000000000F
:1003000000000000000000000000000000000000ED
:1003100000000000000000000000000000000000DD
:1003200000000000000000000000000000000000CD
:1003300000000000000000000000000000000000BD
:10034000000000000000000000C4307D319E312319
:100350003331333633373339330F1510150000007E
:100360000100004E4F4E450000000000000000005C
:10037000000000000000000000000000000000007D
:10038000000000014D465F44455346495245000078
:10039000000000000000000000000000000000005D
:1003A000000000000549534F3134343433415F536A
:1003B0004E4946460000000000000000000000001A
:1003C0000000000000010000010001010000010127
:1003D0000001000001000101000100000101000016
:1003E0000100010100000101000100000101000005
:1003F00001000101000100000100010100000101F4
:1004000000010000010001010001000001010000E5
:1004100001000101000100000100010100000101D3
:1004200000010000010100000100010100000101C4
:1004300000010000010001010001000001010000B5
:1004400001000101000001010001000001010000A4
:100450000100010100010000010001010000010193
:100460000001000001010000010001010000010184
:100470000001000001000101000100000101000075
:100480000100010100010000010001010000010163
:100490000001000001000101000100000101000055
:1004A0000100010100000101000100000101000044
:1004B0000100010100010000010001010000010133
:1004C0000001000001008040C020A060E0109050BA
:1004D000D030B070F0088848C828A868E818985844
:1004E000D838B878F8048444C424A464E414945438
:1004F000D434B474F40C8C4CCC2CAC6CEC1C9C5CE4
:10050000DC3CBC7CFC028242C222A262E212925219
:10051000D232B272F20A8A4ACA2AAA6AEA1A9A5AE3
:10052000DA3ABA7AFA068646C626A666E6169656D7
:10053000D636B676F60E8E4ECE2EAE6EEE1E9E5E83
:10054000DE3EBE7EFE018141C121A161E1119151DA
:10055000D131B171F1098949C929A969E9199959B3
:10056000D939B979F9058545C525A565E5159555A7
:10057000D535B575F50D8D4DCD2DAD6DED1D9D5D53
:10058000DD3DBD7DFD038343C323A363E313935389
:10059000D333B373F30B8B4BCB2BAB6BEB1B9B5B53
:1005A000DB3BBB7BFB078747C727A767E717975747
:1005B000D737B777F70F8F4FCF2FAF6FEF1F9F5FF3
:1005C000DF3FBF7FFF44465F505052494E545F505B
:1005D0004943432046756C6C496D61676500434C27
:1005E0004F4E4500004E4F4E4500000000000000F9
:1005F00000000000000000000000000000000000FB
:100600000000000000015549445F52414E444F4DE7
:1006100000000000000000000000000000000000DA
:10062000000000000000025549445F4C4546545FFD
:10063000494E4352454D454E540000000000000015
:1006400000000000000000035549445F524947483C
:10065000545F494E4352454D454E54000000000042
:100660000000000000000000045549445F4C45466E
:10067000545F44454352454D454E54000000000030
:10068000000000000000000000055549445F524989
:100690004748545F44454352454D454E5400000081
:1006A00000000000000000000000064359434C45D4
:1006B0005F53455454494E4753000000000000006A
:1006C00000000000000000000000000753544F52DB
:1006D000455F4D454D000000000000000000000097
:1006E0000000000000000000000000000852454328
:1006F000414C4C5F4D454D000000000000000000E3
:100700000000000000000000000000000009544F3D
:1007100047474C455F4649454C44000000000000F7
:1007200000000000000000000000000000000A536C
:10073000544F52455F4C4F4700000000000000003E
:100740000000000000000000000000000000000B9E
:10075000434C4F4E45000000000000000000000028
:100760000000000000000000000000000000000089
:100770000C5052494E545F53544154450000000000
:100780000000000000000000000000000000000069
:1007900000004F464600000000000000000000007E
:1007A0000000000000000000000000000000000049
:1007B0000000014D454D4F5259000000000000005F
:1007C0000000000000000000000000000000000029
:1007D000000000024C4956450000000000000000E7
:1007E0000000000000000000000000000000000009
:1007F00000000000004E4F4E4500000000000000C9
:1008000000000000000000000000000000000000E8
:10081000000000000001504F5745524544000000C1
:1008200000000000000000000000000000000000C8
:10083000000000000000025445524D494E414C5FFB
:10084000434F4E4E0000000000000000000000007A
:1008500000000000000000035445524D494E414C39
:100860005F525854580000000000000000000000D3
:1008700000000000000000000453455454494E4756
:100880005F4348414E474500000000000000000063
:10089000000000000000000000054D454D4F52597A
:1008A0005F53544F52454400000000000000000018
:1008B00000000000000000000000064D454D4F52B2
:1008C000595F4348414E4745440000000000000086
:1008D000000000000000000000000008434F4445F5
:1008E000435F5258000000000000000000000000BC
:1008F00000000000000000000000000009434F4419
:1009000045435F5458000000000000000000000054
:100910000000000000000000000000000007464941
:10092000454C445F44455445435445440000000051
:1009300000000000000000000000000000000A4C61
:100940004F474D454D5F46554C4C000000000000A0
:100950000000000000000000000000000000002572
:10096000632C25630025356400416E7920696E741F
:10097000656765722066726F6D203020746F202568
:10098000752E205265666572656E636520766F6CA4
:10099000746167652077696C6C2062652028564316
:1009A00043202A205448524553484F4C44202F207E
:1009B0003430393529206D562E00257500253564D3
:1009C0000030203D206E6F2074696D656F75740D69
:1009D0000A312D363030203D20313030206D7320EB
:1009E0002D203630303030206D732074696D656F86
:1009F0007574002575206D730025342E345800253C
:100A00003575206D56002575202866726F6D20772C
:100A100068696368202575206E6F6E2D766F6C6136
:100A200074696C65290025750025750025632C25E2
:100A300063004E4F205549442E004368616D656C3C
:100A4000656F6E4D696E69205265764720776974CF
:100A500068204445534669726520737461636B2056
:100A6000737570706F7274202553207573696E678B
:100A7000204C55464120255320636F6D70696C658D
:100A8000642077697468204156522D4743432025DE
:100A9000532E20536F75726365733A2068747470B7
:100AA000733A2F2F6769746875622E636F6D2F6DAF
:100AB0006178696564732F4368616D656C656F6EFD
:100AC0004D696E694669726D77617265444553463A
:100AD000697265537461636B0A4C6F676765723A3C
:100AE000202068747470733A2F2F67697468756278
:100AF0002E636F6D2F6D6178696564732F43686134
:100B00006D656C656F6E4D696E694C69766544659F
:100B10006275676765722E00323032302E31302EAA
:100B200031342D31333030323900313531313135D6
:100B300000392E332E300037303861303532000D19
:100B40000A000D0A000D0A000D0A000D0A000D0A28
:100B500000643130303A4F4B0000000000000000CC
:100B60000000000000000000000000000000000085
:100B70000000653130313A4F4B20574954482054DA
:100B80004558540000000000000000000000000074
:100B90000000006E3131303A57414954494E4720E8
:100BA000464F5220584D4F44454D00000000000074
:100BB00000000000C83230303A554E4B4E4F574E71
:100BC00020434F4D4D414E44000000000000000006
:100BD0000000000000C93230313A494E56414C49BC
:100BE0004420434F4D4D414E44205553414745000D
:100BF000000000000000CA3230323A494E56414CE3
:100C0000494420504152414D455445520000000096
:100C100000000000000000783132303A46414C5369
:100C2000450000000000000000000000000000007F
:100C30000000000000000000793132313A54525572
:100C4000450000000000000000000000000000005F
:100C5000000000000000000000CB3230333A54495D
:100C60004D454F55540000000000000000000000FA
:100C70000000000000000000000056455253494F9C
:100C80004E00000000000000000000000000000016
:100C90007621434F4E464947000000000000000007
:100CA0000000000000009E219821554944000000EA
:100CB000000000000000000000000000000008220A
:100CC000C921524541444F4E4C59000000000000DC
:100CD0000000000000005E22522255504C4F41445B
:100CE000000000000000000000008B220000000057
:100CF0000000444F574E4C4F41440000000000009C
:100D000000009022000000000000524553455400AE
:100D1000000000000000000000009522000000001C
:100D200000005550475241444500000000000000BB
:100D30000000A0220000000000004D454D53495A1C
:100D4000450000000000000000000000000000005E
:100D5000AB2255494453495A4500000000000000A9
:100D60000000000000000000C32252425554544FBE
:100D70004E00000000000000000000000000E12222
:100D8000D92252425554544F4E5F4C4F4E470000AB
:100D90000000000000000123F9224C425554544F3A
:100DA0004E000000000000000000000000002123B1
:100DB00019234C425554544F4E5F4C4F4E47000040
:100DC000000000000000412339234C4544475245B0
:100DD000454E0000000000000000000000006023FD
:100DE00059234C45445245440000000000000000D7
:100DF0000000000000007D2376234C4F474D4F44F8
:100E000045000000000000000000000000009823E2
:100E100093234C4F474D454D00000000000000005B
:100E20000000000000000000AD234C4F47444F5726
:100E30004E4C4F41440000000000D1230000000050
:100E400000004C4F4753544F524500000000000033
:100E50000000D6230000000000004C4F47434C45E3
:100E600041520000000000000000D92300000000F3
:100E7000000053455454494E470000000000000054
:100E8000000000000000E123DC23434C45415200F8
:100E900000000000000000000000E9230000000046
:100EA000000053544F5245000000000000000000B5
:100EB0000000ED23000000000000524543414C4C6F
:100EC00000000000000000000000F123000000000E
:100ED00000004348415247494E47000000000000CF
:100EE0000000000000000000F52348454C500000C1
:100EF00000000000000000000000FB2300000000D4
:100F000000005253534900000000000000000000A0
:100F10000000000000000000382453595354494396
:100F20004B00000000000000000000000000000076
:100F3000782453454E445F524157000000000000A2
:100F40000000000096240000000053454E440000BD
:100F500000000000000000000000000094240000D9
:100F600000004745545549440000000000000000BF
:100F700000009A2400000000000044554D505F4DD1
:100F8000465500000000000000009824000000000A
:100F900000004944454E54494659000000000000F5
:100FA00000009C2400000000000054494D454F55AE
:100FB0005400000000000000000000000000BE24FB
:100FC0009E245448524553484F4C440000000000B2
:100FD0000000000000002B2511254155544F4341CE
:100FE0004C494252415445000000BA25000000001F
:100FF00000004649454C440000000000000000008D
:101000000000000000008025AA25434C4F4E4500FB
:1010100000000000000000000000D52500000000D6
:10102000000044465F53455448445200000000000D
:101030000000000000009842824244465F50505237
:10104000494E545F504943430000000035430000BF
:10105000000044465F4657494E464F0000000000DE
:101060000000934300000000000044465F4C4F47DF
:101070004D4F444500000000000000000000D9432F
:10108000B14344465F544553544D4F44450000001E
:1010900000000000000067445F4400000000000002
:1010A0000000000000000000000000000000000040
:1010B00000000001020408102040801B3652096A1B
:1010C000D53036A538BF40A39E81F3D7FB7CE339EA
:1010D000829B2FFF87348E4344C4DEE9CB547B943C
:1010E00032A6C2233DEE4C950B42FAC34E082EA108
:1010F0006628D924B2765BA2496D8BD12572F8F6A9
:101100006486689816D4A45CCC5D65B6926C704811
:1011100050FDEDB9DA5E154657A78D9D8490D8AB8A
:10112000008CBCD30AF7E45805B8B34506D02C1E92
:101130008FCA3F0F02C1AFBD0301138A6B3A9111F1
:10114000414F67DCEA97F2CFCEF0B4E67396AC7409
:1011500022E7AD3585E2F937E81C75DF6E47F11AF5
:10116000711D29C5896FB7620EAA18BE1BFC563EB9
:101170004BC6D279209ADBC0FE78CD5AF41FDDA889
:10118000338807C731B11210592780EC5F60517F57
:10119000A919B54A0D2DE57A9F93C99CEFA0E03BB4
:1011A0004DAE2AF5B0C8EBBB3C83539961172B04B5
:1011B0007EBA77D626E169146355210C7D637C776E
:1011C0007BF26B6FC53001672BFED7AB76CA82C945
:1011D0007DFA5947F0ADD4A2AF9CA472C0B7FD937D
:1011E00026363FF7CC34A5E5F171D8311504C72375
:1011F000C31896059A071280E2EB27B27509832C73
:101200001A1B6E5AA0523BD6B329E32F8453D10048
:10121000ED20FCB15B6ACBBE394A4C58CFD0EFAA67
:10122000FB434D338545F9027F503C9FA851A340B5
:101230008F929D38F5BCB6DA2110FFF3D2CD0C1396
:10124000EC5F974417C4A77E3D645D197360814FBE
:10125000DC222A908846EEB814DE5E0BDBE0323AE0
:101260000A4906245CC2D3AC629195E479E7C83799
:101270006D8DD54EA96C56F4EA657AAE08BA78251C
:101280002E1CA6B4C6E8DD741F4BBD8B8A703EB51C
:10129000664803F60E613557B986C11D9EE1F89880
:1012A0001169D98E949B1E87E9CE5528DF8CA189C0
:1012B0000DBFE6426841992D0FB054BB164F46460C
:1012C0000046414C53450030004F4E0054525545A6
:1012D00000310025313573002573203C4F4E7C4F83
:1012E00046467C564552424F53457C4445425547FD
:1012F00047494E473E00444542554747494E4700FF
:10130000564552424F5345004F46460046414C53C6
:10131000450030004F4E00545255450031002531F4
:10132000357300444542554747494E47005645529C
:10133000424F5345004E4F524D414C004F464600E0
:101340004368616D656C656F6E2D4D696E692044F3
:1013500045534669726520656E61626C65642066FE
:1013600069726D77617265206275696C74206F6E49
:10137000202573206261736564206F6E20257320C1
:1013800066726F6D200D0A68747470733A2F2F6740
:1013900069746875622E636F6D2F6D61786965641D
:1013A000732F4368616D656C656F6E4D696E69463C
:1013B00069726D776172654445534669726553740D
:1013C00061636B2E6769742E0D0A526576697369C5
:1013D0006F6E3A2025730D0A002573203C46756C0C
:1013E0006C496D6167657C486561646572446174D0
:1013F000613E0048656164657244617461004675D0
:101400006C6C496D61676500253331730050726FF4
:1014100064756374696F6E446174650042617463DE
:10142000684E756D62657200536F667477617265A0
:1014300056657273696F6E00486172647761726598
:1014400056657273696F6E004154530025323473D0
:101450002025313273002573203C4154532D357CB7
:10146000486172647761726556657273696F6E2D3B
:10147000327C536F66747761726556657273696FFB
:101480006E2D327C42617463684E756D6265722D9B
:10149000357C50726F64756374696F6E44617465F6
:1014A0002D323E203C48657842797465732D4E3E5E
:1014B0000050544558542D44454641554C54004322
:1014C000544558542D4145533132382D434D4143F5
:1014D0000043544558542D444553005054455854E6
:1014E0002D4D414300414E590041455331323800A2
:1014F000334B3344455300324B5444454100434839
:10150000470052572F00572F00522F0049534F3199
:10151000343434332D343A20554E4B2D434D442032
:101520004E4F5F524553500049534F31343434339A
:101530002D333A20524553455420544F2049444CB2
:10154000450049534F31343434332D343A2041432C
:1015500054495645205245540049534F3134343490
:10156000332D333A20476F742048414C5400524485
:1015700059322C204E4F5420534C435420434D4459
:1015800000496E636F72726563742053656C6563A6
:10159000742076616C7565202852322900494E54BA
:1015A0004F20414354495645210049534F3134346B
:1015B00034332D343A20524459312C204E4F54208C
:1015C000534C435420434D440049534F3134343439
:1015D000332D343A2053656C656374204E414B00C3
:1015E00049534F31343434332D343A2053656C65CC
:1015F0006374204F4B0049534F31343434332D340E
:10160000202849444C45293A20415451410049532E
:101610004F31343434332D343A2049444C45202F53
:10162000204E4F5420575550410049534F313434C8
:1016300034332D343A2048414C54202F204E4F54FF
:1016400020575550410049534F31343434332D33F2
:101650003A2048414C54494E4700203D3E20005519
:101660004E4B4E4F574E5F53544154450049534FD4
:1016700031343434335F345F53544154455F414314
:10168000544956450049534F31343434335F345F45
:1016900053544154455F4558504543545F5241545B
:1016A000530049534F31343434335F33415F535423
:1016B0004154455F48414C540049534F3134343410
:1016C000335F33415F53544154455F41435449565E
:1016D000450049534F31343434335F33415F535401
:1016E0004154455F5245414459320049534F3134CA
:1016F0003434335F33415F53544154455F52454165
:101700004459310049534F31343434335F33415FEE
:1017100053544154455F49444C450049534F31347B
:101720003434332D343A205043425F535F424C4BA4
:10173000204E4F5F524553500049534F313434349B
:10174000332D343A20532D424C4B00203D3E200097
:10175000554E4B4E4F574E5F5354415445004953DD
:101760004F31343434335F345F53544154455F4117
:1017700043544956450049534F31343434335F3470
:101780005F53544154455F4558504543545F52415F
:1017900054530049534F31343434335F33415F5332
:1017A000544154455F48414C540049534F313434FF
:1017B00034335F33415F53544154455F414354498F
:1017C00056450049534F31343434335F33415F530E
:1017D000544154455F5245414459320049534F31B9
:1017E000343434335F33415F53544154455F524581
:1017F000414459310049534F31343434335F33411C
:101800005F53544154455F49444C450049534F315F
:10181000343434333450726F63657373426C6F6366
:101820006B3A2049534F31343434335F5043425F75
:10183000525F424C4F434B202D2D202564004953CD
:101840004F31343434332D343A20522D424C4B0036
:1018500049534F31343434333450726F636573738A
:10186000426C6F636B3A2049534F31343434335FE9
:101870005043425F525F424C4F434B202D2D202559
:10188000640049534F31343434332D343A20492DD8
:10189000424C4B0049534F31343434332D343A20C9
:1018A0004150505F4E4F5F524553500049534F31A6
:1018B000343434333450726F63657373426C6F63C6
:1018C0006B3A2049534F31343434335F5043425FD5
:1018D000495F424C4F434B202D2D20256400495336
:1018E0004F31343434333450726F63657373426CE8
:1018F0006F636B3A2049534F31343434335F504374
:10190000425F495F424C4F434B202D2D2025640000
:1019100049534F31343434332D343A204E45572017
:10192000434152442049440049534F313434343305
:101930002D343A2053454E442052415453004953CC
:101940004F31343434332D343A204E4F54205241E9
:1019500054530049534F31343434332D343A2043F7
:101960005243206661696C3B2025303458207673E1
:1019700020253034580049534F31343434332D341A
:101980003A206C656E677468206661696C00203D62
:101990003E2000554E4B4E4F574E5F5354415445D9
:1019A0000049534F31343434335F345F535441541E
:1019B000455F4143544956450049534F313434340F
:1019C000335F345F53544154455F45585045435449
:1019D0005F524154530049534F31343434335F33F1
:1019E000415F53544154455F48414C540049534F63
:1019F00031343434335F33415F53544154455F4194
:101A000043544956450049534F31343434335F33DE
:101A1000415F53544154455F524541445932004956
:101A2000534F31343434335F33415F535441544561
:101A30005F5245414459310049534F3134343433B6
:101A40005F33415F53544154455F49444C45004026
:101A500040204C494E452023256420696E202A25CC
:101A60007320404000526561644461746146696C52
:101A7000655365747570202D2D204552524F5221AB
:101A800000496E76616C69642066696C65207479C2
:101A90007065203D20256440256400496E76616CA8
:101AA00069642066696C6520696E646578203D20F4
:101AB0002564202F202564203B20666F7220466914
:101AC0006C654E756D203D202564004040204C49DA
:101AD0004E452023256420696E202A25732040402E
:101AE0000050494343206B65792073657474696EB7
:101AF0006773202D2D2025303278004E4F54204919
:101B00004D504C454D454E5445443A2025732100D7
:101B10000AE753351F1AEA57241FAAAA58131F7140
:101B20000000F81E770000DA1E54C855C61E5C007F
:101B300000B41EC41955A91E64D554991ECA2A653D
:101B4000861EDAA264731E6AFA555F1E6EB3535383
:101B50001E6D4C5C461E459A54351E5A2356221E55
:101B6000FC6053161E6048530A1E513C53FD1D6F06
:101B70007156F01DF5A462DE1D5FBA56C91DCD7CFD
:101B800064B81DCB5664A51DCC1264931DC1DB63E4
:101B9000791DC0A0635F1DDF6563531D61715642EF
:101BA0001DBD2D62381D3D4E612D1D6CF160231D44
:101BB0000C69601C1DDCD55F161D1C565F071D3BA4
:101BC0006C5DFA1CBB535EED1CEB3A5DDB1CC7CCB5
:101BD0005CC81CA75E5CB61CA41168A71C84CF530C
:101BE000911C82525C731C88585C551CB081594111
:101BF0001CD65C5A2B1CB24D5B161CE2E656001C30
:101C000049534F373831365F417070656E645F52AB
:101C100065636F72640049534F373831365F5265E0
:101C200061645F5265636F7264730049534F373864
:101C300031365F5570646174655F42696E617279B7
:101C40000049534F373831365F526561645F4269EE
:101C50006E6172790049534F373831365F496E747F
:101C600065726E616C5F41757468656E74696361FD
:101C700074650049534F373831365F457874657263
:101C80006E616C5F41757468656E746963617465DB
:101C90000049534F373831365F4765745F43686199
:101CA0006C6C656E67650049534F373831365F534A
:101CB000656C6563740041626F72745F5472616E2B
:101CC00073616374696F6E00436F6D6D69745F5407
:101CD00072616E73616374696F6E00436C656172EB
:101CE0005F5265636F72645F46696C65005265613F
:101CF000645F5265636F7264730057726974655FE5
:101D00005265636F7264004C696D697465645F430A
:101D10007265646974004465626974004372656445
:101D20006974004765745F56616C75650057726928
:101D300074655F4461746100526561645F446174FD
:101D400061004765745F49534F5F46696C655F4941
:101D500044730044656C6574655F46696C65004357
:101D600072656174655F4379636C69635F52656333
:101D70006F72645F46696C65004372656174655F8C
:101D80004C696E6561725F5265636F72645F46692C
:101D90006C65004372656174655F56616C75655F63
:101DA00046696C65004372656174655F4261636B8F
:101DB00075705F46696C65004372656174655F4468
:101DC0006174615F46696C65004368616E67655F59
:101DD00046696C655F53657474696E677300476527
:101DE000745F46696C655F53657474696E677300F0
:101DF0004765745F46696C655F4944730047657465
:101E00005F436172645F554944004765745F56657E
:101E10007273696F6E00466F726D61745F504943F3
:101E2000430053656C6563745F4170706C696361F6
:101E300074696F6E004765745F4B65795F536574B5
:101E400074696E6773004765745F44465F4E616DE9
:101E5000657300467265655F4D656D6F7279004709
:101E600065745F4170706C69636174696F6E5F491E
:101E700044730044656C6574655F4170706C6963A0
:101E80006174696F6E004372656174655F41707063
:101E90006C69636174696F6E004765745F4B657947
:101EA0005F56657273696F6E004368616E67655F48
:101EB0004B6579005365745F436F6E666967757231
:101EC0006174696F6E004368616E67655F4B657929
:101ED0005F53657474696E67730041757468656EED
:101EE0007469636174655F4145535F4556325F4E67
:101EF0006F6E46697273740041757468656E7469BB
:101F0000636174655F4145535F4556325F46697250
:101F100073740041757468656E7469636174655F9C
:101F20004145530041757468656E746963617465F9
:101F30005F49534F0041757468656E6963617465EC
:101F40005F4C65676163790025733A2025730057FC
:101F5000424220537461727420426C6F636B205450
:101F60006F6F204C61726765202D2D202564202D18
:101F70002D20257300524242205374617274204216
:101F80006C6F636B20546F6F204C61726765202DFE
:101F90002D202564202D2D20256400437265617459
:101FA000654170702072657475726E6564202D2DA8
:101FB0002025640A00466163746F7279207265732C
:101FC000657474696E6720746865206465766963FA
:101FD0006500466163746F7279207265736574740D
:101FE000696E672074686520646576696365003D85
:101FF0003D204149442030782530327825303278F0
:10200000253032780D0A00205B4B455953202D2D89
:10201000202564206F662025645D0D0A005D0D0A91
:1020200000202D2D202530326400202D2D20533D01
:102030002530327800202D2D20414D4B00202D2DB4
:1020400020533D2530327800202D2D20504D4B005F
:1020500020202D3E204E6F2E20253032782028253E
:102060007329205B762520326400205B46494C456D
:1020700053202D2D202564206F662025645D0D0AD8
:102080000020202D3E204E6F2E20253032780D0A64
:102090000020202D3E204E6F2E2025303278205BF0
:1020A000436F6D6D3D2573202D2D205065726D732E
:1020B0003D25735D0D0A00202020205245434F52DC
:1020C000442020202040205B547970653D25635DCD
:1020D0002052636453697A653D3078253036787CC8
:1020E0004375724E756D526364733D30782530369A
:1020F000787C4D6178526364733D30782530367852
:102100000D0A002020202056414C5545202020203B
:10211000204020436C6E3D25647C4474793D2564E9
:1021200020285072657644656269743D25642920D3
:10213000696E205B25642C2025645D2077697468B6
:10214000204C696D697465644372656469743D25EA
:10215000630D0A0020202020424B55502D4441544D
:102160004120402025203364206279746573202D3E
:102170002D20426C6B436F756E74203D2025640DDD
:102180000A00202020205354442D44415441202053
:102190004020252033642062797465730D0A00287D
:1021A000415453292025730D0A00284441544529E0
:1021B00020253032782F253032780D0A0028424110
:1021C000544348292025730D0A0028564552534987
:1021D0004F4E292048573D253032782E2530327811
:1021E0002C2053573D253032782E253032780D0A79
:1021F0000028554944292025730D0A0011241FBECB
:10220000CFEFCDBFDFE3DEBF00E00CBF18BE19BECD
:102210001ABE1BBE11E2A0E0B0E2E0E2FFEF00E078
:102220000BBF02C007900D92A431B107D9F71BBEB6
:102230002CE2A4E1B1E201C01D92AA3BB207E1F792
:10224000D5D10C94187836C30F9200240F932F9396
:102250003F934F935F930FB70F93EF93FF93EAB1C1
:10226000FBB15191442735B124B1569578F40092D1
:102270008C080092000806E10A95F1F700C001E021
:102280000093000803E000938C0804C00AE10A955B
:10229000F1F700002150304019F40E947D2C0CC051
:1022A0004F5F477011F4519102C000C000C00AE0B6
:1022B0000A95F1F700C0D9CFFF91EF910F910FBFB1
:1022C0005F914F913F912F910F910F901895F19041
:1022D000E190D190C190B190A190919081900B9498
:1022E0001B942B943B944B945B946B947B948B94B6
:1022F0009B94AB94BB94CB94DB94EB94FB940895A8
:10230000F801D894E4DF5894E2DFD894E0CFF801E4
:10231000D894DDDF5894DBDFF801D894D8CFF801EA
:10232000D894D5CFF8015894D2CFF801709658942C
:10233000CEDFF8013896D894CADFF8015894C7CF99
:10234000F8015894C4DFD894C2DFF8015894BFCF85
:10235000FF90EF90DF90CF90BF90AF909F908F90C5
:102360007F906F905F904F903F902F901124089531
:102370002F923F924F925F926F927F928F929F9295
:10238000AF92BF92CF92DF92EF92FF920F931F9383
:10239000FB0171906190519041903190219011908A
:1023A00001908A01CDDFFC017192619251924192BC
:1023B00031922192119201921F910F91C9CF2F92C8
:1023C0003F924F925F926F927F928F929F92AF92C5
:1023D000BF92CF92DF92EF92FF920F931F93FB0178
:1023E00071906190519041903190219011900190A5
:1023F0008A019BDFFC01719261925192419231926C
:102400002192119201921F910F91A2CF2F923F9290
:102410004F925F926F927F928F929F92AF92BF92F4
:10242000CF92DF92EF92FF920F931F93FC01719076
:1024300061905190419031902190119001908A01CA
:1024400066DFFB0171926192519241923192219229
:10245000119201921F910F917BCF2F923F924F9239
:102460005F926F927F928F929F92AF92BF92CF9224
:10247000DF92EF92FF920F931F93FC017190619096
:102480005190419031902190119001908A0138DF54
:10249000FB0171926192519241923192219211927B
:1024A00001921F910F9154CF2F923F924F925F92C2
:1024B0006F927F928F929F92AF92BF92CF92DF9254
:1024C000EF92FF92CF93DF93EB01DA01BF01F901A5
:1024D00071906190519041903190219011900190B4
:1024E000F990E990D990C990B990A9909990899064
:1024F0007F246E245D244C243B242A2419240824A0
:10250000FB0109957D926D925D924D923D922D92C7
:102510001D920D92019721F7D9017D926D925D92E6
:102520004D923D922D921D920D92DF91CF9110CF41
:102530002F923F924F925F926F927F928F929F92D3
:10254000AF92BF92CF92DF92EF92FF92CF93DF9341
:10255000EB01DA01BF01788069805A804B803C80B2
:102560002D801E800F80FB010995F901F190E1900B
:10257000D190C190B190A190919081907F246E24D0
:102580005D244C243B242A2419240824F990E99042
:10259000D990C990B990A99099908990F901F19238
:1025A000E192D192C192B192A192919281927D9247
:1025B0006D925D924D923D922D921D920D920197DA
:1025C00051F6DF91CF91C4CEF1E1E7E86DCFF1E1B3
:1025D000E7E8AECFF1E1E0EA67CFF1E1E0EAA8CFCA
:1025E000F1E1E0E861CFF1E1E5E9A2CF83D10E941A
:1025F000801E0E941F1F61D31092520684E08093B8
:10260000420682E680938601C1E0C0932606C0930D
:10261000210686E080932206C093310612E01093D3
:10262000320610922A0610922B068FE0809329061C
:1026300089E5809380019AE59093810180938201DE
:1026400080E480934106809346069091B200907F8B
:102650009093B2009091B20092609093B20090E398
:10266000909341069093460680935006C093460689
:102670001093450603E00093410683E1809301082F
:1026800021E030E020932608309327082093280883
:102690003093290810928C088093800810922303AD
:1026A00010922103D8E0D093220381E1809320038C
:1026B000E0911F21F091202182859385809338033A
:1026C000909339038CE380938203D09380038093AB
:1026D0008303D0938103E0D10E94DB204BD2D8D674
:1026E000C0930002109201021093020200930402B0
:1026F000C0932002D09321020E94F71C87D182E070
:10270000E82E91E1F92E0BE317E28091030481FF9B
:1027100043C08091010480FDFCCFE09203040E943D
:10272000231F5BD20E940D21BBD6E0912E27F09192
:102730002F2719950E947B1EE0911F21F0912021E7
:102740008481823079F4809117218F5F80931721E3
:1027500063E00E94D17EC0911B21D0911C2199235E
:1027600009F446C00E94A828809179218F5F6FE00C
:102770000E94D17E909379210E945920E0911F21DF
:10278000F09120218781813011F4F09276218681A9
:10279000813011F4F0927521E0912C27F0912D27D2
:1027A0001995E0912627F091272719950E94EC1B97
:1027B0000E94DF20AACF87E090E20E94417510922C
:1027C0008B2310928C2310927B216A8170E0888188
:1027D00099810E94D52087E090E20E944175109275
:1027E0008B2310928C2310927B210B80DC81C02DD7
:1027F000209721F0809118218111DDCF00930420D2
:1028000010930520E0911B21F0911C21309769F471
:102810001092192110921A2110921B2110921C2142
:1028200010921821109217219DCFD381C4818281EB
:102830002091022030910320820F932F911D8093CD
:10284000022090930320CF010E941B77ED2FFC2FD5
:10285000DDCF9C01DA01832F99278230910529F180
:102860008330910549F0019791F482E190E02AEBE1
:1028700032E02D933C930895C9019927213061F0EE
:102880008230910579F0E8E7F2E0892B39F090E0A9
:1028900080E030E020E0EDCFEEE3F2E0849190E0E4
:1028A0009F01E7CFE8E0F2E0F9CF8EE390E02CE77C
:1028B00032E0DFCF0F920FB60F921F92112408B6AD
:1028C0000F9218BEFFCF1F921FB61F9211248F9335
:1028D00088B78F9318BE9F938EB19FB180589F4F3A
:1028E0008EB99FB99F918F9188BF8F911F901FBE06
:1028F0001F9018958091780083FF0AC088E080932C
:10290000780088ED84BF81E0809380000D94FE0004
:102910008BEC80935200809150008860809350002F
:102920008091510083FFFCCF82EC80935500809111
:1029300050008061809350008091510084FFFCCF53
:1029400088ED84BF84E0809340001EB81FB881E00A
:10295000809343002FE730E020930A0430930B0468
:1029600020930C0430930D048093000480930204A0
:1029700080E880930001089588ED84BF81E0809312
:102980007900089588ED84BF8BE1809380000895DD
:10299000809150008260809350008091510081FFAF
:1029A000FCCF82E08093CA01EDE1F0E0E491E09396
:1029B0006200ECE1F0E0E491E09363001092CA0160
:1029C00080E8809365008BEB8093660080915600D1
:1029D000897F8093560080915600846080935600D2
:1029E000809160008160809360000895E0E4F0E0F1
:1029F00084818E7F8483E0E6F0E080818E7F808317
:102A0000E0E5F0E080818D7F8083089587E080930A
:102A1000A20078940895089590E080E008950895C4
:102A20000895089508950895089508950895CF93F9
:102A3000C82FE0912427F091252719950E94E028BE
:102A4000E0911F21F0912021C58389E1C89FB00149
:102A5000112464537D4F49E150E082E297E20E94E5
:102A60001A78E0912227F09123271995E0912827E1
:102A7000F09129271995C05EE0911F21F091202146
:102A80008781843011F4C09376218681843011F4DB
:102A9000C0937521CF91089549E150E06CEC72E04C
:102AA00082E297E20E941A78E0911F21F0912021A2
:102AB0008581BDCF0F931F939C018B01E0911F2156
:102AC000F0912021458163E082E693E00E94F81FA7
:102AD0001F910F910895CF93DF930F92CDB7DEB77B
:102AE000AC019E012F5F3F4F63E082E693E00E94BE
:102AF0001120882329F089810F90DF91CF910895CB
:102B00008FEFFACFFF920F931F93CF93DF930F9224
:102B1000CDB7DEB78C019E012F5F3F4FAC0163E064
:102B200082E693E00E941120F82E8823A1F089818B
:102B30007EDF980140E0F90180812F5F3F4F8823BD
:102B400019F04F5F4F31B9F7E091BB27F091BC27E7
:102B5000B80181E119958F2D0F90DF91CF911F91D1
:102B60000F91FF900895AC019B0163E082E693E032
:102B70000C943A202EB13FB1E0E0F4E0408551855D
:102B80008EB19FB160857185862B972BB0E0A0E058
:102B900064E1880F991FAA1FBB1F6A95D1F7882788
:102BA0009927A07FBF71422B532B5D5F842B952B00
:102BB0000C940D780C940A7808951F93CF93DF93AB
:102BC000162F115020F4DF91CF911F910895EC0141
:102BD0000E940A788993CE01F4CF0E940A780E945D
:102BE0000A780E940A780C940A78CF93DF93FC014C
:102BF00061507109DA01EA01C20FD31F50E040E0D1
:102C0000AC17BD0729F0CB01841B950B029728F464
:102C10001082CA01DF91CF9108959D91392F32958D
:102C20003F70903A58F4305D30839F709A3040F492
:102C3000905D918332964E5F5F4FE2CF395CF4CF67
:102C4000995CF7CFCF93DF93DC01EB01FA0150E001
:102C500040E08081882331F09181992359F14C170C
:102C60005D0721F4CA01DF91CF91089520ED280F6F
:102C70002A3020F02FEB280F2630E0F460ED690FAA
:102C80006A3020F02FEB290F2630A0F4282F30E0F7
:102C9000813458F42295207F913450F4962F292BBB
:102CA0002D934F5F5F4F3296D4CF27533109F2CF28
:102CB0009753F5CF50E040E0D5CFE0E6F6E080E175
:102CC000858382E0868388E085838AE18183E0EAE8
:102CD000F9E01682178280EC858388E18483E0E046
:102CE000F1E0128A8BE6838B148A158A20EA208F02
:102CF00099E0918F128E148E158E168E84E0808B43
:102D000012A23CE633A314A215A210A611A612A685
:102D100024A795A716A680A308959A01452B09F428
:102D200049C040E14093660643E04093A0094091CA
:102D3000A10947FFFCCF4091A0097093A0094091E1
:102D4000A10947FFFCCF4091A0096093A0094091E1
:102D5000A10947FFFCCF4091A00941E04093120137
:102D600080931C0190931D01209314013093150151
:102D70001092220184E191E280932801909329012D
:102D80002093240130932501809110018068809365
:102D900010018091200180688093200180911001B2
:102DA00087FDFCCF80E3809311018093210180E1B6
:102DB0008093650608959A01452B09F469C040E1A6
:102DC0004093660646E04093A0094091A10947FF61
:102DD000FCCF4091A00940E140936506000000004F
:102DE0004093660642E04093A0094091A10947FF45
:102DF000FCCF4091A0097093A0094091A10947FF21
:102E0000FCCF4091A0096093A0094091A10947FF20
:102E1000FCCF4091A0091092120144E151E240938D
:102E20001C0150931D01209314013093150140E1C2
:102E3000409322018093280190932901209324013B
:102E4000309325018091100180688093100180915A
:102E500020018068809320018091100187FDFCCFC4
:102E600080E3809311018093210180E180936506C6
:102E7000E0911F21F09120218781863019F481E1B2
:102E8000809376218681863019F481E180937521C3
:102E900008958091010480FDFCCF82E080930304BB
:102EA0000895CF93DF93CDB7DEB76097CDBFDEBF78
:102EB000F0DF40E150E06FEF70E0CE0101960E943C
:102EC000807840E150E070E060E0CE01019673DF71
:102ED0006096CDBFDEBFDF91CF910895E0911F21B5
:102EE000F09120218781863019F490E1909376212A
:102EF00096819630A9F420E120937521853041F424
:102F000083E180937621953019F483E180937521D4
:102F10008091010480FDFCCF82E08093030408953A
:102F2000853089F7EDCFCF92DF92EF92FF920F932A
:102F30001F936A017B01A901C11420E2D206E104BA
:102F4000F10408F069C070E060E000E010E220E009
:102F500030E00C191D092E093F094017510762077F
:102F6000730708F48A0120E12093660626E0209387
:102F7000A0092091A10927FFFCCF2091A00920E101
:102F800020936506000000002093660622E020934F
:102F9000A0092091A10927FFFCCF2091A009D09280
:102FA000A0092091A10927FFFCCF2091A009C09280
:102FB000A0092091A10927FFFCCF2091A009109220
:102FC000120124E131E220931C0130931D01009392
:102FD00014011093150120E1209322018093280110
:102FE00090932901009324011093250180911001F1
:102FF0008068809310018091200180688093200177
:103000008091100187FDFCCF80E3809311018093B4
:10301000210180E18093650681E01F910F91FF906F
:10302000EF90DF90CF900895CF92DF92EF92FF92D2
:103030000F931F936A017B01A901C11420E2D206FC
:10304000E104F10408F061C070E060E000E010E22B
:1030500020E030E00C191D092E093F0940175107E7
:103060006207730708F48A0120E12093660623E0D3
:103070002093A0092091A10927FFFCCF2091A0094E
:10308000D092A0092091A10927FFFCCF2091A0098F
:10309000C092A0092091A10927FFFCCF2091A0098F
:1030A00021E02093120180931C0190931D01009355
:1030B0001401109315011092220184E191E2809392
:1030C00028019093290100932401109325018091F8
:1030D00010018068809310018091200180688093A6
:1030E00020018091100187FDFCCF80E380931101C6
:1030F0008093210180E18093650681E01F910F910B
:10310000FF90EF90DF90CF90089580E0F7CF80910F
:10311000CF0187FDFCCF0895FADF8091CF0181FFB9
:103120000BC086E38093CA0188ED90E021E030E097
:10313000EBECF1E084BF20830895EF92FF920F93B0
:103140001F93CF93DF93EC01F62EE72E8A011092A6
:10315000C201DDDFCE01800F911F26E048ED50E077
:1031600061E070E0EBECF1E0C817D90741F4C80169
:10317000DF91CF911F910F91FF90EF900895C09331
:10318000C0013D2F3F713093C1012093CA0144BF5C
:103190006083AF2DBE2D3091C4013D932196FA2E50
:1031A000EB2EE2CF2F923F924F925F926F927F92DF
:1031B0008F929F92AF92BF92CF92DF92EF92FF9247
:1031C0000F931F93CF93DF93EC01462E372E542E8F
:1031D000652E8F71782EC81BD1099EDF98DF83E39F
:1031E0008093CA011092C1011092C201052D162DC3
:1031F00088EDC82ED12C88248394912C2BECA22E00
:10320000BB24B39433E3232E01151105A9F4852DB6
:10321000962DDF91CF911F910F91FF90EF90DF904E
:10322000CF90BF90AF909F908F907F906F905F9066
:103230004F903F902F9008957092C001E42CF32C92
:10324000F70181917F018093C4010150110921F0A0
:103250007394F0E27F1212C0C093C0018D2F8F7162
:103260008093C10195E39093CA01C601F50184BF23
:103270008082A0964CDF2092CA01712C4E2C3F2CEC
:10328000C3CF1F93CF93DF93CDB7DEB7A097CDBF4A
:10329000DEBF873009F4EEC008F03DC0843009F489
:1032A000C3C088F4823009F475C0833009F496C035
:1032B00010E0813009F457C0A096CDBFDEBFDF918A
:1032C000CF911F910895853009F0D2C0E091322747
:1032D000F0913327CE01019619958091382741E06E
:1032E000815008F444C04423D9F3282F30E0E1E0B2
:1032F000F0E0EC0FFD1FE20FF31F908141E0911110
:1033000040E061E070E06C0F7D1F260F371F915089
:10331000F9019083E5CF8A3009F4B0C090F4883089
:1033200009F4AAC0893041F680910008813009F083
:10333000ACC080918C08833009F0A7C00E943D2961
:10334000BBCF8B3009F49CC08C3009F0B5CF85EC35
:1033500095E098C02FDCE1E0F0E0EC0FFD1FE10FFD
:10336000F11D80831F5F80913827181798F3E09133
:103370003427F0913527CE0101961995E091BB27AE
:10338000F091BC2740913827BE016F5F7F4F83E1EA
:10339000199592CF11E080913827873009F010E01D
:1033A000E0913227F0913327CE01019619952091B3
:1033B0003827E1E0F0E0EC0FFD1FE10FF11D91E097
:1033C0001217A8F6992339F0808191E08F3F09F018
:1033D00090E08F5F80831F5F3196F2CFE0913227BC
:1033E000F0913327CE01019619958091382741E05D
:1033F000815008F4BCCF4423D9F3282F30E0E1E01A
:10340000F0E0EC0FFD1FE20FF31F908141E09F3FC2
:1034100009F040E061E070E06C0F7D1F260F371F60
:103420009F5FF9019083E4CF11E0809138278730C6
:1034300009F010E0E0913227F0913327CE01019698
:10344000199520913827E1E0F0E0EC0FFD1FE10F26
:10345000F11D91E0121708F08ACF992331F0808195
:1034600091E0811190E0815080831F5F3196F2CF0F
:10347000A8D422CF33DD20CF0CDD1ECFB5D31CCF97
:103480008EED95E00E94E02717CF0E94182914CFF7
:10349000E0E0F6E080E6828388E1868B858B089504
:1034A000CF9380910806C82FC09586FD1DC08091DE
:1034B00016218A3070F48F5F80931621C5FF30C0CB
:1034C000809115218A3008F58F5F80931521CF9167
:1034D00008958A3099F7E0911F21F0912021818190
:1034E000D0DE80911621E7CF8C2F807639F780913E
:1034F000162181508A3030F4E0911F21F091202173
:103500008081BFDE10921621D9CF8A3001F7E09179
:103510001F21F09120218381B4DE80911521D4CF29
:10352000C076A9F68091152181508A3030F4E0915F
:103530001F21F09120218281A4DE10921521C7CF96
:10354000AC019B016DE084EE95E094C5E82FF0E0BE
:10355000E25EFE4D63836787638F67A363AB67AFEC
:10356000E55BFF4F608308950F931F939B018A01D2
:10357000E0911F21F0912021E80FF11D40816DE0C5
:1035800084EE95E035D51F910F9108950F931F9309
:10359000CF93DF930F92CDB7DEB7082FAB019E011B
:1035A0002F5F3F4F6DE084EE95E03BD5182F8823C9
:1035B00019F06981802FCADF812F0F90DF91CF91A1
:1035C0001F910F91089508958F929F92AF92BF928D
:1035D000CF92DF92EF92FF920F931F93CF93DF93DF
:1035E000882E962E072F142FCEB0DFB080910804BE
:1035F00090910904A0900420B0900520E42EF12CB5
:10360000A7014C5F5F4F20910220309103202417C7
:10361000350708F06BC0C0911B21D0911C218BE3B2
:10362000A81687E2B80649F5DF91CF911F910F9157
:10363000FF90EF90DF90CF90BF90AF909F908F90D2
:10364000089587E090E20E94417510928B231092BA
:103650008C2310927B216A8170E088819981A5D5A5
:1036600087E090E20E94417510928B2310928C2388
:1036700010927B210B80DC81C02D209721F080915E
:1036800018218111DECF8BE397E280930420909381
:103690000520E0911B21F0911C21309799F41092A4
:1036A000192110921A2110921B2110921C211092A4
:1036B0001821109217218BE397E2809304209093B6
:1036C0000520B2CFD381C481828120910220309124
:1036D0000320820F932F911D80930220909303204B
:1036E000CF010E941B77ED2FFC2FD7CFC82AD92AF4
:1036F00085E090E00E948576EC01A882B98284E0A2
:10370000810F8A831B821C82C5010196809304204D
:1037100090930520F5018082E0910420F09105202E
:10372000CF01019680930420909305201083E091AF
:103730000420F0910520CF010196809304209093FE
:103740000520D082E0910420F0910520CF01019660
:103750008093042090930520C082A701692D702FCB
:1037600080910420909105200E9466788091042029
:10377000909105208E0D9F1D80930420909305202D
:10378000809102209091032004978E199F098093C5
:1037900002209093032080911B2190911C21892B62
:1037A00091F0E0911921F0911A21309761F0C383D3
:1037B000D483C0931921D0931A21809118218F5F4F
:1037C0008093182131CFC0931921D0931A21C0932F
:1037D0001B21D0931C21F1CF08954F925F926F92DD
:1037E0007F928F929F92AF92BF92CF92DF92EF9291
:1037F000FF920F931F93CF93DF938C012A013B011C
:10380000E901C0900020D0900120C60182589F435A
:10381000AC0170E060E0441655066606770608F0D5
:1038200073C022E0C21A20E4D20A530142018C0E76
:103830009D1EA11CB11C84169506A606B70608F4A9
:1038400043C09C0124193509C81BD90B7E01E40C27
:10385000F51CE90199249394C601B0E0A0E0B201FF
:10386000481659066A067B0608F045C06E5F7F4B16
:10387000A30192012C0F3D1F411D511D281739072F
:103880004A075B0728F5AE01C80147DA992051F0D5
:10389000EC0EFD1EF801EE0DFF1DC00FD11FEC1741
:1038A000FD0781F581E0DF91CF911F910F91FF908E
:1038B000EF90DF90CF90BF90AF909F908F907F90D0
:1038C0006F905F904F900895F12CE12C912CC4CF14
:1038D0005601A418B508A501C8011FDAA2014C19A8
:1038E0005D094C0F5D1F6BE377E2C8018A0D9B1DDC
:1038F0000E946678CBCF6C197D09655C784DAE016E
:10390000C801F6CF1292CBCF80E0CDCFEBE3F7E248
:1039100020910220309103208BEB97E2821B930BC6
:10392000E817F90751F58BE397E280930420909311
:10393000052080E890E0809302209093032082E0AD
:1039400090E4809300209093012042E050E060E0FA
:1039500070E480E090E22FDAE0911F21F0912021C5
:1039600087818A3019F480E18093762186818A30BC
:1039700019F480E18093752108951192D1CF80913F
:103980000220909103209058209100203091012036
:10399000821B930B0895809325218093312180937E
:1039A0003D2180934921809355218093612180930B
:1039B0006D21E0911F21F09120218483813069F0F5
:1039C000823081F0811108C010921D2183EE9AE1AE
:1039D0008093BB279093BC27089580931D218EE48C
:1039E0009DE1F6CF10921D2184EE9AE1F1CFCF93A5
:1039F000DF930F92CDB7DEB7E0911F21F091202128
:103A00008481C9DF8BE397E28093042090930520A3
:103A100080E890E0809302209093032041E050E002
:103A2000BE016F5F7F4F80E090E087DBE091042074
:103A3000F091052080E8DF011D928A95E9F78981E0
:103A40008823A1F042E050E060E070E480E090E282
:103A500064D9E091BB27F091BC2740E070E060E0C2
:103A60008FEF19950F90DF91CF91089582E090E448
:103A7000809300209093012042E050E060E070E4E9
:103A800080E090E298D981E0898341E050E0BE0176
:103A90006F5F7F4F80E090E085DBDBCF0F931F935C
:103AA000CF93DF93CEB1DFB1E0910804F091090428
:103AB0002091022030910320A42FB0E08D010C5FF3
:103AC0001F4F2017310708F44DC0EC2BFD2B24505D
:103AD00031092A1B3B0B2093022030930320A09135
:103AE0000420B09105209D012F5F3F4F20930420BB
:103AF000309305208C93A0910420B0910520CD0136
:103B0000019680930420909305204C93A09104206B
:103B1000B0910520CD01019680930420909305205B
:103B2000FC93A0910420B0910520CD0101968093D3
:103B3000042090930520EC93415028F4DF91CF911D
:103B40001F910F910895FB01A0910420B0910520D1
:103B5000CD010196809304209093052081918C9350
:103B6000BF01EACF80E017DFE0911F21F091202113
:103B700087818A3019F481E18093762186818A30A9
:103B8000E9F681E180937521D9CF1F93CF93DF931D
:103B90000F92CDB7DEB7AC019E012F5F3F4F63E0C0
:103BA00081E997E03ED2182F882311F08981F3DE56
:103BB000812F0F90DF91CF911F9108950F931F9345
:103BC0009C018B01E0911F21F0912021448163E051
:103BD00081E997E00DD21F910F910895AC019B01EF
:103BE00063E081E997E046C20F931F93CF93DF9381
:103BF00080910220909103208038910508F076C0D2
:103C00000091002010910120C0E0D0E8C01BD10B32
:103C100040E850E0481B590BC417D507B0F1B80174
:103C20008BE397E2C8D82091022030910320809145
:103C300000209091012080589F4F821B930B80930E
:103C4000002090930120EBE3F7E28BEB97E2821BDD
:103C5000930B8E179F07B9F48BE397E280930420B0
:103C60009093052080E890E08093022090930320B9
:103C700042E050E060E070E480E090E2DF91CF91BC
:103C80001F910F9198C81192E4CF209779F1AE015E
:103C9000B8018BE397E28FD8A80140585F47BE0177
:103CA000655C784D8BE397E20E946F7810588091A5
:103CB000042090910520080F191F009304201093F1
:103CC000052080910220909103208C0F9D1F8093EE
:103CD0000220909303208091002090910120C80F32
:103CE000D91FC0930020D0930120C2CFDF91CF9184
:103CF0001F910F91089580911D21811175CF089515
:103D000047E550E06EE171E281E090E016CA47E5D8
:103D100050E06EE171E281E090E044CA0F931F939E
:103D2000CF93DF93D82FCFEFC80F80E0C73008F0D4
:103D300043C00E94E02880911E21C81769F1CED8A7
:103D4000C0931E218CE0C89F900111242F5D3E4D31
:103D500020931F21309320219CD8E0911F21F091C6
:103D6000202185810E941715E0911F21F0912021CB
:103D7000848111DE81E090E08C010E51114260914E
:103D80001E210E945E7F60911F2170912021C80139
:103D9000815E9E4D0E94677FD15EE0911F21F09170
:103DA00020218781843011F4D0937621868184305C
:103DB00011F4D093752181E0DF91CF911F910F9184
:103DC000089590911E2128E0E7E0F0E03CE02150CA
:103DD00009F40895892F90E00196BF010E94DD7ECD
:103DE000BC01982F369FA001379F500D1124425ED1
:103DF0005E4DDA0118968C91882349F381E0890F92
:103E00008DCFFC0180911E218F5C808311820895EB
:103E1000CF93DC0111968C91119781110DC0CC913B
:103E2000E091BB27F091BC2741E0BD0182E11995EB
:103E300080ED8C0FCF9172CF80E0CF91089588E113
:103E400080930106089580917521823139F148F4FB
:103E5000803181F18131F1F0882391F11092752147
:103E60002FC08331F9F090EE980F9830B8F7909109
:103E7000772121E0290F911121C09091040693FF31
:103E800015C098E090930606803241F381508093EC
:103E9000752116C088E080930506E0CF88E0809306
:103EA0000706DCCF8091040683FD04C088E0809380
:103EB000050606C088E080930606D0CF20937721C0
:103EC00080917621823131F140F4803181F181316C
:103ED000E9F081111092762108958331F9F090EE86
:103EE000980F9830B8F79091782121E0290F91111F
:103EF00021C09091040694FF15C090E190930606AE
:103F0000803241F3815080937621089580E180933F
:103F10000506E0CF80E180930706DCCF80910406A0
:103F200084FD04C080E180930506089580E18093BC
:103F30000606D0CF209378210895AC019B016BE059
:103F400084EF97E097C0EEE1F1E222E731E2982FAB
:103F50009071887091116287811161873C962E174C
:103F60003F07C1F7992329F090E19093060610923C
:103F70007621882329F088E0809306061092752127
:103F800008950F931F939B018A01803161F4E091A2
:103F90001F21F091202147816BE084EF97E028D02A
:103FA0001F910F9108958830D9F7E0911F21F0916A
:103FB00020214681F1CF0F931F93CF93DF930F9270
:103FC000CDB7DEB7082FAB019E012F5F3F4F6BE0EF
:103FD00084EF97E026D0182F882319F06981802F6D
:103FE000B2DF812F0F90DF91CF911F910F91089534
:103FF0000F931F93FC01742FC901A801611102C026
:1040000080E00AC024916150271309C0BF016F5F8F
:104010007F4F0E944A7881E01F910F910895B196D9
:10402000EDCFDF92EF92FF920F931F93CF93DF9329
:10403000EC01162F042FD52E7901111102C080E05A
:104040000FC0BE016F5F7F4F802F9D2D0E94417872
:104050001150892B69F4FE01C491F701C08381E0FE
:10406000DF91CF911F910F91FF90EF90DF90089516
:10407000A196E3CFDA01A90101963CE2611104C0E7
:10408000452B09F01C920895FC012491211109C0CF
:10409000623020F041155105B1F33D936150819696
:1040A000EDCF4115510579F32D93319641505109CA
:1040B000ECCFCF93DF9300D000D0CDB7DEB78091A7
:1040C00020028068809320028091230280FFFCCF31
:1040D00081E080932302A0911002B0911102AE5BA7
:1040E000B109B7FF02C0B0E0A0E020E038EB4BE040
:1040F00050E00E94177F6B837C838D839E83AA2769
:10410000BB27E0911F21F0912021378126814D812D
:104110005E81443F5140C8F4373019F480E1809308
:104120007621273019F480E180937521809138271A
:10413000882329F0E0912A27F0912B2719952696BC
:10414000CDBFDEBFDF91CF910895373019F431E153
:1041500030937621273019F421E1209375212091A5
:1041600079212111ECCF99838A83E091BB27F091CB
:10417000BC2742E0BE016F5F7F4F88E41995DFCF17
:10418000BC0187E090E20C94CC74CF93DF93EC01F8
:10419000FE0164912196611103C0DF91CF910895D2
:1041A00087E090E20E941675F3CFAB01BC0187E077
:1041B00090E20C94F07480E2809362060895CF93AD
:1041C000DF9380917A21823029F587E090E20E9486
:1041D00081750E94F27087E090E20E949C75EC016C
:1041E00097FD18C0E0911F21F09120218781833035
:1041F00019F483E1809376218681833019F483E179
:10420000809375218C2F05D5811104C08C2FDF91EF
:10421000CF91F8C6DF91CF91089580917A218230B5
:1042200019F168F4811113C08091680685FF09C0F7
:104230008FE08093062081E080937A2102C0833052
:10424000E1F080917A21823031F533D681C78091B7
:1042500006208150809306208111F3CF0E94C8145C
:104260000E94F97382E0E8CF8091680685FDE9CF6E
:104270008FE08093062083E0DFCF8091062081507D
:10428000809306208111DDCF0E94BE730E94F61438
:1042900010927A21D6CF0895E0911F21F09120212C
:1042A0008781823019F481E1809376218681823082
:1042B00019F481E1809375210895E0911F21F09117
:1042C00020218781823019F480E1809376218681D4
:1042D000823019F480E180937521089587E090E29F
:1042E0000C94A77487E090E20C94EC7527E33BE014
:1042F0003F932F9321E33BE03F932F932AE23BE050
:104300003F932F9328E13BE03F932F932AE33AE03A
:104310003F932F9322E02F931F929F938F930E949E
:10432000BD788DB79EB70E968DBF9EBF85E608956A
:1043300060E072E00E945A1585E60895CF93DF93FE
:10434000EB0128812F3359F42981211108C060E045
:1043500072E00E94B31585E6DF91CF910895CE01FA
:104360000E946B15882399F00E945117CE010E947C
:104370008215E0911F21F0912021CF018F5F9F4F87
:104380006581895191420E945E7F84E6E5CF8AEC87
:10439000E3CFEF92FF920F931F93CF93DF93CDB7AD
:1043A000DEB7A097CDBFDEBF8C0180913827E82E05
:1043B000F12C81111CC082E39AE09F938F9382E0DD
:1043C0008F931F921F930F930E94BD780F900F90B1
:1043D0000F900F900F900F9085E6A096CDBFDEBF97
:1043E000DF91CF911F910F91FF90EF900895E09191
:1043F0003227F0913327CE01019619959701AE012E
:104400004F5F5F4F60E072E0C8010E94F515E4CF96
:10441000DF92EF92FF920F931F93CF93DF93CDB76D
:10442000DEB7A097CDBFDEBF7B01D090382768E90B
:1044300070E2C7010E9441788E010F5F1F4F892BE8
:1044400031F578018E2D801B8D15D8F0E091342741
:10445000F0913527C8011995E091BB27F091BC2751
:1044600040913827B80183E1199584E6A096CDBF25
:10447000DEBFDF91CF911F910F91FF90EF90DF9002
:1044800008950E94DA15F70181937F01DBCFA70120
:1044900060E270E0C8010E942216D8161906B1F237
:1044A0008AECE4CFFC0180913927882329F081E34D
:1044B0008083118285E6089580E3FACFFB01218194
:1044C000211127C02081213329F481E080933927ED
:1044D00084E60895203319F410923927F9CF2F3349
:1044E000C1F41F9220E32F931F9221E32F932CE21C
:1044F0003AE03F932F9322E02F931F929F938F9345
:104500000E94BD788DB79EB70A968DBF9EBF85E687
:1045100008958AEC089583E997E149D38EE60895DA
:1045200084E198E160D38EE60895E0ECF4E08181C7
:104530008E7F81830E94BE730E94BC1484E608951E
:10454000E0ECF4E081818E7F81830E94BE730E9443
:10455000C21484E60895E2E2F7E225892F932489C4
:104560002F9329E23AE03F932F9322E02F931F925B
:104570009F938F930E94BD788DB79EB708968DBF8D
:104580009EBF85E60895209138271F922F9326E23B
:104590003AE03F932F9322E02F931F929F938F93A4
:1045A0000E94BD788DB79EB708968DBF9EBF85E6E9
:1045B0000895BC0140E052E080E00E94B41A85E614
:1045C0000895FB0120812F3349F42181211106C078
:1045D00060E072E00E94A01A85E60895BF0180E0C5
:1045E0000E94C61A882319F092DB84E608958AECAB
:1045F0000895BC0140E052E081E00E94B41A85E6D3
:104600000895FB0120812F3349F42181211106C037
:1046100060E072E00E94A01A85E60895BF0181E083
:104620000E94C61A882319F072DB84E608958AEC8A
:104630000895BC0140E052E082E00E94B41A85E691
:104640000895FB0120812F3349F42181211106C0F7
:1046500060E072E00E94A01A85E60895BF0182E042
:104660000E94C61A882319F052DB84E608958AEC6A
:104670000895BC0140E052E083E00E94B41A85E650
:104680000895FB0120812F3349F42181211106C0B7
:1046900060E072E00E94A01A85E60895BF0183E001
:1046A0000E94C61A882319F032DB84E608958AEC4A
:1046B0000895BC0140E052E080E163DC85E60895A6
:1046C000FB0120812F3341F42181211105C060E0DD
:1046D00072E033DC85E60895BF0180E16CDC88235D
:1046E00019F015DB84E608958AEC0895BC0140E0DA
:1046F00052E088E046DC85E60895FB0120812F33F7
:1047000041F42181211105C060E072E016DC85E6EC
:104710000895BF0188E04FDC882319F0F8DA84E6B9
:1047200008958AEC089560E072E048DA85E608951D
:10473000FB0120812F3341F42181211105C060E06C
:1047400072E04CDA85E60895CF011FDA882319F06C
:10475000DEDA84E608958AEC0895CF93DF93EC01C6
:104760000ED99C018038910510F420E830E02058E3
:1047700031093F932F939F938F9386E09AE09F9305
:104780008F9382E08F931F92DF93CF930E94BD7827
:104790008DB79EB70A968DBF9EBF85E6DF91CF91FC
:1047A00008958DEE9BE11FD28EE608951DDA84E612
:1047B0000895ACD884E6089560E072E022DB85E6D7
:1047C0000895CB0125DB811102C08AEC089584E6AF
:1047D00008950E94511784E608950E946E1784E69A
:1047E00008950E94491784E6089590916806917093
:1047F00089E7891B0895DF92EF92FF920F931F9331
:10480000CF93DF93EC010FEF11E08AE7E82E8CE005
:10481000F82E9CE2D92EB70184EA90E20E944178FA
:10482000892B19F00115110509F52197188285E6E4
:10483000DF91CF911F910F91FF90EF90DF9008953E
:10484000488331968901EC014491CE01019698018B
:1048500021503109442319F00130110589F7D8821C
:10486000890128E1E20EF11CEC01D5CFF701ECCF74
:10487000CF93DF9300D00F92CDB7DEB7FC018091CC
:1048800020028068809320028091230280FFFCCF69
:1048900081E080932302A0911002B0911102AE5BDF
:1048A000B109B7FF02C0B0E0A0E020E038EB4BE078
:1048B00050E00E94177F69837A838B839C83AC01CD
:1048C000662777275F934F938FEF99E09F938F939E
:1048D00082E08F931F92FF93EF930E94BD78CDBF2C
:1048E000DEBF85E62496CDBFDEBFDF91CF91089570
:1048F0002EB13FB14091080450910904242B352B6F
:104900003F932F9329EF39E03F932F9322E02F938A
:104910001F929F938F930E94BD788DB79EB7089684
:104920008DBF9EBF85E6089589EC089589EC0895B2
:1049300089EC089589EC089589EC0895E0911F2190
:10494000F09120214085518564E6649F9001659F28
:10495000300D11243F932F9323EF39E03F932F9392
:1049600022E02F931F929F938F930E94BD788DB763
:104970009EB708968DBF9EBF85E60895CF93DF93BF
:104980000F920F92CDB7DEB7FB0120812F33D1F408
:104990002181211117C021EC39E03F932F9322E0B0
:1049A0002F931F929F938F930E94BD780F900F902B
:1049B0000F900F900F900F9085E60F900F90DF9162
:1049C000CF91089589E592E089839A83CE0101967B
:1049D0009F938F938DEB99E09F938F93FF93EF932A
:1049E0000E94F3780F900F900F900F900F900F9000
:1049F000892BA9F069817A81693582E0780778F49A
:104A0000E0911F21F091202160877187CF018F5F96
:104A10009F4F865191420E94677F84E6CECF8AECF9
:104A2000CCCFE0911F21F091202123852F93228567
:104A30002F932AEB39E03F932F9322E02F931F927D
:104A40009F938F930E94BD788DB79EB708968DBFB8
:104A50009EBF85E60895CF93DF930F920F92CDB757
:104A6000DEB7FB0120812F33D1F42181211117C042
:104A70002FE02F932FEF2F9329E639E03F932F93C9
:104A800022E02F931F929F938F930E94BD78CDBFFA
:104A9000DEBF85E60F900F90DF91CF9108951982C8
:104AA0001A82CE0101969F938F9385E699E09F939A
:104AB0008F93FF93EF930E94F3780F900F900F90D6
:104AC0000F900F900F90892BC9F069817A81611541
:104AD00090E1790798F46093380370933903E0917B
:104AE0001F21F091202162877387CF018F5F9F4F35
:104AF000845191420E94677F84E6CCCF8AECCACF72
:104B0000FB0120812F33D9F42181211121C01F9273
:104B100020E32F931F9221E32F932FE539E03F935A
:104B20002F9322E02F931F929F938F930E94BD7823
:104B30008DB79EB70A968DBF9EBF85E60895213337
:104B400019F476D384E60895203311F496D3FACF7E
:104B50008AEC0895FC0180910008813021F4809155
:104B60008C08833029F080E38083118285E60895E4
:104B700081E3FACFE0911F21F091202185818530DA
:104B800091F4E0912A27F0912B27199581E08093E9
:104B90002D240E94233388E393E380938923909309
:104BA0008A238FEF089589EC089589EC08959C017C
:104BB00091E090938823909387238CE380938523BF
:104BC00085E090E0809383239093842310927D234B
:104BD00010927E2310927F231092802320937B23B8
:104BE00030937C23089527E0209388232CE231E042
:104BF000209383233093842310927D2310927E236D
:104C000010927F231092802380937B2390937C23A8
:104C10000895CF9390918823963009F4B7C0A0F4FB
:104C2000943009F48DC0953009F49CC0933030F471
:104C300091116CC0C0E08C2FCF9108959330D1F7C3
:104C40008093862384E069C0983009F4FBC09930D2
:104C500009F46DC0973071F7853109F0F0C01092FA
:104C60008723809187238F5F8093872340917D23C3
:104C700050917E2360917F2370918023E0917B236C
:104C8000F0917C2320E830E08BE791E21995C82F62
:104C9000882309F407C161E087E090E20E9416755D
:104CA0006091872387E090E20E94167560918723C8
:104CB000609587E090E20E94167560E870E08BE7EF
:104CC00091E273DA60E08BE791E2FC0101962081CA
:104CD000620F51E28B3F9507C1F787E090E20E9497
:104CE000167580917D2390917E23A0917F23B091B2
:104CF000802380589F4FAF4FBF4F80937D23909369
:104D00007E23A0937F23B093802395CF813041F4FD
:104D1000109281231092822383E0809388230EC017
:104D2000843041F466E087E090E20E9416751092AC
:104D3000882304C08831D9F38B31C9F3C1E07BCF1C
:104D4000909186232FEF30E0291B3109821713063B
:104D500011F485E0E2CF65E187E090E20E941675EC
:104D600082E0DBCF2091812330918223A9014F5F24
:104D70005F4F409381235093822325583E4DF90184
:104D8000808386E040385105C9F6C7CF209186233D
:104D90009091872329134BC090E02BE731E2F90172
:104DA0002F5F3F4F4081940FF1E22B3F3F07B9F750
:104DB0008913D1CF40917D2350917E2360917F2331
:104DC00070918023E0917B23F0917C2320E830E0F8
:104DD0008BE791E21995C82F882311F180918723E1
:104DE0008F5F8093872380917D2390917E23A09174
:104DF0007F23B091802380589F4FAF4FBF4F809348
:104E00007D2390937E23A0937F23B093802366E03D
:104E100087E090E20E94167582E0809388230BCF92
:104E200068E187E090E20E94167568E17CCF492F27
:104E30004150550B24171506C1F766E08DCF8B3115
:104E400009F475CF883109F46DCF863009F409CFA4
:104E5000853109F073CF61E087E090E20E9416751A
:104E60006091872387E090E20E9416756091872306
:104E7000609587E090E20E94167560E870E08BE72D
:104E800091E293D960E08BE791E2FC0101962081E9
:104E9000620FE1E28B3F9E07C1F787E090E20E943C
:104EA00016754CCF64E087E090E20E94167589E0A9
:104EB00034CF80918823813019F0873029F108950B
:104EC00080918323909184239C0121503109209368
:104ED000832330938423892B31F5809185239FEFA1
:104EE000980F90938523882361F065E187E090E235
:104EF0000E94167585E090E080938323909384232D
:104F0000089510928823F6CF809183239091842373
:104F10009C01215031092093832330938423892BD2
:104F200011F4109288230895282F90E080E0FC016E
:104F3000EF5AF44FE491E21303C08E5A944F089550
:104F40008196893231E0930791F790E080E00895EF
:104F5000FC01862FBA018F33E1F4769625913491C6
:104F60002115310559F18BE791E2F90119958F3F30
:104F700031F591E090938F232EB13FB14091080419
:104F800050910904242B352B20938D2330938E23AD
:104F900008958D3359F47496259134912115310576
:104FA00069F08BE791E2F9011995E1CF811102C017
:104FB0007096D4CF803211F47296EECF89EC0895BA
:104FC0000F931F93CF93DF93182F092FCAE7DCE0CD
:104FD000BE01812F902F0E944178892B49F450E027
:104FE00040E060E0CE01DF91CF911F910F91B0CFF3
:104FF000689680E1C23BD80759F7DF91CF911F91A6
:105000000F910895EF92FF920F931F93CF93DF9329
:105010009FE9980F2FEB280F2A3148F19A3148F178
:1050200090ED980F9A3040F08F3531F0982F9D7F9A
:105030009D3311F08032F9F420918B2330918C2331
:105040002F3F91E0390758F4A9014F5F5F4F40931C
:105050008B2350938C2325583E4DF901808381E0AA
:10506000DF91CF911F910F91FF90EF9008959A31AA
:1050700018F78052E1CF8D3009F053C0E0918B23B7
:10508000F0918C23E558FE4D108210928B231092E4
:105090008C2300918F230111E2CF80917B21982FE7
:1050A0009F7D99F488EC40DF70D88EE49BE06DD84A
:1050B0000023A9F280917B21882389F28BE791E27A
:1050C0005FD88BE49BE061D8CACF8D7F8D3351F3DD
:1050D000EBE7F1E27F011191112331F01F3321F051
:1050E0001D3311F01032B1F7F7011082CAE7DCE08E
:1050F000BE018BE791E20E944178892B61F4109206
:105100007B21A7014F5F5F4F612FCE0121DF01E0BF
:105110008F3F49F6A4CF6896F0E1C23BDF0741F725
:10512000C1CF883069F480918B2390918C230097B4
:1051300009F495CF019780938B2390938C238FCF85
:105140008B3109F08CCF10928B2310928C2387CF58
:1051500080918F23882399F1E0911F21F0912021E4
:10516000208531852115310551F18EB19FB14091D6
:10517000080450910904842B952B40918D23509164
:105180008E23841B950B64E670E00E94DD7E62171F
:105190007307A8F010928F238BECC6DE0E94C52007
:1051A00088E49BE00E94C520E0918923F0918A2346
:1051B000309729F019951092892310928A23089527
:1051C00080918F238823A9F010928F238BECACDE83
:1051D0000E94C52088E49BE00E94C520E0918923BD
:1051E000F0918A23309729F0199510928923109213
:1051F0008A230895CF93DF93EB0190918F23992316
:10520000A1F010928F2390DE0E94C52085E49BE0E0
:105210000E94C520209749F0CE010E94C02082E460
:105220009BE0DF91CF910C94C520DF91CF91089541
:10523000809100088130E1F480918C088330C1F4C2
:10524000089581E08093000893E090938C08809308
:105250009623109297238EB19FB12091080430912C
:105260000904822B932B80939D2390939E23089572
:1052700080919823882329F3089510928C08109226
:105280000008E6E9F3E2108211820895E0911F21FF
:10529000F091202182859385409682879387809321
:1052A000380390933903828593850895A0E2B6E090
:1052B00081E015968C9315972DEB37E228B939B913
:1052C0002DE338E22AB93BB910B813B812B816B8B2
:1052D00017B811B8E0E0F9E010A211A22FEF30E00A
:1052E00026A337A32FEF3FEF20A731A7808398E8AD
:1052F000938390E1948793E097831C968C931C97FB
:1053000082E01A968C9308951F921FB61F92112463
:105310008F9388B78F9318BE8BB78F931BBE9F93C5
:10532000EF93FF93E0E0F9E013828FE790E086AB24
:1053300097AB81E190E080AF91AFE0E0FAE010A29E
:1053400011A28FEF9FEF86A397A389E8838316822C
:1053500081E084878EE0808310922A06FF91EF918E
:105360009F918F918BBF8F9188BF8F911F901FBE90
:105370001F9018951F921FB61F9211242F9328B7C4
:105380002F9318BE2BB72F931BBE3F938F939F93E2
:10539000EF93FF939091280683B1967021E009F076
:1053A00020E0880F822B83B982B1882309F476C06C
:1053B00012B883B187708730D9F51092000980E167
:1053C00080930C091092030A1B9B2DC08CEA94E079
:1053D0008093260A9093270A82E081B981E0809326
:1053E0000C0A83E08093060A86B197B1877039F082
:1053F00090B18F5F8930D1F4E8B1F9B1908381E049
:1054000080939F2388E880930309FF91EF919F91F8
:105410008F913F912F912BBF2F9128BF2F911F90DC
:105420001FBE1F9018958CE694E0D2CF9695E1CFE1
:1054300093B1892F8C7031F3947081B181111EC0AA
:1054400080B186959923C1F090E0892B80B926B16F
:1054500037B12F5F3F4F26B937B927703327232B3A
:1054600089F6E8B1F9B19F012F5F3F4F28B939B9EB
:10547000808381E081B9C6CF90E8E7CF81B18130E8
:1054800009F0C0CFEAB1FBB19F012F5F3F4F2AB9AE
:105490003BB9911180E0808311B8B4CF82B180957F
:1054A00082B9B0CF1F920F920FB60F92112408B697
:1054B0000F9218BE0BB60F921BBE2F933F938F9384
:1054C0009F93EF93FF9381B1823098F081B18D303B
:1054D00080F4E1B1F0E0EE0FFF1FEE5BFF4D0190B5
:1054E000F081E02D19948FE790E08093260A909345
:1054F000270AFF91EF919F918F913F912F910F90EC
:105500000BBE0F9008BE0F900FBE0F901F90189506
:105510008E9A8EE0809340088FE390E08093260A75
:105520009093270A85E081B9E4CF8E9886E081B90F
:105530008FEF82B914B815B8E8B1F9B1808180B99C
:10554000D8CF009B06C08E9A82B1809582B987E041
:10555000EACF8E98FCCF009B11C08E9880B18695C3
:1055600080B984B195B1019684B995B984B195B1EA
:1055700087709927892B21F488E0D5CF8E9AEECFBA
:1055800024B135B186B197B12817390751F58AE0B2
:10559000CACFEAB1FBB1309731F08081882329F07E
:1055A0008E9A89E0C0CF82B1F9CF8E98FACFEAB156
:1055B000FBB13097D1F080818823A9F08E98319685
:1055C000EAB9FBB924B135B186B197B128173907CB
:1055D000F1F2E8B1F9B1CF01019688B999B98181A9
:1055E00080B986E0A0CF8E9AEACF82B1882321F0DD
:1055F0008E988FEF82B9E6CF8E9AFBCF8E988BE094
:1056000092CF8E988CE08FCF1092000A1092060AEB
:10561000109240081092410881E08093A02369CF46
:10562000CF93DF93EFE9F3E210821182E0E4F6E03A
:10563000128A84E08283C0E8D1E082E68E83A0E211
:10564000B6E081E016968C93169711968C9311977D
:1056500096E012969C93129751968C93519732E054
:1056600052963C9352971A961C921A971B961C922C
:105670001B979FE019969C9399E598832AE52983C7
:105680009A8390E491839683A0EBB0E012962C91DC
:105690001297207F12962C93129712962C911297A4
:1056A000226012962C9320E321832683908B86839D
:1056B000358383E08183E0E0F8E083E1818321E0CA
:1056C00030E026A337A320A731A7E0E8F8E014864E
:1056D0008083E0E2F3E01382118288E0828391E12B
:1056E0009083A0911F21B09120211A962D913C9179
:1056F000208F318FE0E8F3E09CE3928380839383F3
:105700008183DF91CF91D2CDA0E2B6E01A961C92B0
:105710001A97EFE9F3E210821182E0E0F9E01082DB
:105720001382178280E18487E0E0FAE0108213821E
:10573000168281E08487E0E4F8E0108211821696F8
:105740008C938E980895CF93DF9380919F23882325
:1057500009F476C010929F23C6B1D7B1C730D105E6
:1057600008F47AC0AE01495F5F4F93E056954795C4
:105770009A95E1F7E091BB27F091BC276DEB77E2BA
:1057800080E41995E0911F21F091202187818830D4
:1057900019F483E1809376218681883019F483E1BE
:1057A00080937521E0913027F0913127BE018DEB78
:1057B00097E21995EC0194FF4CC0DF7E8DE398E2EF
:1057C0008AB99BB9209709F447C0AE01495F5F4F82
:1057D00083E0569547958A95E1F7E091BB27F091D4
:1057E000BC276DEB77E281E41995E0911F21F091E0
:1057F00020218781893019F483E180937621868185
:10580000893019F483E180937521C6B9D7B98DEB3E
:1058100097E288B999B910926008109261088FE0F8
:1058200090E0809366089093670888E090E080930A
:105830006A0890936B0883E28093410883E081B902
:105840008091A023882371F01092A023DF91CF9143
:105850002DCD1AB81BB8B6CF1092000A1092060AC6
:1058600025DDEECFDF91CF9108951F921FB61F92D5
:1058700011242F9328B72F9318BE2BB72F931BBE3D
:105880003F938F939F93EF93FF93E0E0F9E080E4E1
:1058900084871782E0E8F3E082E0878389EB8183E5
:1058A0008DEB97E28AB99BB981E090E084B995B914
:1058B00016B88EB19FB12091080430910904822B53
:1058C000932B8093A2239093A32381E08093A6231C
:1058D00018B817B81092A12388E080938706FF912B
:1058E000EF919F918F913F912F912BBF2F9128BFC7
:1058F0002F911F901FBE1F901895E0E0F9E08FEFE9
:1059000094E086A397A380E6848780E387838FEF64
:1059100090E086AB97AB88E08093870608951F924E
:105920001FB61F9211242F9328B72F9318BE2BB7A1
:105930002F931BBE3F934F935F938F939F93EF9350
:10594000FF931092070A1092000A109247091092D2
:105950004009809181038E7F8093810384B195B14A
:1059600080FF16C0379B5EC086B1869586B984B12C
:1059700095B1019684B995B987709927892B41F41F
:10598000EAB1FBB1CF0101968AB99BB986B1808398
:1059900084B195B187709927892BC9F086B144B13C
:1059A00055B1E4B1F5B193E0F695E7959A95E1F735
:1059B000E354F84D90E04770552728E030E0241B71
:1059C000350B02C0959587952A95E2F7808381E093
:1059D0008093A5231092A6238FEF9FEF8093260A32
:1059E0009093270A1092200A1092210A1092060A18
:1059F0001092070A1092030A84E08093000A83E061
:105A00008093A123FF91EF919F918F915F914F918F
:105A10003F912F912BBF2F9128BF2F911F901FBE19
:105A20001F90189586B186958068A0CF1F921FB6EB
:105A30001F9211248F9388B78F9318BE8BB78F93C3
:105A40001BBEEF93FF93E0E8F3E081818F7C8183BD
:105A5000E0E0FAE088E8838381E08083FF91EF91C2
:105A60008F918BBF8F9188BF8F911F901FBE1F900A
:105A700018951F921FB61F9211248F9388B78F938A
:105A800018BE8BB78F931BBE9F93EF93FF938091AC
:105A90006009109260091092610993E090934009A7
:105AA0008135B8F5813348F186B18695806886B92D
:105AB00084B195B1019684B995B987709927892BDE
:105AC00041F4EAB1FBB1CF0101968AB99BB986B125
:105AD000808386B1869586B984B195B1019684B9E3
