:100000000C942B0D0C94600D0C94600D0C94600DF1
:100010000C94600D0C94600D0C94600D0C94600DAC
:100020000C94600D0C94600D0C94F60F0C94600D04
:100030000C94600D0C94600D0C94600D0C94600D8C
:100040000C94600D0C94600D0C94600D0C94600D7C
:100050000C94600D0C94600D0C94600D0C94600D6C
:100060000C94600D0C94600D0C94600D0C94600D5C
:100070000C94600D0C94600D0C94600D0C94600D4C
:100080000C94600D0C94600D0C94E6260C94322FA9
:100090000C94600D0C94600D0C94600D0C94600D2C
:1000A0000C94600D0C94600D0C94600D0C94600D1C
:1000B0000C94600D0C94600D0C94600D0C94B4279E
:1000C0000C94600D0C942F2B0C949D300C94600DAF
:1000D0000C94600D0C94600D0C94600D0C94600DEC
:1000E0000C94600D0C94600D0C94600D0C94600DDC
:1000F0000C94600D0C94600D0C94600D0C94600DCC
:100100000C94600D0C94600D0C94600D0C94600DBB
:100110000C9478300C940C2B0C94600D0C94600DA6
:100120000C94600D0C94600D0C94600D0C94600D9B
:100130000C94600D0C94600D0C94600D0C941C27B5
:100140000C94990D0C942B2A0C945C2F0C94600D3C
:100150000C94600D0C94852A0C946A310C94600DFB
:100160000C94600D0C94600D0C94600D0C94600D5B
:100170000C94600D0C94600D0C94600D0C94600D4B
:100180000C94600D0C94600D0C94600D0C94600D3B
:100190000C94600D0C94600D0C94600D0C94600D2B
:1001A0000C94600D0C94600D0C94600D0C94600D1B
:1001B0000C94600D0C94600D0C94600D0C94600D0B
:1001C0000C94600D0C94600D0C94600D0C94600DFB
:1001D0000C94600D0C94600D0C94600D0C94600DEB
:1001E0000C94600D0C94600D0C94600D0C94600DDB
:1001F0000C94600D0C94F26E0C94600D6364696E47
:100200006F70737578585B002E03430068006100BF
:100210006D0065006C0065006F006E002D004D00E4
:1002200069006E0069002D0044004500530046003F
:1002300069007200650000002A034B006100730032
:100240007000650072002000260020004F0073003F
:10025000770061006C006400200047006D006200C0
:10026000480000000403090409023E00020100C026
:1002700032090400000102020100052400100104FB
:100280002402060524060001070582030800FF0971
:10029000040100020A00000007050402100005071F
:1002A0000583021000051201100102000008D0169B
:1002B000B20401000102DC019E10A910A810A710D1
:1002C000A610A510A4109F10A210A31000000001FA
:1002D0007228E6280529143430343434A410353417
:1002E00040375337400007007228E6280529283494
:1002F00030343434A41035344037533750000700BD
:100300007228E62805292C3430343434A4103534CE
:1003100040375337A40007007228E6280529933791
:10032000CF37D337A410D437A53EC33E0004040012
:100330007228E6280529A237CF37D337A410D4373F
:10034000A53EC33E000407007228E6280529B13700
:10035000CF37D337A410D437A53EC33E00100400D6
:100360007228E6280529C037CF37D337A410D437F1
:10037000A53EC33E001007007228E6280529D05884
:10038000D958DC58A410DD58DE58E058001007009A
:100390007228E6280529D358D958DC58A410DD580E
:1003A000DE58E058001007007228E6280529D658C4
:1003B000D958DC58A410DD58DE58E058001007006A
:1003C000000000000000000000000000000000002D
:1003D00000000000000000002232DB32FC32DF555A
:1003E000ED55F255F355F555A210A310000000018C
:1003F0009729192ACA2B184E1B4E284E294EEA500F
:10040000A210A31000000000004E4F4E4500000057
:1004100000000000000000000000000000000000DC
:10042000000000000000000000014D465F554C54E4
:1004300052414C49474854000000000000000000B1
:1004400000000000000000000000024D465F554C17
:100450005452414C494748545F4556315F38304209
:100460000000000000000000000000034D465F5542
:100470004C5452414C494748545F4556315F3136E0
:10048000344200000000000000000000044D465F00
:10049000434C41535349435F314B0000000000007F
:1004A00000000000000000000000000000054D46B4
:1004B0005F434C41535349435F314B5F3742000028
:1004C0000000000000000000000000000000064DD9
:1004D000465F434C41535349435F344B0000000097
:1004E0000000000000000000000000000000000705
:1004F0004D465F434C41535349435F344B5F374252
:1005000000000000000000000000000000000000EB
:10051000084D465F444553464952450000000000DF
:1005200000000000000000000000000000000000CB
:1005300000094D465F444553464952455F45563193
:100540005F324B00000000000000000000000000CF
:1005500000000A4D465F444553464952455F4556A3
:10056000315F344B0000000000000000000000007C
:100570000000000B4D465F444553464952455F45D8
:1005800056315F384B000000000000000000000002
:10059000000000000C49534F3134343433415F5371
:1005A0004E49464600000000000000000000000028
:1005B00000000000000D49534F3134343433415FA3
:1005C0005245414445520000000000000000000078
:1005D0000000000000000100000100010100000116
:1005E0000100010000010001010001000001010003
:1005F00000010001010000010100010000010100F3
:1006000000010001010001000001000101000001E2
:1006100001000100000100010100010000010100D2
:1006200000010001010001000001000101000001C2
:1006300001000100000101000001000101000001B2
:1006400001000100000100010100010000010100A2
:100650000001000101000001010001000001010092
:100660000001000101000100000100010100000182
:100670000100010000010100000100010100000172
:100680000100010000010001010001000001010062
:100690000001000101000100000100010100000152
:1006A0000100010000010001010001000001010042
:1006B0000001000101000001010001000001010032
:1006C0000001000101000100000100010100000122
:1006D000010001000001008040C020A060E01090F7
:1006E00050D030B070F0088848C828A868E818983A
:1006F00058D838B878F8048444C424A464E4149422
:1007000054D434B474F40C8C4CCC2CAC6CEC1C9CD9
:100710005CDC3CBC7CFC028242C222A262E21292FD
:1007200052D232B272F20A8A4ACA2AAA6AEA1A9AD9
:100730005ADA3ABA7AFA068646C626A666E61696C1
:1007400056D636B676F60E8E4ECE2EAE6EEE1E9E79
:100750005EDE3EBE7EFE018141C121A161E11191BB
:1007600051D131B171F1098949C929A969E91999A9
:1007700059D939B979F9058545C525A565E5159591
:1007800055D535B575F50D8D4DCD2DAD6DED1D9D49
:100790005DDD3DBD7DFD038343C323A363E313936D
:1007A00053D333B373F30B8B4BCB2BAB6BEB1B9B49
:1007B0005BDB3BBB7BFB078747C727A767E7179731
:1007C00057D737B777F70F8F4FCF2FAF6FEF1F9FE9
:1007D0005FDF3FBF7FFF004E4F4E4500000000002F
:1007E0000000000000000000000000000000000009
:1007F00000000000000000015549445F52414E4492
:100800004F4D00000000000000000000000000004C
:100810000000000000000000025549445F4C4546BE
:10082000545F494E4352454D454E54000000000070
:10083000000000000000000000035549445F5249D9
:100840004748545F494E4352454D454E54000000C1
:1008500000000000000000000000045549445F4C07
:100860004546545F44454352454D454E54000000B3
:100870000000000000000000000000055549445F32
:1008800052494748545F44454352454D454E5400F4
:100890000000000000000000000000000643594373
:1008A0004C455F53455454494E47530000000000E7
:1008B000000000000000000000000000000753548A
:1008C0004F52455F4D454D00000000000000000004
:1008D00000000000000000000000000000000852BE
:1008E0004543414C4C5F4D454D0000000000000069
:1008F00000000000000000000000000000000009EF
:10090000544F47474C455F4649454C440000000062
:1009100000000000000000000000000000000000D7
:100920000A53544F52455F4C4F47000000000000EF
:1009300000000000000000000000000000000000B7
:10094000000B434C4F4E450000000000000000002B
:100950000000000000000000000000000000000097
:100960000000004F464600000000000000000000AC
:100970000000000000000000000000000000000077
:10098000000000014D454D4F52590000000000008D
:100990000000000000000000000000000000000057
:1009A00000000000024C4956450000000000000015
:1009B0000000000000000000000000000000000037
:1009C0000000000000004E4F4E45000000000000F7
:1009D0000000000000000000000000000000000017
:1009E00000000000000001504F57455245440000F0
:1009F00000000000000000000000000000000000F7
:100A000000000000000000025445524D494E414C88
:100A10005F434F4E4E000000000000000000000049
:100A20000000000000000000035445524D494E41B3
:100A30004C5F5258545800000000000000000000B5
:100A40000000000000000000000453455454494ECB
:100A5000475F4348414E474500000000000000004A
:100A600000000000000000000000054D454D4F5201
:100A7000595F53544F5245440000000000000000ED
:100A80000000000000000000000000064D454D4F32
:100A900052595F4348414E47454400000000000062
:100AA00000000000000000000000000008434F4468
:100AB00045435F52580000000000000000000000A5
:100AC0000000000000000000000000000009434F8B
:100AD0004445435F5458000000000000000000003F
:100AE00000000000000000000000000000000746B9
:100AF00049454C445F444554454354454400000037
:100B00000000000000000000000000000000000ADB
:100B10004C4F474D454D5F46554C4C000000000082
:100B200000000000000000000000000000000000C5
:100B300025632C25630025356400416E7920696E9C
:100B400074656765722066726F6D203020746F2047
:100B500025752E205265666572656E636520766F19
:100B60006C746167652077696C6C2062652028561B
:100B70004343202A205448524553484F4C44202F89
:100B8000203430393529206D562E00257500253545
:100B9000640030203D206E6F2074696D656F757440
:100BA0000D0A312D363030203D20313030206D732C
:100BB000202D203630303030206D732074696D6503
:100BC0006F7574002575206D730025342E34580020
:100BD000253575206D56002575202866726F6D20AD
:100BE0007768696368202575206E6F6E2D766F6C4F
:100BF0006174696C65290025750025750025632CD5
:100C000025630052414E444F4D004E4F20554944FC
:100C10002E004368616D656C656F6E4D696E69206D
:100C200052657647202553207573696E67204C55B1
:100C3000464120255320636F6D70696C6564207791
:100C4000697468204156522D4743432025532E2076
:100C50004261736564206F6E20746865206F7065F3
:100C60006E2D736F75726365204E464320746F6FEF
:100C70006C204368616D656C656F6E4D696E692EA1
:100C80002068747470733A2F2F6769746875622EC8
:100C9000636F6D2F656D7365632F4368616D656C60
:100CA000656F6E4D696E6920636F6D6D6974202587
:100CB0005300323030363132003135313131350088
:100CC000392E332E300035633038346135000D0A4B
:100CD000000D0A000D0A000D0A000D0A000D0A00A1
:100CE000643130303A4F4B0000000000000000003B
:100CF00000000000000000000000000000000000F4
:100D000000653130313A4F4B205749544820544503
:100D10005854000000000000000000000000000027
:100D200000006E3131303A57414954494E47204610
:100D30004F5220584D4F44454D0000000000000028
:100D4000000000C83230303A554E4B4E4F574E20BF
:100D5000434F4D4D414E4400000000000000000094
:100D600000000000C93230313A494E56414C4944E6
:100D700020434F4D4D414E442055534147450000BF
:100D80000000000000CA3230323A494E56414C4908
:100D90004420504152414D4554455200000000004E
:100DA000000000000000783132303A46414C534593
:100DB0000000000000000000000000000000000033
:100DC00000000000000000793132313A545255459C
:100DD0000000000000000000000000000000000013
:100DE0000000000000000000CB3230333A54494D7F
:100DF000454F5554000000000000000000000000B6
:100E000000000000000000000056455253494F4EBC
:100E10000000000000000000000000000000009D35
:100E20001C434F4E464947000000000000000000F0
:100E30000000000000C51CBF1C5549440000000014
:100E400000000000000000000000000000261DE778
:100E50001C524541444F4E4C590000000000000018
:100E600000000000007C1D701D55504C4F41440097
:100E7000000000000000000000A91D0000000000AC
:100E800000444F574E4C4F4144000000000000000A
:100E900000AE1D0000000000005245534554000004
:100EA000000000000000000000B31D000000000072
:100EB000005550475241444500000000000000002A
:100EC00000BE1D0000000000004D454D53495A452D
:100ED000000000000000000000000000000000C949
:100EE0001D55494453495A450000000000000000C8
:100EF00000000000000000E11D52425554544F4EC6
:100F000000000000000000000000000000FE1DF7CF
:100F10001D52425554544F4E5F4C4F4E47000000F7
:100F200000000000001B1E141E4C425554544F4E2E
:100F300000000000000000000000000000381E312A
:100F40001E4C425554544F4E5F4C4F4E47000000CC
:100F50000000000000551E4E1E4C454447524545BA
:100F60004E000000000000000000000000721E6B38
:100F70001E4C4544524544000000000000000000A3
:100F800000000000008F1E881E4C4F474D4F444507
:100F900000000000000000000000000000AA1EA5E4
:100FA0001E4C4F474D454D00000000000000000062
:100FB00000000000000000BF1E4C4F47444F574E3A
:100FC0004C4F41440000000000E31E000000000000
:100FD000004C4F4753544F524500000000000000A2
:100FE00000E81E0000000000004C4F47434C454104
:100FF000520000000000000000EB1E000000000096
:101000000053455454494E470000000000000000C2
:101010000000000000F31EEE1E434C45415200004C
:10102000000000000000000000FB1E0000000000A7
:101030000053544F52450000000000000000000023
:1010400000FF1E000000000000524543414C4C00D0
:10105000000000000000000000031F00000000006E
:10106000004348415247494E47000000000000003D
:1010700000000000000000071F48454C5000000021
:101080000000000000000000000D1F000000000034
:10109000005253534900000000000000000000000F
:1010A000000000000000004A1F5359535449434BAD
:1010B0000000000000000000000000000000008AA6
:1010C0001F53454E445F524157000000000000008E
:1010D00000000030200000000053454E4400000096
:1010E0000000000000000000000000A61F0000003B
:1010F000004745545549440000000000000000002E
:1011000000EE2000000000000044554D505F4D46A9
:10111000550000000000000000D120000000000089
:10112000004944454E544946590000000000000063
:10113000000B2100000000000054494D454F55545C
:10114000000000000000000000000000004821280E
:10115000215448524553484F4C44000000000000C1
:101160000000000000B5219B214155544F43414CE4
:101170004942524154450000004422000000000052
:10118000004649454C4400000000000000000000FB
:1011900000000000000A223422434C4F4E4500005C
:1011A00000000000000000000070220000000000AD
:1011B0000044465F56455253494F4E000000000020
:1011C0000000000000A75AA65A44465F4D414E5504
:1011D00046414354555245520000000000A95AA808
:1011E0005A44465F53455249414C4E4F000000005F
:1011F0000000000000AB5AAA5A44465F50505249C2
:101200004E545F504943430000AC5A0000000000B8
:101210000044465F4657494E464F0000000000001C
:1012200000AD5A00000000000044465F4C4F474D9F
:101230004F444500000000000000000000AF5AAE1F
:101240005A44465F544553544D4F444500000000F6
:101250000000000000B15AB05A44465F5245414474
:101260005F41505044495200000000B25A00000053
:101270000044465F4C4953545F41505044495253D7
:1012800000B35A00000000000044465F524541444C
:101290005F46494C45000000000000B45A000000C1
:1012A0000044465F4C4953545F46494C4553000047
:1012B000000000B55A00000000000000000000001F
:1012C000000000000000000000000000000000001E
:1012D0000053414B3A09005549443A0900415451E1
:1012E000413A090054686572652069732061742071
:1012F0006C65617374206F6E65206D6F726520631D
:1013000061726420747970652063616E64696461E0
:1013100074652C206275742074686572652077612D
:1013200073206E6F7420656E6F75676820746572C8
:101330006D696E616C20627566666572207370619E
:1013400063652E0D0A000D0A00040001090100006A
:10135000000000000000000000000000000000008D
:101360004E58500000000000000000000000000087
:101370004D4946415245204D696E6900000000000C
:10138000000000000000000000000000000000005D
:10139000000000000000000000000000000000004D
:1013A000000000000000000000000000000000003D
:1013B000040001080100000000000000000000001F
:1013C000000000000000004E585000000000000027
:1013D000000000000000004D494641524520436C8A
:1013E000617373696320316B00000000000000002E
:1013F00000000000000000000000000000000000ED
:1014000000000000000000000000000000000000DC
:1014100000000000000000020001180100000000B0
:1014200000000000000000000000000000004E5816
:1014300050000000000000000000000000004D49C6
:101440004641524520436C617373696320346B00DD
:10145000000000000000000000000000000000008C
:10146000000000000000000000000000000000007C
:101470000000000000000000000000000000440028
:10148000010001000000000000000000000000005A
:1014900000000000004E5850000000000000000056
:1014A00000000000004D494641524520556C7472C1
:1014B000616C6967687400000000000000000000B3
:1014C000000000000000000000000000000000001C
:1014D000000000000000000000000000000000000C
:1014E00000000000004400010001000000000000B6
:1014F0000000000000000000000000004E585000F6
:101500000000000000000000000000004D494641BE
:10151000524520556C7472616C6967687420430091
:1015200000000000000000000000000000000000BB
:1015300000000000000000000000000000000000AB
:101540000000000000000000000000004400010056
:10155000000000000000000000000000000000008B
:101560000000004E58500000000000000000000085
:101570000000004D494641524520556C7472616C23
:1015800069676874204556310000000000000000C3
:10159000000000000000000000000000000000004B
:1015A000000000000000000000000000000000003B
:1015B00000000044030120017577810280000000D3
:1015C000000000000000000005004E585000000020
:1015D000000000000000000000004D494641524557
:1015E0002044455346697265000000000000000079
:1015F00000000000000000000000000000000000EB
:1016000000000000000000000000000000000000DA
:1016100000000000000000000000440301200175EC
:10162000778102800000000000000000000000053B
:10163000004E5850000000000000000000000000B4
:10164000004D494641524520444553466972652044
:1016500045563100000000000000000000000000BE
:10166000000000000000000000000000000000007A
:10167000000000000000000000000000000000006A
:101680000004030128013877B14A434F5033310039
:10169000000000000000090149424D000000000068
:1016A00000000000000000004A434F5033310000AA
:1016B000000000000000000000000000000000002A
:1016C000000000000000000000000000000000001A
:1016D000000000000000000000000000000000000A
:1016E000000000000000000048000120017877B1F0
:1016F000024A434F5076323431000000000C014959
:10170000424D000000000000000000000000004A00
:10171000434F5033312076322E342E3100000000FA
:1017200000000000000000000000000000000000B9
:1017300000000000000000000000000000000000A9
:101740000000000000000000000000000000004851
:10175000000120013833B14A434F50343156323200
:10176000000000000C0149424D0000000000000094
:101770000000000000004A434F5034312076322EE2
:101780003200000000000000000000000000000027
:101790000000000000000000000000000000000049
:1017A0000000000000000000000000000000000039
:1017B00000000000000004000128013833B14A4352
:1017C0004F503431563233310000000D0149424D43
:1017D000000000000000000000000000004A434F2D
:1017E0005034312076322E332E31000000000000BC
:1017F00000000000000000000000000000000000E9
:1018000000000000000000000000000000000000D8
:1018100000000000000000000000000000040001C3
:10182000880100000000000000000000000000002F
:1018300000000000496E66696E656F6E0000000072
:10184000000000004D494641524520436C617373CE
:10185000696320316B000000000000000000000000
:101860000000000000000000000000000000000078
:101870000000000000000000000000000000000068
:1018800000000000020001980100000000000000BC
:10189000000000000000000000000047656D706C53
:1018A00075730000000000000000004D50434F53CE
:1018B0000000000000000000000000000000000028
:1018C0000000000000000000000000000000000018
:1018D0000000000000000000000000000000000008
:1018E0000000000000000000000000000C010000EB
:1018F00000000000000000000000000000000000E8
:101900000000496E6E6F766973696F6E20522654BF
:1019100000004A6577656C000000000000000000D0
:1019200000000000000000000000000000000000B7
:1019300000000000000000000000000000000000A7
:101940000000000000000000000000000000000097
:10195000000002000138010000000000000000004B
:101960000000000000000000004E6F6B6961000085
:101970000000000000000000004D49464152452093
:10198000436C617373696320346B202D20656D7522
:101990006C6174656420283632313220436C617387
:1019A00073696329000000000000000000000000CF
:1019B00000000000000000000008000138010000E5
:1019C0000000000000000000000000000000000017
:1019D0004E6F6B6961000000000000000000000015
:1019E0004D494641524520436C617373696320340D
:1019F0006B202D20656D756C61746564202836310F
:101A00003331204E46432900000000000000000052
:101A100000000000000000000000000000000000C6
:101A200028212121292044455346697265205465A7
:101A3000726D696E616C20436F6D6D616E64204ED6
:101A40004F542059455420494D504C454D454E5416
:101A500045442E00FD6711241FBECFEFCDBFDFE34D
:101A6000DEBF00E00CBF18BE19BE1ABE1BBE14E2DA
:101A7000A0E0B0E2E4E3F2EF00E00BBF02C00790A9
:101A80000D92A638B107D9F71BBE2AE3A6E8B4E247
:101A900001C01D92A136B207E1F71DE0CBE2DDE007
:101AA00000E006C021970109802FFE010E946271AB
:101AB000CA32D10780E00807A9F792D10C941879AF
:101AC0008CC23BB78BBFFB01879196913BBF0895BA
:101AD0003BB78BBFCB0142E20D94F00F3BB70B013C
:101AE00043E20D94F00F3BB78BBFCB0145E20D9461
:101AF000F00F3BB746E208C02091CF0127FDFCCF95
:101B000022272093CA0108954093CA0128ED31E0AD
:101B1000209334003093CB016091C4017091C501D2
:101B20008091C60199270895FC014093CA018491D0
:101B300008950F9200240F932F933F934F935F9339
:101B40000FB70F93EF93FF93EAB1FBB15191442785
:101B500035B124B1569578F400928C0800920008B3
:101B600006E10A95F1F700C001E00093000803E0E8
:101B700000938C0804C00AE10A95F1F70000215097
:101B8000304019F40E94732A0CC04F5F477011F463
:101B9000519102C000C000C00AE00A95F1F700C0F0
:101BA000D9CFFF91EF910F910FBF5F914F913F916F
:101BB0002F910F910F901895F190E190D190C190D5
:101BC000B190A190919081900B941B942B943B9495
:101BD0004B945B946B947B948B949B94AB94BB944D
:101BE000CB94DB94EB94FB940895F801D894E4DF54
:101BF0005894E2DFD894E0CFF801D894DDDF589410
:101C0000DBDFF801D894D8CFF80170965894D4DF70
:101C1000F8013896D894D0DFF8015894CDCFF80168
:101C20005894CADFD894C8DFF8015894C5CFFF9004
:101C3000EF90DF90CF90BF90AF909F908F907F906C
:101C40006F905F904F903F902F90112408952F92A6
:101C50003F924F925F926F927F928F929F92AF923C
:101C6000BF92CF92DF92EF92FF920F931F93FC01EE
:101C7000719061905190419031902190119001901C
:101C80008A01BADFFB0171926192519241923192C5
:101C90002192119201921F910F91C9CF2F923F92E1
:101CA0004F925F926F927F928F929F92AF92BF926C
:101CB000CF92DF92EF92FF92CF93DF93EB01DA01A5
:101CC000BF01F90171906190519041903190219044
:101CD00011900190F990E990D990C990B990A9908C
:101CE000999089907F246E245D244C243B242A24DF
:101CF00019240824FB0109957D926D925D924D9205
:101D00003D922D921D920D92019721F7D9017D925E
:101D10006D925D924D923D922D921D920D92DF91AA
:101D2000CF9185CF2F923F924F925F926F927F9289
:101D30008F929F92AF92BF92CF92DF92EF92FF92DB
:101D4000CF93DF93EB01DA01BF01788069805A807D
:101D50004B803C802D801E800F80FB010995F9018E
:101D6000F190E190D190C190B190A190919081902B
:101D70007F246E245D244C243B242A241924082427
:101D8000F990E990D990C990B990A99099908990CB
:101D9000F901F192E192D192C192B192A192919204
:101DA00081927D926D925D924D923D922D921D9207
:101DB0000D92019751F6DF91CF9139CFFDE0ECEF15
:101DC0006DCFFDE0ECEFAECFFEE0EFE067CFFEE0E1
:101DD000EFE0A8CFFDE0E5EF61CFFEE0E4E0A2CFC9
:101DE0001CD10E94B9190E94521AB8D21092520600
:101DF00084E08093420682E680938601C1E0C0932E
:101E00002606C093210686E080932206C093310601
:101E100012E01093320610922A0610922B068FE0E1
:101E20008093290689E5809380019AE5909381014A
:101E30008093820180E480934106809346069091CE
:101E4000B200907F9093B2009091B2009260909314
:101E5000B20090E39093410690934606809350061B
:101E6000C09346061093450603E00093410683E1C4
:101E70008093010821E030E0209326083093270862
:101E8000209328083093290810928C0880938008AA
:101E90001092230310922103D8E0D093220381E112
:101EA00080932003E0917231F091733182859385A4
:101EB00080933803909339038CE380938203D0930B
:101EC000800380938303D09381036DD10E94001C13
:101ED000C1D114D7C09300021092010210930202E4
:101EE00000930402C0932002D09321020E94541850
:101EF00020D1D2E0C1E18091030481FF25C080910F
:101F0000010480FDFCCFD09303040E94561AB6D181
:101F10000E94331CFBD60E94B419E0916331F0910A
:101F2000643119950E945C250E948C1BE0917231EE
:101F3000F09173318781813011F4C0938F2C8681A9
:101F4000813011F4C0938E2C0E94041CA5D7E0911F
:101F50006131F09162311995E0915B31F0915C3122
:101F60001995C9CF9C01DA01832F992782309105F9
:101F700079F18330910549F00197A1F482E190E075
:101F800026EA32E02D933C930895C9019927223027
:101F9000E1F08330910558F4009789F0E8E3F2E02E
:101FA000019779F090E080E030E020E0EBCF8C3DCD
:101FB0009105C1F780E790E028E030E0E3CFE4E668
:101FC000F2E0849190E09F01DDCFE8E0F2E0F9CF0C
:101FD0008EE390E028E632E0D5CF0F920FB60F9255
:101FE0001F92112408B60F9218BEFFCF1F921FB682
:101FF0001F9211248F9388B78F9318BE9F938EB131
:102000009FB180589F4F8EB99FB99F918F9188BF84
:102010008F911F901FBE1F9018958091780083FFAD
:102020000AC088E08093780088ED84BF81E08093C7
:1020300080000D94FE008BEC809352008091500044
:102040008860809350008091510083FFFCCF82EC28
:102050008093550080915000806180935000809162
:10206000510084FFFCCF88ED84BF84E08093400062
:102070001EB81FB881E0809343002FE730E0209323
:102080000A0430930B0420930C0430930D048093C6
:1020900000048093020480E880930001089588ED95
:1020A00084BF81E080937900089588ED84BF8BE13F
:1020B000809380000895809150008260809350004A
:1020C0008091510081FFFCCF82E08093CA01EDE155
:1020D000F0E0E491E0936200ECE1F0E0E491E09361
:1020E00063001092CA0180E8809365008BEB8093B7
:1020F000660080915600897F80935600809156003B
:1021000084608093560080916000816080936000BD
:102110000895E0E4F0E084818E7F8483E0E6F0E0DF
:1021200080818E7F8083E0E5F0E080818D7F8083F9
:10213000089587E08093A20078940895089590E030
:1021400080E00895089508950895089508950895E4
:10215000089508950F931F93CF93C82F07E511E3B8
:10216000D8011296ED91FC9119950E949425E09169
:102170007231F0917331C583B8E1CB9FB001112466
:1021800068547D4F48E150E0C8010E94EF71D801CA
:10219000ED91FC911995D8011696ED91FC91CF9196
:1021A0001F910F91199448E150E068EB72E087E5C8
:1021B00091E30E94EF71E0917231F091733185816A
:1021C000C9CF0F931F939C018B01E0917231F09165
:1021D000733145816EE088E094E00E942B1B1F91D3
:1021E0000F910895FF920F931F93CF93DF930F9258
:1021F000CDB7DEB78C019E012F5F3F4FAC016EE083
:1022000088E094E00E94441BF82E8823A1F0898185
:10221000A1DF980140E0F90180812F5F3F4F8823C3
:1022200019F04F5F4F31B9F7E0916F31F091703194
:10223000B80181E119958F2D0F90DF91CF911F91FA
:102240000F91FF900895AC019B016EE088E094E04F
:102250000C946D1B08950C94E17108951F93CF9316
:10226000DF93162F115020F4DF91CF911F91089525
:10227000EC010E94E1718993CE01F4CF0E94E171DB
:102280000E94E1710E94E1710C94E171CF93DF93A0
:10229000FC0161507109DA01EA01C20FD31F50E05D
:1022A00040E0AC17BD0729F0CB01841B950B0297CA
:1022B00028F41082CA01DF91CF9108959D91392FA2
:1022C00032953F70903A58F4305D30839F709A3069
:1022D00040F4905D918332964E5F5F4FE2CF395C60
:1022E000F4CF995CF7CFCF93DF93DC01EB01FA01D8
:1022F00050E040E08081882331F09181992359F1A9
:102300004C175D0721F4CA01DF91CF91089520EDAC
:10231000280F2A3020F02FEB280F2630E0F460ED54
:10232000690F6A3020F02FEB290F2630A0F4282FF8
:1023300030E0813458F42295207F913450F4962F68
:10234000292B2D934F5F5F4F3296D4CF27533109FE
:10235000F2CF9753F5CF50E040E0D5CFE0E6F6E07E
:1023600080E1858382E0868388E085838AE18183BA
:10237000E0EAF9E01682178280EC858388E18483A5
:10238000E0E0F1E0128A8BE6838B148A158A20EA5A
:10239000208F99E0918F128E148E158E168E84E008
:1023A000808B12A23CE633A314A215A210A611A69C
:1023B00012A624A795A716A680A308959A01452BD7
:1023C00009F449C040E14093660643E04093A00908
:1023D0004091A10947FFFCCF4091A0097093A0094B
:1023E0004091A10947FFFCCF4091A0096093A0094B
:1023F0004091A10947FFFCCF4091A00941E04093E3
:10240000120180931C0190931D01209314013093BD
:1024100015011092220186E894E28093280190939E
:1024200029012093240130932501809110018068B7
:102430008093100180912001806880932001809119
:10244000100187FDFCCF80E380931101809321016F
:1024500080E18093650608959A01452B09F469C0CF
:1024600040E14093660646E04093A0094091A109EF
:1024700047FFFCCF4091A00940E140936506000072
:1024800000004093660642E04093A0094091A109F4
:1024900047FFFCCF4091A0097093A0094091A1098A
:1024A00047FFFCCF4091A0096093A0094091A1098A
:1024B00047FFFCCF4091A0091092120146E854E278
:1024C00040931C0150931D0120931401309315017A
:1024D00040E14093220180932801909329012093A9
:1024E00024013093250180911001806880931001B0
:1024F000809120018068809320018091100187FDE8
:10250000FCCF80E3809311018093210180E18093CF
:102510006506E0917231F09173318781863019F44C
:1025200081E180938F2C8681863019F481E180933C
:102530008E2C0895CF92DF92EF92FF92CF93DF938C
:10254000C0907131D12CF12CE12C8DE0CC0CDD1C34
:10255000EE1CFF1C8A95D1F7C114D10481E0E80676
:10256000F10408F04EC080E18093660686E0809317
:10257000A0098091A10987FFFCCF8091A00980E18B
:1025800080936506000000008093660682E08093D9
:10259000A0098091A10987FFFCCF8091A00910922A
:1025A000A0098091A10987FFFCCF8091A00910921A
:1025B000A0098091A10987FFFCCF8FEFE81AF80AE4
:1025C0008091A009C0E0D0E1C701B6017ADA80931A
:1025D000A0098091A10987FFFCCF8091A009909369
:1025E000A0098091A10987FFFCCF8091A00982E01A
:1025F000C80ED11CE11CF11C219731F780E18093BA
:1026000065068091010480FDFCCF82E08093030485
:10261000DF91CF91FF90EF90DF90CF900895CF9210
:10262000DF92EF92FF92CF93DF93C0907131D12C64
:10263000F12CE12C8DE0CC0CDD1CEE1CFF1C8A95EE
:10264000D1F7C114D10481E0E806F10438F0DF913C
:10265000CF91FF90EF90DF90CF906CCF8FEFE81A83
:10266000F80AC1E2D0E0219791F346DAC701B6013A
:102670002FDA42DA8FEFD81AE80AF80AF4CFCF92AD
:10268000DF92EF92FF920F931F93CF93DF93C0904F
:102690007131D12CF12CE12C8DE0CC0CDD1CEE1C29
:1026A000FF1C8A95D1F7C114D10481E0E806F1043A
:1026B00038F580E18093660683E08093A0098091DD
:1026C000A10987FFFCCF8091A0091092A0098091F9
:1026D000A10987FFFCCF8091A0091092A0098091E9
:1026E000A10987FFFCCF8FEFE81AF80A8091A009B3
:1026F00001E210E00150110971F580E18093650657
:10270000E0917231F09173318781863019F490E154
:1027100090938F2C9681963009F045C020E120934C
:102720008E2C853041F483E180938F2C953019F401
:1027300083E180938E2C8091010480FDFCCF82E0A8
:1027400080930304DF91CF911F910F91FF90EF9041
:10275000DF90CF900895D0D9CCD9CED9D0E0C0E0C9
:102760001092A0098091A10987FFFCCF6091A00978
:1027700070E01092A0098091A10987FFFCCF8091A1
:10278000A009782BCE01AAD9B7D92296C11581E02C
:10279000D80731F7C701B601A6D9AED98FEFD81A3D
:1027A000E80AF80AA7CF853009F0C0CFBCCFCF9296
:1027B000DF92EF92FF920F931F936A017B01A901B1
:1027C000C11420E2D206E104F10408F069C070E00F
:1027D00060E000E010E220E030E00C191D092E0955
:1027E0003F09401751076207730708F48A0120E187
:1027F0002093660626E02093A0092091A10927FFD7
:10280000FCCF2091A00920E1209365060000000084
:102810002093660622E02093A0092091A10927FFBA
:10282000FCCF2091A009D092A0092091A10927FFF7
:10283000FCCF2091A009C092A0092091A10927FFF7
:10284000FCCF2091A0091092120126E834E22093D7
:102850001C0130931D01009314011093150120E118
:102860002093220180932801909329010093240151
:102870001093250180911001806880931001809150
:1028800020018068809320018091100187FDFCCF9A
:1028900080E3809311018093210180E1809365069C
:1028A00081E01F910F91FF90EF90DF90CF900895FE
:1028B000CF92DF92EF92FF920F931F936A017B01F9
:1028C000A901C11420E2D206E104F10408F061C0BC
:1028D00070E060E000E010E220E030E00C191D093B
:1028E0002E093F09401751076207730708F48A0150
:1028F00020E12093660623E02093A0092091A109FE
:1029000027FFFCCF2091A009D092A0092091A10916
:1029100027FFFCCF2091A009C092A0092091A10916
:1029200027FFFCCF2091A00921E020931201809382
:102930001C0190931D010093140110931501109236
:10294000220186E894E28093280190932901009364
:10295000240110932501809110018068809310015B
:10296000809120018068809320018091100187FD73
:10297000FCCF80E3809311018093210180E180935B
:10298000650681E01F910F91FF90EF90DF90CF904F
:10299000089580E0F7CF8091CF0187FDFCCF0895A7
:1029A000FADF8091CF0181FF0BC086E38093CA01DB
:1029B00088ED90E021E030E0EBECF1E084BF208393
:1029C0000895EF92FF920F931F93CF93DF93EC0143
:1029D000F62EE72E8A011092C201DDDFCE01800FB4
:1029E000911F26E048ED50E061E070E0EBECF1E093
:1029F000C817D90741F4C801DF91CF911F910F91FA
:102A0000FF90EF900895C093C0013D2F3F71309328
:102A1000C1012093CA0144BF6083AF2DBE2D309108
:102A2000C4013D932196FA2EEB2EE2CF2F923F92D6
:102A30004F925F926F927F928F929F92AF92BF92CE
:102A4000CF92DF92EF92FF920F931F93CF93DF937A
:102A5000EC01462E372E542E652E8F71782EC81B12
:102A6000D1099EDF98DF83E38093CA011092C101F0
:102A70001092C201052D162D88EDC82ED12C882468
:102A80008394912C2BECA22EBB24B39433E3232EFE
:102A900001151105A9F4852D962DDF91CF911F9178
:102AA0000F91FF90EF90DF90CF90BF90AF909F90ED
:102AB0008F907F906F905F904F903F902F900895F0
:102AC0007092C001E42CF32CF70181917F01809377
:102AD000C4010150110921F07394F0E27F1212C079
:102AE000C093C0018D2F8F718093C10195E39093A6
:102AF000CA01C601F50184BF8082A0964CDF2092F6
:102B0000CA01712C4E2C3F2CC3CF1F93CF93DF9360
:102B1000CDB7DEB7A097CDBFDEBF863009F4DAC0EF
:102B2000B8F5833009F48FC068F4813009F465C0CA
:102B3000823009F464C0A096CDBFDEBFDF91CF9193
:102B40001F910895E0916731F0916831843009F068
:102B5000A0C011E080916D31873009F010E0CE0106
:102B60000196199520916D31E1E0F0E0EC0FFD1F29
:102B7000E10FF11D91E0121768F5992331F0808182
:102B800091E0811190E0815080831F5F3196F3CFF7
:102B9000893009F4A3C038F4873009F49DC0883027
:102BA00051F6C8DCC8CF8A3009F4A3C08B3019F6BF
:102BB00084EC93E20E949024BECF4DDBE1E0F0E094
:102BC000EC0FFD1FE10FF11D80831F5F80916D31C0
:102BD000181798F3E0916931F0916A31CE010196AE
:102BE0001995E0916F31F091703140916D31BE01D6
:102BF0006F5F7F4F83E119959ECF10E0E7CF11E023
:102C000080916D31873009F010E0E0916731F091EB
:102C10006831CE010196199520916D31E1E0F0E027
:102C2000EC0FFD1FE10FF11D91E0121798F69923AB
:102C300039F0808191E08F3F09F090E08F5F8083D1
:102C40001F5F3196F2CFE0916731F0916831CE018C
:102C50000196199580916D3141E0815008F4BACF09
:102C60004423D9F3282F30E0E1E0F0E0EC0FFD1F22
:102C7000E20FF31F908141E09F3F09F040E061E0E7
:102C800070E06C0F7D1F260F371F9F5FF901908347
:102C9000E4CFCE010196199580916D3141E08150CC
:102CA00008F498CF4423D9F3282F30E0E1E0F0E096
:102CB000EC0FFD1FE20FF31F908141E0911140E006
:102CC00061E070E06C0F7D1F260F371F9150F901F6
:102CD0009083E5CFAFD32FCFD2DC2DCF80910008EA
:102CE000813049F480918C08833029F40E94412678
:102CF00022CFB4D220CF0E941C261DCFE0E0F6E008
:102D000080E6828388E1868B858B0895CF938091BE
:102D10000806C82FC09586FD1DC0809188248A3082
:102D200070F48F5F80938824C5FF30C08091872422
:102D30008A3008F58F5F80938724CF9108958A3079
:102D400099F7E0917231F09173318181DEDE8091EB
:102D50008824E7CF8C2F807639F7809188248150A2
:102D60008A3030F4E0917231F09173318081CDDEA0
:102D700010928824D9CF8A3001F7E0917231F09116
:102D800073318381C2DE80918724D4CFC076A9F6C7
:102D90008091872481508A3030F4E0917231F09133
:102DA00073318281B2DE10928724C7CFAC019B01C0
:102DB0006CE086ED97E091C4E82FF0E0EF58FE4C10
:102DC00063836787638F67A363AB67AFDF01A55B2F
:102DD000BF4F6C93E95AFF4F608308950F931F9381
:102DE0009B018A01E0917231F0917331E80FF11D7E
:102DF00040816CE086ED97E02ED41F910F910895ED
:102E00000F931F93CF93DF930F92CDB7DEB7082FA9
:102E1000AB019E012F5F3F4F6CE086ED97E034D40D
:102E2000182F882319F06981802FC6DF812F0F901A
:102E3000DF91CF911F910F9108950895FF920F9305
:102E40001F93CF93DF93F62ED72FC42F0EB11FB150
:102E50002091080430910904022B132B682F83E082
:102E600090E20E94D96F6C2F83E090E20E94D96FAC
:102E7000612F83E090E20E94D96F602F83E090E29F
:102E80000E94D96F6C2F70E08F2D9D2FDF91CF9115
:102E90001F910F91FF90AEC408954F925F926F9271
:102EA0007F928F929F92AF92BF92CF92DF92EF92DA
:102EB000FF920F931F93CF93DF938C012A013B0165
:102EC000E901C0900020D0900120C60182509843B3
:102ED000AC0170E060E0441655066606770608F01F
:102EE00073C022E0C21A20E4D20A530142018C0EC0
:102EF0009D1EA11CB11C84169506A606B70608F4F3
:102F000043C09C0124193509C81BD90B7E01E40C70
:102F1000F51CE90199249394C601B0E0A0E0B20148
:102F2000481659066A067B0608F045C06E5F7F4B5F
:102F3000A30192012C0F3D1F411D511D2817390778
:102F40004A075B0728F5AE01C80138DA992051F02D
:102F5000EC0EFD1EF801EE0DFF1DC00FD11FEC178A
:102F6000FD0781F581E0DF91CF911F910F91FF90D7
:102F7000EF90DF90CF90BF90AF909F908F907F9019
:102F80006F905F904F900895F12CE12C912CC4CF5D
:102F90005601A418B508A501C80110DAA2014C1900
:102FA0005D094C0F5D1F6EE874E2C8018A0D9B1D20
:102FB0000E941D72CBCF6C197D0962577B4DAE010B
:102FC000C801F6CF1292CBCF80E0CDCFEEE8F4E28D
:102FD00020918A2430918B248EE89CE2821B930BF3
:102FE000E817F90751F58EE894E280938C249093CA
:102FF0008D2480E098E080938A2490938B2482E053
:1030000090E4809300209093012042E050E060E043
:1030100070E480E090E220DAE0917231F091733157
:1030200087818A3019F480E180938F2C86818A30E1
:1030300019F480E180938E2C08951192D1CF809164
:103040008A2490918B249058209100203091012067
:10305000821B930B08958093783180938431809301
:10306000903180939C318093A8318093B4318093C8
:10307000C0318093CC31813069F0823081F0811190
:1030800008C0109289248DE197E180936F3190936D
:1030900070310895809389248FEA98E1F6CF1092D9
:1030A00089248EE197E1F1CF0F931F93CF93DF93A4
:1030B0000F92CDB7DEB7E0917231F0917331848118
:1030C000CADF8EE894E280938C2490938D2400E0F4
:1030D00018E000938A2410938B2441E050E0BE0155
:1030E0006F5F7F4F80E090E06CDCE0918C24F0918A
:1030F0008D24DF01C8011D920197E9F7898188239A
:10310000B1F042E050E060E070E480E090E256D937
:10311000E0916F31F091703140E070E060E08FEF4E
:1031200019950F90DF91CF911F910F91089582E033
:1031300090E4809300209093012042E050E060E012
:1031400070E480E090E288D981E0898341E050E03A
:10315000BE016F5F7F4F80E090E068DCD9CFCF93F6
:10316000DF93582F8EB19FB1C0910804D09109040C
:1031700020918A2430918B24A42FB0E0FD01349655
:103180002E173F0748F1245031092A1B3B0B20938F
:103190008A2430938B24E0918C24F0918D245083E9
:1031A00041839F012C5F3F4F8C2B9D2B98278927B4
:1031B000982782839383E901415048F42A0F3B1FEB
:1031C00020938C2430938D24DF91CF910895FB01BF
:1031D00081918993BF01F0CF80E03DDFE0917231B2
:1031E000F091733187818A3019F481E180938F2CBB
:1031F00086818A3049F781E180938E2CE5CF1F9339
:10320000CF93DF930F92CDB7DEB7AC019E012F5F56
:103210003F4F63E082E699E037D2182F882311F000
:10322000898119DF812F0F90DF91CF911F91089530
:103230000F931F939C018B01E0917231F0917331D8
:10324000448163E082E699E006D21F910F910895D0
:10325000AC019B0163E082E699E03FC20F931F93AC
:10326000CF93DF9380918A2490918B24811528E05D
:10327000920708F074C00091002010910120C0E076
:10328000D0E8C01BD10B40E058E0481B590BC417D5
:10329000D507A8F1B8018EE894E2DED820918A24FF
:1032A00030918B248091002090910120985F821BA7
:1032B000930B8093002090930120EEE8F4E28EE8D7
:1032C0009CE2821B930B8E179F07B9F48EE894E261
:1032D00080938C2490938D2480E098E080938A24BE
:1032E00090938B2442E050E060E070E480E090E254
:1032F000DF91CF911F910F91AFC81192E4CF20972A
:1033000071F1AE01B8018EE894E2A6D8A801585731
:10331000BE0162577B4D8EE894E20E9426721058DF
:1033200080918C2490918D24080F191F00938C2478
:1033300010938D2480918A2490918B248C0F9D1F53
:1033400080938A2490938B24809100209091012077
:10335000C80FD91FC0930020D0930120C3CFDF91A5
:10336000CF911F910F91089580918924811176CF7B
:10337000089543E650E061E771E381E090E021CBFE
:1033800043E650E061E771E381E090E04FCB0F93BB
:103390001F93CF93DF93D82FCFEFC80F80E0C830B3
:1033A00008F043C00E94942580917131C81769F1DB
:1033B00066D9C09371318CE0C89F90011124C90176
:1033C0008C589E4C80937231909373312F583E4CA1
:1033D000F90180850E94AA10E0917231F091733159
:1033E000848139DEA7D881E090E08C010157114338
:1033F000609171310E94AA7860917231709173313D
:10340000C8018E589E4C0E94B378D15EE091723113
:10341000F09173318781843011F4D0938F2C8681A1
:10342000843011F4D0938E2C81E0DF91CF911F91E5
:103430000F9108958091713199E04CE0915009F419
:103440000895282F30E02F5F3F4F27703327822FBA
:10345000429FF001439FF00D1124EF58FE4C208550
:10346000222361F38F5F93CFFC01809171318F5CD8
:10347000808311820895CF93DC0111968C9111976E
:1034800081110DC0CC91E0916F31F091703141E02C
:10349000BD0182E1199580ED8C0FCF9178CF80E04E
:1034A000CF91089588E180930106089580918E2C34
:1034B000823139F148F4803181F18131F1F0882392
:1034C00091F110928E2C2FC08331F9F090EE980F6D
:1034D0009830B8F79091902C21E0290F911121C0DC
:1034E0009091040693FF15C098E0909306068032F1
:1034F00041F3815080938E2C16C088E0809305069E
:10350000E0CF88E080930706DCCF8091040683FD3E
:1035100004C088E08093050606C088E08093060614
:10352000D0CF2093902C80918F2C823131F140F4B8
:10353000803181F18131E9F0811110928F2C089551
:103540008331F9F090EE980F9830B8F79091912C64
:1035500021E0290F911121C09091040694FF15C01C
:1035600090E190930606803241F3815080938F2C36
:10357000089580E180930506E0CF80E180930706FF
:10358000DCCF8091040684FD04C080E180930506B1
:10359000089580E180930606D0CF2093912C089562
:1035A000AC019B016BE085EC99E097C0E1E7F1E3AA
:1035B00021ED31E3982F907188709111628781110C
:1035C00061873C962E173F07C1F7992329F090E1B8
:1035D0009093060610928F2C882329F088E0809320
:1035E000060610928E2C08950F931F939B018A015B
:1035F000803161F4E0917231F091733147816BE079
:1036000085EC99E028D01F910F9108958830D9F763
:10361000E0917231F09173314681F1CF0F931F9396
:10362000CF93DF930F92CDB7DEB7082FAB019E018A
:103630002F5F3F4F6BE085EC99E026D0182F882351
:1036400019F06981802FB2DF812F0F90DF91CF9128
:103650001F910F9108950F931F93FC01742FC901BF
:10366000A801611102C080E00AC0249161502713B3
:1036700009C0BF016F5F7F4F0E94017281E01F91FF
:103680000F910895B196EDCFDF92EF92FF920F93D5
:103690001F93CF93DF93EC01162F042FD52E7901C2
:1036A000111102C080E00FC0BE016F5F7F4F802FFD
:1036B0009D2D0E94F8711150892B69F4FE01C4916F
:1036C000F701C08381E0DF91CF911F910F91FF90AF
:1036D000EF90DF900895A196E3CFDA01A90101965A
:1036E0003CE2611104C0452B09F01C920895FC01D5
:1036F0002491211109C0623020F041155105B1F328
:103700003D9361508196EDCF4115510579F32D938D
:10371000319641505109ECCFCF93DF9300D00F92F7
:10372000CDB7DEB78091200280688093200280911F
:10373000230280FFFCCF81E080932302A09110023E
:10374000B0911102E0917231F0917331AE5BB10929
:10375000B7FF02C0B0E0A0E020E038EB4BE050E063
:103760000E945C7169837A838B839C8397818681B5
:103770002B813C81243F3140C0F4973019F490E113
:1037800090938F2C873019F480E180938E2C809158
:103790006D318823A1F0E0915F31F0916031249682
:1037A000CDBFDEBFDF91CF911994973019F491E12D
:1037B00090938F2C873019F481E180938E2C24967E
:1037C000CDBFDEBFDF91CF910895BC0183E090E2D1
:1037D0000C948F6FCF93DF93EC01FE0164912196DF
:1037E000611103C0DF91CF91089583E090E20E94C0
:1037F000D96FF3CFAB01BC0183E090E20C94B36FBF
:1038000080E2809362060895CF93DF938091922C9B
:10381000823031F583E090E20E9444700E943E6B5A
:1038200083E090E20E945F70EC0197FD19C0E09187
:103830007231F09173318781833019F483E1809381
:103840008F2C8681833019F483E180938E2C8C2F0A
:1038500090D6811105C08C2FDF91CF910C94B224AA
:10386000DF91CF9108958091922C823021F168F4FC
:10387000811114C08091680685FF09C08FE0809394
:10388000022081E08093922C02C08330E9F0809185
:10389000922C823039F5BDD70C945C2580910220A2
:1038A0008150809302208111F2CF0E945B100E9410
:1038B000BC6E82E0E7CF8091680685FDE8CF8FE09F
:1038C0008093022083E0DECF80910220815080939C
:1038D00002208111DCCF0E94816E0E94891010921B
:1038E000922CD5CF0895E0917231F0917331878198
:1038F000823019F481E180938F2C8681823019F413
:1039000081E180938E2C0895E0917231F0917331B2
:103910008781823019F480E180938F2C86818230F8
:1039200019F480E180938E2C089583E090E20C944A
:103930006A6F83E090E20C94AF7026EC3CE03F931A
:103940002F9320EC3CE03F932F9329EB3CE03F93F7
:103950002F9322EB3CE03F932F9322E13CE03F93F7
:103960002F9322E02F931F929F938F930E94867232
:103970008DB79EB70E968DBF9EBF85E6089560E019
:1039800072E00E94E11085E60895FB0120812F334B
:1039900049F42181211106C060E072E00E942311E8
:1039A00085E60895CF010E94F210882371F0E0911E
:1039B0007231F0917331CF018F5F9F4F65818C56CB
:1039C00091430E94AA7884E608958AEC0895EF92C4
:1039D000FF920F931F93CF93DF93CDB7DEB7A097DE
:1039E000CDBFDEBF8C0180916D31E82EF12C8111AD
:1039F0001CC08AE09CE09F938F9382E08F931F927C
:103A00001F930F930E9486720F900F900F900F904C
:103A10000F900F9085E6A096CDBFDEBFDF91CF91CE
:103A20001F910F91FF90EF900895E0916731F09111
:103A30006831CE01019619959701AE014F5F5F4F36
:103A400060E072E0C8010E944611E4CFDF92EF927D
:103A5000FF920F931F93CF93DF93CDB7DEB7A0975D
:103A6000CDBFDEBF7B01D0906D3163E07CE0C7014C
:103A70000E94F8718E010F5F1F4F892B31F578017D
:103A80008E2D801B8D15D8F0E0916931F0916A314F
:103A9000C8011995E0916F31F091703140916D310D
:103AA000B80183E1199584E6A096CDBFDEBFDF9112
:103AB000CF911F910F91FF90EF90DF9008950E949A
:103AC0002B11F70181937F01DBCFA70160E270E04A
:103AD000C8010E947311D8161906B1F28AECE4CF1E
:103AE000FC0180916E31882329F081E3808311826B
:103AF00085E6089580E3FACFFB012181211127C0DB
:103B00002081213329F481E080936E3184E6089589
:103B1000203319F410926E31F9CF2F33C1F41F9274
:103B200020E32F931F9221E32F932DEF3BE03F9350
:103B30002F9322E02F931F929F938F930E94867260
:103B40008DB79EB70A968DBF9EBF85E608958AEC15
:103B5000089587ED93E1DBD48EE6089588E594E13E
:103B6000F2D48EE60895E0ECF4E081818E7F8183CB
:103B70000E94816E0E944F1084E60895E0ECF4E00C
:103B800081818E7F81830E94816E0E94551084E620
:103B90000895E7E5F1E325892F9324892F932AEFF0
:103BA0003BE03F932F9322E02F931F929F938F939D
:103BB0000E9486728DB79EB708968DBF9EBF85E620
:103BC000089520916D311F922F9327EF3BE03F9393
:103BD0002F9322E02F931F929F938F930E948672C0
:103BE0008DB79EB708968DBF9EBF85E60895BC0130
:103BF00040E052E080E0F2D885E60895FB012081A4
:103C00002F3341F42181211105C060E072E0CED84C
:103C100085E60895BF0180E0F3D8882319F0B0DB72
:103C200084E608958AEC0895BC0140E052E081E00A
:103C3000D5D885E60895FB0120812F3341F42181F9
:103C4000211105C060E072E0B1D885E60895BF019A
:103C500081E0D6D8882319F093DB84E608958AECB6
:103C60000895BC0140E052E082E0B8D885E60895AE
:103C7000FB0120812F3341F42181211105C060E037
:103C800072E094D885E60895BF0182E0B9D8882310
:103C900019F076DB84E608958AEC0895BC0140E0D3
:103CA00052E083E09BD885E60895FB0120812F3305
:103CB00041F42181211105C060E072E077D885E6EA
:103CC0000895BF0183E09CD8882319F059DB84E66E
:103CD00008958AEC0895BC0140E052E080E184DC64
:103CE00085E60895FB0120812F3341F421812111C4
:103CF00005C060E072E054DC85E60895BF0180E114
:103D00008DDC882319F03CDB84E608958AEC089565
:103D1000BC0140E052E088E067DC85E60895FB01E5
:103D200020812F3341F42181211105C060E072E030
:103D300037DC85E60895BF0188E070DC882319F040
:103D40001FDB84E608958AEC089560E072E070DA83
:103D500085E60895FB0120812F3341F42181211153
:103D600005C060E072E074DA85E60895CF0147DAB5
:103D7000882319F005DB84E608958AEC0895CF9333
:103D8000DF93EC015CD99C01811548E0940710F4A5
:103D900020E038E038503F932F939F938F9387ED27
:103DA0009BE09F938F9382E08F931F92DF93CF933B
:103DB0000E9486728DB79EB70A968DBF9EBF85E61C
:103DC000DF91CF9108958DE497E1BDD38EE60895FC
:103DD00045DA84E60895FAD884E6089560E072E052
:103DE00043DB85E60895CB0146DB811102C08AECF6
:103DF000089584E608950E940F1384E608950E94B2
:103E00003F1384E608950E949A1284E608959091E3
:103E10006806917089E7891B0895DF92EF92FF92FF
:103E20000F931F93CF93DF93EC010FEF11E089E025
:103E3000E82E8EE0F82E9CE2D92EB70184E894E2B9
:103E40000E94F871892B19F00115110509F52197C8
:103E5000188285E6DF91CF911F910F91FF90EF902F
:103E6000DF900895488331968901EC014491CE0199
:103E70000196980121503109442319F001301105B0
:103E800089F7D882890128E1E20EF11CEC01D5CF37
:103E9000F701ECCFCF93DF9300D00F92CDB7DEB711
:103EA000FC0180912002806880932002809123028F
:103EB00080FFFCCF81E080932302A0911002B0919B
:103EC0001102AE5BB109B7FF02C0B0E0A0E020E094
:103ED00038EB4BE050E00E945C7169837A838B83FE
:103EE0009C83AC01662777275F934F9380ED9BE01F
:103EF0009F938F9382E08F931F92FF93EF930E9483
:103F00008672CDBFDEBF85E62496CDBFDEBFDF91D2
:103F1000CF9108952EB13FB140910804509109040A
:103F2000242B352B3F932F932AEC3BE03F932F9389
:103F300022E02F931F929F938F930E9486728DB7DA
:103F40009EB708968DBF9EBF85E608950F931F9379
:103F5000CF93DF930F920F92CDB7DEB78B01E09135
:103F60007231F091733185818D3009F077C0E09125
:103F70005F31F0916031199581E08093F62C60E219
:103F800070E0C8010E943E729C01892BC1F5F801C6
:103F900001900020E9F73197E01BF10BE0FD5CC0D8
:103FA000F695E795E130F10501F587E090E0809323
:103FB0005531909356316091553170915631695F0A
:103FC0007F4F83E0769567958A95E1F7A80185E5AF
:103FD00090E30E9473110E94BE2E8FEF0F900F90FE
:103FE000DF91CF911F910F91089553E0EE0FFF1FC6
:103FF0005A95E1F7E0935531F0935631DCCFC80183
:1040000004962817390741F5A80162E070E0CE0157
:1040100001960E947311898190E0982F88272A8148
:10402000820F911D80935531909356310B5F1F4F36
:10403000F80101900020E9F73197E01BF10BE0FD5A
:104040000BC0F695E79533E0EE0FFF1F3A95E1F7C9
:10405000E817F90708F0AFCF8AECC0CF89ECBECFE4
:10406000EF92FF920F931F93CF93DF930F920F92D4
:10407000CDB7DEB78B01E0917231F091733185815C
:104080008D3009F08CC0E0915F31F091603119956D
:1040900082E08093F62C60E270E0C8010E943E72DC
:1040A0007C01892B09F041C0F80101900020E9F75B
:1040B0003197E01BF10BE0FD70C0F695E795E1301C
:1040C000F10511F587E090E08093553190935631DA
:1040D0006091553170915631695F7F4F83E07695DD
:1040E00067958A95E1F7A80185E590E30E94731131
:1040F0000E94BE2E8FEF0F900F90DF91CF911F91F6
:104100000F91FF90EF90089553E0EE0FFF1F5A9527
:10411000E1F7CF0169E070E00E944871E81BF90BFC
:10412000E0935531F0935631D3CFC8010496E81689
:10413000F90699F5A80162E070E0CE0101960E94AF
:1041400073118981282F30E0322F22278A81820F34
:10415000932F911D8093553190935631873091055F
:1041600029F09C0127703327232BB9F487010F5FB7
:104170001F4FF80101900020E9F73197E01BF10B88
:10418000E0FD0BC0F695E79533E0EE0FFF1F3A9583
:10419000E1F7E817F90708F09BCF8AECACCF89EC80
:1041A000AACFE0917231F091733185818D30A1F405
:1041B000E0915F31F0916031199585E08093F62CA4
:1041C0000E94184E0E94BE2E82E29EE48093A12C93
:1041D0009093A22C8FEF089589EC0895E0917231AD
:1041E000F091733185818D30A1F4E0915F31F091D0
:1041F0006031199583E08093F62C0E94184E0E943E
:10420000BE2E82E29EE48093A12C9093A22C8FEF8D
:10421000089589EC0895E0917231F09173318581B0
:104220008D30A1F4E0915F31F0916031199586E015
:104230008093F62C0E94184E0E94BE2E82E29EE4CD
:104240008093A12C9093A22C8FEF089589EC089570
:10425000E0917231F09173314085518564E6649F3D
:104260009001659F300D11243F932F9324EC3BE088
:104270003F932F9322E02F931F929F938F930E943F
:1042800086728DB79EB708968DBF9EBF85E608954E
:10429000CF93DF930F920F92CDB7DEB7FB01208152
:1042A0002F33D1F42181211117C022E93BE03F9344
:1042B0002F9322E02F931F929F938F930E948672D9
:1042C0000F900F900F900F900F900F9085E60F902A
:1042D0000F90DF91CF91089589E592E089839A83C9
:1042E000CE0101969F938F938EE89BE09F938F93CF
:1042F000FF93EF930E94BC720F900F900F900F905E
:104300000F900F90892BA9F069817A81693582E03D
:10431000780778F4E0917231F0917331608771879A
:10432000CF018F5F9F4F895691430E94B37884E6F7
:10433000CECF8AECCCCFE0917231F09173312385EE
:104340002F9322852F932BE83BE03F932F9322E07E
:104350002F931F929F938F930E9486728DB79EB763
:1043600008968DBF9EBF85E60895CF93DF930F9289
:104370000F92CDB7DEB7FB0120812F33D1F421811D
:10438000211117C02FE02F932FEF2F932AE33BE04B
:104390003F932F9322E02F931F929F938F930E941E
:1043A0008672CDBFDEBF85E60F900F90DF91CF9173
:1043B000089519821A82CE0101969F938F9386E306
:1043C0009BE09F938F93FF93EF930E94BC720F909B
:1043D0000F900F900F900F900F90892BC9F069816B
:1043E0007A81611590E1790798F4609338037093AE
:1043F0003903E0917231F091733162877387CF0195
:104400008F5F9F4F875691430E94B37884E6CCCF4D
:104410008AECCACFFB0120812F33D9F421812111ED
:1044200021C01F9220E32F931F9221E32F9320E3BB
:104430003BE03F932F9322E02F931F929F938F9304
:104440000E9486728DB79EB70A968DBF9EBF85E685
:104450000895213319F4F0D384E60895203311F43C
:1044600010D4FACF8AEC0895FC01809100088130C5
:1044700021F480918C08833029F080E380831182BD
:1044800085E6089581E3FACFE0917231F0917331BE
:1044900085818D30A1F4E0915F31F0916031199503
:1044A00084E08093F62C0E94184E0E94BE2E82E279
:1044B0009EE48093A12C9093A22C8FEF08958C30D2
:1044C00069F4E0915F31F0916031199581E080935A
:1044D000D42D0E94DF5584EF95E5EBCF89EC08954C
:1044E0008DE00E94AA10E0915F31F0916031199542
:1044F00087E08093F62C0E94184E0E94BE2E82E226
:104500009EE48093A12C9093A22C8FEF08959C01A0
:1045100091E09093A02C90939F2C8CE380939D2C02
:1045200085E090E080939B2C90939C2C1092952C8E
:104530001092962C1092972C1092982C2093932CDA
:104540003093942C089527E02093A02C2CE231E0A6
:1045500020939B2C30939C2C1092952C1092962C8F
:104560001092972C1092982C8093932C9093942CCB
:104570000895CF939091A02C963009F4B7C0A0F481
:10458000943009F48DC0953009F49CC0933030F418
:1045900091116CC0C0E08C2FCF9108959330D1F76A
:1045A00080939E2C84E069C0983009F4FBC0993058
:1045B00009F46DC0973071F7853109F0F0C01092A1
:1045C0009F2C80919F2C8F5F80939F2C4091952CE6
:1045D0005091962C6091972C7091982CE091932C8F
:1045E000F091942C20E830E084ED91E31995C82FE8
:1045F000882309F407C161E083E090E20E94D96F4B
:1046000060919F2C83E090E20E94D96F60919F2C73
:10461000609583E090E20E94D96F60E870E084EDDD
:1046200091E3E8D860E084ED91E3FC0101962081FC
:10463000620F52E384359507C1F783E090E20E9450
:10464000D96F8091952C9091962CA091972CB09138
:10465000982C80589F4FAF4FBF4F8093952C9093CD
:10466000962CA093972CB093982C95CF813041F441
:104670001092992C10929A2C83E08093A02C0EC05B
:10468000843041F466E083E090E20E94D96F10929A
:10469000A02C04C08831D9F38B31C9F3C1E07BCFA2
:1046A00090919E2C2FEF30E0291B310982171306C1
:1046B00011F485E0E2CF65E183E090E20E94D96FDA
:1046C00082E0DBCF2091992C30919A2CA9014F5F89
:1046D0005F4F4093992C50939A2C2C523E4CF901E9
:1046E000808386E040385105C9F6C7CF20919E2CC3
:1046F00090919F2C29134BC090E024ED31E3F901F8
:104700002F5F3F4F4081940FF2E324353F07B9F705
:104710008913D1CF4091952C5091962C6091972C74
:104720007091982CE091932CF091942C20E830E03B
:1047300084ED91E31995C82F882311F180919F2C66
:104740008F5F80939F2C8091952C9091962CA091B7
:10475000972CB091982C80589F4FAF4FBF4F8093AC
:10476000952C9093962CA093972CB093982C66E060
:1047700083E090E20E94D96F82E08093A02C0BCF5F
:1047800068E183E090E20E94D96F68E17CCF492F15
:104790004150550B24171506C1F766E08DCF8B31BC
:1047A00009F475CF883109F46DCF863009F409CF4B
:1047B000853109F073CF61E083E090E20E94D96F08
:1047C00060919F2C83E090E20E94D96F60919F2CB2
:1047D000609583E090E20E94D96F60E870E084ED1C
:1047E00091E308D860E084ED91E3FC01019620811B
:1047F000620FE2E384359E07C1F783E090E20E94F6
:10480000D96F4CCF64E083E090E20E94D96F89E0D9
:1048100034CF8091A02C813019F0873029F1089590
:1048200080919B2C90919C2C9C01215031092093CC
:104830009B2C30939C2C892B31F580919D2C9FEFE4
:10484000980F90939D2C882361F065E183E090E2BE
:104850000E94D96F85E090E080939B2C90939C2CD4
:1048600008951092A02CF6CF80919B2C90919C2CB7
:104870009C012150310920939B2C30939C2C892B37
:1048800011F41092A02C0895282F90E080E0FC01F4
:10489000E052F34FE491E21303C08F51934F089518
:1048A0008196893231E0930791F790E080E0089596
:1048B000FC01862FBA018F33E1F47696259134916D
:1048C0002115310559F184ED91E3F90119958F3FD7
:1048D00031F591E09093A52C2EB13FB140910804A1
:1048E00050910904242B352B2093A32C3093A42C16
:1048F00008958D3359F4749625913491211531051D
:1049000069F084ED91E3F9011995E1CF811102C0BD
:104910007096D4CF803211F47296EECF89EC089560
:104920000F931F93CF93DF93182F092FC9E0DEE079
:10493000BE01812F902F0E94F871892B49F450E01D
:1049400040E060E0CE01DF91CF911F910F91B0CF99
:10495000689682E1C13DD80759F7DF91CF911F9149
:104960000F910895EF92FF920F931F93CF93DF93D0
:104970009FE9980F2FEB280F2A3148F19A3148F11F
:1049800090ED980F9A3040F08F3531F0982F9D7F41
:104990009D3311F08032F9F42091A62C3091A72C90
:1049A0002F3F91E0390758F4A9014F5F5F4F4093C3
:1049B000A62C5093A72C2C523E4CF901808381E009
:1049C000DF91CF911F910F91FF90EF9008959A3151
:1049D00018F78052E1CF8D3009F057C0E091A62C36
:1049E000F091A72CEC52FE4C10821092A62C109243
:1049F000A72C0091A52C0111E2CF8091D431982FE2
:104A00009F7DB9F488EC40DF0E94EA1B8DED9CE0AD
:104A10000E94EA1B002399F28091D431882379F215
:104A200084ED91E30E94E51B8AED9CE00E94EA1B65
:104A3000C6CF8D7F8D3331F3E4EDF1E37F0111912A
:104A4000112331F01F3321F01D3311F01032B1F773
:104A5000F7011082C9E0DEE0BE0184ED91E30E941F
:104A6000F871892B61F41092D431A7014F5F5F4F29
:104A7000612FCE011DDF01E08F3F29F6A0CF6896A0
:104A8000F2E1C13DDF0741F7BDCF883069F4809185
:104A9000A62C9091A72C009709F491CF01978093B1
:104AA000A62C9093A72C8BCF8B3109F088CF109236
:104AB000A62C1092A72C83CF8091A52C882399F146
:104AC000E0917231F09173312085318521153105E6
:104AD00051F18EB19FB14091080450910904842B8B
:104AE000952B4091A32C5091A42C841B950B64E62C
:104AF00070E00E94487162177307A8F01092A52C0D
:104B00008BECC2DE0E94EA1B87ED9CE00E94EA1B50
:104B1000E091A12CF091A22C309729F019951092D8
:104B2000A12C1092A22C08958091A52C8823A9F085
:104B30001092A52C8BECA8DE0E94EA1B87ED9CE06E
:104B40000E94EA1BE091A12CF091A22C309729F051
:104B500019951092A12C1092A22C0895CF93DF9357
:104B6000EB019091A52C9923A1F01092A52C8CDE3D
:104B70000E94EA1B84ED9CE00E94EA1B209749F00A
:104B8000CE010E94E51B81ED9CE0DF91CF910C945A
:104B9000EA1BDF91CF910895EF92FF921F93CF937D
:104BA000DF937C01EB019B016130714010F020E04C
:104BB00031E0C21BD30BA70160E072E084ED91E30A
:104BC0000E94461184ED91E30E94E51B11E0C13083
:104BD00081E0D807E0F4209789F0412F50E0542F6E
:104BE00044274E0D5F1D9E0160E072E084ED91E36D
:104BF0000E94461184ED91E30E94E51B8EEC9CE03F
:104C0000DF91CF911F91FF90EF900C94EA1BDA9502
:104C1000412F50E0542F44274E0D5F1D20E032E01D
:104C200060E072E084ED91E30E94461184ED91E32F
:104C30000E94E51B1F5FCBCF809100088130E1F41B
:104C400080918C088330C1F4089581E0809300083E
:104C500093E090938C088093A82C1092A92C8EB18D
:104C60009FB12091080430910904822B932B8093EB
:104C7000AF2C9093B02C08958091AA2C882329F30F
:104C8000089510928C0810920008E8EAFCE2108265
:104C9000118208952091A82C2223F1F08091A92C53
:104CA000811115C08091A82C8823C9F08EB19FB1C5
:104CB0004091080450910904842B952B4091AF2C0E
:104CC0005091B02C841B950B8634910538F081E00F
:104CD0008093A92C822F089581E0089580E00895A3
:104CE000CF93C091AA2CCC23C1F08EB19FB120915B
:104CF000080430910904822B932B2091AD2C309124
:104D0000AE2C821B930B2091AB2C3091AC2C8217D4
:104D1000930718F01092AA2C8FDF8C2FCF91089553
:104D2000E0917231F09173318287938780933803D9
:104D3000909339030895E0917231F0917331828537
:104D400093854096828793878093380390933903A5
:104D5000828593850895E0917231F091733180E9F5
:104D600091E0828793878093380390933903089565
:104D7000A0E2B6E081E015968C93159724ED33E31D
:104D800028B939B924E534E32AB93BB910B813B8C6
:104D900012B816B817B811B8E0E0F9E010A211A2E5
:104DA0002FEF30E026A337A32FEF3FEF20A731A747
:104DB000808398E8938390E1948793E097831C968F
:104DC0008C931C9782E01A968C9308951F921FB6BD
:104DD0001F9211248F9388B78F9318BE8BB78F9330
:104DE0001BBE9F93EF93FF93E0E0F9E013828FE700
:104DF00090E086AB97AB81E190E080AF91AFE0E0CF
:104E0000FAE010A211A28FEF9FEF86A397A389E883
:104E10008383168281E084878EE0808310922A0645
:104E2000FF91EF919F918F918BBF8F9188BF8F9151
:104E30001F901FBE1F9018951F921FB61F9211241E
:104E40002F9328B72F9318BE2BB72F931BBE3F93DA
:104E50008F939F93EF93FF939091280683B1967061
:104E600021E009F020E0880F822B83B982B18823EA
:104E700009F476C012B883B187708730D9F51092E3
:104E8000000980E180930C091092030A1B9B2DC03E
:104E90008CEA94E08093260A9093270A82E081B9F5
:104EA00081E080930C0A83E08093060A86B197B173
:104EB000877039F090B18F5F8930D1F4E8B1F9B1E2
:104EC000908381E08093B12C88E880930309FF915F
:104ED000EF919F918F913F912F912BBF2F9128BFE1
:104EE0002F911F901FBE1F9018958CE694E0D2CF93
:104EF0009695E1CF93B1892F8C7031F3947081B185
:104F000081111EC080B186959923C1F090E0892B54
:104F100080B926B137B12F5F3F4F26B937B9277017
:104F20003327232B89F6E8B1F9B19F012F5F3F4F5B
:104F300028B939B9808381E081B9C6CF90E8E7CF3D
:104F400081B1813009F0C0CFEAB1FBB19F012F5F81
:104F50003F4F2AB93BB9911180E0808311B8B4CF9B
:104F600082B1809582B9B0CF1F920F920FB60F9287
:104F7000112408B60F9218BE0BB60F921BBE2F93CA
:104F80003F938F939F93EF93FF9381B1823098F07B
:104F900081B18D3080F4E1B1F0E0EE0FFF1FE85DEC
:104FA000FF4D0190F081E02D19948FE790E0809300
:104FB000260A9093270AFF91EF919F918F913F913D
:104FC0002F910F900BBE0F9008BE0F900FBE0F9049
:104FD0001F9018958E9A8EE0809340088FE390E0A2
:104FE0008093260A9093270A85E081B9E4CF8E98B2
:104FF00086E081B98FEF82B914B815B8E8B1F9B17C
:10500000808180B9D8CF009B06C08E9A82B18095EE
:1050100082B987E0EACF8E98FCCF009B11C08E98B2
:1050200080B1869580B984B195B1019684B995B95E
:1050300084B195B187709927892B21F488E0D5CF69
:105040008E9AEECF24B135B186B197B128173907C2
:1050500051F58AE0CACFEAB1FBB1309731F08081D7
:10506000882329F08E9A89E0C0CF82B1F9CF8E983B
:10507000FACFEAB1FBB13097D1F080818823A9F053
:105080008E983196EAB9FBB924B135B186B197B1A2
:1050900028173907F1F2E8B1F9B1CF01019688B9C3
:1050A00099B9818180B986E0A0CF8E9AEACF82B18A
:1050B000882321F08E988FEF82B9E6CF8E9AFBCFAE
:1050C0008E988BE092CF8E988CE08FCF1092000A52
:1050D0001092060A109240081092410881E08093D5
:1050E000B22C69CFCF93DF93E1EBFCE21082118207
:1050F000E0E4F6E0128A84E08283C0E8D1E082E650
:105100008E83A0E2B6E081E016968C9316971196F6
:105110008C93119796E012969C93129751968C93CC
:10512000519732E052963C9352971A961C921A97D6
:105130001B961C921B979FE019969C9399E5988368
:105140002AE529839A8390E491839683A0EBB0E0CB
:1051500012962C911297207F12962C9312971296EA
:105160002C911297226012962C9320E321832683A0
:10517000908B8683358383E08183E0E0F8E083E1F0
:10518000818321E030E026A337A320A731A7E0E800
:10519000F8E014868083E0E2F3E01382118288E075
:1051A000828391E19083A0917231B09173311A960C
:1051B0002D913C91208F318FE0E8F3E09CE39283C6
:1051C000808393838183DF91CF91D2CDA0E2B6E03B
:1051D0001A961C921A97E1EBFCE210821182E0E031
:1051E000F9E010821382178280E18487E0E0FAE020
:1051F00010821382168281E08487E0E4F8E0108256
:10520000118216968C938E980895CF93DF93809198
:10521000B12C882309F476C01092B12CC6B1D7B155
:10522000C730D10508F47AC0AE01495F5F4F93E003
:10523000569547959A95E1F7E0916F31F09170316D
:1052400064ED73E380E41995E0917231F09173316C
:105250008781883019F483E180938F2C8681883090
:1052600019F483E180938E2CE0916531F0916631E1
:10527000BE0184ED93E31995EC0194FF4CC0DF7EF1
:1052800084E594E38AB99BB9209709F447C0AE013D
:10529000495F5F4F83E0569547958A95E1F7E09126
:1052A0006F31F091703164ED73E381E41995E09111
:1052B0007231F09173318781893019F483E18093E1
:1052C0008F2C8681893019F483E180938E2CC6B9A6
:1052D000D7B984ED93E388B999B910926008109218
:1052E00061088FE090E0809366089093670888E0FB
:1052F00090E080936A0890936B0883E28093410862
:1053000083E081B98091B22C882371F01092B22C85
:10531000DF91CF912DCD1AB81BB8B6CF1092000AED
:105320001092060A25DDEECFDF91CF910895CF933D
:10533000DF93E0E4F6E0128A84E08283C0E8D1E003
:1053400082E68E83A0E2B6E081E016968C931697F3
:1053500011968C93119796E012969C931297519602
:105360008C93519732E052963C9352971A961C9226
:105370001A971B961C921B979FE019969C9319975E
:1053800099E598832AE529839A8390E4918396830B
:10539000C0EBD0E02A81207F2A832A8122602A83E1
:1053A00020E321832683908B8683358393E091834A
:1053B000E0E0F8E093E1918321E030E026A337A319
:1053C00020A731A7E0E8F8E014869083E0E2F3E05C
:1053D0001382118298E0928321E12083C09172317F
:1053E000D09173312A853B85208F318FE0E8F3E03F
:1053F0002CE3228390832383918315968C93E0E0A2
:10540000F9E02FEF30E026A337A312A613A614A6C7
:1054100015A610821682178280831092000A1092BD
:10542000B32CE6EBFCE2108212821182DF91CF9165
:10543000089581E08093260624DCE0E0F9E0108204
:105440001782E0E0FAE010821782E6EBFCE21182BC
:105450001282108208951F921FB61F9211242F935B
:1054600028B72F9318BE2BB72F931BBE3F938F9354
:105470009F93EF93FF93E0E0F9E080E48487178245
:10548000E0E8F3E082E0878389EB818384ED93E3B6
:105490008AB99BB981E090E084B995B916B88EB10C
:1054A0009FB12091080430910904822B932B8093A3
:1054B000B42C9093B52C81E08093B82C18B817B811
:1054C0001092B32C88E080938706FF91EF919F9113
:1054D0008F913F912F912BBF2F9128BF2F911F901C
:1054E0001FBE1F901895E0E0F9E08FEF94E086A3CF
:1054F00097A380E6848780E387838FEF90E086AB75
:1055000097AB88E08093870608951F921FB61F927D
:1055100011242F9328B72F9318BE2BB72F931BBEA0
:105520003F934F935F938F939F93EF93FF931092CB
:10553000070A1092000A10924709109240098091C0
:1055400081038E7F8093810384B195B180FF16C063
:10555000379B5EC086B1869586B984B195B10196B8
:1055600084B995B987709927892B41F4EAB1FBB1C9
:10557000CF0101968AB99BB986B1808384B195B178
:1055800087709927892BC9F086B144B155B1E4B130
:10559000F5B193E0F695E7959A95E1F7EC52FC4C5E
:1055A00090E04770552728E030E0241B350B02C0FF
:1055B000959587952A95E2F7808381E08093B72CB3
:1055C0001092B82C8FEF9FEF8093260A9093270AB2
:1055D0001092200A1092210A1092060A1092070ACD
:1055E0001092030A84E08093000A83E08093B32C36
:1055F000FF91EF919F918F915F914F913F912F91EB
:105600002BBF2F9128BF2F911F901FBE1F90189561
:1056100086B186958068A0CF1F921FB61F92112475
:105620008F9388B78F9318BE8BB78F931BBEEF9362
:10563000FF93E0E8F3E081818F7C8183E0E0FAE092
:1056400088E8838381E08083FF91EF918F918BBF06
:105650008F9188BF8F911F901FBE1F9018951F922A
:105660001FB61F9211248F9388B78F9318BE8BB7E4
:105670008F931BBE9F93EF93FF93809160091092CD
:1056800060091092610993E0909340098135B8F563
:10569000813348F186B18695806886B984B195B129
:1056A000019684B995B987709927892B41F4EAB19D
:1056B000FBB1CF0101968AB99BB986B1808386B1CF
:1056C000869586B984B195B1019684B995B98770EC
:1056D0009927892B41F4EAB1FBB1CF0101968AB930
:1056E0009BB986B18083FF91EF919F918F918BBF82
:1056F0008F9188BF8F911F901FBE1F901895815565
:10570000803268F186B18695806886B984B195B19A
:10571000019684B995B987709927892B41F4EAB12C
:10572000FBB1CF0101968AB99BB986B1808386B15E
:105730008695806886B984B195B1019684B995B98A
:1057400087709927892B41F4EAB1FBB1CF0101960B
:105750008AB99BB986B1808386B186959ECF84B184
:1057600095B180FFE4CF86B18695806886B984B113
:1057700095B1019684B995B987709927892B09F05D
:1057800089CFEAB1FBB1CF0101968AB99BB986B145
:10579000808380CF0F931F93CF93DF93CDB7DEB776
:1057A000DA95CDBFDEBF8091B82C882309F47FC085
:1057B0008EB19FB140910804509109042091B42CFE
:1057C0003091B52C842B952B821B930B20911E209E
:1057D00030911F202F5F3F4F2817390708F067C00F
:1057E0001092070A1092000A10924709109240097D
:1057F000809181038E7F8093810384B195B180FF76
:1058000016C0379BA1C186B1869586B984B195B182
:10581000019684B995B987709927892B41F4EAB12B
:10582000FBB1CF0101968AB99BB986B1808384B15F
:1058300095B187709927892BC9F086B144B155B1CC
:10584000E4B1F5B113E0F695E7951A95E1F7EC525E
:10585000FC4C90E04770552728E030E0241B350BC6
:1058600002C0959587952A95E2F7808381E0809321
:10587000B72C1092B82C2FEF3FEF2093260A3093CD
:10588000270A1092200A1092210A1092060A1092FA
:10589000070A1092030A94E09093000A93E0909311
:1058A000B32C14B815B88093B72C1092B82C18DA12
:1058B000811142C1EFD9882309F43EC18091B82CEF
:1058C00081113AC18091B62C811105C08091B72C0D
:1058D000882309F431C18091B32C833041F4809145
:1058E000200A9091210A8532914008F425C18091C7
:1058F000B72C882359F084B195B1892B39F084B144
:1059000095B1089708F024C114B815B81092B62CB8
:105910001092B72C64B175B1E0916531F0916631A8
:1059200084ED93E3199584B995B984B195B1892B28
:1059300009F402C189E8809381031092000A109251
:10594000200A1092210A2FEF3FEF2093260A30936E
:10595000270A8FE590E08093280A9093290A1092F5
:10596000060A80E180930C0A93E09093070A109254
:10597000600910926109209366093093670920EA53
:1059800030E02093680930936909109246098093AA
:105990004C0981E08093470981E180938001109256
:1059A00088011092800310922906E0917231F091E3
:1059B00073318781893019F483E180938F2C86813C
:1059C000893019F483E180938E2C44B155B1495F3D
:1059D0005F4F33E0569547953A95E1F7E0916F3187
:1059E000F091703164ED73E383E4199504B115B15E
:1059F000013094E0190708F08FC014B815B8A80159
:105A0000495F5F4F23E0569547952A95E1F764ED8E
:105A100073E384E594E30E941D7284ED93E38AB9F5
:105A20009BB986B18695806886B984B195B1019697
:105A300084B995B987709927892B39F485ED93E35B
:105A40008AB99BB986B18093D43386B1869586B9DD
:105A500084B195B1019684B995B987709927892B3E
:105A600041F4EAB1FBB1CF0101968AB99BB986B185
:105A7000808380E021E030E0E4E5F4E302171307DF
:105A800008F0FCC0811129C086B18695806886B96E
:105A900084B195B1019684B995B987709927892BFE
:105AA00041F4EAB1FBB1CF0101968AB99BB986B145
:105AB000808386B1869586B984B195B1019684B903
:105AC00095B987709927892B41F4EAB1FBB1CF01D1
:105AD00001968AB99BB986B1808384B195B18770EC
